{"abi":[{"type":"constructor","inputs":[{"name":"_usdc","type":"address","internalType":"address"},{"name":"_agent","type":"address","internalType":"address"},{"name":"_oracle","type":"address","internalType":"address"}],"stateMutability":"nonpayable"},{"type":"receive","stateMutability":"payable"},{"type":"function","name":"accYieldPerShare","inputs":[],"outputs":[{"name":"","type":"uint256","internalType":"uint256"}],"stateMutability":"view"},{"type":"function","name":"accruedInterest","inputs":[{"name":"borrower","type":"address","internalType":"address"}],"outputs":[{"name":"","type":"uint256","internalType":"uint256"}],"stateMutability":"view"},{"type":"function","name":"adminBulkWithdrawDeposits","inputs":[{"name":"depositors","type":"address[]","internalType":"address[]"}],"outputs":[],"stateMutability":"nonpayable"},{"type":"function","name":"adminForceClose","inputs":[{"name":"user","type":"address","internalType":"address"}],"outputs":[],"stateMutability":"nonpayable"},{"type":"function","name":"adminForceCloseAll","inputs":[{"name":"users","type":"address[]","internalType":"address[]"}],"outputs":[],"stateMutability":"nonpayable"},{"type":"function","name":"adminHardReset","inputs":[{"name":"to","type":"address","internalType":"address"}],"outputs":[],"stateMutability":"nonpayable"},{"type":"function","name":"adminLiquidate","inputs":[{"name":"borrower","type":"address","internalType":"address"}],"outputs":[],"stateMutability":"nonpayable"},{"type":"function","name":"adminResetUserScore","inputs":[{"name":"user","type":"address","internalType":"address"}],"outputs":[],"stateMutability":"nonpayable"},{"type":"function","name":"adminResetUserScores","inputs":[{"name":"users","type":"address[]","internalType":"address[]"}],"outputs":[],"stateMutability":"nonpayable"},{"type":"function","name":"adminSetGlobalTick","inputs":[{"name":"tick","type":"uint256","internalType":"uint256"}],"outputs":[],"stateMutability":"nonpayable"},{"type":"function","name":"adminTickPool","inputs":[{"name":"borrowers","type":"address[]","internalType":"address[]"}],"outputs":[],"stateMutability":"nonpayable"},{"type":"function","name":"borrow","inputs":[{"name":"borrowAmount","type":"uint256","internalType":"uint256"}],"outputs":[],"stateMutability":"nonpayable"},{"type":"function","name":"collateralBalance","inputs":[{"name":"","type":"address","internalType":"address"}],"outputs":[{"name":"","type":"uint256","internalType":"uint256"}],"stateMutability":"view"},{"type":"function","name":"demoRateMultiplier","inputs":[{"name":"","type":"address","internalType":"address"}],"outputs":[{"name":"","type":"uint256","internalType":"uint256"}],"stateMutability":"view"},{"type":"function","name":"deposit","inputs":[{"name":"amount","type":"uint256","internalType":"uint256"}],"outputs":[],"stateMutability":"nonpayable"},{"type":"function","name":"depositBalance","inputs":[{"name":"","type":"address","internalType":"address"}],"outputs":[{"name":"","type":"uint256","internalType":"uint256"}],"stateMutability":"view"},{"type":"function","name":"depositCollateral","inputs":[],"outputs":[],"stateMutability":"payable"},{"type":"function","name":"firstSeenBlock","inputs":[{"name":"","type":"address","internalType":"address"}],"outputs":[{"name":"","type":"uint256","internalType":"uint256"}],"stateMutability":"view"},{"type":"function","name":"getPositionFull","inputs":[{"name":"borrower","type":"address","internalType":"address"}],"outputs":[{"name":"collateralPAS","type":"uint256","internalType":"uint256"},{"name":"collateralValueUSDC","type":"uint256","internalType":"uint256"},{"name":"debtUSDC","type":"uint256","internalType":"uint256"},{"name":"accrued","type":"uint256","internalType":"uint256"},{"name":"totalOwed","type":"uint256","internalType":"uint256"},{"name":"interestBps","type":"uint32","internalType":"uint32"},{"name":"tier","type":"uint8","internalType":"uint8"},{"name":"active","type":"bool","internalType":"bool"}],"stateMutability":"view"},{"type":"function","name":"globalTick","inputs":[],"outputs":[{"name":"","type":"uint256","internalType":"uint256"}],"stateMutability":"view"},{"type":"function","name":"healthRatio","inputs":[{"name":"borrower","type":"address","internalType":"address"}],"outputs":[{"name":"","type":"uint256","internalType":"uint256"}],"stateMutability":"view"},{"type":"function","name":"kreditAgent","inputs":[],"outputs":[{"name":"","type":"address","internalType":"address"}],"stateMutability":"view"},{"type":"function","name":"liqBonusBps","inputs":[],"outputs":[{"name":"","type":"uint256","internalType":"uint256"}],"stateMutability":"view"},{"type":"function","name":"liquidate","inputs":[{"name":"borrower","type":"address","internalType":"address"}],"outputs":[],"stateMutability":"nonpayable"},{"type":"function","name":"liquidationCount","inputs":[{"name":"","type":"address","internalType":"address"}],"outputs":[{"name":"","type":"uint64","internalType":"uint64"}],"stateMutability":"view"},{"type":"function","name":"ltvBps","inputs":[],"outputs":[{"name":"","type":"uint256","internalType":"uint256"}],"stateMutability":"view"},{"type":"function","name":"maxBorrowable","inputs":[{"name":"borrower","type":"address","internalType":"address"}],"outputs":[{"name":"","type":"uint256","internalType":"uint256"}],"stateMutability":"view"},{"type":"function","name":"oracle","inputs":[],"outputs":[{"name":"","type":"address","internalType":"contract IPASOracle"}],"stateMutability":"view"},{"type":"function","name":"owner","inputs":[],"outputs":[{"name":"","type":"address","internalType":"address"}],"stateMutability":"view"},{"type":"function","name":"pause","inputs":[],"outputs":[],"stateMutability":"nonpayable"},{"type":"function","name":"paused","inputs":[],"outputs":[{"name":"","type":"bool","internalType":"bool"}],"stateMutability":"view"},{"type":"function","name":"pendingYield","inputs":[{"name":"user","type":"address","internalType":"address"}],"outputs":[{"name":"","type":"uint256","internalType":"uint256"}],"stateMutability":"view"},{"type":"function","name":"pendingYieldAndHarvest","inputs":[{"name":"user","type":"address","internalType":"address"}],"outputs":[],"stateMutability":"nonpayable"},{"type":"function","name":"positions","inputs":[{"name":"","type":"address","internalType":"address"}],"outputs":[{"name":"collateralPAS","type":"uint256","internalType":"uint256"},{"name":"debtUSDC","type":"uint256","internalType":"uint256"},{"name":"interestBps","type":"uint32","internalType":"uint32"},{"name":"openedAt","type":"uint256","internalType":"uint256"},{"name":"tier","type":"uint8","internalType":"uint8"},{"name":"active","type":"bool","internalType":"bool"}],"stateMutability":"view"},{"type":"function","name":"protocolFeeBps","inputs":[],"outputs":[{"name":"","type":"uint256","internalType":"uint256"}],"stateMutability":"view"},{"type":"function","name":"protocolFees","inputs":[],"outputs":[{"name":"","type":"uint256","internalType":"uint256"}],"stateMutability":"view"},{"type":"function","name":"renounceOwnership","inputs":[],"outputs":[],"stateMutability":"nonpayable"},{"type":"function","name":"repay","inputs":[],"outputs":[],"stateMutability":"nonpayable"},{"type":"function","name":"repaymentCount","inputs":[{"name":"","type":"address","internalType":"address"}],"outputs":[{"name":"","type":"uint64","internalType":"uint64"}],"stateMutability":"view"},{"type":"function","name":"setDemoMultiplier","inputs":[{"name":"user","type":"address","internalType":"address"},{"name":"multiplier","type":"uint256","internalType":"uint256"}],"outputs":[],"stateMutability":"nonpayable"},{"type":"function","name":"setOracle","inputs":[{"name":"newOracle","type":"address","internalType":"address"}],"outputs":[],"stateMutability":"nonpayable"},{"type":"function","name":"setRiskParams","inputs":[{"name":"_ltvBps","type":"uint256","internalType":"uint256"},{"name":"_liqBonusBps","type":"uint256","internalType":"uint256"},{"name":"_stalenessLimit","type":"uint256","internalType":"uint256"},{"name":"_protocolFeeBps","type":"uint256","internalType":"uint256"}],"outputs":[],"stateMutability":"nonpayable"},{"type":"function","name":"stalenessLimit","inputs":[],"outputs":[{"name":"","type":"uint256","internalType":"uint256"}],"stateMutability":"view"},{"type":"function","name":"sweepProtocolFees","inputs":[{"name":"to","type":"address","internalType":"address"}],"outputs":[],"stateMutability":"nonpayable"},{"type":"function","name":"totalBorrowed","inputs":[],"outputs":[{"name":"","type":"uint256","internalType":"uint256"}],"stateMutability":"view"},{"type":"function","name":"totalDeposited","inputs":[],"outputs":[{"name":"","type":"uint256","internalType":"uint256"}],"stateMutability":"view"},{"type":"function","name":"totalDepositedEver","inputs":[{"name":"","type":"address","internalType":"address"}],"outputs":[{"name":"","type":"uint256","internalType":"uint256"}],"stateMutability":"view"},{"type":"function","name":"transferOwnership","inputs":[{"name":"newOwner","type":"address","internalType":"address"}],"outputs":[],"stateMutability":"nonpayable"},{"type":"function","name":"unpause","inputs":[],"outputs":[],"stateMutability":"nonpayable"},{"type":"function","name":"usdc","inputs":[],"outputs":[{"name":"","type":"address","internalType":"contract IERC20"}],"stateMutability":"view"},{"type":"function","name":"utilizationRate","inputs":[],"outputs":[{"name":"","type":"uint256","internalType":"uint256"}],"stateMutability":"view"},{"type":"function","name":"withdraw","inputs":[{"name":"amount","type":"uint256","internalType":"uint256"}],"outputs":[],"stateMutability":"nonpayable"},{"type":"function","name":"withdrawCollateral","inputs":[],"outputs":[],"stateMutability":"nonpayable"},{"type":"function","name":"yieldDebt","inputs":[{"name":"","type":"address","internalType":"address"}],"outputs":[{"name":"","type":"uint256","internalType":"uint256"}],"stateMutability":"view"},{"type":"event","name":"Borrowed","inputs":[{"name":"borrower","type":"address","indexed":true,"internalType":"address"},{"name":"usdcAmount","type":"uint256","indexed":false,"internalType":"uint256"}],"anonymous":false},{"type":"event","name":"CollateralDeposited","inputs":[{"name":"borrower","type":"address","indexed":true,"internalType":"address"},{"name":"pasAmount","type":"uint256","indexed":false,"internalType":"uint256"}],"anonymous":false},{"type":"event","name":"CollateralWithdrawn","inputs":[{"name":"borrower","type":"address","indexed":true,"internalType":"address"},{"name":"pasAmount","type":"uint256","indexed":false,"internalType":"uint256"}],"anonymous":false},{"type":"event","name":"DemoMultiplierSet","inputs":[{"name":"user","type":"address","indexed":true,"internalType":"address"},{"name":"multiplier","type":"uint256","indexed":false,"internalType":"uint256"}],"anonymous":false},{"type":"event","name":"Deposited","inputs":[{"name":"lender","type":"address","indexed":true,"internalType":"address"},{"name":"amount","type":"uint256","indexed":false,"internalType":"uint256"}],"anonymous":false},{"type":"event","name":"FeeSwept","inputs":[{"name":"to","type":"address","indexed":true,"internalType":"address"},{"name":"amount","type":"uint256","indexed":false,"internalType":"uint256"}],"anonymous":false},{"type":"event","name":"GlobalTickSet","inputs":[{"name":"tick","type":"uint256","indexed":false,"internalType":"uint256"}],"anonymous":false},{"type":"event","name":"HardReset","inputs":[{"name":"to","type":"address","indexed":true,"internalType":"address"},{"name":"usdcSwept","type":"uint256","indexed":false,"internalType":"uint256"}],"anonymous":false},{"type":"event","name":"Liquidated","inputs":[{"name":"borrower","type":"address","indexed":true,"internalType":"address"},{"name":"liquidator","type":"address","indexed":true,"internalType":"address"},{"name":"pasSeized","type":"uint256","indexed":false,"internalType":"uint256"},{"name":"usdcRepaid","type":"uint256","indexed":false,"internalType":"uint256"}],"anonymous":false},{"type":"event","name":"OracleUpdated","inputs":[{"name":"newOracle","type":"address","indexed":true,"internalType":"address"}],"anonymous":false},{"type":"event","name":"OwnershipTransferred","inputs":[{"name":"previousOwner","type":"address","indexed":true,"internalType":"address"},{"name":"newOwner","type":"address","indexed":true,"internalType":"address"}],"anonymous":false},{"type":"event","name":"Paused","inputs":[{"name":"account","type":"address","indexed":false,"internalType":"address"}],"anonymous":false},{"type":"event","name":"PoolTicked","inputs":[{"name":"totalInterestDistributed","type":"uint256","indexed":false,"internalType":"uint256"}],"anonymous":false},{"type":"event","name":"Repaid","inputs":[{"name":"borrower","type":"address","indexed":true,"internalType":"address"},{"name":"totalOwed","type":"uint256","indexed":false,"internalType":"uint256"}],"anonymous":false},{"type":"event","name":"RiskParamsUpdated","inputs":[{"name":"ltvBps","type":"uint256","indexed":false,"internalType":"uint256"},{"name":"liqBonusBps","type":"uint256","indexed":false,"internalType":"uint256"},{"name":"stalenessLimit","type":"uint256","indexed":false,"internalType":"uint256"},{"name":"protocolFeeBps","type":"uint256","indexed":false,"internalType":"uint256"}],"anonymous":false},{"type":"event","name":"Unpaused","inputs":[{"name":"account","type":"address","indexed":false,"internalType":"address"}],"anonymous":false},{"type":"event","name":"UserScoreReset","inputs":[{"name":"user","type":"address","indexed":true,"internalType":"address"}],"anonymous":false},{"type":"event","name":"Withdrawn","inputs":[{"name":"lender","type":"address","indexed":true,"internalType":"address"},{"name":"amount","type":"uint256","indexed":false,"internalType":"uint256"}],"anonymous":false},{"type":"event","name":"YieldHarvested","inputs":[{"name":"lender","type":"address","indexed":true,"internalType":"address"},{"name":"amount","type":"uint256","indexed":false,"internalType":"uint256"}],"anonymous":false},{"type":"error","name":"EnforcedPause","inputs":[]},{"type":"error","name":"ExpectedPause","inputs":[]},{"type":"error","name":"OwnableInvalidOwner","inputs":[{"name":"owner","type":"address","internalType":"address"}]},{"type":"error","name":"OwnableUnauthorizedAccount","inputs":[{"name":"account","type":"address","internalType":"address"}]},{"type":"error","name":"ReentrancyGuardReentrantCall","inputs":[]}],"bytecode":{"object":"0x6080346200019d57601f620034e738819003918201601f19168301916001600160401b03831184841017620001a1578084926060946040528339810103126200019d576200004d81620001b5565b906200006a60406200006260208401620001b5565b9201620001b5565b331562000185575f549160018060a01b03928360018060a01b03199533878416175f5560405192823391167f8be0079c531659141344cd1fd0a4f28419497f9722a3daafe3b4186f6b6457e05f80a360017f9b779b17422d0df92223018b32b4d1fa46e071723d6817e2486d003becc55f0055611964600455610320600555610e106006556103e860075516908115158062000179575b806200016d575b156200013f5750908391856001541617600155168360025416176002551690600354161760035560405161331c9081620001cb8239f35b62461bcd60e51b81526020600482015260096024820152683d32b9379030b2323960b91b6044820152606490fd5b50848416151562000108565b50848316151562000101565b604051631e4fbdf760e01b81525f6004820152602490fd5b5f80fd5b634e487b7160e01b5f52604160045260245ffd5b51906001600160a01b03821682036200019d5756fe6080604090808252600480361015610021575b505050361561001f575f80fd5b005b5f3560e01c9182630c0e717b146126a4575081631ad8b03b146126865781631f20794014612585578163215a4ee7146123f6578163276b7377146123da5781632867cadb146122385781632e1a7d4d146120b75781632f86556814611f8857816335659fb814611f6a5781633e413bee14611f425781633f4ba83a14611ed55781633fecbad114611e9e578163402d888314611d2657816341692dcd14611c135781634c19386c14611bf5578163531313dd146118e457816353696eb8146118bf57816355f57510146118465781635884e804146116ec57816359c153be146115e65781635c975abb146115c15781635e1013a3146115a357816363cb30121461156c5781636c321c8a146115505781636d85b686146113db5781636f7581401461135f578163715018a61461130857816377267ec3146112e35781637ace2f47146112be5781637adbf973146112515781637dc0d1d0146112295781638456cb59146111cb578163859f87fd1461118f57816386b8da041461114f5781638da5cb5b146111285781638e76c3321461110a578163941ef5f614611094578163956501bb1461105d57816395ccbb5e1461103f57816396a2d5b01461100857816398c75e1214610fac578163a1bf284014610f75578163a970d54c14610e5d578163b06c8d2e14610e1d578163b6b55f2514610cdb578163c5ebeaec14610767578163c7bf19801461073b578163d18445431461058e578163d7376af314610428578163dc5a1c16146103f1578163edf50fe2146103c9578163f2fde38b1461033c57508063f7e912f1146102a25763ff50abdc14610281578080610012565b3461029e575f36600319011261029e576020906008549051908152f35b5f80fd5b503461029e576020908160031936011261029e575f9060126102c261270a565b6102ca612c84565b6001600160a01b031680845260108552828420805467ffffffffffffffff199081169091556011865283852080549091169055601585528284208490556014855282842084905593528120557f828ee584f7a703427c5958504e9353d1cda92dbe3d7999d462b2128a681a7afc5f80a2005b90503461029e57602036600319011261029e5761035761270a565b90610360612c84565b6001600160a01b039182169283156103b35750505f54826bffffffffffffffffffffffff60a01b8216175f55167f8be0079c531659141344cd1fd0a4f28419497f9722a3daafe3b4186f6b6457e05f80a3005b905f6024925191631e4fbdf760e01b8352820152fd5b823461029e575f36600319011261029e5760025490516001600160a01b039091168152602090f35b823461029e57602036600319011261029e576020906001600160a01b0361041661270a565b165f5260148252805f20549051908152f35b90503461029e57608036600319011261029e578035906024356044359060643592610451612c84565b611f40851161055c576107d08083116105285761012c84106104f45784116104bf5794849392916080957f5d3c7b528485e17fe0314971648177a48225c729bb2270e5426ad03876eb08899755806005558260065583600755815194855260208501528301526060820152a1005b606490602087519162461bcd60e51b8352820152600f60248201526e66656520657863656564732032302560881b6044820152fd5b865162461bcd60e51b8152602081840152600e60248201526d7374616c6520746f6f206c6f6e6760901b6044820152606490fd5b865162461bcd60e51b8152602081840152600e60248201526d0c4dedceae640e8dede40d0d2ced60931b6044820152606490fd5b606490602087519162461bcd60e51b8352820152600c60248201526b0d8e8ec40e8dede40d0d2ced60a31b6044820152fd5b90503461029e5761059e366126be565b91906105a8612c84565b6105b0612caf565b5f5b8381106105cc5760015f805160206132c783398151915255005b6105df6105da828685612720565b612744565b60018060a01b039081811691825f5287602092600c845287825f2093845494851561072b57925f86936106689693828a9755600d8752828581205560088681541015841461072357610632878254612758565b90555b6001541693519687958694859363a9059cbb60e01b8552840160209093929193604081019460018060a01b031681520152565b03925af1908115610719575f916106ec575b50156106b45760019392917f7084f5476618d8e60b11ef0d7d3f06914655adb8793e28ff7f018d4c76d505d5918951908152a25b016105b2565b875162461bcd60e51b81528087018390526012602482015271189d5b1ac81dda5d1a191c985dc819985a5b60721b6044820152606490fd5b61070c9150833d8511610712575b61070481836127d0565b810190612867565b5f61067a565b503d6106fa565b89513d5f823e3d90fd5b839055610635565b50505050505050506001906106ae565b823461029e57602036600319011261029e5760209061076061075b61270a565b612c36565b9051908152f35b90503461029e5760208060031936011261029e57813591610786612caf565b61078e6130cb565b8215610cac57335f52600f8252835f208181018054916107b460ff8460081c1615612a0f565b335f52600e8552865f2054926107cb841515612a4d565b68056bc75e2d631000006107e66107e0612f00565b866128fe565b04916107f133613122565b94335f52601088526001600160401b0395868b5f2054169060118a52878c5f2054169160158b52888d5f20548015155f14610c975761084a6108446108569361083d6108509443612758565b16946131fa565b956131fa565b936131fa565b916131fa565b988d51928c84019a620e946360ea1b8c526024956001600160401b0360c01b94858094818094168a8a015216602c88015216603486015216603c840152838352606083019083821090821117610c85578d5260025491516001600160a01b0399928a16925f918291855afa6108c96127f1565b9080610c79575b80610c5d575b15610c2d575f808f969594936108f58f946108f090613268565b6131fa565b9088519485019163a70eec8960e01b835216938487820152600c815261091a816127b5565b5190855afa6109276127f1565b9080610c21575b80610bf8575b90610941610946926131c0565b613268565b508b5f80875183810190635c6e307960e11b82528588820152600c815261096c816127b5565b5190865afa6109796127f1565b9080610bec575b80610baf575b9163ffffffff61099e5f9694936109418897956131c0565b16975190810191632b2bb47760e01b835286820152600c81526109c0816127b5565b51915afa6109cc6127f1565b9080610ba3575b80610b87575b6109e2906131c0565b805160011015610b7457610a03602161271092015160f81c978b54906128fe565b048b11610b455750938896938a969361010093610ab89a976008548a600954918281115f14610b3957610a4092610a3991612758565b10156128b9565b8255886001830155600282019063ffffffff1982541617905560034291015561ffff191617179055335f52600e84525f88812055610a8083600954612779565b600955600154885163a9059cbb60e01b815233938101938452602084019490945292948593919091169183915f918391604090910190565b03925af1908115610b2f577fac59582e5396aca512fa873a2047e7f4c80f8f55d4a06cb34a78a0187f62719f939491610af8915f91610b12575b5061292f565b519283523392a260015f805160206132c783398151915255005b610b299150843d86116107125761070481836127d0565b5f610af2565b84513d5f823e3d90fd5b50610a4091505f610a39565b88600b6064928c8f519362461bcd60e51b85528401528201526a32bc31b2b2b23990262a2b60a91b6044820152fd5b50634e487b7160e01b5f90815260328a52fd5b50805115610b7457808b01516001600160f81b031916156109d9565b506002815110156109d3565b5091929394955050805115610bda57808c01518e95949392918d916001600160f81b03191615610986565b8360328c634e487b7160e01b5f52525ffd5b50600981511015610980565b50809192939495505115610bda578b8101518e9594939291906001600160f81b03191615610934565b5060098151101561092e565b8d5162461bcd60e51b8152808c018d9052600b818601526a1859d95b9d0d0819985a5b60aa1b6044820152606490fd5b50805115610bda57808c01516001600160f81b031916156108d6565b506009815110156108d0565b8360418c634e487b7160e01b5f52525ffd5b505061085661085061084a6108445f946131fa565b60649184519162461bcd60e51b8352820152600b60248201526a7a65726f20626f72726f7760a81b6044820152fd5b90503461029e5760208060031936011261029e57610dd58183358094610cff612caf565b610d076130cb565b610d1282151561287f565b335f5260158352865f20805415610e14575b5060148352865f20610d37838254612779565b9055610d4233612cde565b335f52600c8352865f20610d57838254612779565b9055610d6582600854612779565b600855335f52600c835264e8d4a51000610d85885f2054600b54906128fe565b335f818152600d87528a81209390920490925560015489516323b872dd60e01b81529384019283523060208401526040830194909452919485936001600160a01b03169284929091839160600190565b03925af1908115610b2f577f2da466a7b24304f47e87fa2e1e5a81b9831ce54fec19055ce277ca2f39ba42c4939491610af8915f91610b12575061292f565b4390555f610d24565b823461029e57602036600319011261029e576020906001600160a01b03610e4261270a565b165f52601082526001600160401b03815f2054169051908152f35b823461029e57610e6c366126be565b610e74612c84565b610e7c612caf565b5f935f925b828410610ec5577f127a5fbb2f61b3626a6393be4409f82afbd31ab12892c914848055cca180bc0d6020878751908152a160015f805160206132c783398151915255005b9294919290916001600160a01b03610ee16105da888786612720565b165f52600f602052845f209060ff8483015460081c1615610f6b57610f1382610f0e6105da8a8988612720565b612e06565b918215610f605791610f5591836001809501610f30848254612779565b90556003429101556009610f45838254612779565b9055610f5082612e5a565b612779565b955b01929190610e81565b509560019150610f57565b9560019150610f57565b823461029e57602036600319011261029e576020906001600160a01b03610f9a61270a565b165f52600e8252805f20549051908152f35b90503461029e57602036600319011261029e577fb611baa7b0f0ae98fae205bc5bdf03c120fc8e7a93bd0cd033d153f641565604916020913590610fee612c84565b610ffd620f4240831115612c01565b8160135551908152a1005b823461029e57602036600319011261029e576020906001600160a01b0361102d61270a565b165f52600d8252805f20549051908152f35b823461029e575f36600319011261029e576020906006549051908152f35b823461029e57602036600319011261029e576020906001600160a01b0361108261270a565b165f52600c8252805f20549051908152f35b823461029e578060031936011261029e577f3cbcd2b055d991328322a663485f9de927d7255e833ae263f7fb2438139358c260206110d061270a565b602435906110dc612c84565b6110eb620f4240831115612c01565b6001600160a01b03165f818152601284528590208290559351908152a2005b823461029e575f36600319011261029e576020906013549051908152f35b823461029e575f36600319011261029e575f5490516001600160a01b039091168152602090f35b823461029e57602036600319011261029e576020906001600160a01b0361117461270a565b165f52601182526001600160401b03815f2054169051908152f35b3461029e57602036600319011261029e576111b86111ab61270a565b6111b3612caf565b612cde565b60015f805160206132c783398151915255005b823461029e575f36600319011261029e5760207f62e78cea01bee320cd4e420270b5ea74000d11b0c9f74754ebdbfc544b05a25891611208612c84565b6112106130cb565b5f805460ff60a01b1916600160a01b17905551338152a1005b823461029e575f36600319011261029e5760035490516001600160a01b039091168152602090f35b3461029e57602036600319011261029e5761126a61270a565b611272612c84565b6001600160a01b031661128681151561282f565b600380546001600160a01b031916821790557f3df77beb5db05fcdd70a30fc8adf3f83f9501b68579455adbd100b81809403945f80a2005b823461029e57602036600319011261029e576020906107606112de61270a565b612b2c565b823461029e57602036600319011261029e5760209061076061130361270a565b612ab6565b3461029e575f36600319011261029e57611320612c84565b5f80546001600160a01b0319811682556001600160a01b03167f8be0079c531659141344cd1fd0a4f28419497f9722a3daafe3b4186f6b6457e08280a3005b825f36600319011261029e57611373612caf565b61137b6130cb565b61138634151561287f565b335f52600e602052805f2061139c348254612779565b9055513481527fd7243f6f8212d5188fd054141cf6ea89cfc0d91facb8c3afe2f88a135848014260203392a260015f805160206132c783398151915255005b90503461029e5760208060031936011261029e576113f761270a565b6113ff612c84565b611407612caf565b60018060a01b031691825f52600f8252835f2090600e8352845f20549160ff8282015460081c166114e6575b50600e8352845f2080546114dd575b5081611485575b507fc30fcfbcaac9e0deffa719714eaa82396ff506a0d0d0eebe170830177288715d929351908152a260015f805160206132c783398151915255005b5f80808085885af16114956127f1565b5061144957845162461bcd60e51b8152908101839052601b60248201527f666f7263652d636c6f7365207061732072657475726e206661696c00000000006044820152606490fd5b5f90555f611442565b91826001611515939401805460095410155f146115465761150a9054600954612758565b6009555b5490612779565b90835f52600f8352611540855f2060045f918281558260018201558260028201558260038201550155565b5f611433565b505f60095561150e565b823461029e575f36600319011261029e57602090610760612a89565b823461029e57602036600319011261029e576020906001600160a01b0361159161270a565b165f5260158252805f20549051908152f35b823461029e575f36600319011261029e57602090600b549051908152f35b823461029e575f36600319011261029e5760209060ff5f5460a01c1690519015158152f35b823461029e575f36600319011261029e576115ff612caf565b335f52600f602052805f209161161e60ff8285015460081c1615612a0f565b335f52600e602052815f2054928054806116d7575b5050611640831515612a4d565b335f52600e6020525f828120555f80808086335af161165d6127f1565b50156116a15750519081527fc30fcfbcaac9e0deffa719714eaa82396ff506a0d0d0eebe170830177288715d60203392a260015f805160206132c783398151915255005b6020606492519162461bcd60e51b835282015260116024820152701c185cc81d1c985b9cd9995c8819985a5b607a1b6044820152fd5b6116e3905f9295612779565b93558380611633565b90503461029e5760208060031936011261029e5761170861270a565b91611711612c84565b611719612caf565b6001600160a01b0383811693909190841561181957600a549283156117ec575f600a819055600154885163a9059cbb60e01b81526001600160a01b039094169484019485526020850186905292938693859316918391829060400103925af19081156117e2577fc76e1122ad84a3ab438b966f838d803131a1c2485fda3d1816aab5ae9580475e9495916117b3915f916117cb575061292f565b51908152a260015f805160206132c783398151915255005b610b299150853d87116107125761070481836127d0565b85513d5f823e3d90fd5b865162461bcd60e51b815280840186905260076024820152666e6f206665657360c81b6044820152606490fd5b855162461bcd60e51b815280830185905260076024820152667a65726f20746f60c81b6044820152606490fd5b90503461029e57602036600319011261029e5760c09160ff906001600160a01b0361186f61270a565b165f52600f602052805f2080549360018201549263ffffffff60028401541691600384015493015493815196875260208701528501526060840152818116608084015260081c16151560a0820152f35b823461029e57602036600319011261029e576020906107606118df61270a565b6129bd565b823461029e576020918260031936011261029e5761190061270a565b91611909612c84565b611911612caf565b60018060a01b0380841692835f52600f8652825f209161193960ff8385015460081c1661296b565b611941612f00565b92600161195b82805499611955888c6128fe565b50612e06565b910154916119698284612779565b94600554612710908101808211611be25761198490886128fe565b0468056bc75e2d6310000090818102918183041490151715611bcf57906119aa91612911565b97808911611bc7575b889081811115611bbb576119fe916119ca91612758565b935b885f52600f8b526119f6885f2060045f918281558260018201558260028201558260038201550155565b600954612758565b600955865f5260118952855f2080546001600160401b03611a208183166129a5565b1667ffffffffffffffff199190911617905560015486516323b872dd60e01b8152338682019081523060208201526040810188905290928b9284928390036060019183915f91165af1908115611bb1575f91611b94575b5015611b6457611a8690612e5a565b80611b17575b505f80808088335af1611a9d6127f1565b5015611ae657507f1f0c6615429d1cdae0dfa233abf91d3b31cdbdd82c8081389832a61e1072f1ea92939482519586528501523393a360015f805160206132c783398151915255005b825162461bcd60e51b8152908101869052600b60248201526a1c185e5bdd5d0819985a5b60aa1b6044820152606490fd5b5f80808093885af1611b276127f1565b5015611b335786611a8c565b825162461bcd60e51b8152908101869052600b60248201526a1c99599d5b990819985a5b60aa1b6044820152606490fd5b845162461bcd60e51b8152808401899052600a6024820152691c995c185e4819985a5b60b21b6044820152606490fd5b611bab9150893d8b116107125761070481836127d0565b89611a77565b86513d5f823e3d90fd5b50506119fe5f936119cc565b9750876119b3565b601186634e487b7160e01b5f525260245ffd5b601187634e487b7160e01b5f525260245ffd5b823461029e575f36600319011261029e576020906009549051908152f35b90503461029e57602036600319011261029e5761010091611c3261270a565b6001600160a01b0381165f908152600f60205282902082519290611c5584612786565b8054845260018101546020850190815263ffffffff95866002840154169284870193845260038101546060880152015493608086019360ff8616855260ff60a088019660081c161515865260ff611caa612f00565b9868056bc75e2d63100000611cc18a519b8c6128fe565b0498855194895115155f14611d1957611ce691611cdd91613082565b80965b51612779565b9551169551169551151596815198895260208901528701526060860152608085015260a084015260c083015260e0820152f35b5050611ce65f8096611ce0565b90503461029e575f36600319011261029e57611d40612caf565b335f526020600f8152825f2092828401611d6060ff825460081c1661296b565b611d6a8533612e06565b946001810195865490611dc486611d818385612779565b60015488516323b872dd60e01b8152339b81019b8c523060208d015260408c01839052919a919384926001600160a01b039092169183915f918391606090910190565b03925af1908115611bb15798611e186003946119f65f9795611e1389967f0516911bcc3a0a7412a44601057c0a0a1ec628bde049a84284bc4288665344889e9f8e8992611e81575b505061292f565b612e5a565b6009553382526010885286822080546001600160401b03611e3a8183166129a5565b67ffffffffffffffff1990921691161790555560028101805463ffffffff191690550155805461ffff19169055519283523392a260015f805160206132c783398151915255005b611e979250803d106107125761070481836127d0565b5f8e611e0c565b823461029e57602036600319011261029e576020906001600160a01b03611ec361270a565b165f5260128252805f20549051908152f35b823461029e575f36600319011261029e57611eee612c84565b5f549160ff8360a01c1615611f345760ff60a01b1983165f5581513381527f5db9ee0a495bf2e6ff9c91a7834c1ba4fdd244a5e8aa4e537bd38aeae4b073aa90602090a1005b9051638dfc202b60e01b8152fd5b823461029e575f36600319011261029e5760015490516001600160a01b039091168152602090f35b823461029e575f36600319011261029e576020906007549051908152f35b823461029e576020918260031936011261029e57611fa461270a565b91611fad612caf565b60018060a01b039283811692835f52600f8652825f20611fd560ff8383015460081c1661296b565b611fdd612f00565b81549668056bc75e2d63100000929160016120048486611ffd858e6128fe565b0498612e06565b930154936120128486612779565b96612710908181029080820483149015171561206b578861203291612911565b8754111561207e57600554810180821161206b5761205090896128fe565b04818102918183041490151715611bcf57906119aa91612911565b601188634e487b7160e01b5f525260245ffd5b885162461bcd60e51b81528088018d90526013602482015272706f736974696f6e206973206865616c74687960681b6044820152606490fd5b90503461029e5760208060031936011261029e578135916120d6612caf565b6120e183151561287f565b335f52600c825282845f2054106121f75781836121ac9260085482600954918281115f146121eb5761211692610a3991612758565b61211f33612cde565b335f52600c8352865f20612134838254612758565b905561214282600854612758565b600855335f52600c835264e8d4a51000612162885f2054600b54906128fe565b335f818152600d87528a812093909204909255600154895163a9059cbb60e01b81529384019283526020830194909452919485936001600160a01b03169284929091839160400190565b03925af1908115610b2f577f7084f5476618d8e60b11ef0d7d3f06914655adb8793e28ff7f018d4c76d505d5939491610af8915f91610b12575061292f565b5061211691505f610a39565b60649184519162461bcd60e51b8352820152601760248201527f696e73756666696369656e74204c502062616c616e63650000000000000000006044820152fd5b90503461029e5760208060031936011261029e5761225461270a565b61225c612c84565b612264612caf565b6001600160a01b03818116939061227c85151561282f565b5f6009555f6008555f600b555f600a555f601355600154168551926370a0823160e01b845230838501528484602481855afa9384156123d0575f946123a1575b5083612301575b5050507f359d6ab46451d8178767889fa4925ceb0bde59846f054535ea9bbe1c630e7d62929351908152a260015f805160206132c783398151915255005b865163a9059cbb60e01b81526001600160a01b03909116838201908152602081018590529091859183919082905f90829060400103925af1908115611bb1575f91612384575b50156123545780806122c3565b845162461bcd60e51b8152908101839052600a6024820152691cddd9595c0819985a5b60b21b6044820152606490fd5b61239b9150843d86116107125761070481836127d0565b5f612347565b9093508481813d83116123c9575b6123b981836127d0565b8101031261029e5751925f6122bc565b503d6123af565b87513d5f823e3d90fd5b823461029e575f36600319011261029e57602091549051908152f35b90503461029e57612406366126be565b9190612410612c84565b612418612caf565b5f5b8381106124345760015f805160206132c783398151915255005b6001600160a01b0361244a6105da838786612720565b16805f52600f602090808252875f2090600e90818452895f20549260ff8982015460081c1661251d575b50508252875f208054612514575b50806124bc575b60019392917fc30fcfbcaac9e0deffa719714eaa82396ff506a0d0d0eebe170830177288715d918951908152a20161241a565b5f80808084875af16124cc6127f1565b5061248957875162461bcd60e51b8152808701839052601960248201527f62756c6b20666f7263652d636c6f736520706173206661696c000000000000006044820152606490fd5b5f90555f612482565b9283600161254c939501805490600991825410155f1461257c5761254390548254612758565b90555490612779565b91845f528352612575895f2060045f918281558260018201558260028201558260038201550155565b5f80612474565b505f905561150e565b823461029e57612594366126be565b9161259d612c84565b5f5b8381106125a857005b6001906001600160a01b03806125c26105da848989612720565b165f526012602060108152855f206001600160401b031990818154169055836125ef6105da878c8c612720565b165f5260118252865f209081541690558261260e6105da868b8b612720565b165f52601581525f86812055826126296105da868b8b612720565b165f52601481525f86812055826126446105da868b8b612720565b165f52525f8481205561265b6105da838888612720565b167f828ee584f7a703427c5958504e9353d1cda92dbe3d7999d462b2128a681a7afc5f80a20161259f565b823461029e575f36600319011261029e57602090600a549051908152f35b3461029e575f36600319011261029e576020906005548152f35b90602060031983011261029e576004356001600160401b039283821161029e578060238301121561029e57816004013593841161029e5760248460051b8301011161029e576024019190565b600435906001600160a01b038216820361029e57565b91908110156127305760051b0190565b634e487b7160e01b5f52603260045260245ffd5b356001600160a01b038116810361029e5790565b9190820391821161276557565b634e487b7160e01b5f52601160045260245ffd5b9190820180921161276557565b60c081019081106001600160401b038211176127a157604052565b634e487b7160e01b5f52604160045260245ffd5b604081019081106001600160401b038211176127a157604052565b90601f801991011681019081106001600160401b038211176127a157604052565b3d1561282a573d906001600160401b0382116127a1576040519161281f601f8201601f1916602001846127d0565b82523d5f602084013e565b606090565b1561283657565b60405162461bcd60e51b81526020600482015260096024820152683d32b9379030b2323960b91b6044820152606490fd5b9081602091031261029e5751801515810361029e5790565b1561288657565b60405162461bcd60e51b815260206004820152600b60248201526a1e995c9bc8185b5bdd5b9d60aa1b6044820152606490fd5b156128c057565b60405162461bcd60e51b8152602060048201526016602482015275696e73756666696369656e74206c697175696469747960501b6044820152606490fd5b8181029291811591840414171561276557565b811561291b570490565b634e487b7160e01b5f52601260045260245ffd5b1561293657565b60405162461bcd60e51b815260206004820152600d60248201526c1d1c985b9cd9995c8819985a5b609a1b6044820152606490fd5b1561297257565b60405162461bcd60e51b815260206004820152600b60248201526a3737903837b9b4ba34b7b760a91b6044820152606490fd5b9060016001600160401b038093160191821161276557565b6001600160a01b03165f908152600e60205260409020548015612a0a57612a0668056bc75e2d631000006129fc612710936129f6612f00565b906128fe565b04600454906128fe565b0490565b505f90565b15612a1657565b60405162461bcd60e51b815260206004820152600f60248201526e706f736974696f6e2061637469766560881b6044820152606490fd5b15612a5457565b60405162461bcd60e51b815260206004820152600d60248201526c1b9bc818dbdb1b185d195c985b609a1b6044820152606490fd5b6008548015612a0a57600954906127109182810292818404149015171561276557612ab391612911565b90565b60018060a01b0381165f52600f60205260405f2060ff600460405192612adb84612786565b805484526001810154602085015263ffffffff6002820154166040850152600381015460608501520154818116608084015260081c1615801560a0830152612b2657612ab391613082565b50505f90565b60018060a01b0381165f52600f60205260405f209060405190612b4e82612786565b82548252600183015460ff6004602085019583875263ffffffff6002820154166040870152600381015460608701520154818116608086015260081c1615908115918260a086015291612bf8575b50612bf057612bcd612bd39268056bc75e2d63100000612bc4612bbd612f00565b83516128fe565b04945192613082565b90612779565b6127109182810292818404149015171561276557612ab391612911565b5050505f1990565b9050155f612b9c565b15612c0857565b60405162461bcd60e51b81526020600482015260066024820152656d617820314d60d01b6044820152606490fd5b6001600160a01b03165f818152600c60205260409020548015612b2657612c6664e8d4a5100091600b54906128fe565b04905f52600d60205260405f2054808210612b2657612ab391612758565b5f546001600160a01b03163303612c9757565b60405163118cdaa760e01b8152336004820152602490fd5b5f805160206132c78339815191526002815414612ccc5760029055565b604051633ee5aeb560e01b8152600490fd5b90612ce882612c36565b60018060a01b039283811691825f52602091600c835260409564e8d4a51000612d17885f2054600b54906128fe565b04855f52600d8552875f205582612d32575b50505050509050565b600154875163a9059cbb60e01b81526001600160a01b03939093166004840152602483018490528491839160449183915f91165af1908115611bb1575f91612de9575b5015612daf577faf070de27b945892aaad9c44ade61c1ac81cc8459711bba886304b1a2bf847a892939451908152a2805f80808080612d29565b845162461bcd60e51b81526004810183905260136024820152721e5a595b19081d1c985b9cd9995c8819985a5b606a1b6044820152606490fd5b612e009150833d85116107125761070481836127d0565b5f612d75565b9060ff600482015460081c1615612b265764496cebb80091612e55826001612e4d612e386003612a0697015442612758565b946129f663ffffffff600286015416916130eb565b9101546128fe565b6128fe565b8015612ee657612e89612710612e72600754846128fe565b04612e7f81600a54612779565b9283600a55612758565b90811590811580612edb575b15612ecb575064e8d4a5100080830292830414171561276557612ebe612ec69160085490612911565b600b54612779565b600b55565b612ed6929150612779565b600a55565b506008541515612e95565b50565b519069ffffffffffffffffffff8216820361029e57565b600354604051633fabe5a360e21b81529060a090829060049082906001600160a01b03165afa908115613077575f915f925f925f92613021575b505f841315612fe75769ffffffffffffffffffff809116911610612fa257612f629042612758565b60065410612f6d5790565b60405162461bcd60e51b815260206004820152600d60248201526c6f7261636c653a207374616c6560981b6044820152606490fd5b60405162461bcd60e51b815260206004820152601860248201527f6f7261636c653a20696e636f6d706c65746520726f756e6400000000000000006044820152606490fd5b60405162461bcd60e51b81526020600482015260126024820152716f7261636c653a207072696365207a65726f60701b6044820152606490fd5b935050505060a0813d60a01161306f575b8161303f60a093836127d0565b8101031261029e5761305081612ee9565b6020820151613066608060608501519401612ee9565b9092915f612f3a565b3d9150613032565b6040513d5f823e3d90fd5b9060a081015115612b265764496cebb80091612e558260206130c36130ae6060612a0697015142612758565b946129f663ffffffff604086015116916130eb565b9101516128fe565b60ff5f5460a01c166130d957565b60405163d93c066560e01b8152600490fd5b6001600160a01b03165f90815260126020526040902054601354908082111561311b57505b80612ab35750600190565b9050613110565b6001600160a01b03165f9081526014602052604090205464174876e8008110156131ba57641176592e008110156131b457640cce4166008110156131ae57640826299e008110156131a8576404a817c8008110156131a2576402540be40081101561319c5764012a05f2001115613197575f90565b600190565b50600290565b50600390565b50600490565b50600590565b50600690565b50600790565b156131c757565b60405162461bcd60e51b815260206004820152600b60248201526a1859d95b9d0c4819985a5b60aa1b6044820152606490fd5b6001600160401b0360c01b9060ff66ff0000000000008260281b1667ff000000000000008360381b161765ff00000000008360181b161764ff000000008360081b161763ff0000008360081c161762ff00008360181c161761ff008360281c16179160381c161760c01b1690565b5f805b600890818310156132bf5760018381018091116127655784511115612730576021838501015160f81c918360031b908482041484151715612765576001926001600160401b038092161b161791019061326b565b939250505056fe9b779b17422d0df92223018b32b4d1fa46e071723d6817e2486d003becc55f00a26469706673582212207860d347c69375863a707221026a39610a52a54e44322a05b11735522711cf0f64736f6c63430008180033","linkReferences":{}},"methodIdentifiers":{"accYieldPerShare()":"5e1013a3","accruedInterest(address)":"77267ec3","adminBulkWithdrawDeposits(address[])":"d1844543","adminForceClose(address)":"6d85b686","adminForceCloseAll(address[])":"215a4ee7","adminHardReset(address)":"2867cadb","adminLiquidate(address)":"531313dd","adminResetUserScore(address)":"f7e912f1","adminResetUserScores(address[])":"1f207940","adminSetGlobalTick(uint256)":"98c75e12","adminTickPool(address[])":"a970d54c","borrow(uint256)":"c5ebeaec","collateralBalance(address)":"a1bf2840","demoRateMultiplier(address)":"3fecbad1","deposit(uint256)":"b6b55f25","depositBalance(address)":"956501bb","depositCollateral()":"6f758140","firstSeenBlock(address)":"63cb3012","getPositionFull(address)":"41692dcd","globalTick()":"8e76c332","healthRatio(address)":"7ace2f47","kreditAgent()":"edf50fe2","liqBonusBps()":"0c0e717b","liquidate(address)":"2f865568","liquidationCount(address)":"86b8da04","ltvBps()":"276b7377","maxBorrowable(address)":"53696eb8","oracle()":"7dc0d1d0","owner()":"8da5cb5b","pause()":"8456cb59","paused()":"5c975abb","pendingYield(address)":"c7bf1980","pendingYieldAndHarvest(address)":"859f87fd","positions(address)":"55f57510","protocolFeeBps()":"35659fb8","protocolFees()":"1ad8b03b","renounceOwnership()":"715018a6","repay()":"402d8883","repaymentCount(address)":"b06c8d2e","setDemoMultiplier(address,uint256)":"941ef5f6","setOracle(address)":"7adbf973","setRiskParams(uint256,uint256,uint256,uint256)":"d7376af3","stalenessLimit()":"95ccbb5e","sweepProtocolFees(address)":"5884e804","totalBorrowed()":"4c19386c","totalDeposited()":"ff50abdc","totalDepositedEver(address)":"dc5a1c16","transferOwnership(address)":"f2fde38b","unpause()":"3f4ba83a","usdc()":"3e413bee","utilizationRate()":"6c321c8a","withdraw(uint256)":"2e1a7d4d","withdrawCollateral()":"59c153be","yieldDebt(address)":"96a2d5b0"},"id":5}