{"abi":[{"type":"constructor","inputs":[{"name":"_sr25519Verifier","type":"address","internalType":"address"}],"stateMutability":"nonpayable"},{"type":"function","name":"attestedLink","inputs":[{"name":"evmAddress","type":"address","internalType":"address"},{"name":"substratePublicKey","type":"bytes32","internalType":"bytes32"}],"outputs":[],"stateMutability":"nonpayable"},{"type":"function","name":"attestedUnlink","inputs":[{"name":"evmAddress","type":"address","internalType":"address"}],"outputs":[],"stateMutability":"nonpayable"},{"type":"function","name":"attesters","inputs":[{"name":"","type":"address","internalType":"address"}],"outputs":[{"name":"","type":"bool","internalType":"bool"}],"stateMutability":"view"},{"type":"function","name":"evmAddressOf","inputs":[{"name":"","type":"bytes32","internalType":"bytes32"}],"outputs":[{"name":"","type":"address","internalType":"address"}],"stateMutability":"view"},{"type":"function","name":"getEvmAddress","inputs":[{"name":"substrateKey","type":"bytes32","internalType":"bytes32"}],"outputs":[{"name":"","type":"address","internalType":"address"}],"stateMutability":"view"},{"type":"function","name":"getLink","inputs":[{"name":"evmAddress","type":"address","internalType":"address"}],"outputs":[{"name":"substrateKey","type":"bytes32","internalType":"bytes32"},{"name":"linkedAt","type":"uint256","internalType":"uint256"},{"name":"adminAttested","type":"bool","internalType":"bool"},{"name":"active","type":"bool","internalType":"bool"}],"stateMutability":"view"},{"type":"function","name":"getLinkMessage","inputs":[{"name":"evmAddress","type":"address","internalType":"address"}],"outputs":[{"name":"","type":"string","internalType":"string"}],"stateMutability":"view"},{"type":"function","name":"isLinked","inputs":[{"name":"evmAddress","type":"address","internalType":"address"}],"outputs":[{"name":"","type":"bool","internalType":"bool"}],"stateMutability":"view"},{"type":"function","name":"linkAccount","inputs":[{"name":"substratePublicKey","type":"bytes32","internalType":"bytes32"},{"name":"substrateSignature","type":"bytes","internalType":"bytes"}],"outputs":[],"stateMutability":"nonpayable"},{"type":"function","name":"linkNonce","inputs":[{"name":"","type":"address","internalType":"address"}],"outputs":[{"name":"","type":"uint64","internalType":"uint64"}],"stateMutability":"view"},{"type":"function","name":"linkOf","inputs":[{"name":"","type":"address","internalType":"address"}],"outputs":[{"name":"evmAddress","type":"address","internalType":"address"},{"name":"substrateKey","type":"bytes32","internalType":"bytes32"},{"name":"linkedAt","type":"uint256","internalType":"uint256"},{"name":"linkedTimestamp","type":"uint256","internalType":"uint256"},{"name":"adminAttested","type":"bool","internalType":"bool"},{"name":"active","type":"bool","internalType":"bool"}],"stateMutability":"view"},{"type":"function","name":"owner","inputs":[],"outputs":[{"name":"","type":"address","internalType":"address"}],"stateMutability":"view"},{"type":"function","name":"setAttester","inputs":[{"name":"attester","type":"address","internalType":"address"},{"name":"status","type":"bool","internalType":"bool"}],"outputs":[],"stateMutability":"nonpayable"},{"type":"function","name":"setSR25519Verifier","inputs":[{"name":"verifier","type":"address","internalType":"address"}],"outputs":[],"stateMutability":"nonpayable"},{"type":"function","name":"sr25519Verifier","inputs":[],"outputs":[{"name":"","type":"address","internalType":"address"}],"stateMutability":"view"},{"type":"function","name":"substrateKeyOf","inputs":[{"name":"","type":"address","internalType":"address"}],"outputs":[{"name":"","type":"bytes32","internalType":"bytes32"}],"stateMutability":"view"},{"type":"function","name":"totalLinked","inputs":[],"outputs":[{"name":"","type":"uint256","internalType":"uint256"}],"stateMutability":"view"},{"type":"function","name":"totalUnlinked","inputs":[],"outputs":[{"name":"","type":"uint256","internalType":"uint256"}],"stateMutability":"view"},{"type":"function","name":"transferOwnership","inputs":[{"name":"newOwner","type":"address","internalType":"address"}],"outputs":[],"stateMutability":"nonpayable"},{"type":"function","name":"unlinkAccount","inputs":[],"outputs":[],"stateMutability":"nonpayable"},{"type":"function","name":"verifySignature","inputs":[{"name":"substratePublicKey","type":"bytes32","internalType":"bytes32"},{"name":"signature","type":"bytes","internalType":"bytes"},{"name":"message","type":"bytes","internalType":"bytes"}],"outputs":[{"name":"valid","type":"bool","internalType":"bool"}],"stateMutability":"view"},{"type":"event","name":"AccountLinked","inputs":[{"name":"evmAddress","type":"address","indexed":true,"internalType":"address"},{"name":"substrateKey","type":"bytes32","indexed":true,"internalType":"bytes32"},{"name":"adminAttested","type":"bool","indexed":false,"internalType":"bool"},{"name":"linkedAt","type":"uint256","indexed":false,"internalType":"uint256"}],"anonymous":false},{"type":"event","name":"AccountUnlinked","inputs":[{"name":"evmAddress","type":"address","indexed":true,"internalType":"address"},{"name":"substrateKey","type":"bytes32","indexed":true,"internalType":"bytes32"}],"anonymous":false},{"type":"event","name":"AttesterUpdated","inputs":[{"name":"attester","type":"address","indexed":true,"internalType":"address"},{"name":"status","type":"bool","indexed":false,"internalType":"bool"}],"anonymous":false},{"type":"event","name":"LinkAttemptFailed","inputs":[{"name":"evmAddress","type":"address","indexed":true,"internalType":"address"},{"name":"substrateKey","type":"bytes32","indexed":false,"internalType":"bytes32"},{"name":"reason","type":"string","indexed":false,"internalType":"string"}],"anonymous":false},{"type":"event","name":"SR25519VerifierUpdated","inputs":[{"name":"newVerifier","type":"address","indexed":true,"internalType":"address"}],"anonymous":false}],"bytecode":{"object":"0x6080346100bc57601f61148f38819003918201601f19168301916001600160401b038311848410176100c0578084926020946040528339810103126100bc57516001600160a01b038116908190036100bc5760018060a01b031933815f5416175f556001541617600155335f52600660205260405f20600160ff19825416179055604051600181527f2f6baedf5d85c15bc97b3e106fb2c744a011c1a294456f6369281584f778fb0060203392a26040516113ba90816100d58239f35b5f80fd5b634e487b7160e01b5f52604160045260245ffdfe6080604081815260049182361015610015575f80fd5b5f3560e01c9081630232027e14610b07575080630d47718d14610ae9578063131a91ad14610aad57806328ebd49314610a6d5780634131ee9514610a3e57806343f210ca14610737578063529a5e26146106c05780635793d4ec146104cd5780635bc3d3ec146104715780635c0204d9146103dc5780635d1009d7146103be57806360edf39414610351578063807f0015146102f05780638da5cb5b146102c95780638df7e4a1146102a157806390f6bc1b1461026457806395d58505146102315780639d6abe4f146101ce578063c6767adc14610197578063f2fde38b146101495763fb1afbd714610106575f80fd5b346101455760203660031901126101455760209160ff906001600160a01b0361012d610b39565b165f52808452825f20015460081c1690519015158152f35b5f80fd5b3461014557602036600319011261014557610162610b39565b5f54906001600160a01b039061017b3383851614610d0f565b1690610188821515610d47565b6001600160a01b031916175f55005b5034610145576020366003190112610145576020906001600160a01b036101bc610b39565b165f5260028252805f20549051908152f35b5090346101455760203660031901126101455760809160ff906001600160a01b036101f7610b39565b165f5282602052805f20906001820154936002830154920154918151948552602085015282821615159084015260081c1615156060820152f35b5034610145575f3660031901126101455761026290335f5260026020525f205461025c811515610cd6565b3361115e565b005b50346101455760203660031901126101455761029d9061028a610285610b39565b610e43565b9051918291602083526020830190610b9d565b0390f35b5034610145575f3660031901126101455760015490516001600160a01b039091168152602090f35b5034610145575f366003190112610145575f5490516001600160a01b039091168152602090f35b5034610145576060366003190112610145576001600160401b03602435818111610145576103219036908501610b4f565b936044359283116101455760209461033f6103489436908401610b4f565b93909235610dea565b90519015158152f35b346101455760203660031901126101455761036a610b39565b5f546001600160a01b0391906103839083163314610d0f565b16806001600160601b0360a01b60015416176001557f629c2f1dcd4b5a41a9567b32e5078cc863f9feb027a94f42e175c2a9aaa6abf05f80a2005b5034610145575f366003190112610145576020906008549051908152f35b50346101455780600319360112610145576103f5610b39565b9060243591821515808403610145577f2f6baedf5d85c15bc97b3e106fb2c744a011c1a294456f6369281584f778fb009261046a60209360018060a01b0390610442825f54163314610d0f565b169561044f871515610d47565b865f5260068552825f209060ff801983541691151516179055565b51908152a2005b5034610145576020366003190112610145576102629061048f610b39565b90335f5260066020526104a760ff825f205416610c9b565b6001600160a01b0382165f90815260026020522054906104c8821515610cd6565b61115e565b50346101455780600319360112610145576104e6610b39565b60243591335f5260206006815261050260ff835f205416610c9b565b6001600160a01b0392831692831561068a5761051f851515610bc2565b835f5260028252610533835f205415610c03565b845f526003825261054981845f20541615610c4f565b835f526002825284835f2055845f5260038252825f206001600160601b0360a01b908582825416179055845f5260058352835f2080546001600160401b03610592818316611132565b16906001600160401b03191617905560075460018101809111610677579461065181979861066894937f525efad638fe1bdbdf820f6de0c1fc89b7de013ff7886a97bd7d272ca39a60c9986007558751906105ec82610d7f565b8482528782018c8152898301904382526060840192428452608085019860018a5260a086019860018a525f52868c528c5f20955116908554161784555160018401555160028301555160038201550192511515839060ff801983541691151516179055565b51815461ff00191690151560081b61ff0016179055565b815190600182524390820152a3005b601188634e487b7160e01b5f525260245ffd5b825162461bcd60e51b8152808701839052601060248201526f7a65726f2065766d206164647265737360801b6044820152606490fd5b5090346101455760203660031901126101455760c09160ff906001600160a01b03806106ea610b39565b165f5283602052815f2090815416936001820154926002830154916003840154930154938151968752602087015285015260608401528181161515608084015260081c16151560a0820152f35b5090346101455781600319360112610145578035916001600160401b03916024358381116101455761076c9036908301610b4f565b91909361077a861515610bc2565b335f5260209460028652610791855f205415610c03565b5f87815260038752859020546001600160a01b0394906107b390861615610c4f565b84600154161561098e57906107d2916107cb33610e43565b918961107a565b156108fb57335f526002855285845f2055855f5260038552835f20906001600160601b0360a01b913383825416179055335f5260058652845f209081549061081b818316611132565b16906001600160401b031916179055600754600181018091116108e8576106516108d8937f525efad638fe1bdbdf820f6de0c1fc89b7de013ff7886a97bd7d272ca39a60c9969593889360075586519061087482610d7f565b3382528482018b815288830190438252606084019242845260808501985f8a528660a087019960018b52335f52528b5f20955116908554161784555160018401555160028301555160038201550192511515839060ff801983541691151516179055565b8051925f845243908401523392a3005b601183634e487b7160e01b5f525260245ffd5b6064828686898151908152818382015260118282015270696e76616c6964207369676e617475726560781b60608201527ff6ebf4001d8f04caf4e99e56bcfb53a2f18fe62c89658492f9285ea5d1a4938160803392a25162461bcd60e51b815291820152601b60248201527f696e76616c696420737562737472617465207369676e617475726500000000006044820152fd5b60848488888b81519081528183820152601f828201527f53523235353139207665726966696572206e6f7420636f6e666967757265640060608201527ff6ebf4001d8f04caf4e99e56bcfb53a2f18fe62c89658492f9285ea5d1a4938160803392a25162461bcd60e51b815291820152602860248201527f5573652061747465737465644c696e6b20666f72206d616e75616c20766572696044820152673334b1b0ba34b7b760c11b6064820152fd5b503461014557602036600319011261014557602091355f526003825260018060a01b03815f2054169051908152f35b5034610145576020366003190112610145576020906001600160a01b03610a92610b39565b165f52600582526001600160401b03815f2054169051908152f35b5034610145576020366003190112610145576020906001600160a01b03610ad2610b39565b165f526006825260ff815f20541690519015158152f35b5034610145575f366003190112610145576020906007549051908152f35b919050346101455760203660031901126101455791355f90815260036020908152929020546001600160a01b03168152f35b600435906001600160a01b038216820361014557565b9181601f84011215610145578235916001600160401b038311610145576020838186019501011161014557565b5f5b838110610b8d5750505f910152565b8181015183820152602001610b7e565b90602091610bb681518092818552858086019101610b7c565b601f01601f1916010190565b15610bc957565b60405162461bcd60e51b81526020600482015260126024820152717a65726f20737562737472617465206b657960701b6044820152606490fd5b15610c0a57565b60405162461bcd60e51b815260206004820152601a60248201527f45564d206164647265737320616c7265616479206c696e6b65640000000000006044820152606490fd5b15610c5657565b60405162461bcd60e51b815260206004820152601c60248201527f737562737472617465206b657920616c7265616479206c696e6b6564000000006044820152606490fd5b15610ca257565b60405162461bcd60e51b815260206004820152600c60248201526b3737ba1030ba3a32b9ba32b960a11b6044820152606490fd5b15610cdd57565b60405162461bcd60e51b815260206004820152600a6024820152691b9bdd081b1a5b9ad95960b21b6044820152606490fd5b15610d1657565b60405162461bcd60e51b81526020600482015260096024820152683737ba1037bbb732b960b91b6044820152606490fd5b15610d4e57565b60405162461bcd60e51b81526020600482015260096024820152683d32b9379030b2323960b91b6044820152606490fd5b60c081019081106001600160401b03821117610d9a57604052565b634e487b7160e01b5f52604160045260245ffd5b90601f801991011681019081106001600160401b03821117610d9a57604052565b6001600160401b038111610d9a57601f01601f191660200190565b6001549394936001600160a01b031615610e3a57610e0784610dcf565b93610e156040519586610dae565b8085523681870111610145576020815f92610e3798838901378601015261107a565b90565b50505050505f90565b60408051916001600160401b03606082901b6bffffffffffffffffffffffff191684840182811186821017610d9a578452601085526020916f181899199a1a9b1b9c1cb0b131b232b360811b838701528451956060870187811083821117610d9a578652602a8752838701928636853787511561106657603084538751916001926001101561106657607860218a01535f5b60148110610fbe575050505092610faf610f579693610e379693610f1b604997610efe4661121d565b6001600160a01b039096165f90815260058552879020541661121d565b94519889967325b932b234b79020b1b1b7bab73a102634b7358560611b8489015264022ab269d160dd1b60348901525180926039890190610b7c565b850192600560f91b9384603982015266021b430b4b71d160cd1b603a820152610f898251809385604185019101610b7c565b019260418401526602737b731b29d160cd1b604284015283519384918785019101610b7c565b01036029810184520182610dae565b82811a60046001600160f81b031980610fdc84841c60ff168761120c565b51169284881b936002908686048214871517156110535785820180921161105357918f611011600f93611019955f1a9261120c565b53168661120c565b51169060039283018093116110405750906110398693925f1a918d61120c565b5301610ed5565b601190634e487b7160e01b5f525260245ffd5b601185634e487b7160e01b5f525260245ffd5b634e487b7160e01b5f52603260045260245ffd5b92829391602093926110df60018060a01b036001541693608460405198899788968796632dfa471d60e11b8852600488015260606024880152816064880152838701375f858201830152601f01601f1916840184810360800160448601520190610b9d565b03915afa5f91816110f5575b50610e3757505f90565b9091506020813d60201161112a575b8161111160209383610dae565b810103126101455751801515810361014557905f6110eb565b3d9150611104565b9060016001600160401b038093160191821161114a57565b634e487b7160e01b5f52601160045260245ffd5b815f52600360205260405f206001600160601b0360a01b815416905560018060a01b0316805f5260026020525f6040812055600560205260405f2080546001600160401b036111ae818316611132565b16906001600160401b031916179055805f526004602052600460405f200161ff001981541690556008546001810180911161114a576008557f4ccdc0379a0a089eea68e960fa8d783d5e9012e4aa79c7f3259b1e316653a1415f80a3565b908151811015611066570160200190565b805f917a184f03e93ff9f4daa797ed6e38ed64bf6a1f01000000000000000080821015611376575b506d04ee2d6d415b85acef810000000080831015611367575b50662386f26fc1000080831015611358575b506305f5e10080831015611349575b506127108083101561133a575b50606482101561132a575b600a80921015611320575b60019081602160018601956112b687610dcf565b966112c46040519889610dae565b8088526112d3601f1991610dcf565b01366020890137860101905b6112eb575b5050505090565b5f19019083906f181899199a1a9b1b9c1cb0b131b232b360811b8282061a83530491821561131b579190826112df565b6112e4565b91600101916112a2565b9190606460029104910191611297565b6004919392049101915f61128c565b6008919392049101915f61127f565b6010919392049101915f611270565b6020919392049101915f61125e565b60409350810491505f61124556fea2646970667358221220bf01ffbc8bfba01a37a5004304d86b6676e8f850aeb8d1ad2c95189c1e04b1e064736f6c63430008180033","linkReferences":{}},"methodIdentifiers":{"attestedLink(address,bytes32)":"5793d4ec","attestedUnlink(address)":"5bc3d3ec","attesters(address)":"131a91ad","evmAddressOf(bytes32)":"4131ee95","getEvmAddress(bytes32)":"0232027e","getLink(address)":"9d6abe4f","getLinkMessage(address)":"90f6bc1b","isLinked(address)":"fb1afbd7","linkAccount(bytes32,bytes)":"43f210ca","linkNonce(address)":"28ebd493","linkOf(address)":"529a5e26","owner()":"8da5cb5b","setAttester(address,bool)":"5c0204d9","setSR25519Verifier(address)":"60edf394","sr25519Verifier()":"8df7e4a1","substrateKeyOf(address)":"c6767adc","totalLinked()":"0d47718d","totalUnlinked()":"5d1009d7","transferOwnership(address)":"f2fde38b","unlinkAccount()":"95d58505","verifySignature(bytes32,bytes,bytes)":"807f0015"},"id":2}