{
  "_format": "hh-sol-artifact-1",
  "contractName": "TesseractCompute",
  "sourceName": "evm/TesseractCompute.sol",
  "abi": [
    {
      "inputs": [
        {
          "internalType": "address",
          "name": "_xcmPrecompile",
          "type": "address"
        },
        {
          "internalType": "address",
          "name": "_systemPrecompile",
          "type": "address"
        },
        {
          "internalType": "address",
          "name": "_vaultContract",
          "type": "address"
        },
        {
          "internalType": "address",
          "name": "_authorizedCaller",
          "type": "address"
        }
      ],
      "stateMutability": "nonpayable",
      "type": "constructor"
    },
    {
      "anonymous": false,
      "inputs": [
        {
          "indexed": false,
          "internalType": "address",
          "name": "caller",
          "type": "address"
        }
      ],
      "name": "AuthorizedCallerSet",
      "type": "event"
    },
    {
      "anonymous": false,
      "inputs": [
        {
          "indexed": false,
          "internalType": "bytes",
          "name": "destination",
          "type": "bytes"
        },
        {
          "indexed": false,
          "internalType": "uint64",
          "name": "refTime",
          "type": "uint64"
        },
        {
          "indexed": false,
          "internalType": "uint64",
          "name": "proofSize",
          "type": "uint64"
        }
      ],
      "name": "Routed",
      "type": "event"
    },
    {
      "anonymous": false,
      "inputs": [
        {
          "indexed": false,
          "internalType": "uint64",
          "name": "bestIndex",
          "type": "uint64"
        },
        {
          "indexed": false,
          "internalType": "uint256",
          "name": "aprCount",
          "type": "uint256"
        }
      ],
      "name": "StrategySelected",
      "type": "event"
    },
    {
      "inputs": [],
      "name": "authorizedCaller",
      "outputs": [
        {
          "internalType": "address",
          "name": "",
          "type": "address"
        }
      ],
      "stateMutability": "view",
      "type": "function"
    },
    {
      "inputs": [
        {
          "internalType": "address",
          "name": "assetPrecompile",
          "type": "address"
        }
      ],
      "name": "getAssetBalance",
      "outputs": [
        {
          "internalType": "uint256",
          "name": "",
          "type": "uint256"
        }
      ],
      "stateMutability": "view",
      "type": "function"
    },
    {
      "inputs": [
        {
          "internalType": "uint64[]",
          "name": "aprs",
          "type": "uint64[]"
        }
      ],
      "name": "getBestStrategy",
      "outputs": [
        {
          "internalType": "uint64",
          "name": "bestIndex",
          "type": "uint64"
        }
      ],
      "stateMutability": "nonpayable",
      "type": "function"
    },
    {
      "inputs": [],
      "name": "owner",
      "outputs": [
        {
          "internalType": "address",
          "name": "",
          "type": "address"
        }
      ],
      "stateMutability": "view",
      "type": "function"
    },
    {
      "inputs": [
        {
          "internalType": "bytes",
          "name": "destination",
          "type": "bytes"
        },
        {
          "internalType": "bytes",
          "name": "message",
          "type": "bytes"
        }
      ],
      "name": "routeToParachain",
      "outputs": [],
      "stateMutability": "nonpayable",
      "type": "function"
    },
    {
      "inputs": [
        {
          "internalType": "address",
          "name": "_caller",
          "type": "address"
        }
      ],
      "name": "setAuthorizedCaller",
      "outputs": [],
      "stateMutability": "nonpayable",
      "type": "function"
    },
    {
      "inputs": [],
      "name": "systemInfo",
      "outputs": [
        {
          "internalType": "uint64",
          "name": "refTime",
          "type": "uint64"
        },
        {
          "internalType": "uint64",
          "name": "proofSize",
          "type": "uint64"
        },
        {
          "internalType": "bytes32",
          "name": "codeHash",
          "type": "bytes32"
        }
      ],
      "stateMutability": "view",
      "type": "function"
    },
    {
      "inputs": [],
      "name": "systemPrecompile",
      "outputs": [
        {
          "internalType": "address",
          "name": "",
          "type": "address"
        }
      ],
      "stateMutability": "view",
      "type": "function"
    },
    {
      "inputs": [],
      "name": "vaultContract",
      "outputs": [
        {
          "internalType": "address",
          "name": "",
          "type": "address"
        }
      ],
      "stateMutability": "view",
      "type": "function"
    },
    {
      "inputs": [],
      "name": "xcmPrecompile",
      "outputs": [
        {
          "internalType": "address",
          "name": "",
          "type": "address"
        }
      ],
      "stateMutability": "view",
      "type": "function"
    }
  ],
  "bytecode": "0x6080346100e457601f610a9938819003918201601f19168301916001600160401b038311848410176100e9578084926080946040528339810103126100e457610047816100ff565b610053602083016100ff565b9061006c6060610065604086016100ff565b94016100ff565b91600160005560018060a01b03938480928160018060a01b0319951685600154161760015516836002541617600255168160035416176003553390600454161760045516806100c5575b60405161098590816101148239f35b600580546001600160a81b031916909117600160a01b179055386100b6565b600080fd5b634e487b7160e01b600052604160045260246000fd5b51906001600160a01b03821682036100e45756fe608060408181526004908136101561001657600080fd5b600092833560e01c9081631021764e1461084e575080632274346b146108255780632651bae7146106bd5780632a12408e146105ab5780632f22b5ef146103085780635373433f146102685780638da5cb5b1461024057806397dc97cb14610217578063ceff3e48146101ea5763cf8fbec91461009257600080fd5b346101e65760203660031901126101e65781356001600160a01b0381811693918490036101e25781541633036101a0576005549060ff8260a01c1661015d57831561011a57506001600160a81b0319168217600160a01b17600555519081527f8a543b23e9e3985a5581845751b4b0712b7c1a633d7ce41ef4ae00ae13dee76990602090a180f35b606490602084519162461bcd60e51b8352820152601e60248201527f546573736572616374436f6d707574653a207a65726f206164647265737300006044820152fd5b606490602084519162461bcd60e51b8352820152601d60248201527f546573736572616374436f6d707574653a20616c7265616479207365740000006044820152fd5b6020606492519162461bcd60e51b8352820152601b60248201527f546573736572616374436f6d707574653a206e6f74206f776e657200000000006044820152fd5b8480fd5b8280fd5b83823461021357816003193601126102135760025490516001600160a01b039091168152602090f35b5080fd5b83823461021357816003193601126102135760055490516001600160a01b039091168152602090f35b5090346101e657826003193601126101e6575490516001600160a01b03909116815260209150f35b5082903461021357602092836003193601126101e65780356001600160a01b038116919082900361030457849060248451809481936370a0823160e01b835230908301525afa9283156102f95780936102c4575b505051908152f35b909192508382813d83116102f2575b6102dd81836108e1565b810103126102ef5750519083806102bc565b80fd5b503d6102d3565b8251903d90823e3d90fd5b8380fd5b50346101e657806003193601126101e65767ffffffffffffffff9180358381116101e2576103399036908301610873565b91909260249485358181116105a7576103559036908501610873565b6005549097906001600160a01b0390811633036105655760028a54146105325760028a556001541694898551996347400c2360e01b8b526020838c0152868b806103a2878201858a61092e565b03818b5afa9a8b1561052857829b6104b0575b50873b15610213578a97602095836103ea938a519889958694859363d3b7e04d60e01b855260608b860152606485019161092e565b9c8b8151168a840152019b8a8d5116604483015203925af180156104a657610462575b505050807f68c1accacc7c3dc1f5bca758e0eae5ef3b3063f1ab0a1df0ac05fc171cd9f5069651169251169061044f815195869560608752606087019161092e565b9260208501528301520390a16001815580f35b8383116104955750508252807f68c1accacc7c3dc1f5bca758e0eae5ef3b3063f1ab0a1df0ac05fc171cd9f5063861040d565b634e487b7160e01b8a526041905288fd5b85513d8c823e3d90fd5b8780929c508193503d8311610521575b6104ca81836108e1565b8101031261051d578551908682018281108782111761050b5760208d93926104ff928a526104f781610919565b845201610919565b602082015299386103b5565b634e487b7160e01b8d5260418452848dfd5b8a80fd5b503d6104c0565b87513d84823e3d90fd5b845162461bcd60e51b8152602081880152600e818401526d1c99595b9d1c985b9d0818d85b1b60921b6044820152606490fd5b845162461bcd60e51b81526020818801819052818401527f546573736572616374436f6d707574653a206e6f7420617574686f72697a65646044820152606490fd5b8780fd5b5090346101e657826003193601126101e6576002548251638d29dffb60e01b81526001600160a01b03909116929081818481875afa93841561066d5785918695610677575b50602090835194858092636db5ee4560e11b82525afa92831561066d578593610635575b506060945081519367ffffffffffffffff8092168552166020840152820152f35b9092506020813d602011610665575b81610651602093836108e1565b810103126101e25760609450519138610614565b3d9150610644565b82513d87823e3d90fd5b83809296508193503d83116106b6575b61069181836108e1565b810103126101e25760206106af816106a884610919565b9301610919565b94906105f0565b503d610687565b508290346102135760203660031901126102135767ffffffffffffffff92803584811161030457366023820112156103045780820135938585116102ef576024906024830192602436918860051b0101116102ef5785156107e2576107238394936108cc565b928194600194856001905b61076f575b50602089897fa09fcb56ab43e960547f7838f205928f23720dff952e73a8ce1c7f1dd8160923818b8f825191169485825286820152a151908152f35b8a81168a8110156107dc57908161079061078b8e948e886108a6565b6108cc565b838086169116116107c0575b50168a81146107ad5786018661072e565b5050634e487b7160e01b83525060119052fd5b9098506107d4925061078b91508a846108a6565b89878c61079c565b50610733565b845162461bcd60e51b8152602081860152601c60248201527f546573736572616374436f6d707574653a20656d7074792061707273000000006044820152606490fd5b83823461021357816003193601126102135760035490516001600160a01b039091168152602090f35b8490346102135781600319360112610213576001546001600160a01b03168152602090f35b9181601f840112156108a15782359167ffffffffffffffff83116108a157602083818601950101116108a157565b600080fd5b91908110156108b65760051b0190565b634e487b7160e01b600052603260045260246000fd5b3567ffffffffffffffff811681036108a15790565b90601f8019910116810190811067ffffffffffffffff82111761090357604052565b634e487b7160e01b600052604160045260246000fd5b519067ffffffffffffffff821682036108a157565b908060209392818452848401376000828201840152601f01601f191601019056fea264697066735822122012b3b0b182c516e26c331a4f9bfcaa410dbf60170e4948187bf9a151d7f827b964736f6c63430008180033",
  "linkReferences": {},
  "deployedLinkReferences": {}
}