{"abi":[{"type":"constructor","inputs":[],"stateMutability":"nonpayable"},{"type":"function","name":"admin","inputs":[],"outputs":[{"name":"","type":"address","internalType":"address"}],"stateMutability":"view"},{"type":"function","name":"cache","inputs":[{"name":"","type":"address","internalType":"address"}],"outputs":[{"name":"voteCount","type":"uint64","internalType":"uint64"},{"name":"maxConviction","type":"uint8","internalType":"uint8"},{"name":"cachedAt","type":"uint256","internalType":"uint256"}],"stateMutability":"view"},{"type":"function","name":"getGovernanceData","inputs":[{"name":"user","type":"address","internalType":"address"}],"outputs":[{"name":"","type":"uint64","internalType":"uint64"},{"name":"","type":"uint8","internalType":"uint8"},{"name":"","type":"uint256","internalType":"uint256"}],"stateMutability":"view"},{"type":"function","name":"setGovernanceData","inputs":[{"name":"user","type":"address","internalType":"address"},{"name":"voteCount","type":"uint64","internalType":"uint64"},{"name":"maxConviction","type":"uint8","internalType":"uint8"}],"outputs":[],"stateMutability":"nonpayable"}],"bytecode":{"object":"0x60808060405234610027575f80546001600160a01b031916331790556102c9908161002c8239f35b5f80fdfe6040608081526004361015610012575f80fd5b5f3560e01c806362c7bbdf146101bf578063f18630b2146100e5578063f8342edf146100705763f851a44014610046575f80fd5b3461006c575f36600319011261006c575f5490516001600160a01b039091168152602090f35b5f80fd5b503461006c57602036600319011261006c576001600160a01b03610092610249565b165f526001602052805f20906100e1600183549301548367ffffffffffffffff60ff85519687961c1691168460ff60409295949367ffffffffffffffff60608401971683521660208201520152565b0390f35b503461006c57606036600319011261006c576100ff610249565b6024359067ffffffffffffffff80831680930361006c576044359060ff821680920361006c575f546001600160a01b03908116330361018f57600194959168ff00000000000000009161015061025f565b9788526020880194855283880195428752165f5285602052825f209651169186549351901b169168ffffffffffffffffff191617178355519101555f80f35b855162461bcd60e51b81526020600482015260096024820152683737ba1030b236b4b760b91b6044820152606490fd5b503461006c57602036600319011261006c576001600160a01b036101e1610249565b165f526001602052805f20906100e16101f861025f565b9180845493600160ff67ffffffffffffffff871696878452841c169687602084015201549283910152519384938460ff60409295949367ffffffffffffffff60608401971683521660208201520152565b600435906001600160a01b038216820361006c57565b604051906060820182811067ffffffffffffffff82111761027f57604052565b634e487b7160e01b5f52604160045260245ffdfea2646970667358221220134c3d7ef52c52434e7b561aaafbafb75a0150e101ff779ede6e2035c50704a564736f6c63430008180033","linkReferences":{}},"methodIdentifiers":{"admin()":"f851a440","cache(address)":"f8342edf","getGovernanceData(address)":"62c7bbdf","setGovernanceData(address,uint64,uint8)":"f18630b2"},"id":1}