{"evm/mocks/MockXcm.sol":{"MockXcm":{"abi":[{"anonymous":false,"inputs":[{"indexed":false,"internalType":"bytes","name":"message","type":"bytes"},{"indexed":false,"internalType":"uint64","name":"refTime","type":"uint64"},{"indexed":false,"internalType":"uint64","name":"proofSize","type":"uint64"}],"name":"Executed","type":"event"},{"anonymous":false,"inputs":[{"indexed":false,"internalType":"bytes","name":"destination","type":"bytes"},{"indexed":false,"internalType":"bytes","name":"message","type":"bytes"}],"name":"Sent","type":"event"},{"inputs":[{"internalType":"bytes","name":"message","type":"bytes"},{"components":[{"internalType":"uint64","name":"refTime","type":"uint64"},{"internalType":"uint64","name":"proofSize","type":"uint64"}],"internalType":"struct IXcm.Weight","name":"weight","type":"tuple"}],"name":"execute","outputs":[],"stateMutability":"nonpayable","type":"function"},{"inputs":[{"internalType":"bytes","name":"destination","type":"bytes"},{"internalType":"bytes","name":"message","type":"bytes"}],"name":"send","outputs":[],"stateMutability":"nonpayable","type":"function"},{"inputs":[{"internalType":"bytes","name":"","type":"bytes"}],"name":"weighMessage","outputs":[{"components":[{"internalType":"uint64","name":"refTime","type":"uint64"},{"internalType":"uint64","name":"proofSize","type":"uint64"}],"internalType":"struct IXcm.Weight","name":"weight","type":"tuple"}],"stateMutability":"pure","type":"function"}],"evm":{"bytecode":{"linkReferences":{},"object":"60808060405234610016576102b6908161001c8239f35b600080fdfe6040608081526004908136101561001557600080fd5b600091823560e01c806347400c23146101865780637f0a3bf9146100ed5763d3b7e04d1461004257600080fd5b346100e95760603660031901126100e957803567ffffffffffffffff918282116100e557610072913691016101f6565b9091836023193601126100e557602435908082168092036100e1576044359081168091036100e157846100d27f2414996516b6050535afb8c92621efdfe249453810a9d7b01a30465e2c13f1c4965195869560608752606087019161025f565b9260208501528301520390a180f35b8580fd5b8480fd5b8280fd5b5090346100e957806003193601126100e95767ffffffffffffffff9082358281116100e55761011f90369085016101f6565b92906024359182116100e15761017261015f7fd838c4b7f903146c126466bfdd6cd31be2fddc3937bdd716b37c8961ed68830396610180943691016101f6565b919092855196868897885287019161025f565b91848303602086015261025f565b0390a180f35b5082346101f35760203660031901126101f35767ffffffffffffffff9180358381116100e9576101b8913691016101f6565b505060206101c4610229565b82815201526101d1610229565b9060206402540be4009283815201620100008152835192835251166020820152f35b80fd5b9181601f840112156102245782359167ffffffffffffffff8311610224576020838186019501011161022457565b600080fd5b604051906040820182811067ffffffffffffffff82111761024957604052565b634e487b7160e01b600052604160045260246000fd5b908060209392818452848401376000828201840152601f01601f191601019056fea2646970667358221220b459ff51372513969ea93c05d9d4aeb94157b44521e2596bdb87f2a1d9eebb2664736f6c63430008180033","opcodes":"PUSH1 0x80 DUP1 PUSH1 0x40 MSTORE CALLVALUE PUSH2 0x16 JUMPI PUSH2 0x2B6 SWAP1 DUP2 PUSH2 0x1C DUP3 CODECOPY RETURN JUMPDEST PUSH1 0x0 DUP1 REVERT INVALID PUSH1 0x40 PUSH1 0x80 DUP2 MSTORE PUSH1 0x4 SWAP1 DUP2 CALLDATASIZE LT ISZERO PUSH2 0x15 JUMPI PUSH1 0x0 DUP1 REVERT JUMPDEST PUSH1 0x0 SWAP2 DUP3 CALLDATALOAD PUSH1 0xE0 SHR DUP1 PUSH4 0x47400C23 EQ PUSH2 0x186 JUMPI DUP1 PUSH4 0x7F0A3BF9 EQ PUSH2 0xED JUMPI PUSH4 0xD3B7E04D EQ PUSH2 0x42 JUMPI PUSH1 0x0 DUP1 REVERT JUMPDEST CALLVALUE PUSH2 0xE9 JUMPI PUSH1 0x60 CALLDATASIZE PUSH1 0x3 NOT ADD SLT PUSH2 0xE9 JUMPI DUP1 CALLDATALOAD PUSH8 0xFFFFFFFFFFFFFFFF SWAP2 DUP3 DUP3 GT PUSH2 0xE5 JUMPI PUSH2 0x72 SWAP2 CALLDATASIZE SWAP2 ADD PUSH2 0x1F6 JUMP JUMPDEST SWAP1 SWAP2 DUP4 PUSH1 0x23 NOT CALLDATASIZE ADD SLT PUSH2 0xE5 JUMPI PUSH1 0x24 CALLDATALOAD SWAP1 DUP1 DUP3 AND DUP1 SWAP3 SUB PUSH2 0xE1 JUMPI PUSH1 0x44 CALLDATALOAD SWAP1 DUP2 AND DUP1 SWAP2 SUB PUSH2 0xE1 JUMPI DUP5 PUSH2 0xD2 PUSH32 0x2414996516B6050535AFB8C92621EFDFE249453810A9D7B01A30465E2C13F1C4 SWAP7 MLOAD SWAP6 DUP7 SWAP6 PUSH1 0x60 DUP8 MSTORE PUSH1 0x60 DUP8 ADD SWAP2 PUSH2 0x25F JUMP JUMPDEST SWAP3 PUSH1 0x20 DUP6 ADD MSTORE DUP4 ADD MSTORE SUB SWAP1 LOG1 DUP1 RETURN JUMPDEST DUP6 DUP1 REVERT JUMPDEST DUP5 DUP1 REVERT JUMPDEST DUP3 DUP1 REVERT JUMPDEST POP SWAP1 CALLVALUE PUSH2 0xE9 JUMPI DUP1 PUSH1 0x3 NOT CALLDATASIZE ADD SLT PUSH2 0xE9 JUMPI PUSH8 0xFFFFFFFFFFFFFFFF SWAP1 DUP3 CALLDATALOAD DUP3 DUP2 GT PUSH2 0xE5 JUMPI PUSH2 0x11F SWAP1 CALLDATASIZE SWAP1 DUP6 ADD PUSH2 0x1F6 JUMP JUMPDEST SWAP3 SWAP1 PUSH1 0x24 CALLDATALOAD SWAP2 DUP3 GT PUSH2 0xE1 JUMPI PUSH2 0x172 PUSH2 0x15F PUSH32 0xD838C4B7F903146C126466BFDD6CD31BE2FDDC3937BDD716B37C8961ED688303 SWAP7 PUSH2 0x180 SWAP5 CALLDATASIZE SWAP2 ADD PUSH2 0x1F6 JUMP JUMPDEST SWAP2 SWAP1 SWAP3 DUP6 MLOAD SWAP7 DUP7 DUP9 SWAP8 DUP9 MSTORE DUP8 ADD SWAP2 PUSH2 0x25F JUMP JUMPDEST SWAP2 DUP5 DUP4 SUB PUSH1 0x20 DUP7 ADD MSTORE PUSH2 0x25F JUMP JUMPDEST SUB SWAP1 LOG1 DUP1 RETURN JUMPDEST POP DUP3 CALLVALUE PUSH2 0x1F3 JUMPI PUSH1 0x20 CALLDATASIZE PUSH1 0x3 NOT ADD SLT PUSH2 0x1F3 JUMPI PUSH8 0xFFFFFFFFFFFFFFFF SWAP2 DUP1 CALLDATALOAD DUP4 DUP2 GT PUSH2 0xE9 JUMPI PUSH2 0x1B8 SWAP2 CALLDATASIZE SWAP2 ADD PUSH2 0x1F6 JUMP JUMPDEST POP POP PUSH1 0x20 PUSH2 0x1C4 PUSH2 0x229 JUMP JUMPDEST DUP3 DUP2 MSTORE ADD MSTORE PUSH2 0x1D1 PUSH2 0x229 JUMP JUMPDEST SWAP1 PUSH1 0x20 PUSH5 0x2540BE400 SWAP3 DUP4 DUP2 MSTORE ADD PUSH3 0x10000 DUP2 MSTORE DUP4 MLOAD SWAP3 DUP4 MSTORE MLOAD AND PUSH1 0x20 DUP3 ADD MSTORE RETURN JUMPDEST DUP1 REVERT JUMPDEST SWAP2 DUP2 PUSH1 0x1F DUP5 ADD SLT ISZERO PUSH2 0x224 JUMPI DUP3 CALLDATALOAD SWAP2 PUSH8 0xFFFFFFFFFFFFFFFF DUP4 GT PUSH2 0x224 JUMPI PUSH1 0x20 DUP4 DUP2 DUP7 ADD SWAP6 ADD ADD GT PUSH2 0x224 JUMPI JUMP JUMPDEST PUSH1 0x0 DUP1 REVERT JUMPDEST PUSH1 0x40 MLOAD SWAP1 PUSH1 0x40 DUP3 ADD DUP3 DUP2 LT PUSH8 0xFFFFFFFFFFFFFFFF DUP3 GT OR PUSH2 0x249 JUMPI PUSH1 0x40 MSTORE JUMP JUMPDEST PUSH4 0x4E487B71 PUSH1 0xE0 SHL PUSH1 0x0 MSTORE PUSH1 0x41 PUSH1 0x4 MSTORE PUSH1 0x24 PUSH1 0x0 REVERT JUMPDEST SWAP1 DUP1 PUSH1 0x20 SWAP4 SWAP3 DUP2 DUP5 MSTORE DUP5 DUP5 ADD CALLDATACOPY PUSH1 0x0 DUP3 DUP3 ADD DUP5 ADD MSTORE PUSH1 0x1F ADD PUSH1 0x1F NOT AND ADD ADD SWAP1 JUMP INVALID LOG2 PUSH5 0x6970667358 0x22 SLT KECCAK256 0xB4 MSIZE SELFDESTRUCT MLOAD CALLDATACOPY 0x25 SGT SWAP7 SWAP15 0xA9 EXTCODECOPY SDIV 0xD9 0xD4 0xAE 0xB9 COINBASE JUMPI 0xB4 GASLIMIT 0x21 0xE2 MSIZE PUSH12 0xDB87F2A1D9EEBB2664736F6C PUSH4 0x43000818 STOP CALLER "},"methodIdentifiers":{"execute(bytes,(uint64,uint64))":"d3b7e04d","send(bytes,bytes)":"7f0a3bf9","weighMessage(bytes)":"47400c23"}}}}}