{"evm/TesseractSwap.sol":{"TesseractSwap":{"abi":[{"inputs":[{"internalType":"address","name":"_xcmPrecompile","type":"address"},{"internalType":"address","name":"_systemPrecompile","type":"address"}],"stateMutability":"nonpayable","type":"constructor"},{"inputs":[],"name":"ReentrancyGuardReentrantCall","type":"error"},{"anonymous":false,"inputs":[{"indexed":true,"internalType":"uint32","name":"assetId","type":"uint32"},{"indexed":false,"internalType":"address","name":"precompileAddr","type":"address"}],"name":"AssetRegistered","type":"event"},{"anonymous":false,"inputs":[{"indexed":true,"internalType":"address","name":"sender","type":"address"},{"indexed":false,"internalType":"uint32","name":"assetIdOut","type":"uint32"},{"indexed":false,"internalType":"uint256","name":"amountOut","type":"uint256"},{"indexed":false,"internalType":"bytes","name":"xcmDestination","type":"bytes"}],"name":"BridgeXCM","type":"event"},{"anonymous":false,"inputs":[{"indexed":true,"internalType":"address","name":"provider","type":"address"},{"indexed":true,"internalType":"bytes32","name":"poolId","type":"bytes32"},{"indexed":false,"internalType":"uint256","name":"shares","type":"uint256"}],"name":"LiquidityAdded","type":"event"},{"anonymous":false,"inputs":[{"indexed":true,"internalType":"address","name":"provider","type":"address"},{"indexed":true,"internalType":"bytes32","name":"poolId","type":"bytes32"},{"indexed":false,"internalType":"uint256","name":"shares","type":"uint256"}],"name":"LiquidityRemoved","type":"event"},{"anonymous":false,"inputs":[{"indexed":true,"internalType":"address","name":"sender","type":"address"},{"indexed":false,"internalType":"uint32","name":"assetIdIn","type":"uint32"},{"indexed":false,"internalType":"uint32","name":"assetIdOut","type":"uint32"},{"indexed":false,"internalType":"uint256","name":"amountIn","type":"uint256"},{"indexed":false,"internalType":"uint256","name":"amountOut","type":"uint256"}],"name":"Swap","type":"event"},{"inputs":[{"internalType":"uint32","name":"assetA","type":"uint32"},{"internalType":"uint32","name":"assetB","type":"uint32"},{"internalType":"uint256","name":"amountA","type":"uint256"},{"internalType":"uint256","name":"amountB","type":"uint256"}],"name":"addLiquidity","outputs":[{"internalType":"uint256","name":"shares","type":"uint256"}],"stateMutability":"nonpayable","type":"function"},{"inputs":[{"internalType":"uint32","name":"","type":"uint32"}],"name":"assetPrecompile","outputs":[{"internalType":"address","name":"","type":"address"}],"stateMutability":"view","type":"function"},{"inputs":[{"internalType":"uint32","name":"assetA","type":"uint32"},{"internalType":"uint32","name":"assetB","type":"uint32"}],"name":"getPoolId","outputs":[{"internalType":"bytes32","name":"","type":"bytes32"}],"stateMutability":"view","type":"function"},{"inputs":[{"internalType":"bytes32","name":"poolId","type":"bytes32"},{"internalType":"address","name":"user","type":"address"}],"name":"getPoolShares","outputs":[{"internalType":"uint256","name":"","type":"uint256"}],"stateMutability":"view","type":"function"},{"inputs":[{"internalType":"uint32","name":"assetA","type":"uint32"},{"internalType":"uint32","name":"assetB","type":"uint32"}],"name":"getReserves","outputs":[{"internalType":"uint256","name":"reserveA","type":"uint256"},{"internalType":"uint256","name":"reserveB","type":"uint256"}],"stateMutability":"view","type":"function"},{"inputs":[],"name":"owner","outputs":[{"internalType":"address","name":"","type":"address"}],"stateMutability":"view","type":"function"},{"inputs":[{"internalType":"bytes32","name":"","type":"bytes32"}],"name":"pools","outputs":[{"internalType":"uint256","name":"reserveA","type":"uint256"},{"internalType":"uint256","name":"reserveB","type":"uint256"},{"internalType":"uint256","name":"totalShares","type":"uint256"}],"stateMutability":"view","type":"function"},{"inputs":[{"internalType":"uint32","name":"assetId","type":"uint32"},{"internalType":"address","name":"precompileAddr","type":"address"}],"name":"registerAsset","outputs":[],"stateMutability":"nonpayable","type":"function"},{"inputs":[{"internalType":"uint32","name":"assetA","type":"uint32"},{"internalType":"uint32","name":"assetB","type":"uint32"},{"internalType":"uint256","name":"shares","type":"uint256"}],"name":"removeLiquidity","outputs":[{"internalType":"uint256","name":"amountA","type":"uint256"},{"internalType":"uint256","name":"amountB","type":"uint256"}],"stateMutability":"nonpayable","type":"function"},{"inputs":[{"internalType":"uint32","name":"assetIdIn","type":"uint32"},{"internalType":"uint32","name":"assetIdOut","type":"uint32"},{"internalType":"uint256","name":"amountIn","type":"uint256"},{"internalType":"uint256","name":"minAmountOut","type":"uint256"}],"name":"swap","outputs":[{"internalType":"uint256","name":"amountOut","type":"uint256"}],"stateMutability":"nonpayable","type":"function"},{"inputs":[{"internalType":"uint32","name":"assetIdIn","type":"uint32"},{"internalType":"uint32","name":"assetIdOut","type":"uint32"},{"internalType":"uint256","name":"amountIn","type":"uint256"},{"internalType":"uint256","name":"minAmountOut","type":"uint256"},{"internalType":"bytes","name":"xcmDestination","type":"bytes"},{"internalType":"bytes","name":"xcmMessage","type":"bytes"}],"name":"swapAndBridgeXCM","outputs":[{"internalType":"uint256","name":"amountOut","type":"uint256"}],"stateMutability":"nonpayable","type":"function"},{"inputs":[],"name":"systemPrecompile","outputs":[{"internalType":"address","name":"","type":"address"}],"stateMutability":"view","type":"function"},{"inputs":[],"name":"xcmPrecompile","outputs":[{"internalType":"address","name":"","type":"address"}],"stateMutability":"view","type":"function"}],"evm":{"bytecode":{"linkReferences":{},"object":"60c0346100c057601f61153838819003918201601f19168301916001600160401b038311848410176100c55780849260409485528339810103126100c057610052602061004b836100db565b92016100db565b60017f9b779b17422d0df92223018b32b4d1fa46e071723d6817e2486d003becc55f005560809190915260a052600080546001600160a01b0319163317905560405161144890816100f082396080518181816106090152610cf5015260a05181818161050c0152610f3f0152f35b600080fd5b634e487b7160e01b600052604160045260246000fd5b51906001600160a01b03821682036100c05756fe608060408181526004918236101561001657600080fd5b600092833560e01c9182631021764e14610ce1575081631e00c2b21461090d5781632d9d90e9146108d35781634a4f0718146108935781638da5cb5b1461086b578163acff38a714610826578163b5217bb4146107e8578163bc95412f14610570578163bd6a87b01461053b578163ceff3e48146104f7578163df17aa25146103df578163e5d92e19146100f5575063f8338807146100b457600080fd5b346100f15760203660031901126100f15760209163ffffffff6100d5610d24565b168152600183528190205490516001600160a01b039091168152f35b5080fd5b905082346103dc5760603660031901126103dc57610111610d24565b610119610d3c565b91604435610125610fe2565b61012f8484610ea5565b9182815260209360028552878220966003880196338452878752848a8520541061038e576002890198895490811561034b576101758261017083548a610e19565b610e42565b9a610189600183019361017085548b610e19565b9a3388528a528c872061019d898254610fd5565b90556101aa888254610fd5565b90556101b78b8254610fd5565b90556101c4898254610fd5565b905563ffffffff9081169216828110156103275783526001865288832054918352888320546001600160a01b0390811692165b895163a9059cbb60e01b80825233848301908152602081018c90526001600160a01b03939192918a918391908290036040019082908a9088165af1801561031d57958a938196938e8c979461026f9a610300575b50519081523393810193845260208401959095529396879485939091849160400190565b0393165af19081156102f557506102c8575b5085519081527f512142965b9e43ff2d7d4e078277b9b45609b1f24b5d1508e57f57384d9121ec833392a360016000805160206113f3833981519152558351928352820152f35b6102e790843d86116102ee575b6102df8183610dc9565b810190610e01565b5086610281565b503d6102d5565b8851903d90823e3d90fd5b61031690893d8b116102ee576102df8183610dc9565b503861024b565b8c513d88823e3d90fd5b9183526001865288832054918352888320546001600160a01b0390811692166101f7565b8b5162461bcd60e51b81528085018a9052601960248201527f546573736572616374537761703a20656d70747920706f6f6c000000000000006044820152606490fd5b895162461bcd60e51b8152808301889052602260248201527f546573736572616374537761703a20696e73756666696369656e742073686172604482015261657360f01b6064820152608490fd5b80fd5b9050346104f357816003193601126104f3576103f9610d24565b610401610d85565b84546001600160a01b039190821633036104b0571691821561046d575063ffffffff168084526001602090815283852080546001600160a01b031916841790559251918252917f250d5f8faeb2acd85b93888f82538b3d3fe56d7b9026a5fbe3ed945021453c1591a280f35b606490602085519162461bcd60e51b8352820152601b60248201527f546573736572616374537761703a207a65726f206164647265737300000000006044820152fd5b845162461bcd60e51b8152602081860152601860248201527f546573736572616374537761703a206e6f74206f776e657200000000000000006044820152606490fd5b8280fd5b5050346100f157816003193601126100f157517f00000000000000000000000000000000000000000000000000000000000000006001600160a01b03168152602090f35b5050346100f157806003193601126100f15760209061056961055b610d24565b610563610d3c565b90610ea5565b9051908152f35b8383346100f15760c03660031901126100f15761058b610d24565b610593610d3c565b67ffffffffffffffff936084358581116100f1576105b49036908801610d9b565b93909160a435978789116100f1576105d26105ee9936908301610d9b565b9990936105dd610fe2565b309060643590886044359133611012565b87516347400c2360e01b815260208382018190529a919991907f00000000000000000000000000000000000000000000000000000000000000006001600160a01b0316908a818061064360248201878c610e84565b0381855afa9081156107de578691610771575b50813b1561076d5790606086868f94878f9661068d859998519d8e998a98899763d3b7e04d60e01b89528801526064870191610e84565b92828151166024860152015116604483015203925af1801561076357610717575b505050507f348f79c99116814ae345dcab528a84749bd6cf6eb9cdde89277644b357c12453916106fc63ffffffff928651938493168352878984015260608784015233956060840191610e84565b0390a260016000805160206113f38339815191525551908152f35b83116107505750508452816106fc63ffffffff7f348f79c99116814ae345dcab528a84749bd6cf6eb9cdde89277644b357c124536106ae565b634e487b7160e01b825260419052602490fd5b88513d85823e3d90fd5b8580fd5b90508a81813d83116107d7575b6107888183610dc9565b8101031261076d578a51908b8201828110868211176107c4576107ba918f918e526107b281610e6f565b845201610e6f565b8d8201528d610656565b634e487b7160e01b885260418752602488fd5b503d61077e565b8b513d88823e3d90fd5b9050346104f35760203660031901126104f3576060928291358152600260205220805491600260018301549201549181519384526020840152820152f35b9050346104f357816003193601126104f3576020928291610845610d85565b90358252600285528282206001600160a01b039091168252600301845220549051908152f35b5050346100f157816003193601126100f157905490516001600160a01b039091168152602090f35b5050346100f1576020906108ba6108a936610d4f565b916108b2610fe2565b339333611012565b9060016000805160206113f38339815191525551908152f35b5050346100f157806003193601126100f15780916108f261055b610d24565b81526002602052206001815491015482519182526020820152f35b919050346104f35761091e36610d4f565b959192610929610fe2565b81151580610cd8575b15610c955763ffffffff9687821692838552600195602099878b5260018060a01b0391828a8920541691811690818952838b8a2054169683151580610c8c575b15610c3f5791600261098d8f9b9a9998979695938f95610ea5565b808b529a528b8920971015610c3857949293945b8a516323b872dd60e01b80825233938201938452306020850152604084018790529290918e918391908290036060019082908c9088165af18015610c2e57888e9488948f938f9095610a1d9996610c11575b50519081523393810193845230602085015260408401959095529395869485939091849160600190565b0393165af18015610c0757610bea575b5060028301918254918215600014610b9457610a498282610e19565b998660038c1115610b8557508a808a1c8a8101809111610b7257905b8c8210610b545750505b8a15610afb5750898996959360039593610a8e610aa5945b8754610e62565b8655610a9e8b8701918254610e62565b9055610e62565b905533835201875220610ab9858254610e62565b905582518481527fe3dcbe559b610f5784b9db6ab7a250c9c7cc6aa560eae7dfc50de489602b5654863392a36000805160206113f38339815191525551908152f35b895162461bcd60e51b81529081018c9052602d60248201527f546573736572616374537761703a20696e73756666696369656e7420696e697460448201526c69616c206c697175696469747960981b6064820152608490fd5b909b50610b6a8c610b658184610e42565b610e62565b8a1c90610a65565b634e487b7160e01b895260118352602489fd5b9a15610a6f5799508799610a6f565b610a8e9950808360039593610bba610bb28d9a9997610aa596610e19565b875490610e42565b610bd1610bc78484610e19565b8d89015490610e42565b80821015610be357505b9c8d93610a87565b9050610bdb565b610c00908a3d8c116102ee576102df8183610dc9565b5038610a2d565b88513d87823e3d90fd5b610c2790893d8b116102ee576102df8183610dc9565b50386109f3565b8b513d8a823e3d90fd5b92946109a1565b8b5162461bcd60e51b8152808e018f9052602160248201527f546573736572616374537761703a20756e7265676973746572656420617373656044820152601d60fa1b6064820152608490fd5b50871515610972565b845162461bcd60e51b8152602081880152601a60248201527f546573736572616374537761703a207a65726f20616d6f756e740000000000006044820152606490fd5b50861515610932565b8490346100f157816003193601126100f1577f00000000000000000000000000000000000000000000000000000000000000006001600160a01b03168152602090f35b6004359063ffffffff82168203610d3757565b600080fd5b6024359063ffffffff82168203610d3757565b6080906003190112610d375763ffffffff906004358281168103610d3757916024359081168103610d3757906044359060643590565b602435906001600160a01b0382168203610d3757565b9181601f84011215610d375782359167ffffffffffffffff8311610d375760208381860195010111610d3757565b90601f8019910116810190811067ffffffffffffffff821117610deb57604052565b634e487b7160e01b600052604160045260246000fd5b90816020910312610d3757518015158103610d375790565b81810292918115918404141715610e2c57565b634e487b7160e01b600052601160045260246000fd5b8115610e4c570490565b634e487b7160e01b600052601260045260246000fd5b91908201809211610e2c57565b519067ffffffffffffffff82168203610d3757565b908060209392818452848401376000828201840152601f01601f1916010190565b63ffffffff8281169082161015610fd057905b6040519160209163ffffffff60e01b809260e01b168385015260e01b16602483015260088252604082019082821067ffffffffffffffff831117610deb57816040526363effb4360e11b8252806044840152825180606485015281838560005b848110610fb9575060008185016084015291929091601f909101601f1916810103604401817f00000000000000000000000000000000000000000000000000000000000000006001600160a01b03165afa928315610fad57600093610f7e575b50505090565b90809293503d8311610fa6575b610f958185610dc9565b81010312610d375751388080610f78565b503d610f8b565b6040513d6000823e3d90fd5b915081016084838201519101520183858492610f18565b610eb8565b91908203918211610e2c57565b6000805160206113f383398151915260028154146110005760029055565b604051633ee5aeb560e01b8152600490fd5b91939594929081156113ad5763ffffffff94858216956000958787526020916001835260018060a01b0397604095898783205416928616958683528a888420541691841515806113a4575b15611360579061106c91610ea5565b82526002855286822093868c109384156113565785545b851561134e576001870154905b801591821580611345575b15611301576103e58d0291906103e4198e8404016112ed576110bd9083610e19565b926103e88083029283041417156112d9576110e292916110dc91610e62565b90610e42565b9e8f106112975788516323b872dd60e01b81526001600160a01b038c166004820152306024820152604481018b90529087908290606490829088905af1801561128d57908f939291611270575b50308c8216036111c8575b50505050917f568353021bf6309d803f0179307ebd0aef56ab90c7b0d226f8df92df9e3769ff9795939160809795936000146111a5578061117e8660019354610e62565b81550161118c8c8254610fd5565b90555b82519889528801528601528660608601521692a2565b600181016111b4868254610e62565b90556111c18c8254610fd5565b905561118f565b885163a9059cbb60e01b81526001600160a01b03919091166004820152602481019290925290919085908390604490829085905af19081156112655750917f568353021bf6309d803f0179307ebd0aef56ab90c7b0d226f8df92df9e3769ff9997959391608099979593611248575b829496989a8e929496989a5061113a565b61125e90843d86116102ee576102df8183610dc9565b5038611237565b8751903d90823e3d90fd5b61128690883d8a116102ee576102df8183610dc9565b503861112f565b89513d86823e3d90fd5b6064878a519062461bcd60e51b825280600483015260248201527f546573736572616374537761703a20736c6970706167652065786365656465646044820152fd5b634e487b7160e01b87526011600452602487fd5b634e487b7160e01b88526011600452602488fd5b8b5162461bcd60e51b8152600481018b9052601b60248201527f546573736572616374537761703a206e6f206c697175696469747900000000006044820152606490fd5b5080151561109b565b865490611090565b6001860154611083565b885162461bcd60e51b815260048101889052601b60248201527f546573736572616374537761703a20756e7265676973746572656400000000006044820152606490fd5b5082151561105d565b60405162461bcd60e51b815260206004820152601960248201527f546573736572616374537761703a207a65726f20696e707574000000000000006044820152606490fdfe9b779b17422d0df92223018b32b4d1fa46e071723d6817e2486d003becc55f00a2646970667358221220fd8df282d0d79ab5eade246830bbf99d1ec59b76ebe46ea59038004eed14e6db64736f6c63430008180033","opcodes":"PUSH1 0xC0 CALLVALUE PUSH2 0xC0 JUMPI PUSH1 0x1F PUSH2 0x1538 CODESIZE DUP2 SWAP1 SUB SWAP2 DUP3 ADD PUSH1 0x1F NOT AND DUP4 ADD SWAP2 PUSH1 0x1 PUSH1 0x1 PUSH1 0x40 SHL SUB DUP4 GT DUP5 DUP5 LT OR PUSH2 0xC5 JUMPI DUP1 DUP5 SWAP3 PUSH1 0x40 SWAP5 DUP6 MSTORE DUP4 CODECOPY DUP2 ADD SUB SLT PUSH2 0xC0 JUMPI PUSH2 0x52 PUSH1 0x20 PUSH2 0x4B DUP4 PUSH2 0xDB JUMP JUMPDEST SWAP3 ADD PUSH2 0xDB JUMP JUMPDEST PUSH1 0x1 PUSH32 0x9B779B17422D0DF92223018B32B4D1FA46E071723D6817E2486D003BECC55F00 SSTORE PUSH1 0x80 SWAP2 SWAP1 SWAP2 MSTORE PUSH1 0xA0 MSTORE PUSH1 0x0 DUP1 SLOAD PUSH1 0x1 PUSH1 0x1 PUSH1 0xA0 SHL SUB NOT AND CALLER OR SWAP1 SSTORE PUSH1 0x40 MLOAD PUSH2 0x1448 SWAP1 DUP2 PUSH2 0xF0 DUP3 CODECOPY PUSH1 0x80 MLOAD DUP2 DUP2 DUP2 PUSH2 0x609 ADD MSTORE PUSH2 0xCF5 ADD MSTORE PUSH1 0xA0 MLOAD DUP2 DUP2 DUP2 PUSH2 0x50C ADD MSTORE PUSH2 0xF3F ADD MSTORE RETURN JUMPDEST PUSH1 0x0 DUP1 REVERT JUMPDEST PUSH4 0x4E487B71 PUSH1 0xE0 SHL PUSH1 0x0 MSTORE PUSH1 0x41 PUSH1 0x4 MSTORE PUSH1 0x24 PUSH1 0x0 REVERT JUMPDEST MLOAD SWAP1 PUSH1 0x1 PUSH1 0x1 PUSH1 0xA0 SHL SUB DUP3 AND DUP3 SUB PUSH2 0xC0 JUMPI JUMP INVALID PUSH1 0x80 PUSH1 0x40 DUP2 DUP2 MSTORE PUSH1 0x4 SWAP2 DUP3 CALLDATASIZE LT ISZERO PUSH2 0x16 JUMPI PUSH1 0x0 DUP1 REVERT JUMPDEST PUSH1 0x0 SWAP3 DUP4 CALLDATALOAD PUSH1 0xE0 SHR SWAP2 DUP3 PUSH4 0x1021764E EQ PUSH2 0xCE1 JUMPI POP DUP2 PUSH4 0x1E00C2B2 EQ PUSH2 0x90D JUMPI DUP2 PUSH4 0x2D9D90E9 EQ PUSH2 0x8D3 JUMPI DUP2 PUSH4 0x4A4F0718 EQ PUSH2 0x893 JUMPI DUP2 PUSH4 0x8DA5CB5B EQ PUSH2 0x86B JUMPI DUP2 PUSH4 0xACFF38A7 EQ PUSH2 0x826 JUMPI DUP2 PUSH4 0xB5217BB4 EQ PUSH2 0x7E8 JUMPI DUP2 PUSH4 0xBC95412F EQ PUSH2 0x570 JUMPI DUP2 PUSH4 0xBD6A87B0 EQ PUSH2 0x53B JUMPI DUP2 PUSH4 0xCEFF3E48 EQ PUSH2 0x4F7 JUMPI DUP2 PUSH4 0xDF17AA25 EQ PUSH2 0x3DF JUMPI DUP2 PUSH4 0xE5D92E19 EQ PUSH2 0xF5 JUMPI POP PUSH4 0xF8338807 EQ PUSH2 0xB4 JUMPI PUSH1 0x0 DUP1 REVERT JUMPDEST CALLVALUE PUSH2 0xF1 JUMPI PUSH1 0x20 CALLDATASIZE PUSH1 0x3 NOT ADD SLT PUSH2 0xF1 JUMPI PUSH1 0x20 SWAP2 PUSH4 0xFFFFFFFF PUSH2 0xD5 PUSH2 0xD24 JUMP JUMPDEST AND DUP2 MSTORE PUSH1 0x1 DUP4 MSTORE DUP2 SWAP1 KECCAK256 SLOAD SWAP1 MLOAD PUSH1 0x1 PUSH1 0x1 PUSH1 0xA0 SHL SUB SWAP1 SWAP2 AND DUP2 MSTORE RETURN JUMPDEST POP DUP1 REVERT JUMPDEST SWAP1 POP DUP3 CALLVALUE PUSH2 0x3DC JUMPI PUSH1 0x60 CALLDATASIZE PUSH1 0x3 NOT ADD SLT PUSH2 0x3DC JUMPI PUSH2 0x111 PUSH2 0xD24 JUMP JUMPDEST PUSH2 0x119 PUSH2 0xD3C JUMP JUMPDEST SWAP2 PUSH1 0x44 CALLDATALOAD PUSH2 0x125 PUSH2 0xFE2 JUMP JUMPDEST PUSH2 0x12F DUP5 DUP5 PUSH2 0xEA5 JUMP JUMPDEST SWAP2 DUP3 DUP2 MSTORE PUSH1 0x20 SWAP4 PUSH1 0x2 DUP6 MSTORE DUP8 DUP3 KECCAK256 SWAP7 PUSH1 0x3 DUP9 ADD SWAP7 CALLER DUP5 MSTORE DUP8 DUP8 MSTORE DUP5 DUP11 DUP6 KECCAK256 SLOAD LT PUSH2 0x38E JUMPI PUSH1 0x2 DUP10 ADD SWAP9 DUP10 SLOAD SWAP1 DUP2 ISZERO PUSH2 0x34B JUMPI PUSH2 0x175 DUP3 PUSH2 0x170 DUP4 SLOAD DUP11 PUSH2 0xE19 JUMP JUMPDEST PUSH2 0xE42 JUMP JUMPDEST SWAP11 PUSH2 0x189 PUSH1 0x1 DUP4 ADD SWAP4 PUSH2 0x170 DUP6 SLOAD DUP12 PUSH2 0xE19 JUMP JUMPDEST SWAP11 CALLER DUP9 MSTORE DUP11 MSTORE DUP13 DUP8 KECCAK256 PUSH2 0x19D DUP10 DUP3 SLOAD PUSH2 0xFD5 JUMP JUMPDEST SWAP1 SSTORE PUSH2 0x1AA DUP9 DUP3 SLOAD PUSH2 0xFD5 JUMP JUMPDEST SWAP1 SSTORE PUSH2 0x1B7 DUP12 DUP3 SLOAD PUSH2 0xFD5 JUMP JUMPDEST SWAP1 SSTORE PUSH2 0x1C4 DUP10 DUP3 SLOAD PUSH2 0xFD5 JUMP JUMPDEST SWAP1 SSTORE PUSH4 0xFFFFFFFF SWAP1 DUP2 AND SWAP3 AND DUP3 DUP2 LT ISZERO PUSH2 0x327 JUMPI DUP4 MSTORE PUSH1 0x1 DUP7 MSTORE DUP9 DUP4 KECCAK256 SLOAD SWAP2 DUP4 MSTORE DUP9 DUP4 KECCAK256 SLOAD PUSH1 0x1 PUSH1 0x1 PUSH1 0xA0 SHL SUB SWAP1 DUP2 AND SWAP3 AND JUMPDEST DUP10 MLOAD PUSH4 0xA9059CBB PUSH1 0xE0 SHL DUP1 DUP3 MSTORE CALLER DUP5 DUP4 ADD SWAP1 DUP2 MSTORE PUSH1 0x20 DUP2 ADD DUP13 SWAP1 MSTORE PUSH1 0x1 PUSH1 0x1 PUSH1 0xA0 SHL SUB SWAP4 SWAP2 SWAP3 SWAP2 DUP11 SWAP2 DUP4 SWAP2 SWAP1 DUP3 SWAP1 SUB PUSH1 0x40 ADD SWAP1 DUP3 SWAP1 DUP11 SWAP1 DUP9 AND GAS CALL DUP1 ISZERO PUSH2 0x31D JUMPI SWAP6 DUP11 SWAP4 DUP2 SWAP7 SWAP4 DUP15 DUP13 SWAP8 SWAP5 PUSH2 0x26F SWAP11 PUSH2 0x300 JUMPI JUMPDEST POP MLOAD SWAP1 DUP2 MSTORE CALLER SWAP4 DUP2 ADD SWAP4 DUP5 MSTORE PUSH1 0x20 DUP5 ADD SWAP6 SWAP1 SWAP6 MSTORE SWAP4 SWAP7 DUP8 SWAP5 DUP6 SWAP4 SWAP1 SWAP2 DUP5 SWAP2 PUSH1 0x40 ADD SWAP1 JUMP JUMPDEST SUB SWAP4 AND GAS CALL SWAP1 DUP2 ISZERO PUSH2 0x2F5 JUMPI POP PUSH2 0x2C8 JUMPI JUMPDEST POP DUP6 MLOAD SWAP1 DUP2 MSTORE PUSH32 0x512142965B9E43FF2D7D4E078277B9B45609B1F24B5D1508E57F57384D9121EC DUP4 CALLER SWAP3 LOG3 PUSH1 0x1 PUSH1 0x0 DUP1 MLOAD PUSH1 0x20 PUSH2 0x13F3 DUP4 CODECOPY DUP2 MLOAD SWAP2 MSTORE SSTORE DUP4 MLOAD SWAP3 DUP4 MSTORE DUP3 ADD MSTORE RETURN JUMPDEST PUSH2 0x2E7 SWAP1 DUP5 RETURNDATASIZE DUP7 GT PUSH2 0x2EE JUMPI JUMPDEST PUSH2 0x2DF DUP2 DUP4 PUSH2 0xDC9 JUMP JUMPDEST DUP2 ADD SWAP1 PUSH2 0xE01 JUMP JUMPDEST POP DUP7 PUSH2 0x281 JUMP JUMPDEST POP RETURNDATASIZE PUSH2 0x2D5 JUMP JUMPDEST DUP9 MLOAD SWAP1 RETURNDATASIZE SWAP1 DUP3 RETURNDATACOPY RETURNDATASIZE SWAP1 REVERT JUMPDEST PUSH2 0x316 SWAP1 DUP10 RETURNDATASIZE DUP12 GT PUSH2 0x2EE JUMPI PUSH2 0x2DF DUP2 DUP4 PUSH2 0xDC9 JUMP JUMPDEST POP CODESIZE PUSH2 0x24B JUMP JUMPDEST DUP13 MLOAD RETURNDATASIZE DUP9 DUP3 RETURNDATACOPY RETURNDATASIZE SWAP1 REVERT JUMPDEST SWAP2 DUP4 MSTORE PUSH1 0x1 DUP7 MSTORE DUP9 DUP4 KECCAK256 SLOAD SWAP2 DUP4 MSTORE DUP9 DUP4 KECCAK256 SLOAD PUSH1 0x1 PUSH1 0x1 PUSH1 0xA0 SHL SUB SWAP1 DUP2 AND SWAP3 AND PUSH2 0x1F7 JUMP JUMPDEST DUP12 MLOAD PUSH3 0x461BCD PUSH1 0xE5 SHL DUP2 MSTORE DUP1 DUP6 ADD DUP11 SWAP1 MSTORE PUSH1 0x19 PUSH1 0x24 DUP3 ADD MSTORE PUSH32 0x546573736572616374537761703A20656D70747920706F6F6C00000000000000 PUSH1 0x44 DUP3 ADD MSTORE PUSH1 0x64 SWAP1 REVERT JUMPDEST DUP10 MLOAD PUSH3 0x461BCD PUSH1 0xE5 SHL DUP2 MSTORE DUP1 DUP4 ADD DUP9 SWAP1 MSTORE PUSH1 0x22 PUSH1 0x24 DUP3 ADD MSTORE PUSH32 0x546573736572616374537761703A20696E73756666696369656E742073686172 PUSH1 0x44 DUP3 ADD MSTORE PUSH2 0x6573 PUSH1 0xF0 SHL PUSH1 0x64 DUP3 ADD MSTORE PUSH1 0x84 SWAP1 REVERT JUMPDEST DUP1 REVERT JUMPDEST SWAP1 POP CALLVALUE PUSH2 0x4F3 JUMPI DUP2 PUSH1 0x3 NOT CALLDATASIZE ADD SLT PUSH2 0x4F3 JUMPI PUSH2 0x3F9 PUSH2 0xD24 JUMP JUMPDEST PUSH2 0x401 PUSH2 0xD85 JUMP JUMPDEST DUP5 SLOAD PUSH1 0x1 PUSH1 0x1 PUSH1 0xA0 SHL SUB SWAP2 SWAP1 DUP3 AND CALLER SUB PUSH2 0x4B0 JUMPI AND SWAP2 DUP3 ISZERO PUSH2 0x46D JUMPI POP PUSH4 0xFFFFFFFF AND DUP1 DUP5 MSTORE PUSH1 0x1 PUSH1 0x20 SWAP1 DUP2 MSTORE DUP4 DUP6 KECCAK256 DUP1 SLOAD PUSH1 0x1 PUSH1 0x1 PUSH1 0xA0 SHL SUB NOT AND DUP5 OR SWAP1 SSTORE SWAP3 MLOAD SWAP2 DUP3 MSTORE SWAP2 PUSH32 0x250D5F8FAEB2ACD85B93888F82538B3D3FE56D7B9026A5FBE3ED945021453C15 SWAP2 LOG2 DUP1 RETURN JUMPDEST PUSH1 0x64 SWAP1 PUSH1 0x20 DUP6 MLOAD SWAP2 PUSH3 0x461BCD PUSH1 0xE5 SHL DUP4 MSTORE DUP3 ADD MSTORE PUSH1 0x1B PUSH1 0x24 DUP3 ADD MSTORE PUSH32 0x546573736572616374537761703A207A65726F20616464726573730000000000 PUSH1 0x44 DUP3 ADD MSTORE REVERT JUMPDEST DUP5 MLOAD PUSH3 0x461BCD PUSH1 0xE5 SHL DUP2 MSTORE PUSH1 0x20 DUP2 DUP7 ADD MSTORE PUSH1 0x18 PUSH1 0x24 DUP3 ADD MSTORE PUSH32 0x546573736572616374537761703A206E6F74206F776E65720000000000000000 PUSH1 0x44 DUP3 ADD MSTORE PUSH1 0x64 SWAP1 REVERT JUMPDEST DUP3 DUP1 REVERT JUMPDEST POP POP CALLVALUE PUSH2 0xF1 JUMPI DUP2 PUSH1 0x3 NOT CALLDATASIZE ADD SLT PUSH2 0xF1 JUMPI MLOAD PUSH32 0x0 PUSH1 0x1 PUSH1 0x1 PUSH1 0xA0 SHL SUB AND DUP2 MSTORE PUSH1 0x20 SWAP1 RETURN JUMPDEST POP POP CALLVALUE PUSH2 0xF1 JUMPI DUP1 PUSH1 0x3 NOT CALLDATASIZE ADD SLT PUSH2 0xF1 JUMPI PUSH1 0x20 SWAP1 PUSH2 0x569 PUSH2 0x55B PUSH2 0xD24 JUMP JUMPDEST PUSH2 0x563 PUSH2 0xD3C JUMP JUMPDEST SWAP1 PUSH2 0xEA5 JUMP JUMPDEST SWAP1 MLOAD SWAP1 DUP2 MSTORE RETURN JUMPDEST DUP4 DUP4 CALLVALUE PUSH2 0xF1 JUMPI PUSH1 0xC0 CALLDATASIZE PUSH1 0x3 NOT ADD SLT PUSH2 0xF1 JUMPI PUSH2 0x58B PUSH2 0xD24 JUMP JUMPDEST PUSH2 0x593 PUSH2 0xD3C JUMP JUMPDEST PUSH8 0xFFFFFFFFFFFFFFFF SWAP4 PUSH1 0x84 CALLDATALOAD DUP6 DUP2 GT PUSH2 0xF1 JUMPI PUSH2 0x5B4 SWAP1 CALLDATASIZE SWAP1 DUP9 ADD PUSH2 0xD9B JUMP JUMPDEST SWAP4 SWAP1 SWAP2 PUSH1 0xA4 CALLDATALOAD SWAP8 DUP8 DUP10 GT PUSH2 0xF1 JUMPI PUSH2 0x5D2 PUSH2 0x5EE SWAP10 CALLDATASIZE SWAP1 DUP4 ADD PUSH2 0xD9B JUMP JUMPDEST SWAP10 SWAP1 SWAP4 PUSH2 0x5DD PUSH2 0xFE2 JUMP JUMPDEST ADDRESS SWAP1 PUSH1 0x64 CALLDATALOAD SWAP1 DUP9 PUSH1 0x44 CALLDATALOAD SWAP2 CALLER PUSH2 0x1012 JUMP JUMPDEST DUP8 MLOAD PUSH4 0x47400C23 PUSH1 0xE0 SHL DUP2 MSTORE PUSH1 0x20 DUP4 DUP3 ADD DUP2 SWAP1 MSTORE SWAP11 SWAP2 SWAP10 SWAP2 SWAP1 PUSH32 0x0 PUSH1 0x1 PUSH1 0x1 PUSH1 0xA0 SHL SUB AND SWAP1 DUP11 DUP2 DUP1 PUSH2 0x643 PUSH1 0x24 DUP3 ADD DUP8 DUP13 PUSH2 0xE84 JUMP JUMPDEST SUB DUP2 DUP6 GAS STATICCALL SWAP1 DUP2 ISZERO PUSH2 0x7DE JUMPI DUP7 SWAP2 PUSH2 0x771 JUMPI JUMPDEST POP DUP2 EXTCODESIZE ISZERO PUSH2 0x76D JUMPI SWAP1 PUSH1 0x60 DUP7 DUP7 DUP16 SWAP5 DUP8 DUP16 SWAP7 PUSH2 0x68D DUP6 SWAP10 SWAP9 MLOAD SWAP14 DUP15 SWAP10 DUP11 SWAP9 DUP10 SWAP8 PUSH4 0xD3B7E04D PUSH1 0xE0 SHL DUP10 MSTORE DUP9 ADD MSTORE PUSH1 0x64 DUP8 ADD SWAP2 PUSH2 0xE84 JUMP JUMPDEST SWAP3 DUP3 DUP2 MLOAD AND PUSH1 0x24 DUP7 ADD MSTORE ADD MLOAD AND PUSH1 0x44 DUP4 ADD MSTORE SUB SWAP3 GAS CALL DUP1 ISZERO PUSH2 0x763 JUMPI PUSH2 0x717 JUMPI JUMPDEST POP POP POP POP PUSH32 0x348F79C99116814AE345DCAB528A84749BD6CF6EB9CDDE89277644B357C12453 SWAP2 PUSH2 0x6FC PUSH4 0xFFFFFFFF SWAP3 DUP7 MLOAD SWAP4 DUP5 SWAP4 AND DUP4 MSTORE DUP8 DUP10 DUP5 ADD MSTORE PUSH1 0x60 DUP8 DUP5 ADD MSTORE CALLER SWAP6 PUSH1 0x60 DUP5 ADD SWAP2 PUSH2 0xE84 JUMP JUMPDEST SUB SWAP1 LOG2 PUSH1 0x1 PUSH1 0x0 DUP1 MLOAD PUSH1 0x20 PUSH2 0x13F3 DUP4 CODECOPY DUP2 MLOAD SWAP2 MSTORE SSTORE MLOAD SWAP1 DUP2 MSTORE RETURN JUMPDEST DUP4 GT PUSH2 0x750 JUMPI POP POP DUP5 MSTORE DUP2 PUSH2 0x6FC PUSH4 0xFFFFFFFF PUSH32 0x348F79C99116814AE345DCAB528A84749BD6CF6EB9CDDE89277644B357C12453 PUSH2 0x6AE JUMP JUMPDEST PUSH4 0x4E487B71 PUSH1 0xE0 SHL DUP3 MSTORE PUSH1 0x41 SWAP1 MSTORE PUSH1 0x24 SWAP1 REVERT JUMPDEST DUP9 MLOAD RETURNDATASIZE DUP6 DUP3 RETURNDATACOPY RETURNDATASIZE SWAP1 REVERT JUMPDEST DUP6 DUP1 REVERT JUMPDEST SWAP1 POP DUP11 DUP2 DUP2 RETURNDATASIZE DUP4 GT PUSH2 0x7D7 JUMPI JUMPDEST PUSH2 0x788 DUP2 DUP4 PUSH2 0xDC9 JUMP JUMPDEST DUP2 ADD SUB SLT PUSH2 0x76D JUMPI DUP11 MLOAD SWAP1 DUP12 DUP3 ADD DUP3 DUP2 LT DUP7 DUP3 GT OR PUSH2 0x7C4 JUMPI PUSH2 0x7BA SWAP2 DUP16 SWAP2 DUP15 MSTORE PUSH2 0x7B2 DUP2 PUSH2 0xE6F JUMP JUMPDEST DUP5 MSTORE ADD PUSH2 0xE6F JUMP JUMPDEST DUP14 DUP3 ADD MSTORE DUP14 PUSH2 0x656 JUMP JUMPDEST PUSH4 0x4E487B71 PUSH1 0xE0 SHL DUP9 MSTORE PUSH1 0x41 DUP8 MSTORE PUSH1 0x24 DUP9 REVERT JUMPDEST POP RETURNDATASIZE PUSH2 0x77E JUMP JUMPDEST DUP12 MLOAD RETURNDATASIZE DUP9 DUP3 RETURNDATACOPY RETURNDATASIZE SWAP1 REVERT JUMPDEST SWAP1 POP CALLVALUE PUSH2 0x4F3 JUMPI PUSH1 0x20 CALLDATASIZE PUSH1 0x3 NOT ADD SLT PUSH2 0x4F3 JUMPI PUSH1 0x60 SWAP3 DUP3 SWAP2 CALLDATALOAD DUP2 MSTORE PUSH1 0x2 PUSH1 0x20 MSTORE KECCAK256 DUP1 SLOAD SWAP2 PUSH1 0x2 PUSH1 0x1 DUP4 ADD SLOAD SWAP3 ADD SLOAD SWAP2 DUP2 MLOAD SWAP4 DUP5 MSTORE PUSH1 0x20 DUP5 ADD MSTORE DUP3 ADD MSTORE RETURN JUMPDEST SWAP1 POP CALLVALUE PUSH2 0x4F3 JUMPI DUP2 PUSH1 0x3 NOT CALLDATASIZE ADD SLT PUSH2 0x4F3 JUMPI PUSH1 0x20 SWAP3 DUP3 SWAP2 PUSH2 0x845 PUSH2 0xD85 JUMP JUMPDEST SWAP1 CALLDATALOAD DUP3 MSTORE PUSH1 0x2 DUP6 MSTORE DUP3 DUP3 KECCAK256 PUSH1 0x1 PUSH1 0x1 PUSH1 0xA0 SHL SUB SWAP1 SWAP2 AND DUP3 MSTORE PUSH1 0x3 ADD DUP5 MSTORE KECCAK256 SLOAD SWAP1 MLOAD SWAP1 DUP2 MSTORE RETURN JUMPDEST POP POP CALLVALUE PUSH2 0xF1 JUMPI DUP2 PUSH1 0x3 NOT CALLDATASIZE ADD SLT PUSH2 0xF1 JUMPI SWAP1 SLOAD SWAP1 MLOAD PUSH1 0x1 PUSH1 0x1 PUSH1 0xA0 SHL SUB SWAP1 SWAP2 AND DUP2 MSTORE PUSH1 0x20 SWAP1 RETURN JUMPDEST POP POP CALLVALUE PUSH2 0xF1 JUMPI PUSH1 0x20 SWAP1 PUSH2 0x8BA PUSH2 0x8A9 CALLDATASIZE PUSH2 0xD4F JUMP JUMPDEST SWAP2 PUSH2 0x8B2 PUSH2 0xFE2 JUMP JUMPDEST CALLER SWAP4 CALLER PUSH2 0x1012 JUMP JUMPDEST SWAP1 PUSH1 0x1 PUSH1 0x0 DUP1 MLOAD PUSH1 0x20 PUSH2 0x13F3 DUP4 CODECOPY DUP2 MLOAD SWAP2 MSTORE SSTORE MLOAD SWAP1 DUP2 MSTORE RETURN JUMPDEST POP POP CALLVALUE PUSH2 0xF1 JUMPI DUP1 PUSH1 0x3 NOT CALLDATASIZE ADD SLT PUSH2 0xF1 JUMPI DUP1 SWAP2 PUSH2 0x8F2 PUSH2 0x55B PUSH2 0xD24 JUMP JUMPDEST DUP2 MSTORE PUSH1 0x2 PUSH1 0x20 MSTORE KECCAK256 PUSH1 0x1 DUP2 SLOAD SWAP2 ADD SLOAD DUP3 MLOAD SWAP2 DUP3 MSTORE PUSH1 0x20 DUP3 ADD MSTORE RETURN JUMPDEST SWAP2 SWAP1 POP CALLVALUE PUSH2 0x4F3 JUMPI PUSH2 0x91E CALLDATASIZE PUSH2 0xD4F JUMP JUMPDEST SWAP6 SWAP2 SWAP3 PUSH2 0x929 PUSH2 0xFE2 JUMP JUMPDEST DUP2 ISZERO ISZERO DUP1 PUSH2 0xCD8 JUMPI JUMPDEST ISZERO PUSH2 0xC95 JUMPI PUSH4 0xFFFFFFFF SWAP7 DUP8 DUP3 AND SWAP3 DUP4 DUP6 MSTORE PUSH1 0x1 SWAP6 PUSH1 0x20 SWAP10 DUP8 DUP12 MSTORE PUSH1 0x1 DUP1 PUSH1 0xA0 SHL SUB SWAP2 DUP3 DUP11 DUP10 KECCAK256 SLOAD AND SWAP2 DUP2 AND SWAP1 DUP2 DUP10 MSTORE DUP4 DUP12 DUP11 KECCAK256 SLOAD AND SWAP7 DUP4 ISZERO ISZERO DUP1 PUSH2 0xC8C JUMPI JUMPDEST ISZERO PUSH2 0xC3F JUMPI SWAP2 PUSH1 0x2 PUSH2 0x98D DUP16 SWAP12 SWAP11 SWAP10 SWAP9 SWAP8 SWAP7 SWAP6 SWAP4 DUP16 SWAP6 PUSH2 0xEA5 JUMP JUMPDEST DUP1 DUP12 MSTORE SWAP11 MSTORE DUP12 DUP10 KECCAK256 SWAP8 LT ISZERO PUSH2 0xC38 JUMPI SWAP5 SWAP3 SWAP4 SWAP5 JUMPDEST DUP11 MLOAD PUSH4 0x23B872DD PUSH1 0xE0 SHL DUP1 DUP3 MSTORE CALLER SWAP4 DUP3 ADD SWAP4 DUP5 MSTORE ADDRESS PUSH1 0x20 DUP6 ADD MSTORE PUSH1 0x40 DUP5 ADD DUP8 SWAP1 MSTORE SWAP3 SWAP1 SWAP2 DUP15 SWAP2 DUP4 SWAP2 SWAP1 DUP3 SWAP1 SUB PUSH1 0x60 ADD SWAP1 DUP3 SWAP1 DUP13 SWAP1 DUP9 AND GAS CALL DUP1 ISZERO PUSH2 0xC2E JUMPI DUP9 DUP15 SWAP5 DUP9 SWAP5 DUP16 SWAP4 DUP16 SWAP1 SWAP6 PUSH2 0xA1D SWAP10 SWAP7 PUSH2 0xC11 JUMPI JUMPDEST POP MLOAD SWAP1 DUP2 MSTORE CALLER SWAP4 DUP2 ADD SWAP4 DUP5 MSTORE ADDRESS PUSH1 0x20 DUP6 ADD MSTORE PUSH1 0x40 DUP5 ADD SWAP6 SWAP1 SWAP6 MSTORE SWAP4 SWAP6 DUP7 SWAP5 DUP6 SWAP4 SWAP1 SWAP2 DUP5 SWAP2 PUSH1 0x60 ADD SWAP1 JUMP JUMPDEST SUB SWAP4 AND GAS CALL DUP1 ISZERO PUSH2 0xC07 JUMPI PUSH2 0xBEA JUMPI JUMPDEST POP PUSH1 0x2 DUP4 ADD SWAP2 DUP3 SLOAD SWAP2 DUP3 ISZERO PUSH1 0x0 EQ PUSH2 0xB94 JUMPI PUSH2 0xA49 DUP3 DUP3 PUSH2 0xE19 JUMP JUMPDEST SWAP10 DUP7 PUSH1 0x3 DUP13 GT ISZERO PUSH2 0xB85 JUMPI POP DUP11 DUP1 DUP11 SHR DUP11 DUP2 ADD DUP1 SWAP2 GT PUSH2 0xB72 JUMPI SWAP1 JUMPDEST DUP13 DUP3 LT PUSH2 0xB54 JUMPI POP POP JUMPDEST DUP11 ISZERO PUSH2 0xAFB JUMPI POP DUP10 DUP10 SWAP7 SWAP6 SWAP4 PUSH1 0x3 SWAP6 SWAP4 PUSH2 0xA8E PUSH2 0xAA5 SWAP5 JUMPDEST DUP8 SLOAD PUSH2 0xE62 JUMP JUMPDEST DUP7 SSTORE PUSH2 0xA9E DUP12 DUP8 ADD SWAP2 DUP3 SLOAD PUSH2 0xE62 JUMP JUMPDEST SWAP1 SSTORE PUSH2 0xE62 JUMP JUMPDEST SWAP1 SSTORE CALLER DUP4 MSTORE ADD DUP8 MSTORE KECCAK256 PUSH2 0xAB9 DUP6 DUP3 SLOAD PUSH2 0xE62 JUMP JUMPDEST SWAP1 SSTORE DUP3 MLOAD DUP5 DUP2 MSTORE PUSH32 0xE3DCBE559B610F5784B9DB6AB7A250C9C7CC6AA560EAE7DFC50DE489602B5654 DUP7 CALLER SWAP3 LOG3 PUSH1 0x0 DUP1 MLOAD PUSH1 0x20 PUSH2 0x13F3 DUP4 CODECOPY DUP2 MLOAD SWAP2 MSTORE SSTORE MLOAD SWAP1 DUP2 MSTORE RETURN JUMPDEST DUP10 MLOAD PUSH3 0x461BCD PUSH1 0xE5 SHL DUP2 MSTORE SWAP1 DUP2 ADD DUP13 SWAP1 MSTORE PUSH1 0x2D PUSH1 0x24 DUP3 ADD MSTORE PUSH32 0x546573736572616374537761703A20696E73756666696369656E7420696E6974 PUSH1 0x44 DUP3 ADD MSTORE PUSH13 0x69616C206C6971756964697479 PUSH1 0x98 SHL PUSH1 0x64 DUP3 ADD MSTORE PUSH1 0x84 SWAP1 REVERT JUMPDEST SWAP1 SWAP12 POP PUSH2 0xB6A DUP13 PUSH2 0xB65 DUP2 DUP5 PUSH2 0xE42 JUMP JUMPDEST PUSH2 0xE62 JUMP JUMPDEST DUP11 SHR SWAP1 PUSH2 0xA65 JUMP JUMPDEST PUSH4 0x4E487B71 PUSH1 0xE0 SHL DUP10 MSTORE PUSH1 0x11 DUP4 MSTORE PUSH1 0x24 DUP10 REVERT JUMPDEST SWAP11 ISZERO PUSH2 0xA6F JUMPI SWAP10 POP DUP8 SWAP10 PUSH2 0xA6F JUMP JUMPDEST PUSH2 0xA8E SWAP10 POP DUP1 DUP4 PUSH1 0x3 SWAP6 SWAP4 PUSH2 0xBBA PUSH2 0xBB2 DUP14 SWAP11 SWAP10 SWAP8 PUSH2 0xAA5 SWAP7 PUSH2 0xE19 JUMP JUMPDEST DUP8 SLOAD SWAP1 PUSH2 0xE42 JUMP JUMPDEST PUSH2 0xBD1 PUSH2 0xBC7 DUP5 DUP5 PUSH2 0xE19 JUMP JUMPDEST DUP14 DUP10 ADD SLOAD SWAP1 PUSH2 0xE42 JUMP JUMPDEST DUP1 DUP3 LT ISZERO PUSH2 0xBE3 JUMPI POP JUMPDEST SWAP13 DUP14 SWAP4 PUSH2 0xA87 JUMP JUMPDEST SWAP1 POP PUSH2 0xBDB JUMP JUMPDEST PUSH2 0xC00 SWAP1 DUP11 RETURNDATASIZE DUP13 GT PUSH2 0x2EE JUMPI PUSH2 0x2DF DUP2 DUP4 PUSH2 0xDC9 JUMP JUMPDEST POP CODESIZE PUSH2 0xA2D JUMP JUMPDEST DUP9 MLOAD RETURNDATASIZE DUP8 DUP3 RETURNDATACOPY RETURNDATASIZE SWAP1 REVERT JUMPDEST PUSH2 0xC27 SWAP1 DUP10 RETURNDATASIZE DUP12 GT PUSH2 0x2EE JUMPI PUSH2 0x2DF DUP2 DUP4 PUSH2 0xDC9 JUMP JUMPDEST POP CODESIZE PUSH2 0x9F3 JUMP JUMPDEST DUP12 MLOAD RETURNDATASIZE DUP11 DUP3 RETURNDATACOPY RETURNDATASIZE SWAP1 REVERT JUMPDEST SWAP3 SWAP5 PUSH2 0x9A1 JUMP JUMPDEST DUP12 MLOAD PUSH3 0x461BCD PUSH1 0xE5 SHL DUP2 MSTORE DUP1 DUP15 ADD DUP16 SWAP1 MSTORE PUSH1 0x21 PUSH1 0x24 DUP3 ADD MSTORE PUSH32 0x546573736572616374537761703A20756E726567697374657265642061737365 PUSH1 0x44 DUP3 ADD MSTORE PUSH1 0x1D PUSH1 0xFA SHL PUSH1 0x64 DUP3 ADD MSTORE PUSH1 0x84 SWAP1 REVERT JUMPDEST POP DUP8 ISZERO ISZERO PUSH2 0x972 JUMP JUMPDEST DUP5 MLOAD PUSH3 0x461BCD PUSH1 0xE5 SHL DUP2 MSTORE PUSH1 0x20 DUP2 DUP9 ADD MSTORE PUSH1 0x1A PUSH1 0x24 DUP3 ADD MSTORE PUSH32 0x546573736572616374537761703A207A65726F20616D6F756E74000000000000 PUSH1 0x44 DUP3 ADD MSTORE PUSH1 0x64 SWAP1 REVERT JUMPDEST POP DUP7 ISZERO ISZERO PUSH2 0x932 JUMP JUMPDEST DUP5 SWAP1 CALLVALUE PUSH2 0xF1 JUMPI DUP2 PUSH1 0x3 NOT CALLDATASIZE ADD SLT PUSH2 0xF1 JUMPI PUSH32 0x0 PUSH1 0x1 PUSH1 0x1 PUSH1 0xA0 SHL SUB AND DUP2 MSTORE PUSH1 0x20 SWAP1 RETURN JUMPDEST PUSH1 0x4 CALLDATALOAD SWAP1 PUSH4 0xFFFFFFFF DUP3 AND DUP3 SUB PUSH2 0xD37 JUMPI JUMP JUMPDEST PUSH1 0x0 DUP1 REVERT JUMPDEST PUSH1 0x24 CALLDATALOAD SWAP1 PUSH4 0xFFFFFFFF DUP3 AND DUP3 SUB PUSH2 0xD37 JUMPI JUMP JUMPDEST PUSH1 0x80 SWAP1 PUSH1 0x3 NOT ADD SLT PUSH2 0xD37 JUMPI PUSH4 0xFFFFFFFF SWAP1 PUSH1 0x4 CALLDATALOAD DUP3 DUP2 AND DUP2 SUB PUSH2 0xD37 JUMPI SWAP2 PUSH1 0x24 CALLDATALOAD SWAP1 DUP2 AND DUP2 SUB PUSH2 0xD37 JUMPI SWAP1 PUSH1 0x44 CALLDATALOAD SWAP1 PUSH1 0x64 CALLDATALOAD SWAP1 JUMP JUMPDEST PUSH1 0x24 CALLDATALOAD SWAP1 PUSH1 0x1 PUSH1 0x1 PUSH1 0xA0 SHL SUB DUP3 AND DUP3 SUB PUSH2 0xD37 JUMPI JUMP JUMPDEST SWAP2 DUP2 PUSH1 0x1F DUP5 ADD SLT ISZERO PUSH2 0xD37 JUMPI DUP3 CALLDATALOAD SWAP2 PUSH8 0xFFFFFFFFFFFFFFFF DUP4 GT PUSH2 0xD37 JUMPI PUSH1 0x20 DUP4 DUP2 DUP7 ADD SWAP6 ADD ADD GT PUSH2 0xD37 JUMPI JUMP JUMPDEST SWAP1 PUSH1 0x1F DUP1 NOT SWAP2 ADD AND DUP2 ADD SWAP1 DUP2 LT PUSH8 0xFFFFFFFFFFFFFFFF DUP3 GT OR PUSH2 0xDEB JUMPI PUSH1 0x40 MSTORE JUMP JUMPDEST PUSH4 0x4E487B71 PUSH1 0xE0 SHL PUSH1 0x0 MSTORE PUSH1 0x41 PUSH1 0x4 MSTORE PUSH1 0x24 PUSH1 0x0 REVERT JUMPDEST SWAP1 DUP2 PUSH1 0x20 SWAP2 SUB SLT PUSH2 0xD37 JUMPI MLOAD DUP1 ISZERO ISZERO DUP2 SUB PUSH2 0xD37 JUMPI SWAP1 JUMP JUMPDEST DUP2 DUP2 MUL SWAP3 SWAP2 DUP2 ISZERO SWAP2 DUP5 DIV EQ OR ISZERO PUSH2 0xE2C JUMPI JUMP JUMPDEST PUSH4 0x4E487B71 PUSH1 0xE0 SHL PUSH1 0x0 MSTORE PUSH1 0x11 PUSH1 0x4 MSTORE PUSH1 0x24 PUSH1 0x0 REVERT JUMPDEST DUP2 ISZERO PUSH2 0xE4C JUMPI DIV SWAP1 JUMP JUMPDEST PUSH4 0x4E487B71 PUSH1 0xE0 SHL PUSH1 0x0 MSTORE PUSH1 0x12 PUSH1 0x4 MSTORE PUSH1 0x24 PUSH1 0x0 REVERT JUMPDEST SWAP2 SWAP1 DUP3 ADD DUP1 SWAP3 GT PUSH2 0xE2C JUMPI JUMP JUMPDEST MLOAD SWAP1 PUSH8 0xFFFFFFFFFFFFFFFF DUP3 AND DUP3 SUB PUSH2 0xD37 JUMPI JUMP JUMPDEST SWAP1 DUP1 PUSH1 0x20 SWAP4 SWAP3 DUP2 DUP5 MSTORE DUP5 DUP5 ADD CALLDATACOPY PUSH1 0x0 DUP3 DUP3 ADD DUP5 ADD MSTORE PUSH1 0x1F ADD PUSH1 0x1F NOT AND ADD ADD SWAP1 JUMP JUMPDEST PUSH4 0xFFFFFFFF DUP3 DUP2 AND SWAP1 DUP3 AND LT ISZERO PUSH2 0xFD0 JUMPI SWAP1 JUMPDEST PUSH1 0x40 MLOAD SWAP2 PUSH1 0x20 SWAP2 PUSH4 0xFFFFFFFF PUSH1 0xE0 SHL DUP1 SWAP3 PUSH1 0xE0 SHL AND DUP4 DUP6 ADD MSTORE PUSH1 0xE0 SHL AND PUSH1 0x24 DUP4 ADD MSTORE PUSH1 0x8 DUP3 MSTORE PUSH1 0x40 DUP3 ADD SWAP1 DUP3 DUP3 LT PUSH8 0xFFFFFFFFFFFFFFFF DUP4 GT OR PUSH2 0xDEB JUMPI DUP2 PUSH1 0x40 MSTORE PUSH4 0x63EFFB43 PUSH1 0xE1 SHL DUP3 MSTORE DUP1 PUSH1 0x44 DUP5 ADD MSTORE DUP3 MLOAD DUP1 PUSH1 0x64 DUP6 ADD MSTORE DUP2 DUP4 DUP6 PUSH1 0x0 JUMPDEST DUP5 DUP2 LT PUSH2 0xFB9 JUMPI POP PUSH1 0x0 DUP2 DUP6 ADD PUSH1 0x84 ADD MSTORE SWAP2 SWAP3 SWAP1 SWAP2 PUSH1 0x1F SWAP1 SWAP2 ADD PUSH1 0x1F NOT AND DUP2 ADD SUB PUSH1 0x44 ADD DUP2 PUSH32 0x0 PUSH1 0x1 PUSH1 0x1 PUSH1 0xA0 SHL SUB AND GAS STATICCALL SWAP3 DUP4 ISZERO PUSH2 0xFAD JUMPI PUSH1 0x0 SWAP4 PUSH2 0xF7E JUMPI JUMPDEST POP POP POP SWAP1 JUMP JUMPDEST SWAP1 DUP1 SWAP3 SWAP4 POP RETURNDATASIZE DUP4 GT PUSH2 0xFA6 JUMPI JUMPDEST PUSH2 0xF95 DUP2 DUP6 PUSH2 0xDC9 JUMP JUMPDEST DUP2 ADD SUB SLT PUSH2 0xD37 JUMPI MLOAD CODESIZE DUP1 DUP1 PUSH2 0xF78 JUMP JUMPDEST POP RETURNDATASIZE PUSH2 0xF8B JUMP JUMPDEST PUSH1 0x40 MLOAD RETURNDATASIZE PUSH1 0x0 DUP3 RETURNDATACOPY RETURNDATASIZE SWAP1 REVERT JUMPDEST SWAP2 POP DUP2 ADD PUSH1 0x84 DUP4 DUP3 ADD MLOAD SWAP2 ADD MSTORE ADD DUP4 DUP6 DUP5 SWAP3 PUSH2 0xF18 JUMP JUMPDEST PUSH2 0xEB8 JUMP JUMPDEST SWAP2 SWAP1 DUP3 SUB SWAP2 DUP3 GT PUSH2 0xE2C JUMPI JUMP JUMPDEST PUSH1 0x0 DUP1 MLOAD PUSH1 0x20 PUSH2 0x13F3 DUP4 CODECOPY DUP2 MLOAD SWAP2 MSTORE PUSH1 0x2 DUP2 SLOAD EQ PUSH2 0x1000 JUMPI PUSH1 0x2 SWAP1 SSTORE JUMP JUMPDEST PUSH1 0x40 MLOAD PUSH4 0x3EE5AEB5 PUSH1 0xE0 SHL DUP2 MSTORE PUSH1 0x4 SWAP1 REVERT JUMPDEST SWAP2 SWAP4 SWAP6 SWAP5 SWAP3 SWAP1 DUP2 ISZERO PUSH2 0x13AD JUMPI PUSH4 0xFFFFFFFF SWAP5 DUP6 DUP3 AND SWAP6 PUSH1 0x0 SWAP6 DUP8 DUP8 MSTORE PUSH1 0x20 SWAP2 PUSH1 0x1 DUP4 MSTORE PUSH1 0x1 DUP1 PUSH1 0xA0 SHL SUB SWAP8 PUSH1 0x40 SWAP6 DUP10 DUP8 DUP4 KECCAK256 SLOAD AND SWAP3 DUP7 AND SWAP6 DUP7 DUP4 MSTORE DUP11 DUP9 DUP5 KECCAK256 SLOAD AND SWAP2 DUP5 ISZERO ISZERO DUP1 PUSH2 0x13A4 JUMPI JUMPDEST ISZERO PUSH2 0x1360 JUMPI SWAP1 PUSH2 0x106C SWAP2 PUSH2 0xEA5 JUMP JUMPDEST DUP3 MSTORE PUSH1 0x2 DUP6 MSTORE DUP7 DUP3 KECCAK256 SWAP4 DUP7 DUP13 LT SWAP4 DUP5 ISZERO PUSH2 0x1356 JUMPI DUP6 SLOAD JUMPDEST DUP6 ISZERO PUSH2 0x134E JUMPI PUSH1 0x1 DUP8 ADD SLOAD SWAP1 JUMPDEST DUP1 ISZERO SWAP2 DUP3 ISZERO DUP1 PUSH2 0x1345 JUMPI JUMPDEST ISZERO PUSH2 0x1301 JUMPI PUSH2 0x3E5 DUP14 MUL SWAP2 SWAP1 PUSH2 0x3E4 NOT DUP15 DUP5 DIV ADD PUSH2 0x12ED JUMPI PUSH2 0x10BD SWAP1 DUP4 PUSH2 0xE19 JUMP JUMPDEST SWAP3 PUSH2 0x3E8 DUP1 DUP4 MUL SWAP3 DUP4 DIV EQ OR ISZERO PUSH2 0x12D9 JUMPI PUSH2 0x10E2 SWAP3 SWAP2 PUSH2 0x10DC SWAP2 PUSH2 0xE62 JUMP JUMPDEST SWAP1 PUSH2 0xE42 JUMP JUMPDEST SWAP15 DUP16 LT PUSH2 0x1297 JUMPI DUP9 MLOAD PUSH4 0x23B872DD PUSH1 0xE0 SHL DUP2 MSTORE PUSH1 0x1 PUSH1 0x1 PUSH1 0xA0 SHL SUB DUP13 AND PUSH1 0x4 DUP3 ADD MSTORE ADDRESS PUSH1 0x24 DUP3 ADD MSTORE PUSH1 0x44 DUP2 ADD DUP12 SWAP1 MSTORE SWAP1 DUP8 SWAP1 DUP3 SWAP1 PUSH1 0x64 SWAP1 DUP3 SWAP1 DUP9 SWAP1 GAS CALL DUP1 ISZERO PUSH2 0x128D JUMPI SWAP1 DUP16 SWAP4 SWAP3 SWAP2 PUSH2 0x1270 JUMPI JUMPDEST POP ADDRESS DUP13 DUP3 AND SUB PUSH2 0x11C8 JUMPI JUMPDEST POP POP POP POP SWAP2 PUSH32 0x568353021BF6309D803F0179307EBD0AEF56AB90C7B0D226F8DF92DF9E3769FF SWAP8 SWAP6 SWAP4 SWAP2 PUSH1 0x80 SWAP8 SWAP6 SWAP4 PUSH1 0x0 EQ PUSH2 0x11A5 JUMPI DUP1 PUSH2 0x117E DUP7 PUSH1 0x1 SWAP4 SLOAD PUSH2 0xE62 JUMP JUMPDEST DUP2 SSTORE ADD PUSH2 0x118C DUP13 DUP3 SLOAD PUSH2 0xFD5 JUMP JUMPDEST SWAP1 SSTORE JUMPDEST DUP3 MLOAD SWAP9 DUP10 MSTORE DUP9 ADD MSTORE DUP7 ADD MSTORE DUP7 PUSH1 0x60 DUP7 ADD MSTORE AND SWAP3 LOG2 JUMP JUMPDEST PUSH1 0x1 DUP2 ADD PUSH2 0x11B4 DUP7 DUP3 SLOAD PUSH2 0xE62 JUMP JUMPDEST SWAP1 SSTORE PUSH2 0x11C1 DUP13 DUP3 SLOAD PUSH2 0xFD5 JUMP JUMPDEST SWAP1 SSTORE PUSH2 0x118F JUMP JUMPDEST DUP9 MLOAD PUSH4 0xA9059CBB PUSH1 0xE0 SHL DUP2 MSTORE PUSH1 0x1 PUSH1 0x1 PUSH1 0xA0 SHL SUB SWAP2 SWAP1 SWAP2 AND PUSH1 0x4 DUP3 ADD MSTORE PUSH1 0x24 DUP2 ADD SWAP3 SWAP1 SWAP3 MSTORE SWAP1 SWAP2 SWAP1 DUP6 SWAP1 DUP4 SWAP1 PUSH1 0x44 SWAP1 DUP3 SWAP1 DUP6 SWAP1 GAS CALL SWAP1 DUP2 ISZERO PUSH2 0x1265 JUMPI POP SWAP2 PUSH32 0x568353021BF6309D803F0179307EBD0AEF56AB90C7B0D226F8DF92DF9E3769FF SWAP10 SWAP8 SWAP6 SWAP4 SWAP2 PUSH1 0x80 SWAP10 SWAP8 SWAP6 SWAP4 PUSH2 0x1248 JUMPI JUMPDEST DUP3 SWAP5 SWAP7 SWAP9 SWAP11 DUP15 SWAP3 SWAP5 SWAP7 SWAP9 SWAP11 POP PUSH2 0x113A JUMP JUMPDEST PUSH2 0x125E SWAP1 DUP5 RETURNDATASIZE DUP7 GT PUSH2 0x2EE JUMPI PUSH2 0x2DF DUP2 DUP4 PUSH2 0xDC9 JUMP JUMPDEST POP CODESIZE PUSH2 0x1237 JUMP JUMPDEST DUP8 MLOAD SWAP1 RETURNDATASIZE SWAP1 DUP3 RETURNDATACOPY RETURNDATASIZE SWAP1 REVERT JUMPDEST PUSH2 0x1286 SWAP1 DUP9 RETURNDATASIZE DUP11 GT PUSH2 0x2EE JUMPI PUSH2 0x2DF DUP2 DUP4 PUSH2 0xDC9 JUMP JUMPDEST POP CODESIZE PUSH2 0x112F JUMP JUMPDEST DUP10 MLOAD RETURNDATASIZE DUP7 DUP3 RETURNDATACOPY RETURNDATASIZE SWAP1 REVERT JUMPDEST PUSH1 0x64 DUP8 DUP11 MLOAD SWAP1 PUSH3 0x461BCD PUSH1 0xE5 SHL DUP3 MSTORE DUP1 PUSH1 0x4 DUP4 ADD MSTORE PUSH1 0x24 DUP3 ADD MSTORE PUSH32 0x546573736572616374537761703A20736C697070616765206578636565646564 PUSH1 0x44 DUP3 ADD MSTORE REVERT JUMPDEST PUSH4 0x4E487B71 PUSH1 0xE0 SHL DUP8 MSTORE PUSH1 0x11 PUSH1 0x4 MSTORE PUSH1 0x24 DUP8 REVERT JUMPDEST PUSH4 0x4E487B71 PUSH1 0xE0 SHL DUP9 MSTORE PUSH1 0x11 PUSH1 0x4 MSTORE PUSH1 0x24 DUP9 REVERT JUMPDEST DUP12 MLOAD PUSH3 0x461BCD PUSH1 0xE5 SHL DUP2 MSTORE PUSH1 0x4 DUP2 ADD DUP12 SWAP1 MSTORE PUSH1 0x1B PUSH1 0x24 DUP3 ADD MSTORE PUSH32 0x546573736572616374537761703A206E6F206C69717569646974790000000000 PUSH1 0x44 DUP3 ADD MSTORE PUSH1 0x64 SWAP1 REVERT JUMPDEST POP DUP1 ISZERO ISZERO PUSH2 0x109B JUMP JUMPDEST DUP7 SLOAD SWAP1 PUSH2 0x1090 JUMP JUMPDEST PUSH1 0x1 DUP7 ADD SLOAD PUSH2 0x1083 JUMP JUMPDEST DUP9 MLOAD PUSH3 0x461BCD PUSH1 0xE5 SHL DUP2 MSTORE PUSH1 0x4 DUP2 ADD DUP9 SWAP1 MSTORE PUSH1 0x1B PUSH1 0x24 DUP3 ADD MSTORE PUSH32 0x546573736572616374537761703A20756E726567697374657265640000000000 PUSH1 0x44 DUP3 ADD MSTORE PUSH1 0x64 SWAP1 REVERT JUMPDEST POP DUP3 ISZERO ISZERO PUSH2 0x105D JUMP JUMPDEST PUSH1 0x40 MLOAD PUSH3 0x461BCD PUSH1 0xE5 SHL DUP2 MSTORE PUSH1 0x20 PUSH1 0x4 DUP3 ADD MSTORE PUSH1 0x19 PUSH1 0x24 DUP3 ADD MSTORE PUSH32 0x546573736572616374537761703A207A65726F20696E70757400000000000000 PUSH1 0x44 DUP3 ADD MSTORE PUSH1 0x64 SWAP1 REVERT INVALID SWAP12 PUSH24 0x9B17422D0DF92223018B32B4D1FA46E071723D6817E2486D STOP EXTCODESIZE 0xEC 0xC5 PUSH0 STOP LOG2 PUSH5 0x6970667358 0x22 SLT KECCAK256 REVERT DUP14 CALLCODE DUP3 0xD0 0xD7 SWAP11 0xB5 0xEA 0xDE 0x24 PUSH9 0x30BBF99D1EC59B76EB 0xE4 PUSH15 0xA59038004EED14E6DB64736F6C6343 STOP ADDMOD XOR STOP CALLER "},"methodIdentifiers":{"addLiquidity(uint32,uint32,uint256,uint256)":"1e00c2b2","assetPrecompile(uint32)":"f8338807","getPoolId(uint32,uint32)":"bd6a87b0","getPoolShares(bytes32,address)":"acff38a7","getReserves(uint32,uint32)":"2d9d90e9","owner()":"8da5cb5b","pools(bytes32)":"b5217bb4","registerAsset(uint32,address)":"df17aa25","removeLiquidity(uint32,uint32,uint256)":"e5d92e19","swap(uint32,uint32,uint256,uint256)":"4a4f0718","swapAndBridgeXCM(uint32,uint32,uint256,uint256,bytes,bytes)":"bc95412f","systemPrecompile()":"ceff3e48","xcmPrecompile()":"1021764e"}}}}}