{"evm/TesseractVault.sol":{"TesseractVault":{"abi":[{"inputs":[{"internalType":"address","name":"_asset","type":"address"},{"internalType":"address","name":"_xcmPrecompile","type":"address"},{"internalType":"address","name":"_systemPrecompile","type":"address"},{"internalType":"address","name":"_computeContract","type":"address"},{"internalType":"string","name":"_name","type":"string"},{"internalType":"string","name":"_symbol","type":"string"}],"stateMutability":"nonpayable","type":"constructor"},{"inputs":[],"name":"ReentrancyGuardReentrantCall","type":"error"},{"anonymous":false,"inputs":[{"indexed":false,"internalType":"address","name":"computeContract","type":"address"}],"name":"ComputeContractSet","type":"event"},{"anonymous":false,"inputs":[{"indexed":true,"internalType":"address","name":"sender","type":"address"},{"indexed":true,"internalType":"address","name":"receiver","type":"address"},{"indexed":false,"internalType":"uint256","name":"assets","type":"uint256"},{"indexed":false,"internalType":"uint256","name":"shares","type":"uint256"}],"name":"Deposit","type":"event"},{"anonymous":false,"inputs":[{"indexed":false,"internalType":"uint64","name":"bestStrategyIndex","type":"uint64"},{"indexed":false,"internalType":"bytes","name":"xcmMessage","type":"bytes"},{"indexed":false,"internalType":"uint64","name":"refTime","type":"uint64"},{"indexed":false,"internalType":"uint64","name":"proofSize","type":"uint64"}],"name":"Rebalanced","type":"event"},{"anonymous":false,"inputs":[{"indexed":true,"internalType":"address","name":"sender","type":"address"},{"indexed":true,"internalType":"address","name":"receiver","type":"address"},{"indexed":false,"internalType":"uint256","name":"assets","type":"uint256"},{"indexed":false,"internalType":"uint256","name":"shares","type":"uint256"}],"name":"Withdraw","type":"event"},{"inputs":[],"name":"asset","outputs":[{"internalType":"contract IERC20","name":"","type":"address"}],"stateMutability":"view","type":"function"},{"inputs":[{"internalType":"address","name":"","type":"address"}],"name":"balanceOf","outputs":[{"internalType":"uint256","name":"","type":"uint256"}],"stateMutability":"view","type":"function"},{"inputs":[],"name":"computeContract","outputs":[{"internalType":"address","name":"","type":"address"}],"stateMutability":"view","type":"function"},{"inputs":[{"internalType":"uint256","name":"shares","type":"uint256"}],"name":"convertToAssets","outputs":[{"internalType":"uint256","name":"","type":"uint256"}],"stateMutability":"view","type":"function"},{"inputs":[{"internalType":"uint256","name":"assets","type":"uint256"}],"name":"convertToShares","outputs":[{"internalType":"uint256","name":"","type":"uint256"}],"stateMutability":"view","type":"function"},{"inputs":[],"name":"decimals","outputs":[{"internalType":"uint8","name":"","type":"uint8"}],"stateMutability":"view","type":"function"},{"inputs":[{"internalType":"uint256","name":"assets","type":"uint256"},{"internalType":"address","name":"receiver","type":"address"}],"name":"deposit","outputs":[{"internalType":"uint256","name":"shares","type":"uint256"}],"stateMutability":"nonpayable","type":"function"},{"inputs":[],"name":"name","outputs":[{"internalType":"string","name":"","type":"string"}],"stateMutability":"view","type":"function"},{"inputs":[],"name":"owner","outputs":[{"internalType":"address","name":"","type":"address"}],"stateMutability":"view","type":"function"},{"inputs":[{"internalType":"uint256","name":"assets","type":"uint256"}],"name":"previewDeposit","outputs":[{"internalType":"uint256","name":"","type":"uint256"}],"stateMutability":"view","type":"function"},{"inputs":[{"internalType":"uint256","name":"shares","type":"uint256"}],"name":"previewWithdraw","outputs":[{"internalType":"uint256","name":"","type":"uint256"}],"stateMutability":"view","type":"function"},{"inputs":[{"internalType":"uint64[]","name":"strategyAprs","type":"uint64[]"},{"internalType":"bytes","name":"xcmMessage","type":"bytes"}],"name":"rebalance","outputs":[],"stateMutability":"nonpayable","type":"function"},{"inputs":[{"internalType":"address","name":"_compute","type":"address"}],"name":"setComputeContract","outputs":[],"stateMutability":"nonpayable","type":"function"},{"inputs":[],"name":"symbol","outputs":[{"internalType":"string","name":"","type":"string"}],"stateMutability":"view","type":"function"},{"inputs":[],"name":"systemPrecompile","outputs":[{"internalType":"address","name":"","type":"address"}],"stateMutability":"view","type":"function"},{"inputs":[],"name":"totalAssets","outputs":[{"internalType":"uint256","name":"","type":"uint256"}],"stateMutability":"view","type":"function"},{"inputs":[],"name":"totalSupply","outputs":[{"internalType":"uint256","name":"","type":"uint256"}],"stateMutability":"view","type":"function"},{"inputs":[{"internalType":"uint256","name":"shares","type":"uint256"},{"internalType":"address","name":"receiver","type":"address"}],"name":"withdraw","outputs":[{"internalType":"uint256","name":"assets","type":"uint256"}],"stateMutability":"nonpayable","type":"function"},{"inputs":[],"name":"xcmPrecompile","outputs":[{"internalType":"address","name":"","type":"address"}],"stateMutability":"view","type":"function"}],"evm":{"bytecode":{"linkReferences":{},"object":"60e060405234620003e65762001589803803806200001d81620003eb565b92833981019060c081830312620003e657620000398162000427565b6020926200004984840162000427565b92620000586040820162000427565b91620000676060830162000427565b608083015190936001600160401b03939091848111620003e657836200008f9183016200043c565b9260a0820151858111620003e657620000a992016200043c565b90600196877f9b779b17422d0df92223018b32b4d1fa46e071723d6817e2486d003becc55f005560018060a01b0380971660805260a05260c05260018060a01b03199460009416858554161784558151838111620003d257600254928784811c94168015620003c7575b89851014620003b3578190601f948581116200035f575b508990858311600114620002f9578792620002ed575b5050600019600383901b1c191690871b176002555b8051928311620002d95760039384548781811c91168015620002ce575b89821014620002ba5783811162000272575b50879284116001146200020a5783949596975092620001fe575b505060001982841b1c191690841b1790555b815416331790556040516110da9081620004af823960805181818161044f015281816105a70152610c99015260a05181818161070e0152610a8d015260c05181818161010d01526106a00152f35b0151905038806200019e565b9190601f1984169785845280842093905b8982106200025a575050838798979596971062000241575b505050811b019055620001b0565b015160001983861b60f8161c1916905538808062000233565b8089859682949686015181550195019301906200021b565b8582528882208480870160051c8201928b8810620002b0575b0160051c019088905b828110620002a457505062000184565b83815501889062000294565b925081926200028b565b634e487b7160e01b82526022600452602482fd5b90607f169062000172565b634e487b7160e01b84526041600452602484fd5b01519050388062000140565b600288528a88208a94509190601f198416895b8d8282106200034857505084116200032e575b505050811b0160025562000155565b015160001960f88460031b161c191690553880806200031f565b8385015186558d979095019493840193016200030c565b909150600287528987208580850160051c8201928c8610620003a9575b918b91869594930160051c01915b8281106200039a5750506200012a565b8981558594508b91016200038a565b925081926200037c565b634e487b7160e01b86526022600452602486fd5b93607f169362000113565b634e487b7160e01b85526041600452602485fd5b600080fd5b6040519190601f01601f191682016001600160401b038111838210176200041157604052565b634e487b7160e01b600052604160045260246000fd5b51906001600160a01b0382168203620003e657565b919080601f84011215620003e65782516001600160401b038111620004115760209062000472601f8201601f19168301620003eb565b92818452828287010111620003e65760005b8181106200049a57508260009394955001015290565b85810183015184820184015282016200048456fe6040608081526004908136101561001557600080fd5b600090813560e01c928362f714ce14610bd257836301e1d11414610bb657836306fdde0314610ac157836307a2d13a14610abc5783630a28a47714610abc5783631021764e14610a7957836318160ddd14610a5b57836325637bca146105f1578363313ce567146105d657836338d52e0f146105935783636e553f65146103d957836370a08231146103a25783638da5cb5b1461037a57836395d89b4114610272578363b9d0ba9a1461024b578363c6e6f592146100f5578363cb01bc691461014057508263ceff3e48146100fa57505063ef8b30f7146100f557600080fd5b610ea2565b3461013c578160031936011261013c57517f00000000000000000000000000000000000000000000000000000000000000006001600160a01b03168152602090f35b5080fd5b90346102475760203660031901126102475761015a610de5565b6001546001600160a01b03906101739082163314610fa2565b84549181831661020457169283156101c157506001600160a01b03191682178355519081527f6899b6f66cad99bbcdecf0eb5c61513b7394a6f77da03746d7a45b26f5e10d9f90602090a180f35b606490602084519162461bcd60e51b8352820152601c60248201527f5465737365726163745661756c743a207a65726f2061646472657373000000006044820152fd5b835162461bcd60e51b8152602081870152601b60248201527f5465737365726163745661756c743a20616c72656164792073657400000000006044820152606490fd5b8280fd5b503461013c578160031936011261013c57905490516001600160a01b039091168152602090f35b91346103775780600319360112610377575080519060009260035460018160011c9160018116801561036d575b602094858510821461035a575083875290811561033a57506001146102df575b5050506102d1826102db940383610dfb565b5191829182610e33565b0390f35b600360009081529295507fc2575a0e9e593c00f959f8c92f12db2869c3395a3b0502d05e2516446f71f85b5b82841061032757505050826102db946102d192820101946102bf565b805486850188015292860192810161030b565b60ff1916868501525050151560051b83010192506102d1826102db6102bf565b634e487b7160e01b895260229052602488fd5b92607f169261029f565b80fd5b503461013c578160031936011261013c5760015490516001600160a01b039091168152602090f35b503461013c57602036600319011261013c5760209181906001600160a01b036103c9610de5565b1681526006845220549051908152f35b92503461013c578060031936011261013c578235916103f6610dca565b926103ff611054565b80156105505760055480610535575080935b61041c851515610ec0565b83516323b872dd60e01b81523387820152306024820152604481018390526020966001600160a01b0392918881606481897f000000000000000000000000000000000000000000000000000000000000000089165af1801561052b579087949392916104fe575b5061048f858254611024565b905561049d87600554611024565b600555169283815260068752206104b5858254611024565b9055825190815283858201527fdcbc1c05240f31ff3ad067ef1ee35ce4997762752e3a095284754544f4c709d7833392a360016000805160206110858339815191525551908152f35b61051d908a3d8c11610524575b6105158183610dfb565b810190610f62565b5038610483565b503d61050b565b87513d88823e3d90fd5b61054261054a9183610f0c565b865490610f35565b93610411565b825162461bcd60e51b8152602081870152601c60248201527f5465737365726163745661756c743a207a65726f206465706f736974000000006044820152606490fd5b503461013c578160031936011261013c57517f00000000000000000000000000000000000000000000000000000000000000006001600160a01b03168152602090f35b503461013c578160031936011261013c5760209051600a8152f35b92503461013c578060031936011261013c57823567ffffffffffffffff91828211610a575736602383011215610a575781850135838111610a535760249536878360051b86010111610a4f57863596858811610a4b5736602389011215610a4b5787820135928684116109565781890198828536920101116109565760018060a01b0390600161068683600154163314610fa2565b61068e611054565b8651638d29dffb60e01b8152878187817f000000000000000000000000000000000000000000000000000000000000000088165afa8015610a41578a908c906109f4575b64012a05f200925016111561099e578997838b54169081151580610995575b6108cb575b505086516347400c2360e01b815260208187015294927f00000000000000000000000000000000000000000000000000000000000000001691508690508480610742868201898f611003565b0381845afa9384156108c1578994610851575b50803b1561084d579188918261078b8a96958d8a5196878094819363d3b7e04d60e01b83526060898401528d6064840191611003565b8b8b51168983015260208b019b8c5116604483015203925af180156108435761081b575b5050507fca1a1d90c67d85f776af6bf1bf545c252e12b71e2ef6a49fca59d719cb730ad3969786806107fa935116935116938551978897168752608060208801526080870191611003565b9284015260608301520390a160016000805160206110858339815191525580f35b88839a949a116108325750508452958786806107af565b634e487b7160e01b84526041905282fd5b87513d8c823e3d90fd5b8880fd5b9093508581813d83116108ba575b6108698183610dfb565b8101031261084d578551908682018281108a8211176108a85761089c91602091895261089481610fee565b845201610fee565b60208201529238610755565b634e487b7160e01b8b5260418452848bfd5b503d61085f565b86513d8b823e3d90fd5b908b939499508851938492632651bae760e01b845286888501956020988997888d890152528960448701930191845b81811061096157505050509083809203925af19182156108c1578992610927575b505094388080806106f6565b90809250813d831161095a575b61093e8183610dfb565b810103126109565761094f90610fee565b388061091b565b8780fd5b503d610934565b9392965093509395508d853590811680910361099157888281928794520195019101908795938f938896936108fa565b8f80fd5b508315156106f1565b865162461bcd60e51b8152602081870152602b818601527f5465737365726163745661756c743a20696e73756666696369656e742077656960448201526a67687420666f722058434d60a81b6064820152608490fd5b50508781813d8311610a3a575b610a0b8183610dfb565b81010312610a36578981610a306020610a2964012a05f20095610fee565b9201610fee565b506106d2565b8a80fd5b503d610a01565b88513d8d823e3d90fd5b8680fd5b8580fd5b8480fd5b8380fd5b503461013c578160031936011261013c576020906005549051908152f35b503461013c578160031936011261013c57517f00000000000000000000000000000000000000000000000000000000000000006001600160a01b03168152602090f35b610e7c565b903461024757826003193601126102475780519183600254906001908260011c92600181168015610bac575b6020958686108214610b995750848852908115610b775750600114610b1e575b6102db86866102d1828b0383610dfb565b929550600283527f405787fa12a823e0f2b7631cc41b3ba8828b3321ca811111fa75cd3aa3bb5ace5b828410610b6457505050826102db946102d1928201019486610b0d565b8054868501880152928601928101610b47565b60ff191687860152505050151560051b83010192506102d1826102db86610b0d565b634e487b7160e01b845260229052602483fd5b93607f1693610aed565b3461024757826003193601126102475760209250549051908152f35b9034610247578060031936011261024757813591610bee610dca565b92610bf7611054565b610c02811515610ec0565b33855260209460068652818482205410610d7b57610c2d610c24845484610f0c565b60055490610f35565b948515610d3857908660449233835260068252868320610c4e868254610f55565b9055610c5c85600554610f55565b600555610c6a888754610f55565b8655865163a9059cbb60e01b81526001600160a01b0391821696810187905260248101899052938491829085907f0000000000000000000000000000000000000000000000000000000000000000165af1908115610d2d5750610d10575b50825190848252858201527ff341246adaac6f497bc2a656f546ab9e182111d630394f0c57c710a59a2cb567833392a360016000805160206110858339815191525551908152f35b610d2690863d8811610524576105158183610dfb565b5085610cc8565b8551903d90823e3d90fd5b845162461bcd60e51b8152808501889052601b60248201527f5465737365726163745661756c743a207a65726f2061737365747300000000006044820152606490fd5b835162461bcd60e51b8152808401879052602360248201527f5465737365726163745661756c743a20696e73756666696369656e742073686160448201526272657360e81b6064820152608490fd5b602435906001600160a01b0382168203610de057565b600080fd5b600435906001600160a01b0382168203610de057565b90601f8019910116810190811067ffffffffffffffff821117610e1d57604052565b634e487b7160e01b600052604160045260246000fd5b6020808252825181830181905290939260005b828110610e6857505060409293506000838284010152601f8019910116010190565b818101860151848201604001528501610e46565b34610de0576020366003190112610de0576020610e9a600435610f7a565b604051908152f35b34610de0576020366003190112610de0576020610e9a600435611031565b15610ec757565b60405162461bcd60e51b815260206004820152601b60248201527f5465737365726163745661756c743a207a65726f2073686172657300000000006044820152606490fd5b81810292918115918404141715610f1f57565b634e487b7160e01b600052601160045260246000fd5b8115610f3f570490565b634e487b7160e01b600052601260045260246000fd5b91908203918211610f1f57565b90816020910312610de057518015158103610de05790565b6005548015610f9b57610f93610f989260045490610f0c565b610f35565b90565b5050600090565b15610fa957565b60405162461bcd60e51b815260206004820152601960248201527f5465737365726163745661756c743a206e6f74206f776e6572000000000000006044820152606490fd5b519067ffffffffffffffff82168203610de057565b908060209392818452848401376000828201840152601f01601f1916010190565b91908201809211610f1f57565b60055480156110505761104790610f9892610f0c565b60045490610f35565b5090565b60008051602061108583398151915260028154146110725760029055565b604051633ee5aeb560e01b8152600490fdfe9b779b17422d0df92223018b32b4d1fa46e071723d6817e2486d003becc55f00a2646970667358221220cf8a95d5bd3366e8130e5fd776adc760ee79cf06dfe0f5bbd854aec91041f8de64736f6c63430008180033","opcodes":"PUSH1 0xE0 PUSH1 0x40 MSTORE CALLVALUE PUSH3 0x3E6 JUMPI PUSH3 0x1589 DUP1 CODESIZE SUB DUP1 PUSH3 0x1D DUP2 PUSH3 0x3EB JUMP JUMPDEST SWAP3 DUP4 CODECOPY DUP2 ADD SWAP1 PUSH1 0xC0 DUP2 DUP4 SUB SLT PUSH3 0x3E6 JUMPI PUSH3 0x39 DUP2 PUSH3 0x427 JUMP JUMPDEST PUSH1 0x20 SWAP3 PUSH3 0x49 DUP5 DUP5 ADD PUSH3 0x427 JUMP JUMPDEST SWAP3 PUSH3 0x58 PUSH1 0x40 DUP3 ADD PUSH3 0x427 JUMP JUMPDEST SWAP2 PUSH3 0x67 PUSH1 0x60 DUP4 ADD PUSH3 0x427 JUMP JUMPDEST PUSH1 0x80 DUP4 ADD MLOAD SWAP1 SWAP4 PUSH1 0x1 PUSH1 0x1 PUSH1 0x40 SHL SUB SWAP4 SWAP1 SWAP2 DUP5 DUP2 GT PUSH3 0x3E6 JUMPI DUP4 PUSH3 0x8F SWAP2 DUP4 ADD PUSH3 0x43C JUMP JUMPDEST SWAP3 PUSH1 0xA0 DUP3 ADD MLOAD DUP6 DUP2 GT PUSH3 0x3E6 JUMPI PUSH3 0xA9 SWAP3 ADD PUSH3 0x43C JUMP JUMPDEST SWAP1 PUSH1 0x1 SWAP7 DUP8 PUSH32 0x9B779B17422D0DF92223018B32B4D1FA46E071723D6817E2486D003BECC55F00 SSTORE PUSH1 0x1 DUP1 PUSH1 0xA0 SHL SUB DUP1 SWAP8 AND PUSH1 0x80 MSTORE PUSH1 0xA0 MSTORE PUSH1 0xC0 MSTORE PUSH1 0x1 DUP1 PUSH1 0xA0 SHL SUB NOT SWAP5 PUSH1 0x0 SWAP5 AND DUP6 DUP6 SLOAD AND OR DUP5 SSTORE DUP2 MLOAD DUP4 DUP2 GT PUSH3 0x3D2 JUMPI PUSH1 0x2 SLOAD SWAP3 DUP8 DUP5 DUP2 SHR SWAP5 AND DUP1 ISZERO PUSH3 0x3C7 JUMPI JUMPDEST DUP10 DUP6 LT EQ PUSH3 0x3B3 JUMPI DUP2 SWAP1 PUSH1 0x1F SWAP5 DUP6 DUP2 GT PUSH3 0x35F JUMPI JUMPDEST POP DUP10 SWAP1 DUP6 DUP4 GT PUSH1 0x1 EQ PUSH3 0x2F9 JUMPI DUP8 SWAP3 PUSH3 0x2ED JUMPI JUMPDEST POP POP PUSH1 0x0 NOT PUSH1 0x3 DUP4 SWAP1 SHL SHR NOT AND SWAP1 DUP8 SHL OR PUSH1 0x2 SSTORE JUMPDEST DUP1 MLOAD SWAP3 DUP4 GT PUSH3 0x2D9 JUMPI PUSH1 0x3 SWAP4 DUP5 SLOAD DUP8 DUP2 DUP2 SHR SWAP2 AND DUP1 ISZERO PUSH3 0x2CE JUMPI JUMPDEST DUP10 DUP3 LT EQ PUSH3 0x2BA JUMPI DUP4 DUP2 GT PUSH3 0x272 JUMPI JUMPDEST POP DUP8 SWAP3 DUP5 GT PUSH1 0x1 EQ PUSH3 0x20A JUMPI DUP4 SWAP5 SWAP6 SWAP7 SWAP8 POP SWAP3 PUSH3 0x1FE JUMPI JUMPDEST POP POP PUSH1 0x0 NOT DUP3 DUP5 SHL SHR NOT AND SWAP1 DUP5 SHL OR SWAP1 SSTORE JUMPDEST DUP2 SLOAD AND CALLER OR SWAP1 SSTORE PUSH1 0x40 MLOAD PUSH2 0x10DA SWAP1 DUP2 PUSH3 0x4AF DUP3 CODECOPY PUSH1 0x80 MLOAD DUP2 DUP2 DUP2 PUSH2 0x44F ADD MSTORE DUP2 DUP2 PUSH2 0x5A7 ADD MSTORE PUSH2 0xC99 ADD MSTORE PUSH1 0xA0 MLOAD DUP2 DUP2 DUP2 PUSH2 0x70E ADD MSTORE PUSH2 0xA8D ADD MSTORE PUSH1 0xC0 MLOAD DUP2 DUP2 DUP2 PUSH2 0x10D ADD MSTORE PUSH2 0x6A0 ADD MSTORE RETURN JUMPDEST ADD MLOAD SWAP1 POP CODESIZE DUP1 PUSH3 0x19E JUMP JUMPDEST SWAP2 SWAP1 PUSH1 0x1F NOT DUP5 AND SWAP8 DUP6 DUP5 MSTORE DUP1 DUP5 KECCAK256 SWAP4 SWAP1 JUMPDEST DUP10 DUP3 LT PUSH3 0x25A JUMPI POP POP DUP4 DUP8 SWAP9 SWAP8 SWAP6 SWAP7 SWAP8 LT PUSH3 0x241 JUMPI JUMPDEST POP POP POP DUP2 SHL ADD SWAP1 SSTORE PUSH3 0x1B0 JUMP JUMPDEST ADD MLOAD PUSH1 0x0 NOT DUP4 DUP7 SHL PUSH1 0xF8 AND SHR NOT AND SWAP1 SSTORE CODESIZE DUP1 DUP1 PUSH3 0x233 JUMP JUMPDEST DUP1 DUP10 DUP6 SWAP7 DUP3 SWAP5 SWAP7 DUP7 ADD MLOAD DUP2 SSTORE ADD SWAP6 ADD SWAP4 ADD SWAP1 PUSH3 0x21B JUMP JUMPDEST DUP6 DUP3 MSTORE DUP9 DUP3 KECCAK256 DUP5 DUP1 DUP8 ADD PUSH1 0x5 SHR DUP3 ADD SWAP3 DUP12 DUP9 LT PUSH3 0x2B0 JUMPI JUMPDEST ADD PUSH1 0x5 SHR ADD SWAP1 DUP9 SWAP1 JUMPDEST DUP3 DUP2 LT PUSH3 0x2A4 JUMPI POP POP PUSH3 0x184 JUMP JUMPDEST DUP4 DUP2 SSTORE ADD DUP9 SWAP1 PUSH3 0x294 JUMP JUMPDEST SWAP3 POP DUP2 SWAP3 PUSH3 0x28B JUMP JUMPDEST PUSH4 0x4E487B71 PUSH1 0xE0 SHL DUP3 MSTORE PUSH1 0x22 PUSH1 0x4 MSTORE PUSH1 0x24 DUP3 REVERT JUMPDEST SWAP1 PUSH1 0x7F AND SWAP1 PUSH3 0x172 JUMP JUMPDEST PUSH4 0x4E487B71 PUSH1 0xE0 SHL DUP5 MSTORE PUSH1 0x41 PUSH1 0x4 MSTORE PUSH1 0x24 DUP5 REVERT JUMPDEST ADD MLOAD SWAP1 POP CODESIZE DUP1 PUSH3 0x140 JUMP JUMPDEST PUSH1 0x2 DUP9 MSTORE DUP11 DUP9 KECCAK256 DUP11 SWAP5 POP SWAP2 SWAP1 PUSH1 0x1F NOT DUP5 AND DUP10 JUMPDEST DUP14 DUP3 DUP3 LT PUSH3 0x348 JUMPI POP POP DUP5 GT PUSH3 0x32E JUMPI JUMPDEST POP POP POP DUP2 SHL ADD PUSH1 0x2 SSTORE PUSH3 0x155 JUMP JUMPDEST ADD MLOAD PUSH1 0x0 NOT PUSH1 0xF8 DUP5 PUSH1 0x3 SHL AND SHR NOT AND SWAP1 SSTORE CODESIZE DUP1 DUP1 PUSH3 0x31F JUMP JUMPDEST DUP4 DUP6 ADD MLOAD DUP7 SSTORE DUP14 SWAP8 SWAP1 SWAP6 ADD SWAP5 SWAP4 DUP5 ADD SWAP4 ADD PUSH3 0x30C JUMP JUMPDEST SWAP1 SWAP2 POP PUSH1 0x2 DUP8 MSTORE DUP10 DUP8 KECCAK256 DUP6 DUP1 DUP6 ADD PUSH1 0x5 SHR DUP3 ADD SWAP3 DUP13 DUP7 LT PUSH3 0x3A9 JUMPI JUMPDEST SWAP2 DUP12 SWAP2 DUP7 SWAP6 SWAP5 SWAP4 ADD PUSH1 0x5 SHR ADD SWAP2 JUMPDEST DUP3 DUP2 LT PUSH3 0x39A JUMPI POP POP PUSH3 0x12A JUMP JUMPDEST DUP10 DUP2 SSTORE DUP6 SWAP5 POP DUP12 SWAP2 ADD PUSH3 0x38A JUMP JUMPDEST SWAP3 POP DUP2 SWAP3 PUSH3 0x37C JUMP JUMPDEST PUSH4 0x4E487B71 PUSH1 0xE0 SHL DUP7 MSTORE PUSH1 0x22 PUSH1 0x4 MSTORE PUSH1 0x24 DUP7 REVERT JUMPDEST SWAP4 PUSH1 0x7F AND SWAP4 PUSH3 0x113 JUMP JUMPDEST PUSH4 0x4E487B71 PUSH1 0xE0 SHL DUP6 MSTORE PUSH1 0x41 PUSH1 0x4 MSTORE PUSH1 0x24 DUP6 REVERT JUMPDEST PUSH1 0x0 DUP1 REVERT JUMPDEST PUSH1 0x40 MLOAD SWAP2 SWAP1 PUSH1 0x1F ADD PUSH1 0x1F NOT AND DUP3 ADD PUSH1 0x1 PUSH1 0x1 PUSH1 0x40 SHL SUB DUP2 GT DUP4 DUP3 LT OR PUSH3 0x411 JUMPI PUSH1 0x40 MSTORE JUMP JUMPDEST PUSH4 0x4E487B71 PUSH1 0xE0 SHL PUSH1 0x0 MSTORE PUSH1 0x41 PUSH1 0x4 MSTORE PUSH1 0x24 PUSH1 0x0 REVERT JUMPDEST MLOAD SWAP1 PUSH1 0x1 PUSH1 0x1 PUSH1 0xA0 SHL SUB DUP3 AND DUP3 SUB PUSH3 0x3E6 JUMPI JUMP JUMPDEST SWAP2 SWAP1 DUP1 PUSH1 0x1F DUP5 ADD SLT ISZERO PUSH3 0x3E6 JUMPI DUP3 MLOAD PUSH1 0x1 PUSH1 0x1 PUSH1 0x40 SHL SUB DUP2 GT PUSH3 0x411 JUMPI PUSH1 0x20 SWAP1 PUSH3 0x472 PUSH1 0x1F DUP3 ADD PUSH1 0x1F NOT AND DUP4 ADD PUSH3 0x3EB JUMP JUMPDEST SWAP3 DUP2 DUP5 MSTORE DUP3 DUP3 DUP8 ADD ADD GT PUSH3 0x3E6 JUMPI PUSH1 0x0 JUMPDEST DUP2 DUP2 LT PUSH3 0x49A JUMPI POP DUP3 PUSH1 0x0 SWAP4 SWAP5 SWAP6 POP ADD ADD MSTORE SWAP1 JUMP JUMPDEST DUP6 DUP2 ADD DUP4 ADD MLOAD DUP5 DUP3 ADD DUP5 ADD MSTORE DUP3 ADD PUSH3 0x484 JUMP INVALID PUSH1 0x40 PUSH1 0x80 DUP2 MSTORE PUSH1 0x4 SWAP1 DUP2 CALLDATASIZE LT ISZERO PUSH2 0x15 JUMPI PUSH1 0x0 DUP1 REVERT JUMPDEST PUSH1 0x0 SWAP1 DUP2 CALLDATALOAD PUSH1 0xE0 SHR SWAP3 DUP4 PUSH3 0xF714CE EQ PUSH2 0xBD2 JUMPI DUP4 PUSH4 0x1E1D114 EQ PUSH2 0xBB6 JUMPI DUP4 PUSH4 0x6FDDE03 EQ PUSH2 0xAC1 JUMPI DUP4 PUSH4 0x7A2D13A EQ PUSH2 0xABC JUMPI DUP4 PUSH4 0xA28A477 EQ PUSH2 0xABC JUMPI DUP4 PUSH4 0x1021764E EQ PUSH2 0xA79 JUMPI DUP4 PUSH4 0x18160DDD EQ PUSH2 0xA5B JUMPI DUP4 PUSH4 0x25637BCA EQ PUSH2 0x5F1 JUMPI DUP4 PUSH4 0x313CE567 EQ PUSH2 0x5D6 JUMPI DUP4 PUSH4 0x38D52E0F EQ PUSH2 0x593 JUMPI DUP4 PUSH4 0x6E553F65 EQ PUSH2 0x3D9 JUMPI DUP4 PUSH4 0x70A08231 EQ PUSH2 0x3A2 JUMPI DUP4 PUSH4 0x8DA5CB5B EQ PUSH2 0x37A JUMPI DUP4 PUSH4 0x95D89B41 EQ PUSH2 0x272 JUMPI DUP4 PUSH4 0xB9D0BA9A EQ PUSH2 0x24B JUMPI DUP4 PUSH4 0xC6E6F592 EQ PUSH2 0xF5 JUMPI DUP4 PUSH4 0xCB01BC69 EQ PUSH2 0x140 JUMPI POP DUP3 PUSH4 0xCEFF3E48 EQ PUSH2 0xFA JUMPI POP POP PUSH4 0xEF8B30F7 EQ PUSH2 0xF5 JUMPI PUSH1 0x0 DUP1 REVERT JUMPDEST PUSH2 0xEA2 JUMP JUMPDEST CALLVALUE PUSH2 0x13C JUMPI DUP2 PUSH1 0x3 NOT CALLDATASIZE ADD SLT PUSH2 0x13C JUMPI MLOAD PUSH32 0x0 PUSH1 0x1 PUSH1 0x1 PUSH1 0xA0 SHL SUB AND DUP2 MSTORE PUSH1 0x20 SWAP1 RETURN JUMPDEST POP DUP1 REVERT JUMPDEST SWAP1 CALLVALUE PUSH2 0x247 JUMPI PUSH1 0x20 CALLDATASIZE PUSH1 0x3 NOT ADD SLT PUSH2 0x247 JUMPI PUSH2 0x15A PUSH2 0xDE5 JUMP JUMPDEST PUSH1 0x1 SLOAD PUSH1 0x1 PUSH1 0x1 PUSH1 0xA0 SHL SUB SWAP1 PUSH2 0x173 SWAP1 DUP3 AND CALLER EQ PUSH2 0xFA2 JUMP JUMPDEST DUP5 SLOAD SWAP2 DUP2 DUP4 AND PUSH2 0x204 JUMPI AND SWAP3 DUP4 ISZERO PUSH2 0x1C1 JUMPI POP PUSH1 0x1 PUSH1 0x1 PUSH1 0xA0 SHL SUB NOT AND DUP3 OR DUP4 SSTORE MLOAD SWAP1 DUP2 MSTORE PUSH32 0x6899B6F66CAD99BBCDECF0EB5C61513B7394A6F77DA03746D7A45B26F5E10D9F SWAP1 PUSH1 0x20 SWAP1 LOG1 DUP1 RETURN JUMPDEST PUSH1 0x64 SWAP1 PUSH1 0x20 DUP5 MLOAD SWAP2 PUSH3 0x461BCD PUSH1 0xE5 SHL DUP4 MSTORE DUP3 ADD MSTORE PUSH1 0x1C PUSH1 0x24 DUP3 ADD MSTORE PUSH32 0x5465737365726163745661756C743A207A65726F206164647265737300000000 PUSH1 0x44 DUP3 ADD MSTORE REVERT JUMPDEST DUP4 MLOAD PUSH3 0x461BCD PUSH1 0xE5 SHL DUP2 MSTORE PUSH1 0x20 DUP2 DUP8 ADD MSTORE PUSH1 0x1B PUSH1 0x24 DUP3 ADD MSTORE PUSH32 0x5465737365726163745661756C743A20616C7265616479207365740000000000 PUSH1 0x44 DUP3 ADD MSTORE PUSH1 0x64 SWAP1 REVERT JUMPDEST DUP3 DUP1 REVERT JUMPDEST POP CALLVALUE PUSH2 0x13C JUMPI DUP2 PUSH1 0x3 NOT CALLDATASIZE ADD SLT PUSH2 0x13C JUMPI SWAP1 SLOAD SWAP1 MLOAD PUSH1 0x1 PUSH1 0x1 PUSH1 0xA0 SHL SUB SWAP1 SWAP2 AND DUP2 MSTORE PUSH1 0x20 SWAP1 RETURN JUMPDEST SWAP2 CALLVALUE PUSH2 0x377 JUMPI DUP1 PUSH1 0x3 NOT CALLDATASIZE ADD SLT PUSH2 0x377 JUMPI POP DUP1 MLOAD SWAP1 PUSH1 0x0 SWAP3 PUSH1 0x3 SLOAD PUSH1 0x1 DUP2 PUSH1 0x1 SHR SWAP2 PUSH1 0x1 DUP2 AND DUP1 ISZERO PUSH2 0x36D JUMPI JUMPDEST PUSH1 0x20 SWAP5 DUP6 DUP6 LT DUP3 EQ PUSH2 0x35A JUMPI POP DUP4 DUP8 MSTORE SWAP1 DUP2 ISZERO PUSH2 0x33A JUMPI POP PUSH1 0x1 EQ PUSH2 0x2DF JUMPI JUMPDEST POP POP POP PUSH2 0x2D1 DUP3 PUSH2 0x2DB SWAP5 SUB DUP4 PUSH2 0xDFB JUMP JUMPDEST MLOAD SWAP2 DUP3 SWAP2 DUP3 PUSH2 0xE33 JUMP JUMPDEST SUB SWAP1 RETURN JUMPDEST PUSH1 0x3 PUSH1 0x0 SWAP1 DUP2 MSTORE SWAP3 SWAP6 POP PUSH32 0xC2575A0E9E593C00F959F8C92F12DB2869C3395A3B0502D05E2516446F71F85B JUMPDEST DUP3 DUP5 LT PUSH2 0x327 JUMPI POP POP POP DUP3 PUSH2 0x2DB SWAP5 PUSH2 0x2D1 SWAP3 DUP3 ADD ADD SWAP5 PUSH2 0x2BF JUMP JUMPDEST DUP1 SLOAD DUP7 DUP6 ADD DUP9 ADD MSTORE SWAP3 DUP7 ADD SWAP3 DUP2 ADD PUSH2 0x30B JUMP JUMPDEST PUSH1 0xFF NOT AND DUP7 DUP6 ADD MSTORE POP POP ISZERO ISZERO PUSH1 0x5 SHL DUP4 ADD ADD SWAP3 POP PUSH2 0x2D1 DUP3 PUSH2 0x2DB PUSH2 0x2BF JUMP JUMPDEST PUSH4 0x4E487B71 PUSH1 0xE0 SHL DUP10 MSTORE PUSH1 0x22 SWAP1 MSTORE PUSH1 0x24 DUP9 REVERT JUMPDEST SWAP3 PUSH1 0x7F AND SWAP3 PUSH2 0x29F JUMP JUMPDEST DUP1 REVERT JUMPDEST POP CALLVALUE PUSH2 0x13C JUMPI DUP2 PUSH1 0x3 NOT CALLDATASIZE ADD SLT PUSH2 0x13C JUMPI PUSH1 0x1 SLOAD SWAP1 MLOAD PUSH1 0x1 PUSH1 0x1 PUSH1 0xA0 SHL SUB SWAP1 SWAP2 AND DUP2 MSTORE PUSH1 0x20 SWAP1 RETURN JUMPDEST POP CALLVALUE PUSH2 0x13C JUMPI PUSH1 0x20 CALLDATASIZE PUSH1 0x3 NOT ADD SLT PUSH2 0x13C JUMPI PUSH1 0x20 SWAP2 DUP2 SWAP1 PUSH1 0x1 PUSH1 0x1 PUSH1 0xA0 SHL SUB PUSH2 0x3C9 PUSH2 0xDE5 JUMP JUMPDEST AND DUP2 MSTORE PUSH1 0x6 DUP5 MSTORE KECCAK256 SLOAD SWAP1 MLOAD SWAP1 DUP2 MSTORE RETURN JUMPDEST SWAP3 POP CALLVALUE PUSH2 0x13C JUMPI DUP1 PUSH1 0x3 NOT CALLDATASIZE ADD SLT PUSH2 0x13C JUMPI DUP3 CALLDATALOAD SWAP2 PUSH2 0x3F6 PUSH2 0xDCA JUMP JUMPDEST SWAP3 PUSH2 0x3FF PUSH2 0x1054 JUMP JUMPDEST DUP1 ISZERO PUSH2 0x550 JUMPI PUSH1 0x5 SLOAD DUP1 PUSH2 0x535 JUMPI POP DUP1 SWAP4 JUMPDEST PUSH2 0x41C DUP6 ISZERO ISZERO PUSH2 0xEC0 JUMP JUMPDEST DUP4 MLOAD PUSH4 0x23B872DD PUSH1 0xE0 SHL DUP2 MSTORE CALLER DUP8 DUP3 ADD MSTORE ADDRESS PUSH1 0x24 DUP3 ADD MSTORE PUSH1 0x44 DUP2 ADD DUP4 SWAP1 MSTORE PUSH1 0x20 SWAP7 PUSH1 0x1 PUSH1 0x1 PUSH1 0xA0 SHL SUB SWAP3 SWAP2 DUP9 DUP2 PUSH1 0x64 DUP2 DUP10 PUSH32 0x0 DUP10 AND GAS CALL DUP1 ISZERO PUSH2 0x52B JUMPI SWAP1 DUP8 SWAP5 SWAP4 SWAP3 SWAP2 PUSH2 0x4FE JUMPI JUMPDEST POP PUSH2 0x48F DUP6 DUP3 SLOAD PUSH2 0x1024 JUMP JUMPDEST SWAP1 SSTORE PUSH2 0x49D DUP8 PUSH1 0x5 SLOAD PUSH2 0x1024 JUMP JUMPDEST PUSH1 0x5 SSTORE AND SWAP3 DUP4 DUP2 MSTORE PUSH1 0x6 DUP8 MSTORE KECCAK256 PUSH2 0x4B5 DUP6 DUP3 SLOAD PUSH2 0x1024 JUMP JUMPDEST SWAP1 SSTORE DUP3 MLOAD SWAP1 DUP2 MSTORE DUP4 DUP6 DUP3 ADD MSTORE PUSH32 0xDCBC1C05240F31FF3AD067EF1EE35CE4997762752E3A095284754544F4C709D7 DUP4 CALLER SWAP3 LOG3 PUSH1 0x1 PUSH1 0x0 DUP1 MLOAD PUSH1 0x20 PUSH2 0x1085 DUP4 CODECOPY DUP2 MLOAD SWAP2 MSTORE SSTORE MLOAD SWAP1 DUP2 MSTORE RETURN JUMPDEST PUSH2 0x51D SWAP1 DUP11 RETURNDATASIZE DUP13 GT PUSH2 0x524 JUMPI JUMPDEST PUSH2 0x515 DUP2 DUP4 PUSH2 0xDFB JUMP JUMPDEST DUP2 ADD SWAP1 PUSH2 0xF62 JUMP JUMPDEST POP CODESIZE PUSH2 0x483 JUMP JUMPDEST POP RETURNDATASIZE PUSH2 0x50B JUMP JUMPDEST DUP8 MLOAD RETURNDATASIZE DUP9 DUP3 RETURNDATACOPY RETURNDATASIZE SWAP1 REVERT JUMPDEST PUSH2 0x542 PUSH2 0x54A SWAP2 DUP4 PUSH2 0xF0C JUMP JUMPDEST DUP7 SLOAD SWAP1 PUSH2 0xF35 JUMP JUMPDEST SWAP4 PUSH2 0x411 JUMP JUMPDEST DUP3 MLOAD PUSH3 0x461BCD PUSH1 0xE5 SHL DUP2 MSTORE PUSH1 0x20 DUP2 DUP8 ADD MSTORE PUSH1 0x1C PUSH1 0x24 DUP3 ADD MSTORE PUSH32 0x5465737365726163745661756C743A207A65726F206465706F73697400000000 PUSH1 0x44 DUP3 ADD MSTORE PUSH1 0x64 SWAP1 REVERT JUMPDEST POP CALLVALUE PUSH2 0x13C JUMPI DUP2 PUSH1 0x3 NOT CALLDATASIZE ADD SLT PUSH2 0x13C JUMPI MLOAD PUSH32 0x0 PUSH1 0x1 PUSH1 0x1 PUSH1 0xA0 SHL SUB AND DUP2 MSTORE PUSH1 0x20 SWAP1 RETURN JUMPDEST POP CALLVALUE PUSH2 0x13C JUMPI DUP2 PUSH1 0x3 NOT CALLDATASIZE ADD SLT PUSH2 0x13C JUMPI PUSH1 0x20 SWAP1 MLOAD PUSH1 0xA DUP2 MSTORE RETURN JUMPDEST SWAP3 POP CALLVALUE PUSH2 0x13C JUMPI DUP1 PUSH1 0x3 NOT CALLDATASIZE ADD SLT PUSH2 0x13C JUMPI DUP3 CALLDATALOAD PUSH8 0xFFFFFFFFFFFFFFFF SWAP2 DUP3 DUP3 GT PUSH2 0xA57 JUMPI CALLDATASIZE PUSH1 0x23 DUP4 ADD SLT ISZERO PUSH2 0xA57 JUMPI DUP2 DUP6 ADD CALLDATALOAD DUP4 DUP2 GT PUSH2 0xA53 JUMPI PUSH1 0x24 SWAP6 CALLDATASIZE DUP8 DUP4 PUSH1 0x5 SHL DUP7 ADD ADD GT PUSH2 0xA4F JUMPI DUP7 CALLDATALOAD SWAP7 DUP6 DUP9 GT PUSH2 0xA4B JUMPI CALLDATASIZE PUSH1 0x23 DUP10 ADD SLT ISZERO PUSH2 0xA4B JUMPI DUP8 DUP3 ADD CALLDATALOAD SWAP3 DUP7 DUP5 GT PUSH2 0x956 JUMPI DUP2 DUP10 ADD SWAP9 DUP3 DUP6 CALLDATASIZE SWAP3 ADD ADD GT PUSH2 0x956 JUMPI PUSH1 0x1 DUP1 PUSH1 0xA0 SHL SUB SWAP1 PUSH1 0x1 PUSH2 0x686 DUP4 PUSH1 0x1 SLOAD AND CALLER EQ PUSH2 0xFA2 JUMP JUMPDEST PUSH2 0x68E PUSH2 0x1054 JUMP JUMPDEST DUP7 MLOAD PUSH4 0x8D29DFFB PUSH1 0xE0 SHL DUP2 MSTORE DUP8 DUP2 DUP8 DUP2 PUSH32 0x0 DUP9 AND GAS STATICCALL DUP1 ISZERO PUSH2 0xA41 JUMPI DUP11 SWAP1 DUP13 SWAP1 PUSH2 0x9F4 JUMPI JUMPDEST PUSH5 0x12A05F200 SWAP3 POP AND GT ISZERO PUSH2 0x99E JUMPI DUP10 SWAP8 DUP4 DUP12 SLOAD AND SWAP1 DUP2 ISZERO ISZERO DUP1 PUSH2 0x995 JUMPI JUMPDEST PUSH2 0x8CB JUMPI JUMPDEST POP POP DUP7 MLOAD PUSH4 0x47400C23 PUSH1 0xE0 SHL DUP2 MSTORE PUSH1 0x20 DUP2 DUP8 ADD MSTORE SWAP5 SWAP3 PUSH32 0x0 AND SWAP2 POP DUP7 SWAP1 POP DUP5 DUP1 PUSH2 0x742 DUP7 DUP3 ADD DUP10 DUP16 PUSH2 0x1003 JUMP JUMPDEST SUB DUP2 DUP5 GAS STATICCALL SWAP4 DUP5 ISZERO PUSH2 0x8C1 JUMPI DUP10 SWAP5 PUSH2 0x851 JUMPI JUMPDEST POP DUP1 EXTCODESIZE ISZERO PUSH2 0x84D JUMPI SWAP2 DUP9 SWAP2 DUP3 PUSH2 0x78B DUP11 SWAP7 SWAP6 DUP14 DUP11 MLOAD SWAP7 DUP8 DUP1 SWAP5 DUP2 SWAP4 PUSH4 0xD3B7E04D PUSH1 0xE0 SHL DUP4 MSTORE PUSH1 0x60 DUP10 DUP5 ADD MSTORE DUP14 PUSH1 0x64 DUP5 ADD SWAP2 PUSH2 0x1003 JUMP JUMPDEST DUP12 DUP12 MLOAD AND DUP10 DUP4 ADD MSTORE PUSH1 0x20 DUP12 ADD SWAP12 DUP13 MLOAD AND PUSH1 0x44 DUP4 ADD MSTORE SUB SWAP3 GAS CALL DUP1 ISZERO PUSH2 0x843 JUMPI PUSH2 0x81B JUMPI JUMPDEST POP POP POP PUSH32 0xCA1A1D90C67D85F776AF6BF1BF545C252E12B71E2EF6A49FCA59D719CB730AD3 SWAP7 SWAP8 DUP7 DUP1 PUSH2 0x7FA SWAP4 MLOAD AND SWAP4 MLOAD AND SWAP4 DUP6 MLOAD SWAP8 DUP9 SWAP8 AND DUP8 MSTORE PUSH1 0x80 PUSH1 0x20 DUP9 ADD MSTORE PUSH1 0x80 DUP8 ADD SWAP2 PUSH2 0x1003 JUMP JUMPDEST SWAP3 DUP5 ADD MSTORE PUSH1 0x60 DUP4 ADD MSTORE SUB SWAP1 LOG1 PUSH1 0x1 PUSH1 0x0 DUP1 MLOAD PUSH1 0x20 PUSH2 0x1085 DUP4 CODECOPY DUP2 MLOAD SWAP2 MSTORE SSTORE DUP1 RETURN JUMPDEST DUP9 DUP4 SWAP11 SWAP5 SWAP11 GT PUSH2 0x832 JUMPI POP POP DUP5 MSTORE SWAP6 DUP8 DUP7 DUP1 PUSH2 0x7AF JUMP JUMPDEST PUSH4 0x4E487B71 PUSH1 0xE0 SHL DUP5 MSTORE PUSH1 0x41 SWAP1 MSTORE DUP3 REVERT JUMPDEST DUP8 MLOAD RETURNDATASIZE DUP13 DUP3 RETURNDATACOPY RETURNDATASIZE SWAP1 REVERT JUMPDEST DUP9 DUP1 REVERT JUMPDEST SWAP1 SWAP4 POP DUP6 DUP2 DUP2 RETURNDATASIZE DUP4 GT PUSH2 0x8BA JUMPI JUMPDEST PUSH2 0x869 DUP2 DUP4 PUSH2 0xDFB JUMP JUMPDEST DUP2 ADD SUB SLT PUSH2 0x84D JUMPI DUP6 MLOAD SWAP1 DUP7 DUP3 ADD DUP3 DUP2 LT DUP11 DUP3 GT OR PUSH2 0x8A8 JUMPI PUSH2 0x89C SWAP2 PUSH1 0x20 SWAP2 DUP10 MSTORE PUSH2 0x894 DUP2 PUSH2 0xFEE JUMP JUMPDEST DUP5 MSTORE ADD PUSH2 0xFEE JUMP JUMPDEST PUSH1 0x20 DUP3 ADD MSTORE SWAP3 CODESIZE PUSH2 0x755 JUMP JUMPDEST PUSH4 0x4E487B71 PUSH1 0xE0 SHL DUP12 MSTORE PUSH1 0x41 DUP5 MSTORE DUP5 DUP12 REVERT JUMPDEST POP RETURNDATASIZE PUSH2 0x85F JUMP JUMPDEST DUP7 MLOAD RETURNDATASIZE DUP12 DUP3 RETURNDATACOPY RETURNDATASIZE SWAP1 REVERT JUMPDEST SWAP1 DUP12 SWAP4 SWAP5 SWAP10 POP DUP9 MLOAD SWAP4 DUP5 SWAP3 PUSH4 0x2651BAE7 PUSH1 0xE0 SHL DUP5 MSTORE DUP7 DUP9 DUP6 ADD SWAP6 PUSH1 0x20 SWAP9 DUP10 SWAP8 DUP9 DUP14 DUP10 ADD MSTORE MSTORE DUP10 PUSH1 0x44 DUP8 ADD SWAP4 ADD SWAP2 DUP5 JUMPDEST DUP2 DUP2 LT PUSH2 0x961 JUMPI POP POP POP POP SWAP1 DUP4 DUP1 SWAP3 SUB SWAP3 GAS CALL SWAP2 DUP3 ISZERO PUSH2 0x8C1 JUMPI DUP10 SWAP3 PUSH2 0x927 JUMPI JUMPDEST POP POP SWAP5 CODESIZE DUP1 DUP1 DUP1 PUSH2 0x6F6 JUMP JUMPDEST SWAP1 DUP1 SWAP3 POP DUP2 RETURNDATASIZE DUP4 GT PUSH2 0x95A JUMPI JUMPDEST PUSH2 0x93E DUP2 DUP4 PUSH2 0xDFB JUMP JUMPDEST DUP2 ADD SUB SLT PUSH2 0x956 JUMPI PUSH2 0x94F SWAP1 PUSH2 0xFEE JUMP JUMPDEST CODESIZE DUP1 PUSH2 0x91B JUMP JUMPDEST DUP8 DUP1 REVERT JUMPDEST POP RETURNDATASIZE PUSH2 0x934 JUMP JUMPDEST SWAP4 SWAP3 SWAP7 POP SWAP4 POP SWAP4 SWAP6 POP DUP14 DUP6 CALLDATALOAD SWAP1 DUP2 AND DUP1 SWAP2 SUB PUSH2 0x991 JUMPI DUP9 DUP3 DUP2 SWAP3 DUP8 SWAP5 MSTORE ADD SWAP6 ADD SWAP2 ADD SWAP1 DUP8 SWAP6 SWAP4 DUP16 SWAP4 DUP9 SWAP7 SWAP4 PUSH2 0x8FA JUMP JUMPDEST DUP16 DUP1 REVERT JUMPDEST POP DUP4 ISZERO ISZERO PUSH2 0x6F1 JUMP JUMPDEST DUP7 MLOAD PUSH3 0x461BCD PUSH1 0xE5 SHL DUP2 MSTORE PUSH1 0x20 DUP2 DUP8 ADD MSTORE PUSH1 0x2B DUP2 DUP7 ADD MSTORE PUSH32 0x5465737365726163745661756C743A20696E73756666696369656E7420776569 PUSH1 0x44 DUP3 ADD MSTORE PUSH11 0x67687420666F722058434D PUSH1 0xA8 SHL PUSH1 0x64 DUP3 ADD MSTORE PUSH1 0x84 SWAP1 REVERT JUMPDEST POP POP DUP8 DUP2 DUP2 RETURNDATASIZE DUP4 GT PUSH2 0xA3A JUMPI JUMPDEST PUSH2 0xA0B DUP2 DUP4 PUSH2 0xDFB JUMP JUMPDEST DUP2 ADD SUB SLT PUSH2 0xA36 JUMPI DUP10 DUP2 PUSH2 0xA30 PUSH1 0x20 PUSH2 0xA29 PUSH5 0x12A05F200 SWAP6 PUSH2 0xFEE JUMP JUMPDEST SWAP3 ADD PUSH2 0xFEE JUMP JUMPDEST POP PUSH2 0x6D2 JUMP JUMPDEST DUP11 DUP1 REVERT JUMPDEST POP RETURNDATASIZE PUSH2 0xA01 JUMP JUMPDEST DUP9 MLOAD RETURNDATASIZE DUP14 DUP3 RETURNDATACOPY RETURNDATASIZE SWAP1 REVERT JUMPDEST DUP7 DUP1 REVERT JUMPDEST DUP6 DUP1 REVERT JUMPDEST DUP5 DUP1 REVERT JUMPDEST DUP4 DUP1 REVERT JUMPDEST POP CALLVALUE PUSH2 0x13C JUMPI DUP2 PUSH1 0x3 NOT CALLDATASIZE ADD SLT PUSH2 0x13C JUMPI PUSH1 0x20 SWAP1 PUSH1 0x5 SLOAD SWAP1 MLOAD SWAP1 DUP2 MSTORE RETURN JUMPDEST POP CALLVALUE PUSH2 0x13C JUMPI DUP2 PUSH1 0x3 NOT CALLDATASIZE ADD SLT PUSH2 0x13C JUMPI MLOAD PUSH32 0x0 PUSH1 0x1 PUSH1 0x1 PUSH1 0xA0 SHL SUB AND DUP2 MSTORE PUSH1 0x20 SWAP1 RETURN JUMPDEST PUSH2 0xE7C JUMP JUMPDEST SWAP1 CALLVALUE PUSH2 0x247 JUMPI DUP3 PUSH1 0x3 NOT CALLDATASIZE ADD SLT PUSH2 0x247 JUMPI DUP1 MLOAD SWAP2 DUP4 PUSH1 0x2 SLOAD SWAP1 PUSH1 0x1 SWAP1 DUP3 PUSH1 0x1 SHR SWAP3 PUSH1 0x1 DUP2 AND DUP1 ISZERO PUSH2 0xBAC JUMPI JUMPDEST PUSH1 0x20 SWAP6 DUP7 DUP7 LT DUP3 EQ PUSH2 0xB99 JUMPI POP DUP5 DUP9 MSTORE SWAP1 DUP2 ISZERO PUSH2 0xB77 JUMPI POP PUSH1 0x1 EQ PUSH2 0xB1E JUMPI JUMPDEST PUSH2 0x2DB DUP7 DUP7 PUSH2 0x2D1 DUP3 DUP12 SUB DUP4 PUSH2 0xDFB JUMP JUMPDEST SWAP3 SWAP6 POP PUSH1 0x2 DUP4 MSTORE PUSH32 0x405787FA12A823E0F2B7631CC41B3BA8828B3321CA811111FA75CD3AA3BB5ACE JUMPDEST DUP3 DUP5 LT PUSH2 0xB64 JUMPI POP POP POP DUP3 PUSH2 0x2DB SWAP5 PUSH2 0x2D1 SWAP3 DUP3 ADD ADD SWAP5 DUP7 PUSH2 0xB0D JUMP JUMPDEST DUP1 SLOAD DUP7 DUP6 ADD DUP9 ADD MSTORE SWAP3 DUP7 ADD SWAP3 DUP2 ADD PUSH2 0xB47 JUMP JUMPDEST PUSH1 0xFF NOT AND DUP8 DUP7 ADD MSTORE POP POP POP ISZERO ISZERO PUSH1 0x5 SHL DUP4 ADD ADD SWAP3 POP PUSH2 0x2D1 DUP3 PUSH2 0x2DB DUP7 PUSH2 0xB0D JUMP JUMPDEST PUSH4 0x4E487B71 PUSH1 0xE0 SHL DUP5 MSTORE PUSH1 0x22 SWAP1 MSTORE PUSH1 0x24 DUP4 REVERT JUMPDEST SWAP4 PUSH1 0x7F AND SWAP4 PUSH2 0xAED JUMP JUMPDEST CALLVALUE PUSH2 0x247 JUMPI DUP3 PUSH1 0x3 NOT CALLDATASIZE ADD SLT PUSH2 0x247 JUMPI PUSH1 0x20 SWAP3 POP SLOAD SWAP1 MLOAD SWAP1 DUP2 MSTORE RETURN JUMPDEST SWAP1 CALLVALUE PUSH2 0x247 JUMPI DUP1 PUSH1 0x3 NOT CALLDATASIZE ADD SLT PUSH2 0x247 JUMPI DUP2 CALLDATALOAD SWAP2 PUSH2 0xBEE PUSH2 0xDCA JUMP JUMPDEST SWAP3 PUSH2 0xBF7 PUSH2 0x1054 JUMP JUMPDEST PUSH2 0xC02 DUP2 ISZERO ISZERO PUSH2 0xEC0 JUMP JUMPDEST CALLER DUP6 MSTORE PUSH1 0x20 SWAP5 PUSH1 0x6 DUP7 MSTORE DUP2 DUP5 DUP3 KECCAK256 SLOAD LT PUSH2 0xD7B JUMPI PUSH2 0xC2D PUSH2 0xC24 DUP5 SLOAD DUP5 PUSH2 0xF0C JUMP JUMPDEST PUSH1 0x5 SLOAD SWAP1 PUSH2 0xF35 JUMP JUMPDEST SWAP5 DUP6 ISZERO PUSH2 0xD38 JUMPI SWAP1 DUP7 PUSH1 0x44 SWAP3 CALLER DUP4 MSTORE PUSH1 0x6 DUP3 MSTORE DUP7 DUP4 KECCAK256 PUSH2 0xC4E DUP7 DUP3 SLOAD PUSH2 0xF55 JUMP JUMPDEST SWAP1 SSTORE PUSH2 0xC5C DUP6 PUSH1 0x5 SLOAD PUSH2 0xF55 JUMP JUMPDEST PUSH1 0x5 SSTORE PUSH2 0xC6A DUP9 DUP8 SLOAD PUSH2 0xF55 JUMP JUMPDEST DUP7 SSTORE DUP7 MLOAD PUSH4 0xA9059CBB PUSH1 0xE0 SHL DUP2 MSTORE PUSH1 0x1 PUSH1 0x1 PUSH1 0xA0 SHL SUB SWAP2 DUP3 AND SWAP7 DUP2 ADD DUP8 SWAP1 MSTORE PUSH1 0x24 DUP2 ADD DUP10 SWAP1 MSTORE SWAP4 DUP5 SWAP2 DUP3 SWAP1 DUP6 SWAP1 PUSH32 0x0 AND GAS CALL SWAP1 DUP2 ISZERO PUSH2 0xD2D JUMPI POP PUSH2 0xD10 JUMPI JUMPDEST POP DUP3 MLOAD SWAP1 DUP5 DUP3 MSTORE DUP6 DUP3 ADD MSTORE PUSH32 0xF341246ADAAC6F497BC2A656F546AB9E182111D630394F0C57C710A59A2CB567 DUP4 CALLER SWAP3 LOG3 PUSH1 0x1 PUSH1 0x0 DUP1 MLOAD PUSH1 0x20 PUSH2 0x1085 DUP4 CODECOPY DUP2 MLOAD SWAP2 MSTORE SSTORE MLOAD SWAP1 DUP2 MSTORE RETURN JUMPDEST PUSH2 0xD26 SWAP1 DUP7 RETURNDATASIZE DUP9 GT PUSH2 0x524 JUMPI PUSH2 0x515 DUP2 DUP4 PUSH2 0xDFB JUMP JUMPDEST POP DUP6 PUSH2 0xCC8 JUMP JUMPDEST DUP6 MLOAD SWAP1 RETURNDATASIZE SWAP1 DUP3 RETURNDATACOPY RETURNDATASIZE SWAP1 REVERT JUMPDEST DUP5 MLOAD PUSH3 0x461BCD PUSH1 0xE5 SHL DUP2 MSTORE DUP1 DUP6 ADD DUP9 SWAP1 MSTORE PUSH1 0x1B PUSH1 0x24 DUP3 ADD MSTORE PUSH32 0x5465737365726163745661756C743A207A65726F206173736574730000000000 PUSH1 0x44 DUP3 ADD MSTORE PUSH1 0x64 SWAP1 REVERT JUMPDEST DUP4 MLOAD PUSH3 0x461BCD PUSH1 0xE5 SHL DUP2 MSTORE DUP1 DUP5 ADD DUP8 SWAP1 MSTORE PUSH1 0x23 PUSH1 0x24 DUP3 ADD MSTORE PUSH32 0x5465737365726163745661756C743A20696E73756666696369656E7420736861 PUSH1 0x44 DUP3 ADD MSTORE PUSH3 0x726573 PUSH1 0xE8 SHL PUSH1 0x64 DUP3 ADD MSTORE PUSH1 0x84 SWAP1 REVERT JUMPDEST PUSH1 0x24 CALLDATALOAD SWAP1 PUSH1 0x1 PUSH1 0x1 PUSH1 0xA0 SHL SUB DUP3 AND DUP3 SUB PUSH2 0xDE0 JUMPI JUMP JUMPDEST PUSH1 0x0 DUP1 REVERT JUMPDEST PUSH1 0x4 CALLDATALOAD SWAP1 PUSH1 0x1 PUSH1 0x1 PUSH1 0xA0 SHL SUB DUP3 AND DUP3 SUB PUSH2 0xDE0 JUMPI JUMP JUMPDEST SWAP1 PUSH1 0x1F DUP1 NOT SWAP2 ADD AND DUP2 ADD SWAP1 DUP2 LT PUSH8 0xFFFFFFFFFFFFFFFF DUP3 GT OR PUSH2 0xE1D JUMPI PUSH1 0x40 MSTORE JUMP JUMPDEST PUSH4 0x4E487B71 PUSH1 0xE0 SHL PUSH1 0x0 MSTORE PUSH1 0x41 PUSH1 0x4 MSTORE PUSH1 0x24 PUSH1 0x0 REVERT JUMPDEST PUSH1 0x20 DUP1 DUP3 MSTORE DUP3 MLOAD DUP2 DUP4 ADD DUP2 SWAP1 MSTORE SWAP1 SWAP4 SWAP3 PUSH1 0x0 JUMPDEST DUP3 DUP2 LT PUSH2 0xE68 JUMPI POP POP PUSH1 0x40 SWAP3 SWAP4 POP PUSH1 0x0 DUP4 DUP3 DUP5 ADD ADD MSTORE PUSH1 0x1F DUP1 NOT SWAP2 ADD AND ADD ADD SWAP1 JUMP JUMPDEST DUP2 DUP2 ADD DUP7 ADD MLOAD DUP5 DUP3 ADD PUSH1 0x40 ADD MSTORE DUP6 ADD PUSH2 0xE46 JUMP JUMPDEST CALLVALUE PUSH2 0xDE0 JUMPI PUSH1 0x20 CALLDATASIZE PUSH1 0x3 NOT ADD SLT PUSH2 0xDE0 JUMPI PUSH1 0x20 PUSH2 0xE9A PUSH1 0x4 CALLDATALOAD PUSH2 0xF7A JUMP JUMPDEST PUSH1 0x40 MLOAD SWAP1 DUP2 MSTORE RETURN JUMPDEST CALLVALUE PUSH2 0xDE0 JUMPI PUSH1 0x20 CALLDATASIZE PUSH1 0x3 NOT ADD SLT PUSH2 0xDE0 JUMPI PUSH1 0x20 PUSH2 0xE9A PUSH1 0x4 CALLDATALOAD PUSH2 0x1031 JUMP JUMPDEST ISZERO PUSH2 0xEC7 JUMPI JUMP JUMPDEST PUSH1 0x40 MLOAD PUSH3 0x461BCD PUSH1 0xE5 SHL DUP2 MSTORE PUSH1 0x20 PUSH1 0x4 DUP3 ADD MSTORE PUSH1 0x1B PUSH1 0x24 DUP3 ADD MSTORE PUSH32 0x5465737365726163745661756C743A207A65726F207368617265730000000000 PUSH1 0x44 DUP3 ADD MSTORE PUSH1 0x64 SWAP1 REVERT JUMPDEST DUP2 DUP2 MUL SWAP3 SWAP2 DUP2 ISZERO SWAP2 DUP5 DIV EQ OR ISZERO PUSH2 0xF1F JUMPI JUMP JUMPDEST PUSH4 0x4E487B71 PUSH1 0xE0 SHL PUSH1 0x0 MSTORE PUSH1 0x11 PUSH1 0x4 MSTORE PUSH1 0x24 PUSH1 0x0 REVERT JUMPDEST DUP2 ISZERO PUSH2 0xF3F JUMPI DIV SWAP1 JUMP JUMPDEST PUSH4 0x4E487B71 PUSH1 0xE0 SHL PUSH1 0x0 MSTORE PUSH1 0x12 PUSH1 0x4 MSTORE PUSH1 0x24 PUSH1 0x0 REVERT JUMPDEST SWAP2 SWAP1 DUP3 SUB SWAP2 DUP3 GT PUSH2 0xF1F JUMPI JUMP JUMPDEST SWAP1 DUP2 PUSH1 0x20 SWAP2 SUB SLT PUSH2 0xDE0 JUMPI MLOAD DUP1 ISZERO ISZERO DUP2 SUB PUSH2 0xDE0 JUMPI SWAP1 JUMP JUMPDEST PUSH1 0x5 SLOAD DUP1 ISZERO PUSH2 0xF9B JUMPI PUSH2 0xF93 PUSH2 0xF98 SWAP3 PUSH1 0x4 SLOAD SWAP1 PUSH2 0xF0C JUMP JUMPDEST PUSH2 0xF35 JUMP JUMPDEST SWAP1 JUMP JUMPDEST POP POP PUSH1 0x0 SWAP1 JUMP JUMPDEST ISZERO PUSH2 0xFA9 JUMPI JUMP JUMPDEST PUSH1 0x40 MLOAD PUSH3 0x461BCD PUSH1 0xE5 SHL DUP2 MSTORE PUSH1 0x20 PUSH1 0x4 DUP3 ADD MSTORE PUSH1 0x19 PUSH1 0x24 DUP3 ADD MSTORE PUSH32 0x5465737365726163745661756C743A206E6F74206F776E657200000000000000 PUSH1 0x44 DUP3 ADD MSTORE PUSH1 0x64 SWAP1 REVERT JUMPDEST MLOAD SWAP1 PUSH8 0xFFFFFFFFFFFFFFFF DUP3 AND DUP3 SUB PUSH2 0xDE0 JUMPI JUMP JUMPDEST SWAP1 DUP1 PUSH1 0x20 SWAP4 SWAP3 DUP2 DUP5 MSTORE DUP5 DUP5 ADD CALLDATACOPY PUSH1 0x0 DUP3 DUP3 ADD DUP5 ADD MSTORE PUSH1 0x1F ADD PUSH1 0x1F NOT AND ADD ADD SWAP1 JUMP JUMPDEST SWAP2 SWAP1 DUP3 ADD DUP1 SWAP3 GT PUSH2 0xF1F JUMPI JUMP JUMPDEST PUSH1 0x5 SLOAD DUP1 ISZERO PUSH2 0x1050 JUMPI PUSH2 0x1047 SWAP1 PUSH2 0xF98 SWAP3 PUSH2 0xF0C JUMP JUMPDEST PUSH1 0x4 SLOAD SWAP1 PUSH2 0xF35 JUMP JUMPDEST POP SWAP1 JUMP JUMPDEST PUSH1 0x0 DUP1 MLOAD PUSH1 0x20 PUSH2 0x1085 DUP4 CODECOPY DUP2 MLOAD SWAP2 MSTORE PUSH1 0x2 DUP2 SLOAD EQ PUSH2 0x1072 JUMPI PUSH1 0x2 SWAP1 SSTORE JUMP JUMPDEST PUSH1 0x40 MLOAD PUSH4 0x3EE5AEB5 PUSH1 0xE0 SHL DUP2 MSTORE PUSH1 0x4 SWAP1 REVERT INVALID SWAP12 PUSH24 0x9B17422D0DF92223018B32B4D1FA46E071723D6817E2486D STOP EXTCODESIZE 0xEC 0xC5 PUSH0 STOP LOG2 PUSH5 0x6970667358 0x22 SLT KECCAK256 0xCF DUP11 SWAP6 0xD5 0xBD CALLER PUSH7 0xE8130E5FD776AD 0xC7 PUSH1 0xEE PUSH26 0xCF06DFE0F5BBD854AEC91041F8DE64736F6C6343000818003300 "},"methodIdentifiers":{"asset()":"38d52e0f","balanceOf(address)":"70a08231","computeContract()":"b9d0ba9a","convertToAssets(uint256)":"07a2d13a","convertToShares(uint256)":"c6e6f592","decimals()":"313ce567","deposit(uint256,address)":"6e553f65","name()":"06fdde03","owner()":"8da5cb5b","previewDeposit(uint256)":"ef8b30f7","previewWithdraw(uint256)":"0a28a477","rebalance(uint64[],bytes)":"25637bca","setComputeContract(address)":"cb01bc69","symbol()":"95d89b41","systemPrecompile()":"ceff3e48","totalAssets()":"01e1d114","totalSupply()":"18160ddd","withdraw(uint256,address)":"00f714ce","xcmPrecompile()":"1021764e"}}}}}