{"evm/mocks/ReentrancyAttacker.sol":{"ReentrancyAttacker":{"abi":[{"inputs":[{"internalType":"address","name":"","type":"address"},{"internalType":"address","name":"","type":"address"}],"name":"allowance","outputs":[{"internalType":"uint256","name":"","type":"uint256"}],"stateMutability":"view","type":"function"},{"inputs":[{"internalType":"address","name":"spender","type":"address"},{"internalType":"uint256","name":"amount","type":"uint256"}],"name":"approve","outputs":[{"internalType":"bool","name":"","type":"bool"}],"stateMutability":"nonpayable","type":"function"},{"inputs":[{"internalType":"address","name":"token","type":"address"},{"internalType":"address","name":"spender","type":"address"},{"internalType":"uint256","name":"amount","type":"uint256"}],"name":"approveExternal","outputs":[],"stateMutability":"nonpayable","type":"function"},{"inputs":[],"name":"attackAssetIdIn","outputs":[{"internalType":"uint32","name":"","type":"uint32"}],"stateMutability":"view","type":"function"},{"inputs":[],"name":"attackAssetIdOut","outputs":[{"internalType":"uint32","name":"","type":"uint32"}],"stateMutability":"view","type":"function"},{"inputs":[],"name":"attacking","outputs":[{"internalType":"bool","name":"","type":"bool"}],"stateMutability":"view","type":"function"},{"inputs":[{"internalType":"address","name":"","type":"address"}],"name":"balanceOf","outputs":[{"internalType":"uint256","name":"","type":"uint256"}],"stateMutability":"view","type":"function"},{"inputs":[],"name":"decimals","outputs":[{"internalType":"uint8","name":"","type":"uint8"}],"stateMutability":"view","type":"function"},{"inputs":[{"internalType":"address","name":"to","type":"address"},{"internalType":"uint256","name":"amount","type":"uint256"}],"name":"mint","outputs":[],"stateMutability":"nonpayable","type":"function"},{"inputs":[],"name":"name","outputs":[{"internalType":"string","name":"","type":"string"}],"stateMutability":"view","type":"function"},{"inputs":[{"internalType":"address","name":"_swap","type":"address"},{"internalType":"uint32","name":"_idIn","type":"uint32"},{"internalType":"uint32","name":"_idOut","type":"uint32"}],"name":"setAttackParams","outputs":[],"stateMutability":"nonpayable","type":"function"},{"inputs":[{"internalType":"uint256","name":"amount","type":"uint256"}],"name":"startAttack","outputs":[],"stateMutability":"nonpayable","type":"function"},{"inputs":[],"name":"swapContract","outputs":[{"internalType":"address","name":"","type":"address"}],"stateMutability":"view","type":"function"},{"inputs":[],"name":"symbol","outputs":[{"internalType":"string","name":"","type":"string"}],"stateMutability":"view","type":"function"},{"inputs":[],"name":"totalSupply","outputs":[{"internalType":"uint256","name":"","type":"uint256"}],"stateMutability":"view","type":"function"},{"inputs":[{"internalType":"address","name":"to","type":"address"},{"internalType":"uint256","name":"amount","type":"uint256"}],"name":"transfer","outputs":[{"internalType":"bool","name":"","type":"bool"}],"stateMutability":"nonpayable","type":"function"},{"inputs":[{"internalType":"address","name":"from","type":"address"},{"internalType":"address","name":"to","type":"address"},{"internalType":"uint256","name":"amount","type":"uint256"}],"name":"transferFrom","outputs":[{"internalType":"bool","name":"","type":"bool"}],"stateMutability":"nonpayable","type":"function"}],"evm":{"bytecode":{"linkReferences":{},"object":"6080604052346100bc57600061001581546100c1565b601f8111610092575b5060186b20ba3a30b1b5902a37b5b2b760a11b0181556001906100426001546100c1565b90601f8211610068575b60066241544b60e81b0160015560405161090e90816100fc8239f35b60018152601f60208220920160051c8201915b828110610088575061004c565b818155830161007b565b818052601f60208320910160051c8101905b8181106100b1575061001e565b8281556001016100a4565b600080fd5b90600182811c921680156100f1575b60208310146100db57565b634e487b7160e01b600052602260045260246000fd5b91607f16916100d056fe608060408181526004918236101561001657600080fd5b600092833560e01c91826306fdde031461071e57508163095ea7b3146106d957816318160ddd146106ba57816323b872dd1461064b578163313ce5671461062f5781633c0bbcd91461060857816340c10f19146105b657816370a082311461057e5781638ea830311461055557816390dc6451146104df57816395d89b41146103dc578163a9059cbb146102c2578163c792413f1461021c578163ce7fff69146101f4578163ceda64c414610161578163dd62ed3e1461010a575063fb59744f146100e057600080fd5b3461010657816003193601126101065760209063ffffffff60055460c01c169051908152f35b5080fd5b90503461015d578160031936011261015d57610124610858565b6001600160a01b0360243581811693929084900361015957168452602090815282842091845290815291819020549051908152f35b8580fd5b8280fd5b9190503461015d57602083604461017736610873565b865163095ea7b360e01b81526001600160a01b03928316988101989098526024880152869384929091165af19081156101eb57506101b3575080f35b6020813d6020116101e3575b816101cc602093836107d7565b810103126101065751801515036101e05780f35b80fd5b3d91506101bf565b513d84823e3d90fd5b50503461010657816003193601126101065760209063ffffffff60055460a01c169051908152f35b9190503461015d57602036600319011261015d5760206005546084600160e01b60ff60e01b19831617806005558663ffffffff9386519788958694630949e0e360e31b8652818160a01c168387015260c01c16602485015235604484015281606484015260018060a01b03165af19081156101eb575061029a575080f35b602090813d83116102bb575b6102b081836107d7565b810103126101e05780f35b503d6102a6565b8284346101e057816003193601126101e0576102dc610858565b926024353383526020948591600383528585206102fa8282546108a8565b90556001600160a01b039182168552600383528585208054909161031d916108cb565b90556005549260ff8460e01c16806103d1575b61033e575b82865160018152f35b60849060ff60e01b1985166005558563ffffffff9388519687958694630949e0e360e31b8652818360a01c16908601528160c01c16602485015260016044850152826064850152165af180156103c75790849161039e575b808291610335565b813d83116103c0575b6103b181836107d7565b810103126101e0578281610396565b503d6103a7565b83513d84823e3d90fd5b508184163314610330565b9190503461015d578260031936011261015d578051918360018054918260011c926001811680156104d5575b60209586861082146104c257508488529081156104a05750600114610447575b6104438686610439828b03836107d7565b519182918261080f565b0390f35b929550600183527fb10e2d527612073b26eecdfd717e6a320cf44b4afac2b0732d9fcbe2b7fa0cf65b82841061048d575050508261044394610439928201019438610428565b8054868501880152928601928101610470565b60ff191687860152505050151560051b83010192506104398261044338610428565b634e487b7160e01b845260229052602483fd5b93607f1693610408565b83346101e05760603660031901126101e0576104f9610858565b60243563ffffffff8082168203610551576044359081168103610551576005549063ffffffff60c01b9060c01b169260018060a01b03169063ffffffff60e01b16179063ffffffff60a01b9060a01b16171760055580f35b8380fd5b50503461010657816003193601126101065760055490516001600160a01b039091168152602090f35b5050346101065760203660031901126101065760209181906001600160a01b036105a6610858565b1681526003845220549051908152f35b5050346101065780600319360112610106576106036105d3610858565b91602435926105e4846002546108cb565b6002556001600160a01b031684526003602052832080549092906108cb565b905580f35b50503461010657816003193601126101065760209060ff60055460e01c1690519015158152f35b50503461010657816003193601126101065760209051600a8152f35b90503461015d576106b18260209461066236610873565b9560018060a01b0380931690818552895284842033855289528484206106898882546108a8565b905583526003885283832061069f8782546108a8565b905516815260038652209182546108cb565b90555160018152f35b5050346101065781600319360112610106576020906002549051908152f35b90503461015d578160031936011261015d57916020926106f7610858565b3383529084528282206001600160a01b039091168252835281902060243590555160018152f35b929150346105515783600319360112610551578354600181811c91869082811680156107cd575b60209586861082146104c257508488529081156104a05750600114610775576104438686610439828b03836107d7565b8080949750527f290decd9548b62a8d60345a988386fc84ba6bc95484008f6362f93160ef3e5635b8284106107ba575050508261044394610439928201019438610428565b805486850188015292860192810161079d565b93607f1693610745565b90601f8019910116810190811067ffffffffffffffff8211176107f957604052565b634e487b7160e01b600052604160045260246000fd5b6020808252825181830181905290939260005b82811061084457505060409293506000838284010152601f8019910116010190565b818101860151848201604001528501610822565b600435906001600160a01b038216820361086e57565b600080fd5b606090600319011261086e576001600160a01b0390600435828116810361086e5791602435908116810361086e579060443590565b919082039182116108b557565b634e487b7160e01b600052601160045260246000fd5b919082018092116108b55756fea2646970667358221220f37db8942fa3c9f4017596c47886b889bc6f69f1bb85661eb4a0edcde359bbb564736f6c63430008180033","opcodes":"PUSH1 0x80 PUSH1 0x40 MSTORE CALLVALUE PUSH2 0xBC JUMPI PUSH1 0x0 PUSH2 0x15 DUP2 SLOAD PUSH2 0xC1 JUMP JUMPDEST PUSH1 0x1F DUP2 GT PUSH2 0x92 JUMPI JUMPDEST POP PUSH1 0x18 PUSH12 0x20BA3A30B1B5902A37B5B2B7 PUSH1 0xA1 SHL ADD DUP2 SSTORE PUSH1 0x1 SWAP1 PUSH2 0x42 PUSH1 0x1 SLOAD PUSH2 0xC1 JUMP JUMPDEST SWAP1 PUSH1 0x1F DUP3 GT PUSH2 0x68 JUMPI JUMPDEST PUSH1 0x6 PUSH3 0x41544B PUSH1 0xE8 SHL ADD PUSH1 0x1 SSTORE PUSH1 0x40 MLOAD PUSH2 0x90E SWAP1 DUP2 PUSH2 0xFC DUP3 CODECOPY RETURN JUMPDEST PUSH1 0x1 DUP2 MSTORE PUSH1 0x1F PUSH1 0x20 DUP3 KECCAK256 SWAP3 ADD PUSH1 0x5 SHR DUP3 ADD SWAP2 JUMPDEST DUP3 DUP2 LT PUSH2 0x88 JUMPI POP PUSH2 0x4C JUMP JUMPDEST DUP2 DUP2 SSTORE DUP4 ADD PUSH2 0x7B JUMP JUMPDEST DUP2 DUP1 MSTORE PUSH1 0x1F PUSH1 0x20 DUP4 KECCAK256 SWAP2 ADD PUSH1 0x5 SHR DUP2 ADD SWAP1 JUMPDEST DUP2 DUP2 LT PUSH2 0xB1 JUMPI POP PUSH2 0x1E JUMP JUMPDEST DUP3 DUP2 SSTORE PUSH1 0x1 ADD PUSH2 0xA4 JUMP JUMPDEST PUSH1 0x0 DUP1 REVERT JUMPDEST SWAP1 PUSH1 0x1 DUP3 DUP2 SHR SWAP3 AND DUP1 ISZERO PUSH2 0xF1 JUMPI JUMPDEST PUSH1 0x20 DUP4 LT EQ PUSH2 0xDB JUMPI JUMP JUMPDEST PUSH4 0x4E487B71 PUSH1 0xE0 SHL PUSH1 0x0 MSTORE PUSH1 0x22 PUSH1 0x4 MSTORE PUSH1 0x24 PUSH1 0x0 REVERT JUMPDEST SWAP2 PUSH1 0x7F AND SWAP2 PUSH2 0xD0 JUMP INVALID PUSH1 0x80 PUSH1 0x40 DUP2 DUP2 MSTORE PUSH1 0x4 SWAP2 DUP3 CALLDATASIZE LT ISZERO PUSH2 0x16 JUMPI PUSH1 0x0 DUP1 REVERT JUMPDEST PUSH1 0x0 SWAP3 DUP4 CALLDATALOAD PUSH1 0xE0 SHR SWAP2 DUP3 PUSH4 0x6FDDE03 EQ PUSH2 0x71E JUMPI POP DUP2 PUSH4 0x95EA7B3 EQ PUSH2 0x6D9 JUMPI DUP2 PUSH4 0x18160DDD EQ PUSH2 0x6BA JUMPI DUP2 PUSH4 0x23B872DD EQ PUSH2 0x64B JUMPI DUP2 PUSH4 0x313CE567 EQ PUSH2 0x62F JUMPI DUP2 PUSH4 0x3C0BBCD9 EQ PUSH2 0x608 JUMPI DUP2 PUSH4 0x40C10F19 EQ PUSH2 0x5B6 JUMPI DUP2 PUSH4 0x70A08231 EQ PUSH2 0x57E JUMPI DUP2 PUSH4 0x8EA83031 EQ PUSH2 0x555 JUMPI DUP2 PUSH4 0x90DC6451 EQ PUSH2 0x4DF JUMPI DUP2 PUSH4 0x95D89B41 EQ PUSH2 0x3DC JUMPI DUP2 PUSH4 0xA9059CBB EQ PUSH2 0x2C2 JUMPI DUP2 PUSH4 0xC792413F EQ PUSH2 0x21C JUMPI DUP2 PUSH4 0xCE7FFF69 EQ PUSH2 0x1F4 JUMPI DUP2 PUSH4 0xCEDA64C4 EQ PUSH2 0x161 JUMPI DUP2 PUSH4 0xDD62ED3E EQ PUSH2 0x10A JUMPI POP PUSH4 0xFB59744F EQ PUSH2 0xE0 JUMPI PUSH1 0x0 DUP1 REVERT JUMPDEST CALLVALUE PUSH2 0x106 JUMPI DUP2 PUSH1 0x3 NOT CALLDATASIZE ADD SLT PUSH2 0x106 JUMPI PUSH1 0x20 SWAP1 PUSH4 0xFFFFFFFF PUSH1 0x5 SLOAD PUSH1 0xC0 SHR AND SWAP1 MLOAD SWAP1 DUP2 MSTORE RETURN JUMPDEST POP DUP1 REVERT JUMPDEST SWAP1 POP CALLVALUE PUSH2 0x15D JUMPI DUP2 PUSH1 0x3 NOT CALLDATASIZE ADD SLT PUSH2 0x15D JUMPI PUSH2 0x124 PUSH2 0x858 JUMP JUMPDEST PUSH1 0x1 PUSH1 0x1 PUSH1 0xA0 SHL SUB PUSH1 0x24 CALLDATALOAD DUP2 DUP2 AND SWAP4 SWAP3 SWAP1 DUP5 SWAP1 SUB PUSH2 0x159 JUMPI AND DUP5 MSTORE PUSH1 0x20 SWAP1 DUP2 MSTORE DUP3 DUP5 KECCAK256 SWAP2 DUP5 MSTORE SWAP1 DUP2 MSTORE SWAP2 DUP2 SWAP1 KECCAK256 SLOAD SWAP1 MLOAD SWAP1 DUP2 MSTORE RETURN JUMPDEST DUP6 DUP1 REVERT JUMPDEST DUP3 DUP1 REVERT JUMPDEST SWAP2 SWAP1 POP CALLVALUE PUSH2 0x15D JUMPI PUSH1 0x20 DUP4 PUSH1 0x44 PUSH2 0x177 CALLDATASIZE PUSH2 0x873 JUMP JUMPDEST DUP7 MLOAD PUSH4 0x95EA7B3 PUSH1 0xE0 SHL DUP2 MSTORE PUSH1 0x1 PUSH1 0x1 PUSH1 0xA0 SHL SUB SWAP3 DUP4 AND SWAP9 DUP2 ADD SWAP9 SWAP1 SWAP9 MSTORE PUSH1 0x24 DUP9 ADD MSTORE DUP7 SWAP4 DUP5 SWAP3 SWAP1 SWAP2 AND GAS CALL SWAP1 DUP2 ISZERO PUSH2 0x1EB JUMPI POP PUSH2 0x1B3 JUMPI POP DUP1 RETURN JUMPDEST PUSH1 0x20 DUP2 RETURNDATASIZE PUSH1 0x20 GT PUSH2 0x1E3 JUMPI JUMPDEST DUP2 PUSH2 0x1CC PUSH1 0x20 SWAP4 DUP4 PUSH2 0x7D7 JUMP JUMPDEST DUP2 ADD SUB SLT PUSH2 0x106 JUMPI MLOAD DUP1 ISZERO ISZERO SUB PUSH2 0x1E0 JUMPI DUP1 RETURN JUMPDEST DUP1 REVERT JUMPDEST RETURNDATASIZE SWAP2 POP PUSH2 0x1BF JUMP JUMPDEST MLOAD RETURNDATASIZE DUP5 DUP3 RETURNDATACOPY RETURNDATASIZE SWAP1 REVERT JUMPDEST POP POP CALLVALUE PUSH2 0x106 JUMPI DUP2 PUSH1 0x3 NOT CALLDATASIZE ADD SLT PUSH2 0x106 JUMPI PUSH1 0x20 SWAP1 PUSH4 0xFFFFFFFF PUSH1 0x5 SLOAD PUSH1 0xA0 SHR AND SWAP1 MLOAD SWAP1 DUP2 MSTORE RETURN JUMPDEST SWAP2 SWAP1 POP CALLVALUE PUSH2 0x15D JUMPI PUSH1 0x20 CALLDATASIZE PUSH1 0x3 NOT ADD SLT PUSH2 0x15D JUMPI PUSH1 0x20 PUSH1 0x5 SLOAD PUSH1 0x84 PUSH1 0x1 PUSH1 0xE0 SHL PUSH1 0xFF PUSH1 0xE0 SHL NOT DUP4 AND OR DUP1 PUSH1 0x5 SSTORE DUP7 PUSH4 0xFFFFFFFF SWAP4 DUP7 MLOAD SWAP8 DUP9 SWAP6 DUP7 SWAP5 PUSH4 0x949E0E3 PUSH1 0xE3 SHL DUP7 MSTORE DUP2 DUP2 PUSH1 0xA0 SHR AND DUP4 DUP8 ADD MSTORE PUSH1 0xC0 SHR AND PUSH1 0x24 DUP6 ADD MSTORE CALLDATALOAD PUSH1 0x44 DUP5 ADD MSTORE DUP2 PUSH1 0x64 DUP5 ADD MSTORE PUSH1 0x1 DUP1 PUSH1 0xA0 SHL SUB AND GAS CALL SWAP1 DUP2 ISZERO PUSH2 0x1EB JUMPI POP PUSH2 0x29A JUMPI POP DUP1 RETURN JUMPDEST PUSH1 0x20 SWAP1 DUP2 RETURNDATASIZE DUP4 GT PUSH2 0x2BB JUMPI JUMPDEST PUSH2 0x2B0 DUP2 DUP4 PUSH2 0x7D7 JUMP JUMPDEST DUP2 ADD SUB SLT PUSH2 0x1E0 JUMPI DUP1 RETURN JUMPDEST POP RETURNDATASIZE PUSH2 0x2A6 JUMP JUMPDEST DUP3 DUP5 CALLVALUE PUSH2 0x1E0 JUMPI DUP2 PUSH1 0x3 NOT CALLDATASIZE ADD SLT PUSH2 0x1E0 JUMPI PUSH2 0x2DC PUSH2 0x858 JUMP JUMPDEST SWAP3 PUSH1 0x24 CALLDATALOAD CALLER DUP4 MSTORE PUSH1 0x20 SWAP5 DUP6 SWAP2 PUSH1 0x3 DUP4 MSTORE DUP6 DUP6 KECCAK256 PUSH2 0x2FA DUP3 DUP3 SLOAD PUSH2 0x8A8 JUMP JUMPDEST SWAP1 SSTORE PUSH1 0x1 PUSH1 0x1 PUSH1 0xA0 SHL SUB SWAP2 DUP3 AND DUP6 MSTORE PUSH1 0x3 DUP4 MSTORE DUP6 DUP6 KECCAK256 DUP1 SLOAD SWAP1 SWAP2 PUSH2 0x31D SWAP2 PUSH2 0x8CB JUMP JUMPDEST SWAP1 SSTORE PUSH1 0x5 SLOAD SWAP3 PUSH1 0xFF DUP5 PUSH1 0xE0 SHR AND DUP1 PUSH2 0x3D1 JUMPI JUMPDEST PUSH2 0x33E JUMPI JUMPDEST DUP3 DUP7 MLOAD PUSH1 0x1 DUP2 MSTORE RETURN JUMPDEST PUSH1 0x84 SWAP1 PUSH1 0xFF PUSH1 0xE0 SHL NOT DUP6 AND PUSH1 0x5 SSTORE DUP6 PUSH4 0xFFFFFFFF SWAP4 DUP9 MLOAD SWAP7 DUP8 SWAP6 DUP7 SWAP5 PUSH4 0x949E0E3 PUSH1 0xE3 SHL DUP7 MSTORE DUP2 DUP4 PUSH1 0xA0 SHR AND SWAP1 DUP7 ADD MSTORE DUP2 PUSH1 0xC0 SHR AND PUSH1 0x24 DUP6 ADD MSTORE PUSH1 0x1 PUSH1 0x44 DUP6 ADD MSTORE DUP3 PUSH1 0x64 DUP6 ADD MSTORE AND GAS CALL DUP1 ISZERO PUSH2 0x3C7 JUMPI SWAP1 DUP5 SWAP2 PUSH2 0x39E JUMPI JUMPDEST DUP1 DUP3 SWAP2 PUSH2 0x335 JUMP JUMPDEST DUP2 RETURNDATASIZE DUP4 GT PUSH2 0x3C0 JUMPI JUMPDEST PUSH2 0x3B1 DUP2 DUP4 PUSH2 0x7D7 JUMP JUMPDEST DUP2 ADD SUB SLT PUSH2 0x1E0 JUMPI DUP3 DUP2 PUSH2 0x396 JUMP JUMPDEST POP RETURNDATASIZE PUSH2 0x3A7 JUMP JUMPDEST DUP4 MLOAD RETURNDATASIZE DUP5 DUP3 RETURNDATACOPY RETURNDATASIZE SWAP1 REVERT JUMPDEST POP DUP2 DUP5 AND CALLER EQ PUSH2 0x330 JUMP JUMPDEST SWAP2 SWAP1 POP CALLVALUE PUSH2 0x15D JUMPI DUP3 PUSH1 0x3 NOT CALLDATASIZE ADD SLT PUSH2 0x15D JUMPI DUP1 MLOAD SWAP2 DUP4 PUSH1 0x1 DUP1 SLOAD SWAP2 DUP3 PUSH1 0x1 SHR SWAP3 PUSH1 0x1 DUP2 AND DUP1 ISZERO PUSH2 0x4D5 JUMPI JUMPDEST PUSH1 0x20 SWAP6 DUP7 DUP7 LT DUP3 EQ PUSH2 0x4C2 JUMPI POP DUP5 DUP9 MSTORE SWAP1 DUP2 ISZERO PUSH2 0x4A0 JUMPI POP PUSH1 0x1 EQ PUSH2 0x447 JUMPI JUMPDEST PUSH2 0x443 DUP7 DUP7 PUSH2 0x439 DUP3 DUP12 SUB DUP4 PUSH2 0x7D7 JUMP JUMPDEST MLOAD SWAP2 DUP3 SWAP2 DUP3 PUSH2 0x80F JUMP JUMPDEST SUB SWAP1 RETURN JUMPDEST SWAP3 SWAP6 POP PUSH1 0x1 DUP4 MSTORE PUSH32 0xB10E2D527612073B26EECDFD717E6A320CF44B4AFAC2B0732D9FCBE2B7FA0CF6 JUMPDEST DUP3 DUP5 LT PUSH2 0x48D JUMPI POP POP POP DUP3 PUSH2 0x443 SWAP5 PUSH2 0x439 SWAP3 DUP3 ADD ADD SWAP5 CODESIZE PUSH2 0x428 JUMP JUMPDEST DUP1 SLOAD DUP7 DUP6 ADD DUP9 ADD MSTORE SWAP3 DUP7 ADD SWAP3 DUP2 ADD PUSH2 0x470 JUMP JUMPDEST PUSH1 0xFF NOT AND DUP8 DUP7 ADD MSTORE POP POP POP ISZERO ISZERO PUSH1 0x5 SHL DUP4 ADD ADD SWAP3 POP PUSH2 0x439 DUP3 PUSH2 0x443 CODESIZE PUSH2 0x428 JUMP JUMPDEST PUSH4 0x4E487B71 PUSH1 0xE0 SHL DUP5 MSTORE PUSH1 0x22 SWAP1 MSTORE PUSH1 0x24 DUP4 REVERT JUMPDEST SWAP4 PUSH1 0x7F AND SWAP4 PUSH2 0x408 JUMP JUMPDEST DUP4 CALLVALUE PUSH2 0x1E0 JUMPI PUSH1 0x60 CALLDATASIZE PUSH1 0x3 NOT ADD SLT PUSH2 0x1E0 JUMPI PUSH2 0x4F9 PUSH2 0x858 JUMP JUMPDEST PUSH1 0x24 CALLDATALOAD PUSH4 0xFFFFFFFF DUP1 DUP3 AND DUP3 SUB PUSH2 0x551 JUMPI PUSH1 0x44 CALLDATALOAD SWAP1 DUP2 AND DUP2 SUB PUSH2 0x551 JUMPI PUSH1 0x5 SLOAD SWAP1 PUSH4 0xFFFFFFFF PUSH1 0xC0 SHL SWAP1 PUSH1 0xC0 SHL AND SWAP3 PUSH1 0x1 DUP1 PUSH1 0xA0 SHL SUB AND SWAP1 PUSH4 0xFFFFFFFF PUSH1 0xE0 SHL AND OR SWAP1 PUSH4 0xFFFFFFFF PUSH1 0xA0 SHL SWAP1 PUSH1 0xA0 SHL AND OR OR PUSH1 0x5 SSTORE DUP1 RETURN JUMPDEST DUP4 DUP1 REVERT JUMPDEST POP POP CALLVALUE PUSH2 0x106 JUMPI DUP2 PUSH1 0x3 NOT CALLDATASIZE ADD SLT PUSH2 0x106 JUMPI PUSH1 0x5 SLOAD SWAP1 MLOAD PUSH1 0x1 PUSH1 0x1 PUSH1 0xA0 SHL SUB SWAP1 SWAP2 AND DUP2 MSTORE PUSH1 0x20 SWAP1 RETURN JUMPDEST POP POP CALLVALUE PUSH2 0x106 JUMPI PUSH1 0x20 CALLDATASIZE PUSH1 0x3 NOT ADD SLT PUSH2 0x106 JUMPI PUSH1 0x20 SWAP2 DUP2 SWAP1 PUSH1 0x1 PUSH1 0x1 PUSH1 0xA0 SHL SUB PUSH2 0x5A6 PUSH2 0x858 JUMP JUMPDEST AND DUP2 MSTORE PUSH1 0x3 DUP5 MSTORE KECCAK256 SLOAD SWAP1 MLOAD SWAP1 DUP2 MSTORE RETURN JUMPDEST POP POP CALLVALUE PUSH2 0x106 JUMPI DUP1 PUSH1 0x3 NOT CALLDATASIZE ADD SLT PUSH2 0x106 JUMPI PUSH2 0x603 PUSH2 0x5D3 PUSH2 0x858 JUMP JUMPDEST SWAP2 PUSH1 0x24 CALLDATALOAD SWAP3 PUSH2 0x5E4 DUP5 PUSH1 0x2 SLOAD PUSH2 0x8CB JUMP JUMPDEST PUSH1 0x2 SSTORE PUSH1 0x1 PUSH1 0x1 PUSH1 0xA0 SHL SUB AND DUP5 MSTORE PUSH1 0x3 PUSH1 0x20 MSTORE DUP4 KECCAK256 DUP1 SLOAD SWAP1 SWAP3 SWAP1 PUSH2 0x8CB JUMP JUMPDEST SWAP1 SSTORE DUP1 RETURN JUMPDEST POP POP CALLVALUE PUSH2 0x106 JUMPI DUP2 PUSH1 0x3 NOT CALLDATASIZE ADD SLT PUSH2 0x106 JUMPI PUSH1 0x20 SWAP1 PUSH1 0xFF PUSH1 0x5 SLOAD PUSH1 0xE0 SHR AND SWAP1 MLOAD SWAP1 ISZERO ISZERO DUP2 MSTORE RETURN JUMPDEST POP POP CALLVALUE PUSH2 0x106 JUMPI DUP2 PUSH1 0x3 NOT CALLDATASIZE ADD SLT PUSH2 0x106 JUMPI PUSH1 0x20 SWAP1 MLOAD PUSH1 0xA DUP2 MSTORE RETURN JUMPDEST SWAP1 POP CALLVALUE PUSH2 0x15D JUMPI PUSH2 0x6B1 DUP3 PUSH1 0x20 SWAP5 PUSH2 0x662 CALLDATASIZE PUSH2 0x873 JUMP JUMPDEST SWAP6 PUSH1 0x1 DUP1 PUSH1 0xA0 SHL SUB DUP1 SWAP4 AND SWAP1 DUP2 DUP6 MSTORE DUP10 MSTORE DUP5 DUP5 KECCAK256 CALLER DUP6 MSTORE DUP10 MSTORE DUP5 DUP5 KECCAK256 PUSH2 0x689 DUP9 DUP3 SLOAD PUSH2 0x8A8 JUMP JUMPDEST SWAP1 SSTORE DUP4 MSTORE PUSH1 0x3 DUP9 MSTORE DUP4 DUP4 KECCAK256 PUSH2 0x69F DUP8 DUP3 SLOAD PUSH2 0x8A8 JUMP JUMPDEST SWAP1 SSTORE AND DUP2 MSTORE PUSH1 0x3 DUP7 MSTORE KECCAK256 SWAP2 DUP3 SLOAD PUSH2 0x8CB JUMP JUMPDEST SWAP1 SSTORE MLOAD PUSH1 0x1 DUP2 MSTORE RETURN JUMPDEST POP POP CALLVALUE PUSH2 0x106 JUMPI DUP2 PUSH1 0x3 NOT CALLDATASIZE ADD SLT PUSH2 0x106 JUMPI PUSH1 0x20 SWAP1 PUSH1 0x2 SLOAD SWAP1 MLOAD SWAP1 DUP2 MSTORE RETURN JUMPDEST SWAP1 POP CALLVALUE PUSH2 0x15D JUMPI DUP2 PUSH1 0x3 NOT CALLDATASIZE ADD SLT PUSH2 0x15D JUMPI SWAP2 PUSH1 0x20 SWAP3 PUSH2 0x6F7 PUSH2 0x858 JUMP JUMPDEST CALLER DUP4 MSTORE SWAP1 DUP5 MSTORE DUP3 DUP3 KECCAK256 PUSH1 0x1 PUSH1 0x1 PUSH1 0xA0 SHL SUB SWAP1 SWAP2 AND DUP3 MSTORE DUP4 MSTORE DUP2 SWAP1 KECCAK256 PUSH1 0x24 CALLDATALOAD SWAP1 SSTORE MLOAD PUSH1 0x1 DUP2 MSTORE RETURN JUMPDEST SWAP3 SWAP2 POP CALLVALUE PUSH2 0x551 JUMPI DUP4 PUSH1 0x3 NOT CALLDATASIZE ADD SLT PUSH2 0x551 JUMPI DUP4 SLOAD PUSH1 0x1 DUP2 DUP2 SHR SWAP2 DUP7 SWAP1 DUP3 DUP2 AND DUP1 ISZERO PUSH2 0x7CD JUMPI JUMPDEST PUSH1 0x20 SWAP6 DUP7 DUP7 LT DUP3 EQ PUSH2 0x4C2 JUMPI POP DUP5 DUP9 MSTORE SWAP1 DUP2 ISZERO PUSH2 0x4A0 JUMPI POP PUSH1 0x1 EQ PUSH2 0x775 JUMPI PUSH2 0x443 DUP7 DUP7 PUSH2 0x439 DUP3 DUP12 SUB DUP4 PUSH2 0x7D7 JUMP JUMPDEST DUP1 DUP1 SWAP5 SWAP8 POP MSTORE PUSH32 0x290DECD9548B62A8D60345A988386FC84BA6BC95484008F6362F93160EF3E563 JUMPDEST DUP3 DUP5 LT PUSH2 0x7BA JUMPI POP POP POP DUP3 PUSH2 0x443 SWAP5 PUSH2 0x439 SWAP3 DUP3 ADD ADD SWAP5 CODESIZE PUSH2 0x428 JUMP JUMPDEST DUP1 SLOAD DUP7 DUP6 ADD DUP9 ADD MSTORE SWAP3 DUP7 ADD SWAP3 DUP2 ADD PUSH2 0x79D JUMP JUMPDEST SWAP4 PUSH1 0x7F AND SWAP4 PUSH2 0x745 JUMP JUMPDEST SWAP1 PUSH1 0x1F DUP1 NOT SWAP2 ADD AND DUP2 ADD SWAP1 DUP2 LT PUSH8 0xFFFFFFFFFFFFFFFF DUP3 GT OR PUSH2 0x7F9 JUMPI PUSH1 0x40 MSTORE JUMP JUMPDEST PUSH4 0x4E487B71 PUSH1 0xE0 SHL PUSH1 0x0 MSTORE PUSH1 0x41 PUSH1 0x4 MSTORE PUSH1 0x24 PUSH1 0x0 REVERT JUMPDEST PUSH1 0x20 DUP1 DUP3 MSTORE DUP3 MLOAD DUP2 DUP4 ADD DUP2 SWAP1 MSTORE SWAP1 SWAP4 SWAP3 PUSH1 0x0 JUMPDEST DUP3 DUP2 LT PUSH2 0x844 JUMPI POP POP PUSH1 0x40 SWAP3 SWAP4 POP PUSH1 0x0 DUP4 DUP3 DUP5 ADD ADD MSTORE PUSH1 0x1F DUP1 NOT SWAP2 ADD AND ADD ADD SWAP1 JUMP JUMPDEST DUP2 DUP2 ADD DUP7 ADD MLOAD DUP5 DUP3 ADD PUSH1 0x40 ADD MSTORE DUP6 ADD PUSH2 0x822 JUMP JUMPDEST PUSH1 0x4 CALLDATALOAD SWAP1 PUSH1 0x1 PUSH1 0x1 PUSH1 0xA0 SHL SUB DUP3 AND DUP3 SUB PUSH2 0x86E JUMPI JUMP JUMPDEST PUSH1 0x0 DUP1 REVERT JUMPDEST PUSH1 0x60 SWAP1 PUSH1 0x3 NOT ADD SLT PUSH2 0x86E JUMPI PUSH1 0x1 PUSH1 0x1 PUSH1 0xA0 SHL SUB SWAP1 PUSH1 0x4 CALLDATALOAD DUP3 DUP2 AND DUP2 SUB PUSH2 0x86E JUMPI SWAP2 PUSH1 0x24 CALLDATALOAD SWAP1 DUP2 AND DUP2 SUB PUSH2 0x86E JUMPI SWAP1 PUSH1 0x44 CALLDATALOAD SWAP1 JUMP JUMPDEST SWAP2 SWAP1 DUP3 SUB SWAP2 DUP3 GT PUSH2 0x8B5 JUMPI JUMP JUMPDEST PUSH4 0x4E487B71 PUSH1 0xE0 SHL PUSH1 0x0 MSTORE PUSH1 0x11 PUSH1 0x4 MSTORE PUSH1 0x24 PUSH1 0x0 REVERT JUMPDEST SWAP2 SWAP1 DUP3 ADD DUP1 SWAP3 GT PUSH2 0x8B5 JUMPI JUMP INVALID LOG2 PUSH5 0x6970667358 0x22 SLT KECCAK256 RETURN PUSH30 0xB8942FA3C9F4017596C47886B889BC6F69F1BB85661EB4A0EDCDE359BBB5 PUSH5 0x736F6C6343 STOP ADDMOD XOR STOP CALLER "},"methodIdentifiers":{"allowance(address,address)":"dd62ed3e","approve(address,uint256)":"095ea7b3","approveExternal(address,address,uint256)":"ceda64c4","attackAssetIdIn()":"ce7fff69","attackAssetIdOut()":"fb59744f","attacking()":"3c0bbcd9","balanceOf(address)":"70a08231","decimals()":"313ce567","mint(address,uint256)":"40c10f19","name()":"06fdde03","setAttackParams(address,uint32,uint32)":"90dc6451","startAttack(uint256)":"c792413f","swapContract()":"8ea83031","symbol()":"95d89b41","totalSupply()":"18160ddd","transfer(address,uint256)":"a9059cbb","transferFrom(address,address,uint256)":"23b872dd"}}}}}