{"evm/mocks/MockSystemLowWeight.sol":{"MockSystemLowWeight":{"abi":[{"inputs":[],"name":"callerIsOrigin","outputs":[{"internalType":"bool","name":"","type":"bool"}],"stateMutability":"pure","type":"function"},{"inputs":[],"name":"callerIsRoot","outputs":[{"internalType":"bool","name":"","type":"bool"}],"stateMutability":"pure","type":"function"},{"inputs":[{"internalType":"uint8[33]","name":"","type":"uint8[33]"}],"name":"ecdsaToEthAddress","outputs":[{"internalType":"bytes20","name":"","type":"bytes20"}],"stateMutability":"pure","type":"function"},{"inputs":[{"internalType":"bytes","name":"input","type":"bytes"}],"name":"hashBlake128","outputs":[{"internalType":"bytes32","name":"digest","type":"bytes32"}],"stateMutability":"pure","type":"function"},{"inputs":[{"internalType":"bytes","name":"input","type":"bytes"}],"name":"hashBlake256","outputs":[{"internalType":"bytes32","name":"digest","type":"bytes32"}],"stateMutability":"pure","type":"function"},{"inputs":[],"name":"minimumBalance","outputs":[{"internalType":"uint256","name":"","type":"uint256"}],"stateMutability":"pure","type":"function"},{"inputs":[],"name":"ownCodeHash","outputs":[{"internalType":"bytes32","name":"","type":"bytes32"}],"stateMutability":"pure","type":"function"},{"inputs":[{"internalType":"uint8[64]","name":"","type":"uint8[64]"},{"internalType":"bytes","name":"","type":"bytes"},{"internalType":"bytes32","name":"","type":"bytes32"}],"name":"sr25519Verify","outputs":[{"internalType":"bool","name":"","type":"bool"}],"stateMutability":"pure","type":"function"},{"inputs":[{"internalType":"address","name":"","type":"address"}],"name":"terminate","outputs":[],"stateMutability":"pure","type":"function"},{"inputs":[{"internalType":"address","name":"input","type":"address"}],"name":"toAccountId","outputs":[{"internalType":"bytes","name":"","type":"bytes"}],"stateMutability":"pure","type":"function"},{"inputs":[],"name":"weightLeft","outputs":[{"internalType":"uint64","name":"refTime","type":"uint64"},{"internalType":"uint64","name":"proofSize","type":"uint64"}],"stateMutability":"pure","type":"function"}],"evm":{"bytecode":{"linkReferences":{},"object":"608080604052346100165761040a908161001c8239f35b600080fdfe60806040908082526004908136101561001757600080fd5b600090813560e01c9081630bd0e5fb1461032357508063307a575d146102bb57806379e184f1146102955780638d29dffb146102735780639098d8c114610257578063a63b698314610223578063b9d1d49b14610206578063c7dff686146101e6578063cf5231cc14610130578063db6bdc8a146101115763edb455291461009e57600080fd5b3461010e57602036600319011261010e5781356001600160a01b0381160361010e57506020608492519162461bcd60e51b8352820152602260248201527f4d6f636b53797374656d4c6f775765696768743a206e6f7420737570706f7274604482015261195960f21b6064820152fd5b80fd5b50823461012c578160031936011261012c5751908152602090f35b5080fd5b5082903461010e5760208060031936011261012c578335916001600160a01b038316830361010e578351926bffffffffffffffffffffffff199060601b166020840152601483528383019483861067ffffffffffffffff8711176101d3575084845260208552825191826060850152815b8381106101bf57505082820160800152601f01601f19168101030190f35b8082918601608083820151910152016101a1565b634e487b7160e01b825260419052602490fd5b50823461012c576020906101f93661033c565b8281519101209051908152f35b50823461012c578160031936011261012c57602090516127108152f35b50823461012c576020906102363661033c565b6fffffffffffffffffffffffffffffffff1990838151910120169051908152f35b50823461012c578160031936011261012c576020905160018152f35b83823461010e578060031936011261010e57815190620f424082526020820152f35b50823461012c5761042036600319011261012c57366104241161012c5751908152602090f35b5091903461031f5761084036600319011261031f5761080436811161031757359067ffffffffffffffff9081831161031b573660238401121561031b57820135908111610317573691016024011161012c576020905160018152f35b8380fd5b8480fd5b8280fd5b90503461012c578160031936011261012c576020918152f35b60206003198201126103b95767ffffffffffffffff906004358281116103b957816023820112156103b9578060040135918383116103be5760405193601f8401601f19908116603f01168501908111858210176103be57604052828452602483830101116103b95781600092602460209301838601378301015290565b600080fd5b634e487b7160e01b600052604160045260246000fdfea2646970667358221220d661d941af7c26137ce3db5631be4cde40624b37820e9a1199a0872650865eea64736f6c63430008180033","opcodes":"PUSH1 0x80 DUP1 PUSH1 0x40 MSTORE CALLVALUE PUSH2 0x16 JUMPI PUSH2 0x40A SWAP1 DUP2 PUSH2 0x1C DUP3 CODECOPY RETURN JUMPDEST PUSH1 0x0 DUP1 REVERT INVALID PUSH1 0x80 PUSH1 0x40 SWAP1 DUP1 DUP3 MSTORE PUSH1 0x4 SWAP1 DUP2 CALLDATASIZE LT ISZERO PUSH2 0x17 JUMPI PUSH1 0x0 DUP1 REVERT JUMPDEST PUSH1 0x0 SWAP1 DUP2 CALLDATALOAD PUSH1 0xE0 SHR SWAP1 DUP2 PUSH4 0xBD0E5FB EQ PUSH2 0x323 JUMPI POP DUP1 PUSH4 0x307A575D EQ PUSH2 0x2BB JUMPI DUP1 PUSH4 0x79E184F1 EQ PUSH2 0x295 JUMPI DUP1 PUSH4 0x8D29DFFB EQ PUSH2 0x273 JUMPI DUP1 PUSH4 0x9098D8C1 EQ PUSH2 0x257 JUMPI DUP1 PUSH4 0xA63B6983 EQ PUSH2 0x223 JUMPI DUP1 PUSH4 0xB9D1D49B EQ PUSH2 0x206 JUMPI DUP1 PUSH4 0xC7DFF686 EQ PUSH2 0x1E6 JUMPI DUP1 PUSH4 0xCF5231CC EQ PUSH2 0x130 JUMPI DUP1 PUSH4 0xDB6BDC8A EQ PUSH2 0x111 JUMPI PUSH4 0xEDB45529 EQ PUSH2 0x9E JUMPI PUSH1 0x0 DUP1 REVERT JUMPDEST CALLVALUE PUSH2 0x10E JUMPI PUSH1 0x20 CALLDATASIZE PUSH1 0x3 NOT ADD SLT PUSH2 0x10E JUMPI DUP2 CALLDATALOAD PUSH1 0x1 PUSH1 0x1 PUSH1 0xA0 SHL SUB DUP2 AND SUB PUSH2 0x10E JUMPI POP PUSH1 0x20 PUSH1 0x84 SWAP3 MLOAD SWAP2 PUSH3 0x461BCD PUSH1 0xE5 SHL DUP4 MSTORE DUP3 ADD MSTORE PUSH1 0x22 PUSH1 0x24 DUP3 ADD MSTORE PUSH32 0x4D6F636B53797374656D4C6F775765696768743A206E6F7420737570706F7274 PUSH1 0x44 DUP3 ADD MSTORE PUSH2 0x1959 PUSH1 0xF2 SHL PUSH1 0x64 DUP3 ADD MSTORE REVERT JUMPDEST DUP1 REVERT JUMPDEST POP DUP3 CALLVALUE PUSH2 0x12C JUMPI DUP2 PUSH1 0x3 NOT CALLDATASIZE ADD SLT PUSH2 0x12C JUMPI MLOAD SWAP1 DUP2 MSTORE PUSH1 0x20 SWAP1 RETURN JUMPDEST POP DUP1 REVERT JUMPDEST POP DUP3 SWAP1 CALLVALUE PUSH2 0x10E JUMPI PUSH1 0x20 DUP1 PUSH1 0x3 NOT CALLDATASIZE ADD SLT PUSH2 0x12C JUMPI DUP4 CALLDATALOAD SWAP2 PUSH1 0x1 PUSH1 0x1 PUSH1 0xA0 SHL SUB DUP4 AND DUP4 SUB PUSH2 0x10E JUMPI DUP4 MLOAD SWAP3 PUSH12 0xFFFFFFFFFFFFFFFFFFFFFFFF NOT SWAP1 PUSH1 0x60 SHL AND PUSH1 0x20 DUP5 ADD MSTORE PUSH1 0x14 DUP4 MSTORE DUP4 DUP4 ADD SWAP5 DUP4 DUP7 LT PUSH8 0xFFFFFFFFFFFFFFFF DUP8 GT OR PUSH2 0x1D3 JUMPI POP DUP5 DUP5 MSTORE PUSH1 0x20 DUP6 MSTORE DUP3 MLOAD SWAP2 DUP3 PUSH1 0x60 DUP6 ADD MSTORE DUP2 JUMPDEST DUP4 DUP2 LT PUSH2 0x1BF JUMPI POP POP DUP3 DUP3 ADD PUSH1 0x80 ADD MSTORE PUSH1 0x1F ADD PUSH1 0x1F NOT AND DUP2 ADD SUB ADD SWAP1 RETURN JUMPDEST DUP1 DUP3 SWAP2 DUP7 ADD PUSH1 0x80 DUP4 DUP3 ADD MLOAD SWAP2 ADD MSTORE ADD PUSH2 0x1A1 JUMP JUMPDEST PUSH4 0x4E487B71 PUSH1 0xE0 SHL DUP3 MSTORE PUSH1 0x41 SWAP1 MSTORE PUSH1 0x24 SWAP1 REVERT JUMPDEST POP DUP3 CALLVALUE PUSH2 0x12C JUMPI PUSH1 0x20 SWAP1 PUSH2 0x1F9 CALLDATASIZE PUSH2 0x33C JUMP JUMPDEST DUP3 DUP2 MLOAD SWAP2 ADD KECCAK256 SWAP1 MLOAD SWAP1 DUP2 MSTORE RETURN JUMPDEST POP DUP3 CALLVALUE PUSH2 0x12C JUMPI DUP2 PUSH1 0x3 NOT CALLDATASIZE ADD SLT PUSH2 0x12C JUMPI PUSH1 0x20 SWAP1 MLOAD PUSH2 0x2710 DUP2 MSTORE RETURN JUMPDEST POP DUP3 CALLVALUE PUSH2 0x12C JUMPI PUSH1 0x20 SWAP1 PUSH2 0x236 CALLDATASIZE PUSH2 0x33C JUMP JUMPDEST PUSH16 0xFFFFFFFFFFFFFFFFFFFFFFFFFFFFFFFF NOT SWAP1 DUP4 DUP2 MLOAD SWAP2 ADD KECCAK256 AND SWAP1 MLOAD SWAP1 DUP2 MSTORE RETURN JUMPDEST POP DUP3 CALLVALUE PUSH2 0x12C JUMPI DUP2 PUSH1 0x3 NOT CALLDATASIZE ADD SLT PUSH2 0x12C JUMPI PUSH1 0x20 SWAP1 MLOAD PUSH1 0x1 DUP2 MSTORE RETURN JUMPDEST DUP4 DUP3 CALLVALUE PUSH2 0x10E JUMPI DUP1 PUSH1 0x3 NOT CALLDATASIZE ADD SLT PUSH2 0x10E JUMPI DUP2 MLOAD SWAP1 PUSH3 0xF4240 DUP3 MSTORE PUSH1 0x20 DUP3 ADD MSTORE RETURN JUMPDEST POP DUP3 CALLVALUE PUSH2 0x12C JUMPI PUSH2 0x420 CALLDATASIZE PUSH1 0x3 NOT ADD SLT PUSH2 0x12C JUMPI CALLDATASIZE PUSH2 0x424 GT PUSH2 0x12C JUMPI MLOAD SWAP1 DUP2 MSTORE PUSH1 0x20 SWAP1 RETURN JUMPDEST POP SWAP2 SWAP1 CALLVALUE PUSH2 0x31F JUMPI PUSH2 0x840 CALLDATASIZE PUSH1 0x3 NOT ADD SLT PUSH2 0x31F JUMPI PUSH2 0x804 CALLDATASIZE DUP2 GT PUSH2 0x317 JUMPI CALLDATALOAD SWAP1 PUSH8 0xFFFFFFFFFFFFFFFF SWAP1 DUP2 DUP4 GT PUSH2 0x31B JUMPI CALLDATASIZE PUSH1 0x23 DUP5 ADD SLT ISZERO PUSH2 0x31B JUMPI DUP3 ADD CALLDATALOAD SWAP1 DUP2 GT PUSH2 0x317 JUMPI CALLDATASIZE SWAP2 ADD PUSH1 0x24 ADD GT PUSH2 0x12C JUMPI PUSH1 0x20 SWAP1 MLOAD PUSH1 0x1 DUP2 MSTORE RETURN JUMPDEST DUP4 DUP1 REVERT JUMPDEST DUP5 DUP1 REVERT JUMPDEST DUP3 DUP1 REVERT JUMPDEST SWAP1 POP CALLVALUE PUSH2 0x12C JUMPI DUP2 PUSH1 0x3 NOT CALLDATASIZE ADD SLT PUSH2 0x12C JUMPI PUSH1 0x20 SWAP2 DUP2 MSTORE RETURN JUMPDEST PUSH1 0x20 PUSH1 0x3 NOT DUP3 ADD SLT PUSH2 0x3B9 JUMPI PUSH8 0xFFFFFFFFFFFFFFFF SWAP1 PUSH1 0x4 CALLDATALOAD DUP3 DUP2 GT PUSH2 0x3B9 JUMPI DUP2 PUSH1 0x23 DUP3 ADD SLT ISZERO PUSH2 0x3B9 JUMPI DUP1 PUSH1 0x4 ADD CALLDATALOAD SWAP2 DUP4 DUP4 GT PUSH2 0x3BE JUMPI PUSH1 0x40 MLOAD SWAP4 PUSH1 0x1F DUP5 ADD PUSH1 0x1F NOT SWAP1 DUP2 AND PUSH1 0x3F ADD AND DUP6 ADD SWAP1 DUP2 GT DUP6 DUP3 LT OR PUSH2 0x3BE JUMPI PUSH1 0x40 MSTORE DUP3 DUP5 MSTORE PUSH1 0x24 DUP4 DUP4 ADD ADD GT PUSH2 0x3B9 JUMPI DUP2 PUSH1 0x0 SWAP3 PUSH1 0x24 PUSH1 0x20 SWAP4 ADD DUP4 DUP7 ADD CALLDATACOPY DUP4 ADD ADD MSTORE SWAP1 JUMP JUMPDEST PUSH1 0x0 DUP1 REVERT JUMPDEST PUSH4 0x4E487B71 PUSH1 0xE0 SHL PUSH1 0x0 MSTORE PUSH1 0x41 PUSH1 0x4 MSTORE PUSH1 0x24 PUSH1 0x0 REVERT INVALID LOG2 PUSH5 0x6970667358 0x22 SLT KECCAK256 0xD6 PUSH2 0xD941 0xAF PUSH29 0x26137CE3DB5631BE4CDE40624B37820E9A1199A0872650865EEA64736F PUSH13 0x63430008180033000000000000 "},"methodIdentifiers":{"callerIsOrigin()":"9098d8c1","callerIsRoot()":"0bd0e5fb","ecdsaToEthAddress(uint8[33])":"79e184f1","hashBlake128(bytes)":"a63b6983","hashBlake256(bytes)":"c7dff686","minimumBalance()":"b9d1d49b","ownCodeHash()":"db6bdc8a","sr25519Verify(uint8[64],bytes,bytes32)":"307a575d","terminate(address)":"edb45529","toAccountId(address)":"cf5231cc","weightLeft()":"8d29dffb"}}}}}