{"evm/TesseractCompute.sol":{"TesseractCompute":{"abi":[{"inputs":[{"internalType":"address","name":"_xcmPrecompile","type":"address"},{"internalType":"address","name":"_systemPrecompile","type":"address"},{"internalType":"address","name":"_vaultContract","type":"address"},{"internalType":"address","name":"_authorizedCaller","type":"address"}],"stateMutability":"nonpayable","type":"constructor"},{"anonymous":false,"inputs":[{"indexed":false,"internalType":"address","name":"caller","type":"address"}],"name":"AuthorizedCallerSet","type":"event"},{"anonymous":false,"inputs":[{"indexed":false,"internalType":"bytes","name":"destination","type":"bytes"},{"indexed":false,"internalType":"uint64","name":"refTime","type":"uint64"},{"indexed":false,"internalType":"uint64","name":"proofSize","type":"uint64"}],"name":"Routed","type":"event"},{"anonymous":false,"inputs":[{"indexed":false,"internalType":"uint64","name":"bestIndex","type":"uint64"},{"indexed":false,"internalType":"uint256","name":"aprCount","type":"uint256"}],"name":"StrategySelected","type":"event"},{"inputs":[],"name":"authorizedCaller","outputs":[{"internalType":"address","name":"","type":"address"}],"stateMutability":"view","type":"function"},{"inputs":[{"internalType":"address","name":"assetPrecompile","type":"address"}],"name":"getAssetBalance","outputs":[{"internalType":"uint256","name":"","type":"uint256"}],"stateMutability":"view","type":"function"},{"inputs":[{"internalType":"uint64[]","name":"aprs","type":"uint64[]"}],"name":"getBestStrategy","outputs":[{"internalType":"uint64","name":"bestIndex","type":"uint64"}],"stateMutability":"nonpayable","type":"function"},{"inputs":[],"name":"owner","outputs":[{"internalType":"address","name":"","type":"address"}],"stateMutability":"view","type":"function"},{"inputs":[{"internalType":"bytes","name":"destination","type":"bytes"},{"internalType":"bytes","name":"message","type":"bytes"}],"name":"routeToParachain","outputs":[],"stateMutability":"nonpayable","type":"function"},{"inputs":[{"internalType":"address","name":"_caller","type":"address"}],"name":"setAuthorizedCaller","outputs":[],"stateMutability":"nonpayable","type":"function"},{"inputs":[],"name":"systemInfo","outputs":[{"internalType":"uint64","name":"refTime","type":"uint64"},{"internalType":"uint64","name":"proofSize","type":"uint64"},{"internalType":"bytes32","name":"codeHash","type":"bytes32"}],"stateMutability":"view","type":"function"},{"inputs":[],"name":"systemPrecompile","outputs":[{"internalType":"address","name":"","type":"address"}],"stateMutability":"view","type":"function"},{"inputs":[],"name":"vaultContract","outputs":[{"internalType":"address","name":"","type":"address"}],"stateMutability":"view","type":"function"},{"inputs":[],"name":"xcmPrecompile","outputs":[{"internalType":"address","name":"","type":"address"}],"stateMutability":"view","type":"function"}],"evm":{"bytecode":{"linkReferences":{},"object":"6080346100e457601f610a9938819003918201601f19168301916001600160401b038311848410176100e9578084926080946040528339810103126100e457610047816100ff565b610053602083016100ff565b9061006c6060610065604086016100ff565b94016100ff565b91600160005560018060a01b03938480928160018060a01b0319951685600154161760015516836002541617600255168160035416176003553390600454161760045516806100c5575b60405161098590816101148239f35b600580546001600160a81b031916909117600160a01b179055386100b6565b600080fd5b634e487b7160e01b600052604160045260246000fd5b51906001600160a01b03821682036100e45756fe608060408181526004908136101561001657600080fd5b600092833560e01c9081631021764e1461084e575080632274346b146108255780632651bae7146106bd5780632a12408e146105ab5780632f22b5ef146103085780635373433f146102685780638da5cb5b1461024057806397dc97cb14610217578063ceff3e48146101ea5763cf8fbec91461009257600080fd5b346101e65760203660031901126101e65781356001600160a01b0381811693918490036101e25781541633036101a0576005549060ff8260a01c1661015d57831561011a57506001600160a81b0319168217600160a01b17600555519081527f8a543b23e9e3985a5581845751b4b0712b7c1a633d7ce41ef4ae00ae13dee76990602090a180f35b606490602084519162461bcd60e51b8352820152601e60248201527f546573736572616374436f6d707574653a207a65726f206164647265737300006044820152fd5b606490602084519162461bcd60e51b8352820152601d60248201527f546573736572616374436f6d707574653a20616c7265616479207365740000006044820152fd5b6020606492519162461bcd60e51b8352820152601b60248201527f546573736572616374436f6d707574653a206e6f74206f776e657200000000006044820152fd5b8480fd5b8280fd5b83823461021357816003193601126102135760025490516001600160a01b039091168152602090f35b5080fd5b83823461021357816003193601126102135760055490516001600160a01b039091168152602090f35b5090346101e657826003193601126101e6575490516001600160a01b03909116815260209150f35b5082903461021357602092836003193601126101e65780356001600160a01b038116919082900361030457849060248451809481936370a0823160e01b835230908301525afa9283156102f95780936102c4575b505051908152f35b909192508382813d83116102f2575b6102dd81836108e1565b810103126102ef5750519083806102bc565b80fd5b503d6102d3565b8251903d90823e3d90fd5b8380fd5b50346101e657806003193601126101e65767ffffffffffffffff9180358381116101e2576103399036908301610873565b91909260249485358181116105a7576103559036908501610873565b6005549097906001600160a01b0390811633036105655760028a54146105325760028a556001541694898551996347400c2360e01b8b526020838c0152868b806103a2878201858a61092e565b03818b5afa9a8b1561052857829b6104b0575b50873b15610213578a97602095836103ea938a519889958694859363d3b7e04d60e01b855260608b860152606485019161092e565b9c8b8151168a840152019b8a8d5116604483015203925af180156104a657610462575b505050807f68c1accacc7c3dc1f5bca758e0eae5ef3b3063f1ab0a1df0ac05fc171cd9f5069651169251169061044f815195869560608752606087019161092e565b9260208501528301520390a16001815580f35b8383116104955750508252807f68c1accacc7c3dc1f5bca758e0eae5ef3b3063f1ab0a1df0ac05fc171cd9f5063861040d565b634e487b7160e01b8a526041905288fd5b85513d8c823e3d90fd5b8780929c508193503d8311610521575b6104ca81836108e1565b8101031261051d578551908682018281108782111761050b5760208d93926104ff928a526104f781610919565b845201610919565b602082015299386103b5565b634e487b7160e01b8d5260418452848dfd5b8a80fd5b503d6104c0565b87513d84823e3d90fd5b845162461bcd60e51b8152602081880152600e818401526d1c99595b9d1c985b9d0818d85b1b60921b6044820152606490fd5b845162461bcd60e51b81526020818801819052818401527f546573736572616374436f6d707574653a206e6f7420617574686f72697a65646044820152606490fd5b8780fd5b5090346101e657826003193601126101e6576002548251638d29dffb60e01b81526001600160a01b03909116929081818481875afa93841561066d5785918695610677575b50602090835194858092636db5ee4560e11b82525afa92831561066d578593610635575b506060945081519367ffffffffffffffff8092168552166020840152820152f35b9092506020813d602011610665575b81610651602093836108e1565b810103126101e25760609450519138610614565b3d9150610644565b82513d87823e3d90fd5b83809296508193503d83116106b6575b61069181836108e1565b810103126101e25760206106af816106a884610919565b9301610919565b94906105f0565b503d610687565b508290346102135760203660031901126102135767ffffffffffffffff92803584811161030457366023820112156103045780820135938585116102ef576024906024830192602436918860051b0101116102ef5785156107e2576107238394936108cc565b928194600194856001905b61076f575b50602089897fa09fcb56ab43e960547f7838f205928f23720dff952e73a8ce1c7f1dd8160923818b8f825191169485825286820152a151908152f35b8a81168a8110156107dc57908161079061078b8e948e886108a6565b6108cc565b838086169116116107c0575b50168a81146107ad5786018661072e565b5050634e487b7160e01b83525060119052fd5b9098506107d4925061078b91508a846108a6565b89878c61079c565b50610733565b845162461bcd60e51b8152602081860152601c60248201527f546573736572616374436f6d707574653a20656d7074792061707273000000006044820152606490fd5b83823461021357816003193601126102135760035490516001600160a01b039091168152602090f35b8490346102135781600319360112610213576001546001600160a01b03168152602090f35b9181601f840112156108a15782359167ffffffffffffffff83116108a157602083818601950101116108a157565b600080fd5b91908110156108b65760051b0190565b634e487b7160e01b600052603260045260246000fd5b3567ffffffffffffffff811681036108a15790565b90601f8019910116810190811067ffffffffffffffff82111761090357604052565b634e487b7160e01b600052604160045260246000fd5b519067ffffffffffffffff821682036108a157565b908060209392818452848401376000828201840152601f01601f191601019056fea264697066735822122012b3b0b182c516e26c331a4f9bfcaa410dbf60170e4948187bf9a151d7f827b964736f6c63430008180033","opcodes":"PUSH1 0x80 CALLVALUE PUSH2 0xE4 JUMPI PUSH1 0x1F PUSH2 0xA99 CODESIZE DUP2 SWAP1 SUB SWAP2 DUP3 ADD PUSH1 0x1F NOT AND DUP4 ADD SWAP2 PUSH1 0x1 PUSH1 0x1 PUSH1 0x40 SHL SUB DUP4 GT DUP5 DUP5 LT OR PUSH2 0xE9 JUMPI DUP1 DUP5 SWAP3 PUSH1 0x80 SWAP5 PUSH1 0x40 MSTORE DUP4 CODECOPY DUP2 ADD SUB SLT PUSH2 0xE4 JUMPI PUSH2 0x47 DUP2 PUSH2 0xFF JUMP JUMPDEST PUSH2 0x53 PUSH1 0x20 DUP4 ADD PUSH2 0xFF JUMP JUMPDEST SWAP1 PUSH2 0x6C PUSH1 0x60 PUSH2 0x65 PUSH1 0x40 DUP7 ADD PUSH2 0xFF JUMP JUMPDEST SWAP5 ADD PUSH2 0xFF JUMP JUMPDEST SWAP2 PUSH1 0x1 PUSH1 0x0 SSTORE PUSH1 0x1 DUP1 PUSH1 0xA0 SHL SUB SWAP4 DUP5 DUP1 SWAP3 DUP2 PUSH1 0x1 DUP1 PUSH1 0xA0 SHL SUB NOT SWAP6 AND DUP6 PUSH1 0x1 SLOAD AND OR PUSH1 0x1 SSTORE AND DUP4 PUSH1 0x2 SLOAD AND OR PUSH1 0x2 SSTORE AND DUP2 PUSH1 0x3 SLOAD AND OR PUSH1 0x3 SSTORE CALLER SWAP1 PUSH1 0x4 SLOAD AND OR PUSH1 0x4 SSTORE AND DUP1 PUSH2 0xC5 JUMPI JUMPDEST PUSH1 0x40 MLOAD PUSH2 0x985 SWAP1 DUP2 PUSH2 0x114 DUP3 CODECOPY RETURN JUMPDEST PUSH1 0x5 DUP1 SLOAD PUSH1 0x1 PUSH1 0x1 PUSH1 0xA8 SHL SUB NOT AND SWAP1 SWAP2 OR PUSH1 0x1 PUSH1 0xA0 SHL OR SWAP1 SSTORE CODESIZE PUSH2 0xB6 JUMP JUMPDEST PUSH1 0x0 DUP1 REVERT JUMPDEST PUSH4 0x4E487B71 PUSH1 0xE0 SHL PUSH1 0x0 MSTORE PUSH1 0x41 PUSH1 0x4 MSTORE PUSH1 0x24 PUSH1 0x0 REVERT JUMPDEST MLOAD SWAP1 PUSH1 0x1 PUSH1 0x1 PUSH1 0xA0 SHL SUB DUP3 AND DUP3 SUB PUSH2 0xE4 JUMPI JUMP INVALID PUSH1 0x80 PUSH1 0x40 DUP2 DUP2 MSTORE PUSH1 0x4 SWAP1 DUP2 CALLDATASIZE LT ISZERO PUSH2 0x16 JUMPI PUSH1 0x0 DUP1 REVERT JUMPDEST PUSH1 0x0 SWAP3 DUP4 CALLDATALOAD PUSH1 0xE0 SHR SWAP1 DUP2 PUSH4 0x1021764E EQ PUSH2 0x84E JUMPI POP DUP1 PUSH4 0x2274346B EQ PUSH2 0x825 JUMPI DUP1 PUSH4 0x2651BAE7 EQ PUSH2 0x6BD JUMPI DUP1 PUSH4 0x2A12408E EQ PUSH2 0x5AB JUMPI DUP1 PUSH4 0x2F22B5EF EQ PUSH2 0x308 JUMPI DUP1 PUSH4 0x5373433F EQ PUSH2 0x268 JUMPI DUP1 PUSH4 0x8DA5CB5B EQ PUSH2 0x240 JUMPI DUP1 PUSH4 0x97DC97CB EQ PUSH2 0x217 JUMPI DUP1 PUSH4 0xCEFF3E48 EQ PUSH2 0x1EA JUMPI PUSH4 0xCF8FBEC9 EQ PUSH2 0x92 JUMPI PUSH1 0x0 DUP1 REVERT JUMPDEST CALLVALUE PUSH2 0x1E6 JUMPI PUSH1 0x20 CALLDATASIZE PUSH1 0x3 NOT ADD SLT PUSH2 0x1E6 JUMPI DUP2 CALLDATALOAD PUSH1 0x1 PUSH1 0x1 PUSH1 0xA0 SHL SUB DUP2 DUP2 AND SWAP4 SWAP2 DUP5 SWAP1 SUB PUSH2 0x1E2 JUMPI DUP2 SLOAD AND CALLER SUB PUSH2 0x1A0 JUMPI PUSH1 0x5 SLOAD SWAP1 PUSH1 0xFF DUP3 PUSH1 0xA0 SHR AND PUSH2 0x15D JUMPI DUP4 ISZERO PUSH2 0x11A JUMPI POP PUSH1 0x1 PUSH1 0x1 PUSH1 0xA8 SHL SUB NOT AND DUP3 OR PUSH1 0x1 PUSH1 0xA0 SHL OR PUSH1 0x5 SSTORE MLOAD SWAP1 DUP2 MSTORE PUSH32 0x8A543B23E9E3985A5581845751B4B0712B7C1A633D7CE41EF4AE00AE13DEE769 SWAP1 PUSH1 0x20 SWAP1 LOG1 DUP1 RETURN JUMPDEST PUSH1 0x64 SWAP1 PUSH1 0x20 DUP5 MLOAD SWAP2 PUSH3 0x461BCD PUSH1 0xE5 SHL DUP4 MSTORE DUP3 ADD MSTORE PUSH1 0x1E PUSH1 0x24 DUP3 ADD MSTORE PUSH32 0x546573736572616374436F6D707574653A207A65726F20616464726573730000 PUSH1 0x44 DUP3 ADD MSTORE REVERT JUMPDEST PUSH1 0x64 SWAP1 PUSH1 0x20 DUP5 MLOAD SWAP2 PUSH3 0x461BCD PUSH1 0xE5 SHL DUP4 MSTORE DUP3 ADD MSTORE PUSH1 0x1D PUSH1 0x24 DUP3 ADD MSTORE PUSH32 0x546573736572616374436F6D707574653A20616C726561647920736574000000 PUSH1 0x44 DUP3 ADD MSTORE REVERT JUMPDEST PUSH1 0x20 PUSH1 0x64 SWAP3 MLOAD SWAP2 PUSH3 0x461BCD PUSH1 0xE5 SHL DUP4 MSTORE DUP3 ADD MSTORE PUSH1 0x1B PUSH1 0x24 DUP3 ADD MSTORE PUSH32 0x546573736572616374436F6D707574653A206E6F74206F776E65720000000000 PUSH1 0x44 DUP3 ADD MSTORE REVERT JUMPDEST DUP5 DUP1 REVERT JUMPDEST DUP3 DUP1 REVERT JUMPDEST DUP4 DUP3 CALLVALUE PUSH2 0x213 JUMPI DUP2 PUSH1 0x3 NOT CALLDATASIZE ADD SLT PUSH2 0x213 JUMPI PUSH1 0x2 SLOAD SWAP1 MLOAD PUSH1 0x1 PUSH1 0x1 PUSH1 0xA0 SHL SUB SWAP1 SWAP2 AND DUP2 MSTORE PUSH1 0x20 SWAP1 RETURN JUMPDEST POP DUP1 REVERT JUMPDEST DUP4 DUP3 CALLVALUE PUSH2 0x213 JUMPI DUP2 PUSH1 0x3 NOT CALLDATASIZE ADD SLT PUSH2 0x213 JUMPI PUSH1 0x5 SLOAD SWAP1 MLOAD PUSH1 0x1 PUSH1 0x1 PUSH1 0xA0 SHL SUB SWAP1 SWAP2 AND DUP2 MSTORE PUSH1 0x20 SWAP1 RETURN JUMPDEST POP SWAP1 CALLVALUE PUSH2 0x1E6 JUMPI DUP3 PUSH1 0x3 NOT CALLDATASIZE ADD SLT PUSH2 0x1E6 JUMPI SLOAD SWAP1 MLOAD PUSH1 0x1 PUSH1 0x1 PUSH1 0xA0 SHL SUB SWAP1 SWAP2 AND DUP2 MSTORE PUSH1 0x20 SWAP2 POP RETURN JUMPDEST POP DUP3 SWAP1 CALLVALUE PUSH2 0x213 JUMPI PUSH1 0x20 SWAP3 DUP4 PUSH1 0x3 NOT CALLDATASIZE ADD SLT PUSH2 0x1E6 JUMPI DUP1 CALLDATALOAD PUSH1 0x1 PUSH1 0x1 PUSH1 0xA0 SHL SUB DUP2 AND SWAP2 SWAP1 DUP3 SWAP1 SUB PUSH2 0x304 JUMPI DUP5 SWAP1 PUSH1 0x24 DUP5 MLOAD DUP1 SWAP5 DUP2 SWAP4 PUSH4 0x70A08231 PUSH1 0xE0 SHL DUP4 MSTORE ADDRESS SWAP1 DUP4 ADD MSTORE GAS STATICCALL SWAP3 DUP4 ISZERO PUSH2 0x2F9 JUMPI DUP1 SWAP4 PUSH2 0x2C4 JUMPI JUMPDEST POP POP MLOAD SWAP1 DUP2 MSTORE RETURN JUMPDEST SWAP1 SWAP2 SWAP3 POP DUP4 DUP3 DUP2 RETURNDATASIZE DUP4 GT PUSH2 0x2F2 JUMPI JUMPDEST PUSH2 0x2DD DUP2 DUP4 PUSH2 0x8E1 JUMP JUMPDEST DUP2 ADD SUB SLT PUSH2 0x2EF JUMPI POP MLOAD SWAP1 DUP4 DUP1 PUSH2 0x2BC JUMP JUMPDEST DUP1 REVERT JUMPDEST POP RETURNDATASIZE PUSH2 0x2D3 JUMP JUMPDEST DUP3 MLOAD SWAP1 RETURNDATASIZE SWAP1 DUP3 RETURNDATACOPY RETURNDATASIZE SWAP1 REVERT JUMPDEST DUP4 DUP1 REVERT JUMPDEST POP CALLVALUE PUSH2 0x1E6 JUMPI DUP1 PUSH1 0x3 NOT CALLDATASIZE ADD SLT PUSH2 0x1E6 JUMPI PUSH8 0xFFFFFFFFFFFFFFFF SWAP2 DUP1 CALLDATALOAD DUP4 DUP2 GT PUSH2 0x1E2 JUMPI PUSH2 0x339 SWAP1 CALLDATASIZE SWAP1 DUP4 ADD PUSH2 0x873 JUMP JUMPDEST SWAP2 SWAP1 SWAP3 PUSH1 0x24 SWAP5 DUP6 CALLDATALOAD DUP2 DUP2 GT PUSH2 0x5A7 JUMPI PUSH2 0x355 SWAP1 CALLDATASIZE SWAP1 DUP6 ADD PUSH2 0x873 JUMP JUMPDEST PUSH1 0x5 SLOAD SWAP1 SWAP8 SWAP1 PUSH1 0x1 PUSH1 0x1 PUSH1 0xA0 SHL SUB SWAP1 DUP2 AND CALLER SUB PUSH2 0x565 JUMPI PUSH1 0x2 DUP11 SLOAD EQ PUSH2 0x532 JUMPI PUSH1 0x2 DUP11 SSTORE PUSH1 0x1 SLOAD AND SWAP5 DUP10 DUP6 MLOAD SWAP10 PUSH4 0x47400C23 PUSH1 0xE0 SHL DUP12 MSTORE PUSH1 0x20 DUP4 DUP13 ADD MSTORE DUP7 DUP12 DUP1 PUSH2 0x3A2 DUP8 DUP3 ADD DUP6 DUP11 PUSH2 0x92E JUMP JUMPDEST SUB DUP2 DUP12 GAS STATICCALL SWAP11 DUP12 ISZERO PUSH2 0x528 JUMPI DUP3 SWAP12 PUSH2 0x4B0 JUMPI JUMPDEST POP DUP8 EXTCODESIZE ISZERO PUSH2 0x213 JUMPI DUP11 SWAP8 PUSH1 0x20 SWAP6 DUP4 PUSH2 0x3EA SWAP4 DUP11 MLOAD SWAP9 DUP10 SWAP6 DUP7 SWAP5 DUP6 SWAP4 PUSH4 0xD3B7E04D PUSH1 0xE0 SHL DUP6 MSTORE PUSH1 0x60 DUP12 DUP7 ADD MSTORE PUSH1 0x64 DUP6 ADD SWAP2 PUSH2 0x92E JUMP JUMPDEST SWAP13 DUP12 DUP2 MLOAD AND DUP11 DUP5 ADD MSTORE ADD SWAP12 DUP11 DUP14 MLOAD AND PUSH1 0x44 DUP4 ADD MSTORE SUB SWAP3 GAS CALL DUP1 ISZERO PUSH2 0x4A6 JUMPI PUSH2 0x462 JUMPI JUMPDEST POP POP POP DUP1 PUSH32 0x68C1ACCACC7C3DC1F5BCA758E0EAE5EF3B3063F1AB0A1DF0AC05FC171CD9F506 SWAP7 MLOAD AND SWAP3 MLOAD AND SWAP1 PUSH2 0x44F DUP2 MLOAD SWAP6 DUP7 SWAP6 PUSH1 0x60 DUP8 MSTORE PUSH1 0x60 DUP8 ADD SWAP2 PUSH2 0x92E JUMP JUMPDEST SWAP3 PUSH1 0x20 DUP6 ADD MSTORE DUP4 ADD MSTORE SUB SWAP1 LOG1 PUSH1 0x1 DUP2 SSTORE DUP1 RETURN JUMPDEST DUP4 DUP4 GT PUSH2 0x495 JUMPI POP POP DUP3 MSTORE DUP1 PUSH32 0x68C1ACCACC7C3DC1F5BCA758E0EAE5EF3B3063F1AB0A1DF0AC05FC171CD9F506 CODESIZE PUSH2 0x40D JUMP JUMPDEST PUSH4 0x4E487B71 PUSH1 0xE0 SHL DUP11 MSTORE PUSH1 0x41 SWAP1 MSTORE DUP9 REVERT JUMPDEST DUP6 MLOAD RETURNDATASIZE DUP13 DUP3 RETURNDATACOPY RETURNDATASIZE SWAP1 REVERT JUMPDEST DUP8 DUP1 SWAP3 SWAP13 POP DUP2 SWAP4 POP RETURNDATASIZE DUP4 GT PUSH2 0x521 JUMPI JUMPDEST PUSH2 0x4CA DUP2 DUP4 PUSH2 0x8E1 JUMP JUMPDEST DUP2 ADD SUB SLT PUSH2 0x51D JUMPI DUP6 MLOAD SWAP1 DUP7 DUP3 ADD DUP3 DUP2 LT DUP8 DUP3 GT OR PUSH2 0x50B JUMPI PUSH1 0x20 DUP14 SWAP4 SWAP3 PUSH2 0x4FF SWAP3 DUP11 MSTORE PUSH2 0x4F7 DUP2 PUSH2 0x919 JUMP JUMPDEST DUP5 MSTORE ADD PUSH2 0x919 JUMP JUMPDEST PUSH1 0x20 DUP3 ADD MSTORE SWAP10 CODESIZE PUSH2 0x3B5 JUMP JUMPDEST PUSH4 0x4E487B71 PUSH1 0xE0 SHL DUP14 MSTORE PUSH1 0x41 DUP5 MSTORE DUP5 DUP14 REVERT JUMPDEST DUP11 DUP1 REVERT JUMPDEST POP RETURNDATASIZE PUSH2 0x4C0 JUMP JUMPDEST DUP8 MLOAD RETURNDATASIZE DUP5 DUP3 RETURNDATACOPY RETURNDATASIZE SWAP1 REVERT JUMPDEST DUP5 MLOAD PUSH3 0x461BCD PUSH1 0xE5 SHL DUP2 MSTORE PUSH1 0x20 DUP2 DUP9 ADD MSTORE PUSH1 0xE DUP2 DUP5 ADD MSTORE PUSH14 0x1C99595B9D1C985B9D0818D85B1B PUSH1 0x92 SHL PUSH1 0x44 DUP3 ADD MSTORE PUSH1 0x64 SWAP1 REVERT JUMPDEST DUP5 MLOAD PUSH3 0x461BCD PUSH1 0xE5 SHL DUP2 MSTORE PUSH1 0x20 DUP2 DUP9 ADD DUP2 SWAP1 MSTORE DUP2 DUP5 ADD MSTORE PUSH32 0x546573736572616374436F6D707574653A206E6F7420617574686F72697A6564 PUSH1 0x44 DUP3 ADD MSTORE PUSH1 0x64 SWAP1 REVERT JUMPDEST DUP8 DUP1 REVERT JUMPDEST POP SWAP1 CALLVALUE PUSH2 0x1E6 JUMPI DUP3 PUSH1 0x3 NOT CALLDATASIZE ADD SLT PUSH2 0x1E6 JUMPI PUSH1 0x2 SLOAD DUP3 MLOAD PUSH4 0x8D29DFFB PUSH1 0xE0 SHL DUP2 MSTORE PUSH1 0x1 PUSH1 0x1 PUSH1 0xA0 SHL SUB SWAP1 SWAP2 AND SWAP3 SWAP1 DUP2 DUP2 DUP5 DUP2 DUP8 GAS STATICCALL SWAP4 DUP5 ISZERO PUSH2 0x66D JUMPI DUP6 SWAP2 DUP7 SWAP6 PUSH2 0x677 JUMPI JUMPDEST POP PUSH1 0x20 SWAP1 DUP4 MLOAD SWAP5 DUP6 DUP1 SWAP3 PUSH4 0x6DB5EE45 PUSH1 0xE1 SHL DUP3 MSTORE GAS STATICCALL SWAP3 DUP4 ISZERO PUSH2 0x66D JUMPI DUP6 SWAP4 PUSH2 0x635 JUMPI JUMPDEST POP PUSH1 0x60 SWAP5 POP DUP2 MLOAD SWAP4 PUSH8 0xFFFFFFFFFFFFFFFF DUP1 SWAP3 AND DUP6 MSTORE AND PUSH1 0x20 DUP5 ADD MSTORE DUP3 ADD MSTORE RETURN JUMPDEST SWAP1 SWAP3 POP PUSH1 0x20 DUP2 RETURNDATASIZE PUSH1 0x20 GT PUSH2 0x665 JUMPI JUMPDEST DUP2 PUSH2 0x651 PUSH1 0x20 SWAP4 DUP4 PUSH2 0x8E1 JUMP JUMPDEST DUP2 ADD SUB SLT PUSH2 0x1E2 JUMPI PUSH1 0x60 SWAP5 POP MLOAD SWAP2 CODESIZE PUSH2 0x614 JUMP JUMPDEST RETURNDATASIZE SWAP2 POP PUSH2 0x644 JUMP JUMPDEST DUP3 MLOAD RETURNDATASIZE DUP8 DUP3 RETURNDATACOPY RETURNDATASIZE SWAP1 REVERT JUMPDEST DUP4 DUP1 SWAP3 SWAP7 POP DUP2 SWAP4 POP RETURNDATASIZE DUP4 GT PUSH2 0x6B6 JUMPI JUMPDEST PUSH2 0x691 DUP2 DUP4 PUSH2 0x8E1 JUMP JUMPDEST DUP2 ADD SUB SLT PUSH2 0x1E2 JUMPI PUSH1 0x20 PUSH2 0x6AF DUP2 PUSH2 0x6A8 DUP5 PUSH2 0x919 JUMP JUMPDEST SWAP4 ADD PUSH2 0x919 JUMP JUMPDEST SWAP5 SWAP1 PUSH2 0x5F0 JUMP JUMPDEST POP RETURNDATASIZE PUSH2 0x687 JUMP JUMPDEST POP DUP3 SWAP1 CALLVALUE PUSH2 0x213 JUMPI PUSH1 0x20 CALLDATASIZE PUSH1 0x3 NOT ADD SLT PUSH2 0x213 JUMPI PUSH8 0xFFFFFFFFFFFFFFFF SWAP3 DUP1 CALLDATALOAD DUP5 DUP2 GT PUSH2 0x304 JUMPI CALLDATASIZE PUSH1 0x23 DUP3 ADD SLT ISZERO PUSH2 0x304 JUMPI DUP1 DUP3 ADD CALLDATALOAD SWAP4 DUP6 DUP6 GT PUSH2 0x2EF JUMPI PUSH1 0x24 SWAP1 PUSH1 0x24 DUP4 ADD SWAP3 PUSH1 0x24 CALLDATASIZE SWAP2 DUP9 PUSH1 0x5 SHL ADD ADD GT PUSH2 0x2EF JUMPI DUP6 ISZERO PUSH2 0x7E2 JUMPI PUSH2 0x723 DUP4 SWAP5 SWAP4 PUSH2 0x8CC JUMP JUMPDEST SWAP3 DUP2 SWAP5 PUSH1 0x1 SWAP5 DUP6 PUSH1 0x1 SWAP1 JUMPDEST PUSH2 0x76F JUMPI JUMPDEST POP PUSH1 0x20 DUP10 DUP10 PUSH32 0xA09FCB56AB43E960547F7838F205928F23720DFF952E73A8CE1C7F1DD8160923 DUP2 DUP12 DUP16 DUP3 MLOAD SWAP2 AND SWAP5 DUP6 DUP3 MSTORE DUP7 DUP3 ADD MSTORE LOG1 MLOAD SWAP1 DUP2 MSTORE RETURN JUMPDEST DUP11 DUP2 AND DUP11 DUP2 LT ISZERO PUSH2 0x7DC JUMPI SWAP1 DUP2 PUSH2 0x790 PUSH2 0x78B DUP15 SWAP5 DUP15 DUP9 PUSH2 0x8A6 JUMP JUMPDEST PUSH2 0x8CC JUMP JUMPDEST DUP4 DUP1 DUP7 AND SWAP2 AND GT PUSH2 0x7C0 JUMPI JUMPDEST POP AND DUP11 DUP2 EQ PUSH2 0x7AD JUMPI DUP7 ADD DUP7 PUSH2 0x72E JUMP JUMPDEST POP POP PUSH4 0x4E487B71 PUSH1 0xE0 SHL DUP4 MSTORE POP PUSH1 0x11 SWAP1 MSTORE REVERT JUMPDEST SWAP1 SWAP9 POP PUSH2 0x7D4 SWAP3 POP PUSH2 0x78B SWAP2 POP DUP11 DUP5 PUSH2 0x8A6 JUMP JUMPDEST DUP10 DUP8 DUP13 PUSH2 0x79C JUMP JUMPDEST POP PUSH2 0x733 JUMP JUMPDEST DUP5 MLOAD PUSH3 0x461BCD PUSH1 0xE5 SHL DUP2 MSTORE PUSH1 0x20 DUP2 DUP7 ADD MSTORE PUSH1 0x1C PUSH1 0x24 DUP3 ADD MSTORE PUSH32 0x546573736572616374436F6D707574653A20656D707479206170727300000000 PUSH1 0x44 DUP3 ADD MSTORE PUSH1 0x64 SWAP1 REVERT JUMPDEST DUP4 DUP3 CALLVALUE PUSH2 0x213 JUMPI DUP2 PUSH1 0x3 NOT CALLDATASIZE ADD SLT PUSH2 0x213 JUMPI PUSH1 0x3 SLOAD SWAP1 MLOAD PUSH1 0x1 PUSH1 0x1 PUSH1 0xA0 SHL SUB SWAP1 SWAP2 AND DUP2 MSTORE PUSH1 0x20 SWAP1 RETURN JUMPDEST DUP5 SWAP1 CALLVALUE PUSH2 0x213 JUMPI DUP2 PUSH1 0x3 NOT CALLDATASIZE ADD SLT PUSH2 0x213 JUMPI PUSH1 0x1 SLOAD PUSH1 0x1 PUSH1 0x1 PUSH1 0xA0 SHL SUB AND DUP2 MSTORE PUSH1 0x20 SWAP1 RETURN JUMPDEST SWAP2 DUP2 PUSH1 0x1F DUP5 ADD SLT ISZERO PUSH2 0x8A1 JUMPI DUP3 CALLDATALOAD SWAP2 PUSH8 0xFFFFFFFFFFFFFFFF DUP4 GT PUSH2 0x8A1 JUMPI PUSH1 0x20 DUP4 DUP2 DUP7 ADD SWAP6 ADD ADD GT PUSH2 0x8A1 JUMPI JUMP JUMPDEST PUSH1 0x0 DUP1 REVERT JUMPDEST SWAP2 SWAP1 DUP2 LT ISZERO PUSH2 0x8B6 JUMPI PUSH1 0x5 SHL ADD SWAP1 JUMP JUMPDEST PUSH4 0x4E487B71 PUSH1 0xE0 SHL PUSH1 0x0 MSTORE PUSH1 0x32 PUSH1 0x4 MSTORE PUSH1 0x24 PUSH1 0x0 REVERT JUMPDEST CALLDATALOAD PUSH8 0xFFFFFFFFFFFFFFFF DUP2 AND DUP2 SUB PUSH2 0x8A1 JUMPI SWAP1 JUMP JUMPDEST SWAP1 PUSH1 0x1F DUP1 NOT SWAP2 ADD AND DUP2 ADD SWAP1 DUP2 LT PUSH8 0xFFFFFFFFFFFFFFFF DUP3 GT OR PUSH2 0x903 JUMPI PUSH1 0x40 MSTORE JUMP JUMPDEST PUSH4 0x4E487B71 PUSH1 0xE0 SHL PUSH1 0x0 MSTORE PUSH1 0x41 PUSH1 0x4 MSTORE PUSH1 0x24 PUSH1 0x0 REVERT JUMPDEST MLOAD SWAP1 PUSH8 0xFFFFFFFFFFFFFFFF DUP3 AND DUP3 SUB PUSH2 0x8A1 JUMPI JUMP JUMPDEST SWAP1 DUP1 PUSH1 0x20 SWAP4 SWAP3 DUP2 DUP5 MSTORE DUP5 DUP5 ADD CALLDATACOPY PUSH1 0x0 DUP3 DUP3 ADD DUP5 ADD MSTORE PUSH1 0x1F ADD PUSH1 0x1F NOT AND ADD ADD SWAP1 JUMP INVALID LOG2 PUSH5 0x6970667358 0x22 SLT KECCAK256 SLT 0xB3 0xB0 0xB1 DUP3 0xC5 AND 0xE2 PUSH13 0x331A4F9BFCAA410DBF60170E49 BASEFEE XOR PUSH28 0xF9A151D7F827B964736F6C6343000818003300000000000000000000 "},"methodIdentifiers":{"authorizedCaller()":"97dc97cb","getAssetBalance(address)":"5373433f","getBestStrategy(uint64[])":"2651bae7","owner()":"8da5cb5b","routeToParachain(bytes,bytes)":"2f22b5ef","setAuthorizedCaller(address)":"cf8fbec9","systemInfo()":"2a12408e","systemPrecompile()":"ceff3e48","vaultContract()":"2274346b","xcmPrecompile()":"1021764e"}}}}}