{"abi":[{"type":"constructor","inputs":[{"name":"_mUSDC","type":"address","internalType":"address"},{"name":"_relayer","type":"address","internalType":"address"}],"stateMutability":"nonpayable"},{"type":"function","name":"deposits","inputs":[{"name":"","type":"bytes32","internalType":"bytes32"}],"outputs":[{"name":"sourceChainId","type":"uint32","internalType":"uint32"},{"name":"sourceUser","type":"address","internalType":"address"},{"name":"hubRecipient","type":"address","internalType":"address"},{"name":"ethAmount","type":"uint256","internalType":"uint256"},{"name":"mUSDCMinted","type":"uint256","internalType":"uint256"},{"name":"timestamp","type":"uint256","internalType":"uint256"},{"name":"redeemed","type":"bool","internalType":"bool"}],"stateMutability":"view"},{"type":"function","name":"getUserDeposits","inputs":[{"name":"user","type":"address","internalType":"address"}],"outputs":[{"name":"","type":"bytes32[]","internalType":"bytes32[]"}],"stateMutability":"view"},{"type":"function","name":"initiateRedeem","inputs":[{"name":"sourceTxHash","type":"bytes32","internalType":"bytes32"},{"name":"redeemAmount","type":"uint256","internalType":"uint256"}],"outputs":[],"stateMutability":"nonpayable"},{"type":"function","name":"mUSDC","inputs":[],"outputs":[{"name":"","type":"address","internalType":"address"}],"stateMutability":"view"},{"type":"function","name":"owner","inputs":[],"outputs":[{"name":"","type":"address","internalType":"address"}],"stateMutability":"view"},{"type":"function","name":"processDeposit","inputs":[{"name":"sourceTxHash","type":"bytes32","internalType":"bytes32"},{"name":"hubRecipient","type":"address","internalType":"address"},{"name":"sourceUser","type":"address","internalType":"address"},{"name":"ethAmount","type":"uint256","internalType":"uint256"},{"name":"mUSDCOut","type":"uint256","internalType":"uint256"},{"name":"sourceChainId","type":"uint32","internalType":"uint32"}],"outputs":[],"stateMutability":"nonpayable"},{"type":"function","name":"relayer","inputs":[],"outputs":[{"name":"","type":"address","internalType":"address"}],"stateMutability":"view"},{"type":"function","name":"setRelayer","inputs":[{"name":"newRelayer","type":"address","internalType":"address"}],"outputs":[],"stateMutability":"nonpayable"},{"type":"event","name":"DepositProcessed","inputs":[{"name":"sourceTxHash","type":"bytes32","indexed":true,"internalType":"bytes32"},{"name":"hubRecipient","type":"address","indexed":true,"internalType":"address"},{"name":"mUSDCMinted","type":"uint256","indexed":false,"internalType":"uint256"},{"name":"sourceChainId","type":"uint32","indexed":false,"internalType":"uint32"}],"anonymous":false},{"type":"event","name":"Redeemed","inputs":[{"name":"sourceTxHash","type":"bytes32","indexed":true,"internalType":"bytes32"},{"name":"user","type":"address","indexed":true,"internalType":"address"},{"name":"amount","type":"uint256","indexed":false,"internalType":"uint256"}],"anonymous":false},{"type":"event","name":"RelayerUpdated","inputs":[{"name":"newRelayer","type":"address","indexed":true,"internalType":"address"}],"anonymous":false},{"type":"error","name":"AlreadyProcessed","inputs":[]},{"type":"error","name":"AlreadyRedeemed","inputs":[]},{"type":"error","name":"InvalidRedeemAmount","inputs":[]},{"type":"error","name":"NotDepositRecipient","inputs":[]},{"type":"error","name":"NotOwner","inputs":[]},{"type":"error","name":"NotRelayer","inputs":[]},{"type":"error","name":"UnknownDeposit","inputs":[]},{"type":"error","name":"ZeroAddress","inputs":[]},{"type":"error","name":"ZeroOut","inputs":[]},{"type":"error","name":"ZeroRecipient","inputs":[]},{"type":"error","name":"ZeroSourceUser","inputs":[]}],"bytecode":{"object":"0x60c0346100cc57601f61091538819003918201601f19168301916001600160401b038311848410176100d05780849260409485528339810103126100cc57610052602061004b836100e4565b92016100e4565b6001600160a01b0390828216156100ba57169081156100ba573360805260a0525f80546001600160a01b03191691909117905560405161081c90816100f9823960805181818161029d01526105ea015260a051818181608d01528181610158015261047c0152f35b60405163d92e233d60e01b8152600490fd5b5f80fd5b634e487b7160e01b5f52604160045260245ffd5b51906001600160a01b03821682036100cc5756fe6080604081815260049182361015610015575f80fd5b5f925f3560e01c9182632a5bf6d2146106f0575081633d4dff7b146106745781636548e9bc146105c45781637951fe2b146102f45781638406c079146102cc5781638da5cb5b14610288578163926581a9146100c0575063f89ec5f51461007a575f80fd5b346100bc57816003193601126100bc57517f00000000000000000000000000000000000000000000000000000000000000006001600160a01b03168152602090f35b5080fd5b905034610284578160031936011261028457803590602435928285526020916001835281862081810154156102755760058101805460ff81166102655760018301546001600160a01b03939084163303610255578815908115610247575b506102375760ff1916600117905582516323b872dd60e01b8152338382015230602482015260448101879052908490829060649082908b907f0000000000000000000000000000000000000000000000000000000000000000165af190811561022d5787916101f3575b50156101bc5750907f61d905e697374527439f5c64f060ae521e3b586e8f61ef3f160057e7150e153e91519384523393a380f35b82606492519162461bcd60e51b835282015260136024820152721d1c985b9cd9995c919c9bdb4819985a5b1959606a1b6044820152fd5b90508381813d8311610226575b61020a81836107b0565b8101031261022257518015158103610222575f610188565b8680fd5b503d610200565b83513d89823e3d90fd5b845163918e94c560e01b81528490fd5b60039150015488115f61011e565b85516331dd141f60e11b81528590fd5b84516306d3830f60e21b81528490fd5b5090516305fcb45960e31b8152fd5b8280fd5b5050346100bc57816003193601126100bc57517f00000000000000000000000000000000000000000000000000000000000000006001600160a01b03168152602090f35b5050346100bc57816003193601126100bc57905490516001600160a01b039091168152602090f35b8391503461053b5760c036600319011261053b5760249283356001600160a01b03818116938035939285900361053b5760443582811680910361053b576084359260a4359263ffffffff9182851680950361053b57805f541633036105b557875f526020936001855282885f2001546105a55789156105955780156105855786156105755787519060e082019467ffffffffffffffff958381108782111761056357898b8e6005958f97958c9584528d87528587019182528387019283526060870193606435855260808801958652600160a089019742895260c08a019b5f8d525f52525f209651168654918d640100000000600160c01b039151901b169167ffffffffffffffff60c01b161717855587600186019151166bffffffffffffffffffffffff60a01b8254161790555160028401555160038301555185820155019051151560ff80198354169116179055885f5260028452865f2080549068010000000000000000821015610551576001820180825582101561053f579089915f52855f2001557f00000000000000000000000000000000000000000000000000000000000000001691823b1561053b575f8b60448b838a978c5198899586946340c10f1960e01b86528a8601528401525af1801561053157610503575b50508451938452508201527f92b62b9a2841bdd1903dc95fd880d6402b6f0c51dec71aa67931f2f7dba3353f9190a380f35b9091809399501161051f575083529495505f94868880806104d1565b60418991634e487b7160e01b5f52525ffd5b87513d5f823e3d90fd5b5f80fd5b8c603285634e487b7160e01b5f52525ffd5b8c604185634e487b7160e01b5f52525ffd5b8e604187634e487b7160e01b5f52525ffd5b8751631078b53360e01b81528390fd5b875163fa8fa11960e01b81528390fd5b875163d27b444360e01b81528390fd5b8751632bf773b360e11b81528390fd5b50855163c64891a560e01b8152fd5b90503461053b57602036600319011261053b576105df61079a565b6001600160a01b03907f00000000000000000000000000000000000000000000000000000000000000008216330361066457169182156106575782806bffffffffffffffffffffffff60a01b5f5416175f557f09bf35b7806e61e7baf86e6547c4221f69d130ccc0a19215d064685a89464a705f80a2005b5163d92e233d60e01b8152fd5b83516330cd747160e01b81528390fd5b90503461053b57602036600319011261053b5760e09181355f526001602052805f2080549260018060a01b03928360018401541660028401549160ff6005600387015495870154960154169581519763ffffffff8116895260201c1660208801528601526060850152608084015260a0830152151560c0820152f35b83903461053b576020908160031936011261053b5791906001600160a01b0361071761079a565b165f5260028152815f209081548085528185019081935f52825f20905f5b818110610786575050508461074b9103856107b0565b825181815293518185018190528493840192915f5b82811061076f57505050500390f35b835185528695509381019392810192600101610760565b825484529284019260019283019201610735565b600435906001600160a01b038216820361053b57565b90601f8019910116810190811067ffffffffffffffff8211176107d257604052565b634e487b7160e01b5f52604160045260245ffdfea264697066735822122028a2d7cc64843bc71268c12f885007ee12adbbeb450ff453fb2a4bf9f777086b64736f6c63430008180033","linkReferences":{}},"methodIdentifiers":{"deposits(bytes32)":"3d4dff7b","getUserDeposits(address)":"2a5bf6d2","initiateRedeem(bytes32,uint256)":"926581a9","mUSDC()":"f89ec5f5","owner()":"8da5cb5b","processDeposit(bytes32,address,address,uint256,uint256,uint32)":"7951fe2b","relayer()":"8406c079","setRelayer(address)":"6548e9bc"},"id":3}