{"abi":[{"type":"constructor","inputs":[{"name":"initialPrice","type":"int256","internalType":"int256"}],"stateMutability":"nonpayable"},{"type":"function","name":"crash","inputs":[{"name":"crashPrice","type":"int256","internalType":"int256"}],"outputs":[],"stateMutability":"nonpayable"},{"type":"function","name":"crashed","inputs":[],"outputs":[{"name":"","type":"bool","internalType":"bool"}],"stateMutability":"view"},{"type":"function","name":"decimals","inputs":[],"outputs":[{"name":"","type":"uint8","internalType":"uint8"}],"stateMutability":"pure"},{"type":"function","name":"isCrashed","inputs":[],"outputs":[{"name":"","type":"bool","internalType":"bool"}],"stateMutability":"view"},{"type":"function","name":"latestPrice","inputs":[],"outputs":[{"name":"","type":"int256","internalType":"int256"}],"stateMutability":"view"},{"type":"function","name":"latestRoundData","inputs":[],"outputs":[{"name":"","type":"uint80","internalType":"uint80"},{"name":"","type":"int256","internalType":"int256"},{"name":"","type":"uint256","internalType":"uint256"},{"name":"","type":"uint256","internalType":"uint256"},{"name":"","type":"uint80","internalType":"uint80"}],"stateMutability":"view"},{"type":"function","name":"normalPrice","inputs":[],"outputs":[{"name":"","type":"int256","internalType":"int256"}],"stateMutability":"view"},{"type":"function","name":"owner","inputs":[],"outputs":[{"name":"","type":"address","internalType":"address"}],"stateMutability":"view"},{"type":"function","name":"recover","inputs":[],"outputs":[],"stateMutability":"nonpayable"},{"type":"function","name":"renounceOwnership","inputs":[],"outputs":[],"stateMutability":"nonpayable"},{"type":"function","name":"roundId","inputs":[],"outputs":[{"name":"","type":"uint80","internalType":"uint80"}],"stateMutability":"view"},{"type":"function","name":"setPrice","inputs":[{"name":"price","type":"int256","internalType":"int256"}],"outputs":[],"stateMutability":"nonpayable"},{"type":"function","name":"transferOwnership","inputs":[{"name":"newOwner","type":"address","internalType":"address"}],"outputs":[],"stateMutability":"nonpayable"},{"type":"function","name":"updatedAt","inputs":[],"outputs":[{"name":"","type":"uint256","internalType":"uint256"}],"stateMutability":"view"},{"type":"event","name":"CrashInjected","inputs":[{"name":"crashPrice","type":"int256","indexed":false,"internalType":"int256"}],"anonymous":false},{"type":"event","name":"OwnershipTransferred","inputs":[{"name":"previousOwner","type":"address","indexed":true,"internalType":"address"},{"name":"newOwner","type":"address","indexed":true,"internalType":"address"}],"anonymous":false},{"type":"event","name":"PriceRecovered","inputs":[{"name":"restoredPrice","type":"int256","indexed":false,"internalType":"int256"}],"anonymous":false},{"type":"event","name":"PriceUpdated","inputs":[{"name":"price","type":"int256","indexed":false,"internalType":"int256"},{"name":"roundId","type":"uint80","indexed":false,"internalType":"uint80"},{"name":"updatedAt","type":"uint256","indexed":false,"internalType":"uint256"}],"anonymous":false},{"type":"error","name":"OwnableInvalidOwner","inputs":[{"name":"owner","type":"address","internalType":"address"}]},{"type":"error","name":"OwnableUnauthorizedAccount","inputs":[{"name":"account","type":"address","internalType":"address"}]}],"bytecode":{"object":"0x60803461010a57601f61074738819003918201601f19168301916001600160401b0383118484101761010e5780849260209460405283398101031261010a575133156100f2575f8054336001600160a01b03198216811783556040519290916001600160a01b0316907f8be0079c531659141344cd1fd0a4f28419497f9722a3daafe3b4186f6b6457e09080a35f8213156100c0575080600155600255426003556001808060501b0319600454161760045560405161062490816101238239f35b62461bcd60e51b815260206004820152600d60248201526c696e76616c696420707269636560981b6044820152606490fd5b604051631e4fbdf760e01b81525f6004820152602490fd5b5f80fd5b634e487b7160e01b5f52604160045260245ffdfe6080604081815260049182361015610015575f80fd5b5f3560e01c908163313ce5671461057e575080635de4849c1461055a5780636790ed171461055a578063715018a6146105035780637519ab50146104e55780638cd221c9146104c05780638da5cb5b14610499578063945ec9dd1461047b578063a3e6ba941461045d578063ce746024146103a4578063f2fde38b14610315578063f7a3080614610214578063fcc8a5e1146100fd5763feaf968c146100b9575f80fd5b346100f9575f3660031901126100f9576001600160501b0360a0925416600154916003548181925194848652602086015284015260608301526080820152f35b5f80fd5b5090346100f95760203660031901126100f95780359061011b6105c3565b805460ff8160501c166101df575f8313806101d4575b1561019b576001839055426003557fdb2d0d5963c52a84117f5d7ed37b4cb2a956bfe9eb253de6dccab32a510db08193602093929091600160501b906001600160501b03610180818316610597565b16906affffffffffffffffffffff19161717905551908152a1005b835162461bcd60e51b81526020818401526013602482015272696e76616c696420637261736820707269636560681b6044820152606490fd5b506001548312610131565b835162461bcd60e51b8152602081840152600f60248201526e185b1c9958591e4818dc985cda1959608a1b6044820152606490fd5b5090346100f95760203660031901126100f9578035906102326105c3565b80549060ff8260501c166102e3575f8313156102b0579282917fb6984bf8cf976e6d4cf6771258c1e9ebe943bfb715c27a34b80b6319235e44689460609460025583600155426003556001600160501b0361028e818416610597565b1680926001600160501b031916179055815192835260208301524290820152a1005b606490602085519162461bcd60e51b8352820152600d60248201526c696e76616c696420707269636560981b6044820152fd5b606490602085519162461bcd60e51b8352820152600c60248201526b63726173682061637469766560a01b6044820152fd5b50346100f95760203660031901126100f9576001600160a01b038235818116939192908490036100f9576103476105c3565b831561038e5750505f54826bffffffffffffffffffffffff60a01b8216175f55167f8be0079c531659141344cd1fd0a4f28419497f9722a3daafe3b4186f6b6457e05f80a3005b905f6024925191631e4fbdf760e01b8352820152fd5b5090346100f9575f3660031901126100f9576103be6105c3565b80549060ff8260501c161561042c57907fd2caa9a74534e3a84115344df5f204a68080bdf2e427f7540990003f6b884e85926020926002549283600155426003556001600160501b03610412818316610597565b16906affffffffffffffffffffff191617905551908152a1005b606490602084519162461bcd60e51b8352820152600b60248201526a1b9bdd0818dc985cda195960aa1b6044820152fd5b50346100f9575f3660031901126100f9576020906001549051908152f35b50346100f9575f3660031901126100f9576020906002549051908152f35b50346100f9575f3660031901126100f9575f5490516001600160a01b039091168152602090f35b50346100f9575f3660031901126100f9576001600160501b0360209254169051908152f35b50346100f9575f3660031901126100f9576020906003549051908152f35b346100f9575f3660031901126100f95761051b6105c3565b5f80546001600160a01b0319811682556001600160a01b03167f8be0079c531659141344cd1fd0a4f28419497f9722a3daafe3b4186f6b6457e08280a3005b50346100f9575f3660031901126100f95760ff6020925460501c1690519015158152f35b346100f9575f3660031901126100f95780600860209252f35b9060016001600160501b03809316019182116105af57565b634e487b7160e01b5f52601160045260245ffd5b5f546001600160a01b031633036105d657565b60405163118cdaa760e01b8152336004820152602490fdfea2646970667358221220f5167fb27bbe30e6ed341a0c410cc69a556c9647badf36cea4e250c773b776cb64736f6c63430008180033","linkReferences":{}},"methodIdentifiers":{"crash(int256)":"fcc8a5e1","crashed()":"5de4849c","decimals()":"313ce567","isCrashed()":"6790ed17","latestPrice()":"a3e6ba94","latestRoundData()":"feaf968c","normalPrice()":"945ec9dd","owner()":"8da5cb5b","recover()":"ce746024","renounceOwnership()":"715018a6","roundId()":"8cd221c9","setPrice(int256)":"f7a30806","transferOwnership(address)":"f2fde38b","updatedAt()":"7519ab50"},"id":8}