{
  "_format": "hh-sol-artifact-1",
  "contractName": "TesseractSwap",
  "sourceName": "evm/TesseractSwap.sol",
  "abi": [
    {
      "inputs": [
        {
          "internalType": "address",
          "name": "_xcmPrecompile",
          "type": "address"
        },
        {
          "internalType": "address",
          "name": "_systemPrecompile",
          "type": "address"
        }
      ],
      "stateMutability": "nonpayable",
      "type": "constructor"
    },
    {
      "inputs": [],
      "name": "ReentrancyGuardReentrantCall",
      "type": "error"
    },
    {
      "anonymous": false,
      "inputs": [
        {
          "indexed": true,
          "internalType": "uint32",
          "name": "assetId",
          "type": "uint32"
        },
        {
          "indexed": false,
          "internalType": "address",
          "name": "precompileAddr",
          "type": "address"
        }
      ],
      "name": "AssetRegistered",
      "type": "event"
    },
    {
      "anonymous": false,
      "inputs": [
        {
          "indexed": true,
          "internalType": "address",
          "name": "sender",
          "type": "address"
        },
        {
          "indexed": false,
          "internalType": "uint32",
          "name": "assetIdOut",
          "type": "uint32"
        },
        {
          "indexed": false,
          "internalType": "uint256",
          "name": "amountOut",
          "type": "uint256"
        },
        {
          "indexed": false,
          "internalType": "bytes",
          "name": "xcmDestination",
          "type": "bytes"
        }
      ],
      "name": "BridgeXCM",
      "type": "event"
    },
    {
      "anonymous": false,
      "inputs": [
        {
          "indexed": true,
          "internalType": "address",
          "name": "provider",
          "type": "address"
        },
        {
          "indexed": true,
          "internalType": "bytes32",
          "name": "poolId",
          "type": "bytes32"
        },
        {
          "indexed": false,
          "internalType": "uint256",
          "name": "shares",
          "type": "uint256"
        }
      ],
      "name": "LiquidityAdded",
      "type": "event"
    },
    {
      "anonymous": false,
      "inputs": [
        {
          "indexed": true,
          "internalType": "address",
          "name": "provider",
          "type": "address"
        },
        {
          "indexed": true,
          "internalType": "bytes32",
          "name": "poolId",
          "type": "bytes32"
        },
        {
          "indexed": false,
          "internalType": "uint256",
          "name": "shares",
          "type": "uint256"
        }
      ],
      "name": "LiquidityRemoved",
      "type": "event"
    },
    {
      "anonymous": false,
      "inputs": [
        {
          "indexed": true,
          "internalType": "address",
          "name": "sender",
          "type": "address"
        },
        {
          "indexed": false,
          "internalType": "uint32",
          "name": "assetIdIn",
          "type": "uint32"
        },
        {
          "indexed": false,
          "internalType": "uint32",
          "name": "assetIdOut",
          "type": "uint32"
        },
        {
          "indexed": false,
          "internalType": "uint256",
          "name": "amountIn",
          "type": "uint256"
        },
        {
          "indexed": false,
          "internalType": "uint256",
          "name": "amountOut",
          "type": "uint256"
        }
      ],
      "name": "Swap",
      "type": "event"
    },
    {
      "inputs": [
        {
          "internalType": "uint32",
          "name": "assetA",
          "type": "uint32"
        },
        {
          "internalType": "uint32",
          "name": "assetB",
          "type": "uint32"
        },
        {
          "internalType": "uint256",
          "name": "amountA",
          "type": "uint256"
        },
        {
          "internalType": "uint256",
          "name": "amountB",
          "type": "uint256"
        }
      ],
      "name": "addLiquidity",
      "outputs": [
        {
          "internalType": "uint256",
          "name": "shares",
          "type": "uint256"
        }
      ],
      "stateMutability": "nonpayable",
      "type": "function"
    },
    {
      "inputs": [
        {
          "internalType": "uint32",
          "name": "",
          "type": "uint32"
        }
      ],
      "name": "assetPrecompile",
      "outputs": [
        {
          "internalType": "address",
          "name": "",
          "type": "address"
        }
      ],
      "stateMutability": "view",
      "type": "function"
    },
    {
      "inputs": [
        {
          "internalType": "uint32",
          "name": "assetA",
          "type": "uint32"
        },
        {
          "internalType": "uint32",
          "name": "assetB",
          "type": "uint32"
        }
      ],
      "name": "getPoolId",
      "outputs": [
        {
          "internalType": "bytes32",
          "name": "",
          "type": "bytes32"
        }
      ],
      "stateMutability": "view",
      "type": "function"
    },
    {
      "inputs": [
        {
          "internalType": "bytes32",
          "name": "poolId",
          "type": "bytes32"
        },
        {
          "internalType": "address",
          "name": "user",
          "type": "address"
        }
      ],
      "name": "getPoolShares",
      "outputs": [
        {
          "internalType": "uint256",
          "name": "",
          "type": "uint256"
        }
      ],
      "stateMutability": "view",
      "type": "function"
    },
    {
      "inputs": [
        {
          "internalType": "uint32",
          "name": "assetA",
          "type": "uint32"
        },
        {
          "internalType": "uint32",
          "name": "assetB",
          "type": "uint32"
        }
      ],
      "name": "getReserves",
      "outputs": [
        {
          "internalType": "uint256",
          "name": "reserveA",
          "type": "uint256"
        },
        {
          "internalType": "uint256",
          "name": "reserveB",
          "type": "uint256"
        }
      ],
      "stateMutability": "view",
      "type": "function"
    },
    {
      "inputs": [],
      "name": "owner",
      "outputs": [
        {
          "internalType": "address",
          "name": "",
          "type": "address"
        }
      ],
      "stateMutability": "view",
      "type": "function"
    },
    {
      "inputs": [
        {
          "internalType": "bytes32",
          "name": "",
          "type": "bytes32"
        }
      ],
      "name": "pools",
      "outputs": [
        {
          "internalType": "uint256",
          "name": "reserveA",
          "type": "uint256"
        },
        {
          "internalType": "uint256",
          "name": "reserveB",
          "type": "uint256"
        },
        {
          "internalType": "uint256",
          "name": "totalShares",
          "type": "uint256"
        }
      ],
      "stateMutability": "view",
      "type": "function"
    },
    {
      "inputs": [
        {
          "internalType": "uint32",
          "name": "assetId",
          "type": "uint32"
        },
        {
          "internalType": "address",
          "name": "precompileAddr",
          "type": "address"
        }
      ],
      "name": "registerAsset",
      "outputs": [],
      "stateMutability": "nonpayable",
      "type": "function"
    },
    {
      "inputs": [
        {
          "internalType": "uint32",
          "name": "assetA",
          "type": "uint32"
        },
        {
          "internalType": "uint32",
          "name": "assetB",
          "type": "uint32"
        },
        {
          "internalType": "uint256",
          "name": "shares",
          "type": "uint256"
        }
      ],
      "name": "removeLiquidity",
      "outputs": [
        {
          "internalType": "uint256",
          "name": "amountA",
          "type": "uint256"
        },
        {
          "internalType": "uint256",
          "name": "amountB",
          "type": "uint256"
        }
      ],
      "stateMutability": "nonpayable",
      "type": "function"
    },
    {
      "inputs": [
        {
          "internalType": "uint32",
          "name": "assetIdIn",
          "type": "uint32"
        },
        {
          "internalType": "uint32",
          "name": "assetIdOut",
          "type": "uint32"
        },
        {
          "internalType": "uint256",
          "name": "amountIn",
          "type": "uint256"
        },
        {
          "internalType": "uint256",
          "name": "minAmountOut",
          "type": "uint256"
        }
      ],
      "name": "swap",
      "outputs": [
        {
          "internalType": "uint256",
          "name": "amountOut",
          "type": "uint256"
        }
      ],
      "stateMutability": "nonpayable",
      "type": "function"
    },
    {
      "inputs": [
        {
          "internalType": "uint32",
          "name": "assetIdIn",
          "type": "uint32"
        },
        {
          "internalType": "uint32",
          "name": "assetIdOut",
          "type": "uint32"
        },
        {
          "internalType": "uint256",
          "name": "amountIn",
          "type": "uint256"
        },
        {
          "internalType": "uint256",
          "name": "minAmountOut",
          "type": "uint256"
        },
        {
          "internalType": "bytes",
          "name": "xcmDestination",
          "type": "bytes"
        },
        {
          "internalType": "bytes",
          "name": "xcmMessage",
          "type": "bytes"
        }
      ],
      "name": "swapAndBridgeXCM",
      "outputs": [
        {
          "internalType": "uint256",
          "name": "amountOut",
          "type": "uint256"
        }
      ],
      "stateMutability": "nonpayable",
      "type": "function"
    },
    {
      "inputs": [],
      "name": "systemPrecompile",
      "outputs": [
        {
          "internalType": "address",
          "name": "",
          "type": "address"
        }
      ],
      "stateMutability": "view",
      "type": "function"
    },
    {
      "inputs": [],
      "name": "xcmPrecompile",
      "outputs": [
        {
          "internalType": "address",
          "name": "",
          "type": "address"
        }
      ],
      "stateMutability": "view",
      "type": "function"
    }
  ],
  "bytecode": "0x60c0346100c057601f61153838819003918201601f19168301916001600160401b038311848410176100c55780849260409485528339810103126100c057610052602061004b836100db565b92016100db565b60017f9b779b17422d0df92223018b32b4d1fa46e071723d6817e2486d003becc55f005560809190915260a052600080546001600160a01b0319163317905560405161144890816100f082396080518181816106090152610cf5015260a05181818161050c0152610f3f0152f35b600080fd5b634e487b7160e01b600052604160045260246000fd5b51906001600160a01b03821682036100c05756fe608060408181526004918236101561001657600080fd5b600092833560e01c9182631021764e14610ce1575081631e00c2b21461090d5781632d9d90e9146108d35781634a4f0718146108935781638da5cb5b1461086b578163acff38a714610826578163b5217bb4146107e8578163bc95412f14610570578163bd6a87b01461053b578163ceff3e48146104f7578163df17aa25146103df578163e5d92e19146100f5575063f8338807146100b457600080fd5b346100f15760203660031901126100f15760209163ffffffff6100d5610d24565b168152600183528190205490516001600160a01b039091168152f35b5080fd5b905082346103dc5760603660031901126103dc57610111610d24565b610119610d3c565b91604435610125610fe2565b61012f8484610ea5565b9182815260209360028552878220966003880196338452878752848a8520541061038e576002890198895490811561034b576101758261017083548a610e19565b610e42565b9a610189600183019361017085548b610e19565b9a3388528a528c872061019d898254610fd5565b90556101aa888254610fd5565b90556101b78b8254610fd5565b90556101c4898254610fd5565b905563ffffffff9081169216828110156103275783526001865288832054918352888320546001600160a01b0390811692165b895163a9059cbb60e01b80825233848301908152602081018c90526001600160a01b03939192918a918391908290036040019082908a9088165af1801561031d57958a938196938e8c979461026f9a610300575b50519081523393810193845260208401959095529396879485939091849160400190565b0393165af19081156102f557506102c8575b5085519081527f512142965b9e43ff2d7d4e078277b9b45609b1f24b5d1508e57f57384d9121ec833392a360016000805160206113f3833981519152558351928352820152f35b6102e790843d86116102ee575b6102df8183610dc9565b810190610e01565b5086610281565b503d6102d5565b8851903d90823e3d90fd5b61031690893d8b116102ee576102df8183610dc9565b503861024b565b8c513d88823e3d90fd5b9183526001865288832054918352888320546001600160a01b0390811692166101f7565b8b5162461bcd60e51b81528085018a9052601960248201527f546573736572616374537761703a20656d70747920706f6f6c000000000000006044820152606490fd5b895162461bcd60e51b8152808301889052602260248201527f546573736572616374537761703a20696e73756666696369656e742073686172604482015261657360f01b6064820152608490fd5b80fd5b9050346104f357816003193601126104f3576103f9610d24565b610401610d85565b84546001600160a01b039190821633036104b0571691821561046d575063ffffffff168084526001602090815283852080546001600160a01b031916841790559251918252917f250d5f8faeb2acd85b93888f82538b3d3fe56d7b9026a5fbe3ed945021453c1591a280f35b606490602085519162461bcd60e51b8352820152601b60248201527f546573736572616374537761703a207a65726f206164647265737300000000006044820152fd5b845162461bcd60e51b8152602081860152601860248201527f546573736572616374537761703a206e6f74206f776e657200000000000000006044820152606490fd5b8280fd5b5050346100f157816003193601126100f157517f00000000000000000000000000000000000000000000000000000000000000006001600160a01b03168152602090f35b5050346100f157806003193601126100f15760209061056961055b610d24565b610563610d3c565b90610ea5565b9051908152f35b8383346100f15760c03660031901126100f15761058b610d24565b610593610d3c565b67ffffffffffffffff936084358581116100f1576105b49036908801610d9b565b93909160a435978789116100f1576105d26105ee9936908301610d9b565b9990936105dd610fe2565b309060643590886044359133611012565b87516347400c2360e01b815260208382018190529a919991907f00000000000000000000000000000000000000000000000000000000000000006001600160a01b0316908a818061064360248201878c610e84565b0381855afa9081156107de578691610771575b50813b1561076d5790606086868f94878f9661068d859998519d8e998a98899763d3b7e04d60e01b89528801526064870191610e84565b92828151166024860152015116604483015203925af1801561076357610717575b505050507f348f79c99116814ae345dcab528a84749bd6cf6eb9cdde89277644b357c12453916106fc63ffffffff928651938493168352878984015260608784015233956060840191610e84565b0390a260016000805160206113f38339815191525551908152f35b83116107505750508452816106fc63ffffffff7f348f79c99116814ae345dcab528a84749bd6cf6eb9cdde89277644b357c124536106ae565b634e487b7160e01b825260419052602490fd5b88513d85823e3d90fd5b8580fd5b90508a81813d83116107d7575b6107888183610dc9565b8101031261076d578a51908b8201828110868211176107c4576107ba918f918e526107b281610e6f565b845201610e6f565b8d8201528d610656565b634e487b7160e01b885260418752602488fd5b503d61077e565b8b513d88823e3d90fd5b9050346104f35760203660031901126104f3576060928291358152600260205220805491600260018301549201549181519384526020840152820152f35b9050346104f357816003193601126104f3576020928291610845610d85565b90358252600285528282206001600160a01b039091168252600301845220549051908152f35b5050346100f157816003193601126100f157905490516001600160a01b039091168152602090f35b5050346100f1576020906108ba6108a936610d4f565b916108b2610fe2565b339333611012565b9060016000805160206113f38339815191525551908152f35b5050346100f157806003193601126100f15780916108f261055b610d24565b81526002602052206001815491015482519182526020820152f35b919050346104f35761091e36610d4f565b959192610929610fe2565b81151580610cd8575b15610c955763ffffffff9687821692838552600195602099878b5260018060a01b0391828a8920541691811690818952838b8a2054169683151580610c8c575b15610c3f5791600261098d8f9b9a9998979695938f95610ea5565b808b529a528b8920971015610c3857949293945b8a516323b872dd60e01b80825233938201938452306020850152604084018790529290918e918391908290036060019082908c9088165af18015610c2e57888e9488948f938f9095610a1d9996610c11575b50519081523393810193845230602085015260408401959095529395869485939091849160600190565b0393165af18015610c0757610bea575b5060028301918254918215600014610b9457610a498282610e19565b998660038c1115610b8557508a808a1c8a8101809111610b7257905b8c8210610b545750505b8a15610afb5750898996959360039593610a8e610aa5945b8754610e62565b8655610a9e8b8701918254610e62565b9055610e62565b905533835201875220610ab9858254610e62565b905582518481527fe3dcbe559b610f5784b9db6ab7a250c9c7cc6aa560eae7dfc50de489602b5654863392a36000805160206113f38339815191525551908152f35b895162461bcd60e51b81529081018c9052602d60248201527f546573736572616374537761703a20696e73756666696369656e7420696e697460448201526c69616c206c697175696469747960981b6064820152608490fd5b909b50610b6a8c610b658184610e42565b610e62565b8a1c90610a65565b634e487b7160e01b895260118352602489fd5b9a15610a6f5799508799610a6f565b610a8e9950808360039593610bba610bb28d9a9997610aa596610e19565b875490610e42565b610bd1610bc78484610e19565b8d89015490610e42565b80821015610be357505b9c8d93610a87565b9050610bdb565b610c00908a3d8c116102ee576102df8183610dc9565b5038610a2d565b88513d87823e3d90fd5b610c2790893d8b116102ee576102df8183610dc9565b50386109f3565b8b513d8a823e3d90fd5b92946109a1565b8b5162461bcd60e51b8152808e018f9052602160248201527f546573736572616374537761703a20756e7265676973746572656420617373656044820152601d60fa1b6064820152608490fd5b50871515610972565b845162461bcd60e51b8152602081880152601a60248201527f546573736572616374537761703a207a65726f20616d6f756e740000000000006044820152606490fd5b50861515610932565b8490346100f157816003193601126100f1577f00000000000000000000000000000000000000000000000000000000000000006001600160a01b03168152602090f35b6004359063ffffffff82168203610d3757565b600080fd5b6024359063ffffffff82168203610d3757565b6080906003190112610d375763ffffffff906004358281168103610d3757916024359081168103610d3757906044359060643590565b602435906001600160a01b0382168203610d3757565b9181601f84011215610d375782359167ffffffffffffffff8311610d375760208381860195010111610d3757565b90601f8019910116810190811067ffffffffffffffff821117610deb57604052565b634e487b7160e01b600052604160045260246000fd5b90816020910312610d3757518015158103610d375790565b81810292918115918404141715610e2c57565b634e487b7160e01b600052601160045260246000fd5b8115610e4c570490565b634e487b7160e01b600052601260045260246000fd5b91908201809211610e2c57565b519067ffffffffffffffff82168203610d3757565b908060209392818452848401376000828201840152601f01601f1916010190565b63ffffffff8281169082161015610fd057905b6040519160209163ffffffff60e01b809260e01b168385015260e01b16602483015260088252604082019082821067ffffffffffffffff831117610deb57816040526363effb4360e11b8252806044840152825180606485015281838560005b848110610fb9575060008185016084015291929091601f909101601f1916810103604401817f00000000000000000000000000000000000000000000000000000000000000006001600160a01b03165afa928315610fad57600093610f7e575b50505090565b90809293503d8311610fa6575b610f958185610dc9565b81010312610d375751388080610f78565b503d610f8b565b6040513d6000823e3d90fd5b915081016084838201519101520183858492610f18565b610eb8565b91908203918211610e2c57565b6000805160206113f383398151915260028154146110005760029055565b604051633ee5aeb560e01b8152600490fd5b91939594929081156113ad5763ffffffff94858216956000958787526020916001835260018060a01b0397604095898783205416928616958683528a888420541691841515806113a4575b15611360579061106c91610ea5565b82526002855286822093868c109384156113565785545b851561134e576001870154905b801591821580611345575b15611301576103e58d0291906103e4198e8404016112ed576110bd9083610e19565b926103e88083029283041417156112d9576110e292916110dc91610e62565b90610e42565b9e8f106112975788516323b872dd60e01b81526001600160a01b038c166004820152306024820152604481018b90529087908290606490829088905af1801561128d57908f939291611270575b50308c8216036111c8575b50505050917f568353021bf6309d803f0179307ebd0aef56ab90c7b0d226f8df92df9e3769ff9795939160809795936000146111a5578061117e8660019354610e62565b81550161118c8c8254610fd5565b90555b82519889528801528601528660608601521692a2565b600181016111b4868254610e62565b90556111c18c8254610fd5565b905561118f565b885163a9059cbb60e01b81526001600160a01b03919091166004820152602481019290925290919085908390604490829085905af19081156112655750917f568353021bf6309d803f0179307ebd0aef56ab90c7b0d226f8df92df9e3769ff9997959391608099979593611248575b829496989a8e929496989a5061113a565b61125e90843d86116102ee576102df8183610dc9565b5038611237565b8751903d90823e3d90fd5b61128690883d8a116102ee576102df8183610dc9565b503861112f565b89513d86823e3d90fd5b6064878a519062461bcd60e51b825280600483015260248201527f546573736572616374537761703a20736c6970706167652065786365656465646044820152fd5b634e487b7160e01b87526011600452602487fd5b634e487b7160e01b88526011600452602488fd5b8b5162461bcd60e51b8152600481018b9052601b60248201527f546573736572616374537761703a206e6f206c697175696469747900000000006044820152606490fd5b5080151561109b565b865490611090565b6001860154611083565b885162461bcd60e51b815260048101889052601b60248201527f546573736572616374537761703a20756e7265676973746572656400000000006044820152606490fd5b5082151561105d565b60405162461bcd60e51b815260206004820152601960248201527f546573736572616374537761703a207a65726f20696e707574000000000000006044820152606490fdfe9b779b17422d0df92223018b32b4d1fa46e071723d6817e2486d003becc55f00a2646970667358221220fd8df282d0d79ab5eade246830bbf99d1ec59b76ebe46ea59038004eed14e6db64736f6c63430008180033",
  "linkReferences": {},
  "deployedLinkReferences": {}
}