{
    "abi": [
        {
            "type": "constructor",
            "inputs": [
                {
                    "name": "_usdc",
                    "type": "address",
                    "internalType": "address"
                },
                {
                    "name": "_kreditAgent",
                    "type": "address",
                    "internalType": "address"
                }
            ],
            "stateMutability": "nonpayable"
        },
        {
            "type": "function",
            "name": "accYieldPerShare",
            "inputs": [],
            "outputs": [
                {
                    "name": "",
                    "type": "uint256",
                    "internalType": "uint256"
                }
            ],
            "stateMutability": "view"
        },
        {
            "type": "function",
            "name": "accruedInterest",
            "inputs": [
                {
                    "name": "borrower",
                    "type": "address",
                    "internalType": "address"
                }
            ],
            "outputs": [
                {
                    "name": "",
                    "type": "uint256",
                    "internalType": "uint256"
                }
            ],
            "stateMutability": "view"
        },
        {
            "type": "function",
            "name": "admin",
            "inputs": [],
            "outputs": [
                {
                    "name": "",
                    "type": "address",
                    "internalType": "address"
                }
            ],
            "stateMutability": "view"
        },
        {
            "type": "function",
            "name": "adminBulkWithdrawDeposits",
            "inputs": [
                {
                    "name": "depositors",
                    "type": "address[]",
                    "internalType": "address[]"
                }
            ],
            "outputs": [],
            "stateMutability": "nonpayable"
        },
        {
            "type": "function",
            "name": "adminClaimAndInjectYield",
            "inputs": [],
            "outputs": [],
            "stateMutability": "nonpayable"
        },
        {
            "type": "function",
            "name": "adminForceClose",
            "inputs": [
                {
                    "name": "user",
                    "type": "address",
                    "internalType": "address"
                }
            ],
            "outputs": [],
            "stateMutability": "nonpayable"
        },
        {
            "type": "function",
            "name": "adminForceCloseAll",
            "inputs": [
                {
                    "name": "users",
                    "type": "address[]",
                    "internalType": "address[]"
                }
            ],
            "outputs": [],
            "stateMutability": "nonpayable"
        },
        {
            "type": "function",
            "name": "adminHardReset",
            "inputs": [
                {
                    "name": "to",
                    "type": "address",
                    "internalType": "address"
                }
            ],
            "outputs": [],
            "stateMutability": "nonpayable"
        },
        {
            "type": "function",
            "name": "adminInvest",
            "inputs": [
                {
                    "name": "amount",
                    "type": "uint256",
                    "internalType": "uint256"
                }
            ],
            "outputs": [],
            "stateMutability": "nonpayable"
        },
        {
            "type": "function",
            "name": "adminLiquidate",
            "inputs": [
                {
                    "name": "borrower",
                    "type": "address",
                    "internalType": "address"
                }
            ],
            "outputs": [],
            "stateMutability": "nonpayable"
        },
        {
            "type": "function",
            "name": "adminPullBack",
            "inputs": [
                {
                    "name": "amount",
                    "type": "uint256",
                    "internalType": "uint256"
                }
            ],
            "outputs": [],
            "stateMutability": "nonpayable"
        },
        {
            "type": "function",
            "name": "adminResetUserScore",
            "inputs": [
                {
                    "name": "user",
                    "type": "address",
                    "internalType": "address"
                }
            ],
            "outputs": [],
            "stateMutability": "nonpayable"
        },
        {
            "type": "function",
            "name": "adminResetUserScores",
            "inputs": [
                {
                    "name": "users",
                    "type": "address[]",
                    "internalType": "address[]"
                }
            ],
            "outputs": [],
            "stateMutability": "nonpayable"
        },
        {
            "type": "function",
            "name": "adminSetGlobalTick",
            "inputs": [
                {
                    "name": "tick",
                    "type": "uint256",
                    "internalType": "uint256"
                }
            ],
            "outputs": [],
            "stateMutability": "nonpayable"
        },
        {
            "type": "function",
            "name": "adminSetStrategyParams",
            "inputs": [
                {
                    "name": "_investRatioBps",
                    "type": "uint256",
                    "internalType": "uint256"
                },
                {
                    "name": "_minBufferBps",
                    "type": "uint256",
                    "internalType": "uint256"
                }
            ],
            "outputs": [],
            "stateMutability": "nonpayable"
        },
        {
            "type": "function",
            "name": "adminSetYieldPool",
            "inputs": [
                {
                    "name": "pool",
                    "type": "address",
                    "internalType": "address"
                }
            ],
            "outputs": [],
            "stateMutability": "nonpayable"
        },
        {
            "type": "function",
            "name": "adminTickPool",
            "inputs": [
                {
                    "name": "borrowers",
                    "type": "address[]",
                    "internalType": "address[]"
                }
            ],
            "outputs": [],
            "stateMutability": "nonpayable"
        },
        {
            "type": "function",
            "name": "borrow",
            "inputs": [
                {
                    "name": "borrowAmount",
                    "type": "uint256",
                    "internalType": "uint256"
                }
            ],
            "outputs": [],
            "stateMutability": "nonpayable"
        },
        {
            "type": "function",
            "name": "collateralBalance",
            "inputs": [
                {
                    "name": "",
                    "type": "address",
                    "internalType": "address"
                }
            ],
            "outputs": [
                {
                    "name": "",
                    "type": "uint256",
                    "internalType": "uint256"
                }
            ],
            "stateMutability": "view"
        },
        {
            "type": "function",
            "name": "demoRateMultiplier",
            "inputs": [
                {
                    "name": "",
                    "type": "address",
                    "internalType": "address"
                }
            ],
            "outputs": [
                {
                    "name": "",
                    "type": "uint256",
                    "internalType": "uint256"
                }
            ],
            "stateMutability": "view"
        },
        {
            "type": "function",
            "name": "deposit",
            "inputs": [
                {
                    "name": "amount",
                    "type": "uint256",
                    "internalType": "uint256"
                }
            ],
            "outputs": [],
            "stateMutability": "nonpayable"
        },
        {
            "type": "function",
            "name": "depositBalance",
            "inputs": [
                {
                    "name": "",
                    "type": "address",
                    "internalType": "address"
                }
            ],
            "outputs": [
                {
                    "name": "",
                    "type": "uint256",
                    "internalType": "uint256"
                }
            ],
            "stateMutability": "view"
        },
        {
            "type": "function",
            "name": "depositCollateral",
            "inputs": [
                {
                    "name": "amount",
                    "type": "uint256",
                    "internalType": "uint256"
                }
            ],
            "outputs": [],
            "stateMutability": "nonpayable"
        },
        {
            "type": "function",
            "name": "firstSeenBlock",
            "inputs": [
                {
                    "name": "",
                    "type": "address",
                    "internalType": "address"
                }
            ],
            "outputs": [
                {
                    "name": "",
                    "type": "uint256",
                    "internalType": "uint256"
                }
            ],
            "stateMutability": "view"
        },
        {
            "type": "function",
            "name": "fundReserve",
            "inputs": [
                {
                    "name": "amount",
                    "type": "uint256",
                    "internalType": "uint256"
                }
            ],
            "outputs": [],
            "stateMutability": "nonpayable"
        },
        {
            "type": "function",
            "name": "getAgent",
            "inputs": [],
            "outputs": [
                {
                    "name": "",
                    "type": "address",
                    "internalType": "address"
                }
            ],
            "stateMutability": "view"
        },
        {
            "type": "function",
            "name": "getPositionFull",
            "inputs": [
                {
                    "name": "borrower",
                    "type": "address",
                    "internalType": "address"
                }
            ],
            "outputs": [
                {
                    "name": "",
                    "type": "uint256",
                    "internalType": "uint256"
                },
                {
                    "name": "",
                    "type": "uint256",
                    "internalType": "uint256"
                },
                {
                    "name": "",
                    "type": "uint256",
                    "internalType": "uint256"
                },
                {
                    "name": "",
                    "type": "uint256",
                    "internalType": "uint256"
                },
                {
                    "name": "",
                    "type": "uint32",
                    "internalType": "uint32"
                },
                {
                    "name": "",
                    "type": "uint8",
                    "internalType": "uint8"
                },
                {
                    "name": "",
                    "type": "bool",
                    "internalType": "bool"
                }
            ],
            "stateMutability": "view"
        },
        {
            "type": "function",
            "name": "getScore",
            "inputs": [
                {
                    "name": "user",
                    "type": "address",
                    "internalType": "address"
                }
            ],
            "outputs": [
                {
                    "name": "",
                    "type": "uint64",
                    "internalType": "uint64"
                },
                {
                    "name": "",
                    "type": "uint8",
                    "internalType": "uint8"
                },
                {
                    "name": "",
                    "type": "uint32",
                    "internalType": "uint32"
                },
                {
                    "name": "",
                    "type": "uint32",
                    "internalType": "uint32"
                }
            ],
            "stateMutability": "view"
        },
        {
            "type": "function",
            "name": "getUsdc",
            "inputs": [],
            "outputs": [
                {
                    "name": "",
                    "type": "address",
                    "internalType": "address"
                }
            ],
            "stateMutability": "view"
        },
        {
            "type": "function",
            "name": "globalTick",
            "inputs": [],
            "outputs": [
                {
                    "name": "",
                    "type": "uint256",
                    "internalType": "uint256"
                }
            ],
            "stateMutability": "view"
        },
        {
            "type": "function",
            "name": "healthRatio",
            "inputs": [
                {
                    "name": "borrower",
                    "type": "address",
                    "internalType": "address"
                }
            ],
            "outputs": [
                {
                    "name": "",
                    "type": "uint256",
                    "internalType": "uint256"
                }
            ],
            "stateMutability": "view"
        },
        {
            "type": "function",
            "name": "investRatioBps",
            "inputs": [],
            "outputs": [
                {
                    "name": "",
                    "type": "uint256",
                    "internalType": "uint256"
                }
            ],
            "stateMutability": "view"
        },
        {
            "type": "function",
            "name": "investedAmount",
            "inputs": [],
            "outputs": [
                {
                    "name": "",
                    "type": "uint256",
                    "internalType": "uint256"
                }
            ],
            "stateMutability": "view"
        },
        {
            "type": "function",
            "name": "kreditAgent",
            "inputs": [],
            "outputs": [
                {
                    "name": "",
                    "type": "address",
                    "internalType": "address"
                }
            ],
            "stateMutability": "view"
        },
        {
            "type": "function",
            "name": "liquidate",
            "inputs": [
                {
                    "name": "borrower",
                    "type": "address",
                    "internalType": "address"
                }
            ],
            "outputs": [],
            "stateMutability": "nonpayable"
        },
        {
            "type": "function",
            "name": "liquidationCount",
            "inputs": [
                {
                    "name": "",
                    "type": "address",
                    "internalType": "address"
                }
            ],
            "outputs": [
                {
                    "name": "",
                    "type": "uint64",
                    "internalType": "uint64"
                }
            ],
            "stateMutability": "view"
        },
        {
            "type": "function",
            "name": "minBufferBps",
            "inputs": [],
            "outputs": [
                {
                    "name": "",
                    "type": "uint256",
                    "internalType": "uint256"
                }
            ],
            "stateMutability": "view"
        },
        {
            "type": "function",
            "name": "pendingStrategyYield",
            "inputs": [],
            "outputs": [
                {
                    "name": "",
                    "type": "uint256",
                    "internalType": "uint256"
                }
            ],
            "stateMutability": "view"
        },
        {
            "type": "function",
            "name": "pendingYield",
            "inputs": [
                {
                    "name": "user",
                    "type": "address",
                    "internalType": "address"
                }
            ],
            "outputs": [
                {
                    "name": "",
                    "type": "uint256",
                    "internalType": "uint256"
                }
            ],
            "stateMutability": "view"
        },
        {
            "type": "function",
            "name": "pendingYieldAndHarvest",
            "inputs": [
                {
                    "name": "user",
                    "type": "address",
                    "internalType": "address"
                }
            ],
            "outputs": [],
            "stateMutability": "nonpayable"
        },
        {
            "type": "function",
            "name": "positions",
            "inputs": [
                {
                    "name": "",
                    "type": "address",
                    "internalType": "address"
                }
            ],
            "outputs": [
                {
                    "name": "collateral",
                    "type": "uint256",
                    "internalType": "uint256"
                },
                {
                    "name": "debt",
                    "type": "uint256",
                    "internalType": "uint256"
                },
                {
                    "name": "openedAt",
                    "type": "uint256",
                    "internalType": "uint256"
                },
                {
                    "name": "interestBps",
                    "type": "uint32",
                    "internalType": "uint32"
                },
                {
                    "name": "collateralRatioBps",
                    "type": "uint32",
                    "internalType": "uint32"
                },
                {
                    "name": "tier",
                    "type": "uint8",
                    "internalType": "uint8"
                },
                {
                    "name": "active",
                    "type": "bool",
                    "internalType": "bool"
                }
            ],
            "stateMutability": "view"
        },
        {
            "type": "function",
            "name": "protocolFees",
            "inputs": [],
            "outputs": [
                {
                    "name": "",
                    "type": "uint256",
                    "internalType": "uint256"
                }
            ],
            "stateMutability": "view"
        },
        {
            "type": "function",
            "name": "repay",
            "inputs": [],
            "outputs": [],
            "stateMutability": "nonpayable"
        },
        {
            "type": "function",
            "name": "repaymentCount",
            "inputs": [
                {
                    "name": "",
                    "type": "address",
                    "internalType": "address"
                }
            ],
            "outputs": [
                {
                    "name": "",
                    "type": "uint64",
                    "internalType": "uint64"
                }
            ],
            "stateMutability": "view"
        },
        {
            "type": "function",
            "name": "setDemoMultiplier",
            "inputs": [
                {
                    "name": "borrower",
                    "type": "address",
                    "internalType": "address"
                },
                {
                    "name": "multiplier",
                    "type": "uint256",
                    "internalType": "uint256"
                }
            ],
            "outputs": [],
            "stateMutability": "nonpayable"
        },
        {
            "type": "function",
            "name": "strategyStatus",
            "inputs": [],
            "outputs": [
                {
                    "name": "pool",
                    "type": "address",
                    "internalType": "address"
                },
                {
                    "name": "invested",
                    "type": "uint256",
                    "internalType": "uint256"
                },
                {
                    "name": "totalEarned",
                    "type": "uint256",
                    "internalType": "uint256"
                },
                {
                    "name": "pendingYield_",
                    "type": "uint256",
                    "internalType": "uint256"
                },
                {
                    "name": "investRatio_",
                    "type": "uint256",
                    "internalType": "uint256"
                },
                {
                    "name": "minBuffer_",
                    "type": "uint256",
                    "internalType": "uint256"
                }
            ],
            "stateMutability": "view"
        },
        {
            "type": "function",
            "name": "sweepProtocolFees",
            "inputs": [
                {
                    "name": "to",
                    "type": "address",
                    "internalType": "address"
                }
            ],
            "outputs": [],
            "stateMutability": "nonpayable"
        },
        {
            "type": "function",
            "name": "totalBorrowed",
            "inputs": [],
            "outputs": [
                {
                    "name": "",
                    "type": "uint256",
                    "internalType": "uint256"
                }
            ],
            "stateMutability": "view"
        },
        {
            "type": "function",
            "name": "totalDeposited",
            "inputs": [],
            "outputs": [
                {
                    "name": "",
                    "type": "uint256",
                    "internalType": "uint256"
                }
            ],
            "stateMutability": "view"
        },
        {
            "type": "function",
            "name": "totalDepositedEver",
            "inputs": [
                {
                    "name": "",
                    "type": "address",
                    "internalType": "address"
                }
            ],
            "outputs": [
                {
                    "name": "",
                    "type": "uint256",
                    "internalType": "uint256"
                }
            ],
            "stateMutability": "view"
        },
        {
            "type": "function",
            "name": "totalStrategyYieldEarned",
            "inputs": [],
            "outputs": [
                {
                    "name": "",
                    "type": "uint256",
                    "internalType": "uint256"
                }
            ],
            "stateMutability": "view"
        },
        {
            "type": "function",
            "name": "usdc",
            "inputs": [],
            "outputs": [
                {
                    "name": "",
                    "type": "address",
                    "internalType": "contract IMockUSDC"
                }
            ],
            "stateMutability": "view"
        },
        {
            "type": "function",
            "name": "utilizationRate",
            "inputs": [],
            "outputs": [
                {
                    "name": "",
                    "type": "uint256",
                    "internalType": "uint256"
                }
            ],
            "stateMutability": "view"
        },
        {
            "type": "function",
            "name": "withdraw",
            "inputs": [
                {
                    "name": "amount",
                    "type": "uint256",
                    "internalType": "uint256"
                }
            ],
            "outputs": [],
            "stateMutability": "nonpayable"
        },
        {
            "type": "function",
            "name": "withdrawCollateral",
            "inputs": [],
            "outputs": [],
            "stateMutability": "nonpayable"
        },
        {
            "type": "function",
            "name": "yieldDebt",
            "inputs": [
                {
                    "name": "",
                    "type": "address",
                    "internalType": "address"
                }
            ],
            "outputs": [
                {
                    "name": "",
                    "type": "uint256",
                    "internalType": "uint256"
                }
            ],
            "stateMutability": "view"
        },
        {
            "type": "function",
            "name": "yieldPool",
            "inputs": [],
            "outputs": [
                {
                    "name": "",
                    "type": "address",
                    "internalType": "contract IYieldPool"
                }
            ],
            "stateMutability": "view"
        },
        {
            "type": "event",
            "name": "Borrowed",
            "inputs": [
                {
                    "name": "user",
                    "type": "address",
                    "indexed": true,
                    "internalType": "address"
                },
                {
                    "name": "amount",
                    "type": "uint256",
                    "indexed": false,
                    "internalType": "uint256"
                },
                {
                    "name": "tier",
                    "type": "uint8",
                    "indexed": false,
                    "internalType": "uint8"
                },
                {
                    "name": "ratioBps",
                    "type": "uint32",
                    "indexed": false,
                    "internalType": "uint32"
                }
            ],
            "anonymous": false
        },
        {
            "type": "event",
            "name": "CollateralDeposited",
            "inputs": [
                {
                    "name": "user",
                    "type": "address",
                    "indexed": true,
                    "internalType": "address"
                },
                {
                    "name": "amount",
                    "type": "uint256",
                    "indexed": false,
                    "internalType": "uint256"
                }
            ],
            "anonymous": false
        },
        {
            "type": "event",
            "name": "CollateralWithdrawn",
            "inputs": [
                {
                    "name": "user",
                    "type": "address",
                    "indexed": true,
                    "internalType": "address"
                },
                {
                    "name": "amount",
                    "type": "uint256",
                    "indexed": false,
                    "internalType": "uint256"
                }
            ],
            "anonymous": false
        },
        {
            "type": "event",
            "name": "DemoMultiplierSet",
            "inputs": [
                {
                    "name": "borrower",
                    "type": "address",
                    "indexed": true,
                    "internalType": "address"
                },
                {
                    "name": "multiplier",
                    "type": "uint256",
                    "indexed": false,
                    "internalType": "uint256"
                }
            ],
            "anonymous": false
        },
        {
            "type": "event",
            "name": "Deposited",
            "inputs": [
                {
                    "name": "user",
                    "type": "address",
                    "indexed": true,
                    "internalType": "address"
                },
                {
                    "name": "amount",
                    "type": "uint256",
                    "indexed": false,
                    "internalType": "uint256"
                }
            ],
            "anonymous": false
        },
        {
            "type": "event",
            "name": "ExternalYieldInjected",
            "inputs": [
                {
                    "name": "amount",
                    "type": "uint256",
                    "indexed": false,
                    "internalType": "uint256"
                },
                {
                    "name": "totalStrategyYieldEarned",
                    "type": "uint256",
                    "indexed": false,
                    "internalType": "uint256"
                }
            ],
            "anonymous": false
        },
        {
            "type": "event",
            "name": "FeeSwept",
            "inputs": [
                {
                    "name": "to",
                    "type": "address",
                    "indexed": true,
                    "internalType": "address"
                },
                {
                    "name": "amount",
                    "type": "uint256",
                    "indexed": false,
                    "internalType": "uint256"
                }
            ],
            "anonymous": false
        },
        {
            "type": "event",
            "name": "FundsInvested",
            "inputs": [
                {
                    "name": "amount",
                    "type": "uint256",
                    "indexed": false,
                    "internalType": "uint256"
                },
                {
                    "name": "totalInvested",
                    "type": "uint256",
                    "indexed": false,
                    "internalType": "uint256"
                }
            ],
            "anonymous": false
        },
        {
            "type": "event",
            "name": "FundsPulledBack",
            "inputs": [
                {
                    "name": "amount",
                    "type": "uint256",
                    "indexed": false,
                    "internalType": "uint256"
                },
                {
                    "name": "totalInvested",
                    "type": "uint256",
                    "indexed": false,
                    "internalType": "uint256"
                }
            ],
            "anonymous": false
        },
        {
            "type": "event",
            "name": "GlobalTickSet",
            "inputs": [
                {
                    "name": "tick",
                    "type": "uint256",
                    "indexed": false,
                    "internalType": "uint256"
                }
            ],
            "anonymous": false
        },
        {
            "type": "event",
            "name": "HardReset",
            "inputs": [
                {
                    "name": "to",
                    "type": "address",
                    "indexed": true,
                    "internalType": "address"
                },
                {
                    "name": "usdcSwept",
                    "type": "uint256",
                    "indexed": false,
                    "internalType": "uint256"
                }
            ],
            "anonymous": false
        },
        {
            "type": "event",
            "name": "Liquidated",
            "inputs": [
                {
                    "name": "borrower",
                    "type": "address",
                    "indexed": true,
                    "internalType": "address"
                },
                {
                    "name": "liquidator",
                    "type": "address",
                    "indexed": true,
                    "internalType": "address"
                }
            ],
            "anonymous": false
        },
        {
            "type": "event",
            "name": "PoolTicked",
            "inputs": [
                {
                    "name": "totalInterestDistributed",
                    "type": "uint256",
                    "indexed": false,
                    "internalType": "uint256"
                }
            ],
            "anonymous": false
        },
        {
            "type": "event",
            "name": "Repaid",
            "inputs": [
                {
                    "name": "user",
                    "type": "address",
                    "indexed": true,
                    "internalType": "address"
                },
                {
                    "name": "principal",
                    "type": "uint256",
                    "indexed": false,
                    "internalType": "uint256"
                },
                {
                    "name": "interest",
                    "type": "uint256",
                    "indexed": false,
                    "internalType": "uint256"
                }
            ],
            "anonymous": false
        },
        {
            "type": "event",
            "name": "ReserveAdded",
            "inputs": [
                {
                    "name": "amount",
                    "type": "uint256",
                    "indexed": false,
                    "internalType": "uint256"
                }
            ],
            "anonymous": false
        },
        {
            "type": "event",
            "name": "ScoreComputed",
            "inputs": [
                {
                    "name": "user",
                    "type": "address",
                    "indexed": true,
                    "internalType": "address"
                },
                {
                    "name": "totalScore",
                    "type": "uint64",
                    "indexed": false,
                    "internalType": "uint64"
                },
                {
                    "name": "tier",
                    "type": "uint8",
                    "indexed": false,
                    "internalType": "uint8"
                },
                {
                    "name": "collateralRatioBps",
                    "type": "uint32",
                    "indexed": false,
                    "internalType": "uint32"
                },
                {
                    "name": "interestRateBps",
                    "type": "uint32",
                    "indexed": false,
                    "internalType": "uint32"
                },
                {
                    "name": "depositTier",
                    "type": "uint64",
                    "indexed": false,
                    "internalType": "uint64"
                },
                {
                    "name": "repayments",
                    "type": "uint64",
                    "indexed": false,
                    "internalType": "uint64"
                },
                {
                    "name": "liquidations",
                    "type": "uint64",
                    "indexed": false,
                    "internalType": "uint64"
                }
            ],
            "anonymous": false
        },
        {
            "type": "event",
            "name": "StrategyParamsUpdated",
            "inputs": [
                {
                    "name": "investRatioBps",
                    "type": "uint256",
                    "indexed": false,
                    "internalType": "uint256"
                },
                {
                    "name": "minBufferBps",
                    "type": "uint256",
                    "indexed": false,
                    "internalType": "uint256"
                }
            ],
            "anonymous": false
        },
        {
            "type": "event",
            "name": "UserScoreReset",
            "inputs": [
                {
                    "name": "user",
                    "type": "address",
                    "indexed": true,
                    "internalType": "address"
                }
            ],
            "anonymous": false
        },
        {
            "type": "event",
            "name": "Withdrawn",
            "inputs": [
                {
                    "name": "user",
                    "type": "address",
                    "indexed": true,
                    "internalType": "address"
                },
                {
                    "name": "amount",
                    "type": "uint256",
                    "indexed": false,
                    "internalType": "uint256"
                }
            ],
            "anonymous": false
        },
        {
            "type": "event",
            "name": "YieldHarvested",
            "inputs": [
                {
                    "name": "lender",
                    "type": "address",
                    "indexed": true,
                    "internalType": "address"
                },
                {
                    "name": "amount",
                    "type": "uint256",
                    "indexed": false,
                    "internalType": "uint256"
                }
            ],
            "anonymous": false
        },
        {
            "type": "event",
            "name": "YieldPoolSet",
            "inputs": [
                {
                    "name": "pool",
                    "type": "address",
                    "indexed": true,
                    "internalType": "address"
                }
            ],
            "anonymous": false
        },
        {
            "type": "error",
            "name": "ReentrancyGuardReentrantCall",
            "inputs": []
        }
    ],
    "bytecode": {
        "object": "0x6080346200011857601f62003d6938819003918201601f19168301916001600160401b038311848410176200011c57808492604094855283398101031262000118576200005a6020620000528362000130565b920162000130565b60017f9b779b17422d0df92223018b32b4d1fa46e071723d6817e2486d003becc55f0055611388600a556107d0600b556001600160a01b039182169190821515806200010c575b15620000db5760018060a01b03199233845f5416175f5583600154161760015516906002541617600255604051613c239081620001468239f35b60405162461bcd60e51b81526020600482015260096024820152683d32b9379030b2323960b91b6044820152606490fd5b508181161515620000a1565b5f80fd5b634e487b7160e01b5f52604160045260245ffd5b51906001600160a01b0382168203620001185756fe6080604081815260049182361015610015575f80fd5b5f925f3560e01c91826312f3fe7614612c3957508163176f1cdd14612b795781631ad8b03b14612b5b5781631d2bc7e814612a0a5781631f207940146128fd578163215a4ee71461270c5781632867cadb1461255f5781632e1a7d4d1461240f5781632f8655681461220157816330239e6b146121e25781633e413bee146121b95781633fecbad114612181578163402d888314611f6d57816341692dcd14611e7d5781634c19386c14611e5f578163531313dd14611ae257816355f5751014611a5c5781635884e8041461194357816359c153be1461184a5781635e1013a31461182b57816363cb3012146117f35781636c321c8a146117d65781636d85b686146115e757816373cb1e591461156f57816375c542241461147f57816377267ec3146114595781637ace2f47146114335781637ef0e0a714611414578163859f87fd146113d357816386b8da04146113915781638e76c332146113725781638f188dd414611349578163941ef5f6146112cb578163956501bb1461129357816396a2d5b01461125b57816398c75e12146111f2578163a1bf2840146111ba57838263a7db124b1461107857508163a970d54c14610f53578163b06c8d2e14610f11578163b6b55f2514610dbb578163bad4a01f14610cb3578163c5ebeaec146109fd578163c7bf1980146109d7578163cad33201146109b3578163d184454314610804578163d319f4d71461055c578163d47875d014610506578163dc5a1c16146104ce578163e0242d40146103e157508063eaab4597146103c3578063edf50fe21461039b578063f551eb191461039b578063f7e912f1146102fd578063f851a440146102d6578063fb041fb1146102b85763ff50abdc14610297575f80fd5b346102b457816003193601126102b4576020906003549051908152f35b5080fd5b50346102b457816003193601126102b457602090600b549051908152f35b50346102b457816003193601126102b457905490516001600160a01b039091168152602090f35b50346102b45781602091826003193601126102b457601261031c612ca8565b83546001600160a01b0391906103359083163314612d3c565b1693848452600f81528284206001600160401b03199081815416905560108252838520908154169055601581528383812055601481528383812055528120557f828ee584f7a703427c5958504e9353d1cda92dbe3d7999d462b2128a681a7afc8280a280f35b50346102b457816003193601126102b45760025490516001600160a01b039091168152602090f35b50346102b457816003193601126102b4576020906008549051908152f35b8383346102b457806003193601126102b45782356024359361040d60018060a01b038554163314612d3c565b611b5882116104a1576103e885101580610495575b1561046157507fec68bafd2cc522e310d1e4b2ae17e8b0d49684e25d9686e206e2929cc30d87f5929381600a5580600b5582519182526020820152a180f35b606490602084519162461bcd60e51b8352820152600e60248201526d627566666572203130252d35302560901b6044820152fd5b50611388851115610422565b606490602084519162461bcd60e51b835282015260076024820152666d61782037302560c81b6044820152fd5b5050346102b45760203660031901126102b45760209181906001600160a01b036104f6612ca8565b1681526014845220549051908152f35b5050346102b45760203660031901126102b45760809060ff61052e610529612ca8565b61328b565b9294916001600160401b0383959295519616865216602085015263ffffffff80931690840152166060820152f35b9190503461070157602091826003193601126106f35780359060018060a01b0361058a818754163314612d3c565b6105926135e9565b80600754166105a2811515612d74565b6105ad841515612daa565b6003548354808211156107fc576105c49082612de1565b905b6008549182808211156107f4576105dc91612de1565b8681106107b1576105fd6105f38861271093612de1565b92600b5490612e97565b041161076e578461064c92610613828a94612e3a565b6008558460015416908a895180968195829463095ea7b360e01b84528b840160209093929193604081019460018060a01b031681520152565b03925af1908115610764578791610737575b5015610705579085916007541690813b15610701578360248492838851958694859363b6b55f2560e01b85528401525af180156106f7576106df575b50507f5302d1ea73ebf2c5e4d3b8dc47a46b39f1823f1fe2bb53789eddd25a2f19306692600854908351928352820152a160015f80516020613bce8339815191525580f35b6106e890612cbe565b6106f357835f61069a565b8380fd5b84513d84823e3d90fd5b8280fd5b835162461bcd60e51b8152808301869052600c60248201526b185c1c1c9bdd994819985a5b60a21b6044820152606490fd5b6107579150863d881161075d575b61074f8183612d1b565b810190612e47565b5f61065e565b503d610745565b85513d89823e3d90fd5b855162461bcd60e51b8152808501889052601760248201527f776f756c6420627265616368206d696e206275666665720000000000000000006044820152606490fd5b875162461bcd60e51b81528087018a9052601960248201527f6e6f7420656e6f756768206c6971756964206361706974616c000000000000006044820152606490fd5b5050886105dc565b5087906105c6565b9050346107015761081436612c5c565b84549192916001600160a01b0391906108309083163314612d3c565b6108386135e9565b855b818110610856578660015f80516020613bce8339815191525580f35b610869610864828488612e02565b612e26565b83811690818952602090600c825288808b20918b83549384156109a4579285928286936108f29655600d8552808381205560038185825410155f1461099d57506108b4858254612de1565b90555b600154925163a9059cbb60e01b81526001600160a01b03909216828e01908152602081019490945290948593928c1692849291839160400190565b03925af1908115610993578b91610976575b501561093e5760019392917f7084f5476618d8e60b11ef0d7d3f06914655adb8793e28ff7f018d4c76d505d5918a51908152a25b0161083a565b885162461bcd60e51b81528088018390526012602482015271189d5b1ac81dda5d1a191c985dc819985a5b60721b6044820152606490fd5b61098d9150833d851161075d5761074f8183612d1b565b5f610904565b8a513d8d823e3d90fd5b90556108b7565b50505050505050600190610938565b5050346102b457816003193601126102b4576020906109d0613210565b9051908152f35b5050346102b45760203660031901126102b4576020906109d06109f8612ca8565b6131c2565b90503461070157602091826003193601126106f357813592610a1d6135e9565b8315610c8457338552601181528185206003810193610a4360ff865460481c1615612fa2565b338752600e83528387205494851595610a5c8715612fe0565b610a653361328b565b9250929095612710998a83029a838c04141715610c715763ffffffff91610a8f838616809c612eaa565b8c11610c3e5760035487548d919080821115610c3657610aae91612de1565b10610bfa578c610afd8a8e610ac281613618565b6001548e5163a9059cbb60e01b8152338d820190815260208101939093529384926001600160a01b0390921691839187918391604090910190565b03925af1918215610bef5792610b3a60ff9b9a9998969367ffffffff0000000096938e69010000000000000000009a9792610bd2575b5050612ec8565b81558d6001820155600242910155855491169069ffffffffffffffffffff19161791881b161768ff000000000000000085891b1617179055338852600e84528785812055610b89878254612e3a565b9055835195865216908401528201527f83b2f71afd8f08508eebf509718c4017bef8206d7e02de862863437382eff69c60603392a260015f80516020613bce8339815191525580f35b610be89250803d1061075d5761074f8183612d1b565b5f8e610b33565b8c51903d90823e3d90fd5b895162461bcd60e51b81528088018a90526016602482015275696e73756666696369656e74206c697175696469747960501b6044820152606490fd5b50508d610aae565b895162461bcd60e51b81528088018a9052600d60248201526c6578636565647320726174696f60981b6044820152606490fd5b634e487b7160e01b8c526011865260248cfd5b905162461bcd60e51b815291820152600b60248201526a7a65726f20626f72726f7760a81b6044820152606490fd5b905034610701576020806003193601126106f357610d228183358094610cd76135e9565b610ce2821515612daa565b60015487516323b872dd60e01b8152339281019283523060208401526040830193909352919384926001600160a01b03169183918a918391606090910190565b03925af1908115610db1577fd7243f6f8212d5188fd054141cf6ea89cfc0d91facb8c3afe2f88a1358480142939491610d62918791610d94575b50612ec8565b338552600e8252808520610d77858254612e3a565b9055519283523392a260015f80516020613bce8339815191525580f35b610dab9150843d861161075d5761074f8183612d1b565b5f610d5c565b84513d87823e3d90fd5b905034610701576020806003193601126106f357610eae8183358094610ddf6135e9565b610dea821515612daa565b33885260158352868820805415610f08575b5060148352868820610e0f838254612e3a565b9055610e1a3361373f565b338852600c8352868820610e2f838254612e3a565b9055610e3d82600354612e3a565b600355338852600c835264e8d4a51000610e5d888a205460055490612e97565b33808b52600d8652898b209290910490915560015488516323b872dd60e01b81529283019182523060208301526040820193909352909384926001600160a01b03169183918a918391606090910190565b03925af1908115610db1577f2da466a7b24304f47e87fa2e1e5a81b9831ce54fec19055ce277ca2f39ba42c4939491610eed918791610d945750612ec8565b519283523392a260015f80516020613bce8339815191525580f35b4390555f610dfc565b5050346102b45760203660031901126102b4576020916001600160401b039082906001600160a01b03610f42612ca8565b168152600f85522054169051908152f35b9190503461070157610f6436612c5c565b84546001600160a01b039190610f7d9083163314612d3c565b610f856135e9565b859486935b828510610fd057877f127a5fbb2f61b3626a6393be4409f82afbd31ab12892c914848055cca180bc0d6020898951908152a160015f80516020613bce8339815191525580f35b909192939584610fe4610864898786612e02565b16885260116020528588209060ff600383015460481c161561106e57611017826110126108648b8988612e02565b613871565b918215611063579161105791836001809501611034848254612e3a565b9055600242910155611047828754612e3a565b8655611052826138d2565b612e3a565b965b0193929190610f8a565b509660019150611059565b9660019150611059565b929150346111b657826003193601126111b65782546001600160a01b03906110a39082163314612d3c565b6110ab6135e9565b60075416906110bb821515612d74565b82519163999927df60e01b835230828401528260248160209889945af19182156111a9578492611176575b50811561114857507fc55f8cbf35ee761c605a0e6e21e9fdfac33082ed5931790a7833d29d9b4ada4c929361111a826138d2565b61112682600954612e3a565b90816009558351928352820152a160015f80516020613bce8339815191525580f35b825162461bcd60e51b815290810185905260086024820152671b9bc81e5a595b1960c21b6044820152606490fd5b9091508481813d83116111a2575b61118e8183612d1b565b8101031261119e5751905f6110e6565b5f80fd5b503d611184565b50505051903d90823e3d90fd5b5050fd5b5050346102b45760203660031901126102b45760209181906001600160a01b036111e2612ca8565b168152600e845220549051908152f35b905034610701576020366003190112610701577fb611baa7b0f0ae98fae205bc5bdf03c120fc8e7a93bd0cd033d153f64156560491602091359061124060018060a01b038654163314612d3c565b61124f620f424083111561318d565b8160135551908152a180f35b5050346102b45760203660031901126102b45760209181906001600160a01b03611283612ca8565b168152600d845220549051908152f35b5050346102b45760203660031901126102b45760209181906001600160a01b036112bb612ca8565b168152600c845220549051908152f35b5050346102b457806003193601126102b4577f3cbcd2b055d991328322a663485f9de927d7255e833ae263f7fb2438139358c26020611308612ca8565b8454602435916001600160a01b03916113249083163314612d3c565b611333620f424084111561318d565b169384865260128352818187205551908152a280f35b5050346102b457816003193601126102b45760075490516001600160a01b039091168152602090f35b5050346102b457816003193601126102b4576020906013549051908152f35b5050346102b45760203660031901126102b4576020916001600160401b039082906001600160a01b036113c2612ca8565b168152601085522054169051908152f35b8334611411576020366003190112611411576113fd6113f0612ca8565b6113f86135e9565b61373f565b60015f80516020613bce8339815191525580f35b80fd5b5050346102b457816003193601126102b4576020906009549051908152f35b5050346102b45760203660031901126102b4576020906109d0611454612ca8565b6130ce565b5050346102b45760203660031901126102b4576020906109d061147a612ca8565b61304e565b905034610701576020366003190112610701576114fe60208235809360018060a01b036114b0818954163314612d3c565b6114b86135e9565b6114c3831515612daa565b60015487516323b872dd60e01b8152339381019384523060208501526040840194909452929485939190911691839189918391606090910190565b03925af19081156111a9579261153f602093927fb2fa11edb155c95895a584359f595460b9fb5b107282e553ce366f71eb58e6569587916115585750612ec8565b51908152a160015f80516020613bce8339815191525580f35b610dab9150853d871161075d5761074f8183612d1b565b833461141157602036600319011261141157611589612ca8565b81546001600160a01b0391906115a29083163314612d3c565b166115ae811515612e5f565b600780546001600160a01b031916821790557fbbcf6295239f23eb5db58bdc2065b64a086d381a147abca4e8dcbcfd7184d8bd8280a280f35b90503461070157602090816003193601126106f357611604612ca8565b9260018060a01b039161161b838754163314612d3c565b6116236135e9565b82851694858752601185528287209360ff600386015460481c16805f146117d05785545b8096600e8952868b205492611782575b5081611763575b5050846116a6575b505050907fc30fcfbcaac9e0deffa719714eaa82396ff506a0d0d0eebe170830177288715d929151908152a260015f80516020613bce8339815191525580f35b600154845163a9059cbb60e01b81526001600160a01b039093168484019081526020810187905287928492169082908b90829060400103925af190811561175957879161173c575b50156116fb578080611666565b83606492519162461bcd60e51b8352820152601760248201527f666f7263652d636c6f73652072657475726e206661696c0000000000000000006044820152fd5b6117539150853d871161075d5761074f8183612d1b565b5f6116ee565b83513d89823e3d90fd5b61177a929650888a52600e88528986812055612e3a565b935f8061165e565b60010180548654106117c75761179a90548654612de1565b85555b888a52601188526117c1868b2060035f918281558260018201558260028201550155565b5f611657565b5089855561179d565b88611647565b5050346102b457816003193601126102b4576020906109d061301c565b5050346102b45760203660031901126102b45760209181906001600160a01b0361181b612ca8565b1681526015845220549051908152f35b5050346102b457816003193601126102b4576020906005549051908152f35b9050346107015782600319360112610701576118646135e9565b33835260206011815261188360ff6003858720015460481c1615612fa2565b338452600e81526118e68184862054809461189f821515612fe0565b33808952600e8452878920899055600154885163a9059cbb60e01b81529283019182526020820193909352909384926001600160a01b03169183918a918391604090910190565b03925af1908115610db1577fc30fcfbcaac9e0deffa719714eaa82396ff506a0d0d0eebe170830177288715d939491610eed918791611926575b50612f56565b61193d9150843d861161075d5761074f8183612d1b565b5f611920565b905034610701576020806003193601126106f35761195f612ca8565b845490926001600160a01b03916119799083163314612d3c565b6119816135e9565b818416938415611a2f576006805490889055600154875163a9059cbb60e01b81526001600160a01b03909316938301938452602084018290529093919285928492169082908a90829060400103925af1908115611a25577fc76e1122ad84a3ab438b966f838d803131a1c2485fda3d1816aab5ae9580475e949591611a0c9188916115585750612ec8565b51908152a260015f80516020613bce8339815191525580f35b85513d88823e3d90fd5b855162461bcd60e51b815280830185905260076024820152667a65726f20746f60c81b6044820152606490fd5b5050346102b45760203660031901126102b45760e09160ff9082906001600160a01b03611a87612ca8565b16815260116020522091818354936001810154926003600283015492015493849263ffffffff91835198895260208901528288015280831660608801528260201c1660808701521c1660a084015260481c16151560c0820152f35b905034610701576020806003193601126106f357611afe612ca8565b84546001600160a01b03949190611b189086163314612d3c565b611b206135e9565b84811694855f5260118452825f2091611b4260ff600385015460481c16612f04565b611b4c8382613871565b60018401611b5b828254612e3a565b60015487516323b872dd60e01b815233818c019081523060208201526040810184905292949290918a91839189169082905f90829060600103925af1908115611e55575f91611e38575b5015611e085790611bb8611bc0926138d2565b548854612de1565b8755875f5260108652845f2080546001600160401b03611be1818316612f3e565b16906001600160401b03191617905561290490818102918183041490151715611df557925492859291906127109004848111611dee57935b8480821115611de557611c2b91612de1565b905b885f5260118452611c51865f2060035f918281558260018201558260028201550155565b81611d30575b5050600154845163a9059cbb60e01b8152338882019081526020810195909552938492908390036040019183915f91165af1908115611d26575f91611d09575b5015611cda5750505033907facd74f5a0eb0d086de0eebe2d1e70d5742838c88cb2cf492fc201d39e056f7e05f80a360015f80516020613bce8339815191525580f35b5162461bcd60e51b815291820152600b60248201526a1c185e5bdd5d0819985a5b60aa1b604482015260649150fd5b611d209150833d851161075d5761074f8183612d1b565b5f611c97565b82513d5f823e3d90fd5b600154865163a9059cbb60e01b81526001600160a01b03909216828a019081526020810193909352929390929091839185169082905f90829060400103925af1908115611ddb575f91611dbe575b5015611d8d5783905f80611c57565b50505162461bcd60e51b815291820152600b60248201526a1c99599d5b990819985a5b60aa1b604482015260649150fd5b611dd59150853d871161075d5761074f8183612d1b565b5f611d7e565b84513d5f823e3d90fd5b50505f90611c2d565b5083611c19565b601187634e487b7160e01b5f525260245ffd5b865162461bcd60e51b8152808a01899052600a6024820152691c995c185e4819985a5b60b21b6044820152606490fd5b611e4f9150893d8b1161075d5761074f8183612d1b565b5f611ba5565b88513d5f823e3d90fd5b90503461070157826003193601126107015760209250549051908152f35b5050346102b45760203660031901126102b45760e091611e9b612ca8565b6001600160a01b03811682526011602052828220835190939190611ebe81612ce5565b8454815260036001860154956020830196875260028101548584015201549263ffffffff9060ff60608401968387168852838760201c1660808601528460a08101968389861c1688528360c083019960481c161515808a525f14611f6557611f269250613967565b925b611f33848a51612e3a565b945198519751169451169451151595815197885260208801528601526060850152608084015260a083015260c0820152f35b505092611f28565b91905034610701578260031936011261070157611f886135e9565b3383526020906011825280842092611fa960ff600386015460481c16612f04565b611fb38433613871565b906001850190611fc4838354612e3a565b60015485516323b872dd60e01b8152338482019081523060208201526040810184905292986001600160a01b0395909390928991839188169082908e90829060600103925af1908a8215612176579261202e6120ca97959361203f938c98969161215f5750612ec8565b612037886138d2565b548354612de1565b8255338a52600f8452868a2080546001600160401b03612060818316612f3e565b16906001600160401b0319161790555491338a5260118452612095878b2060035f918281558260018201558260028201550155565b600154875163a9059cbb60e01b815233938101938452602084019490945292948593919091169183918b918391604090910190565b03925af1908115612155577f1b8cd61ed43bec7c6bdad3a18ffee613f99c853d16c50678d248d879e1b43438949561210d61211e9385938a9161213e5750612f56565b338852600e87528785812055612de1565b9382519485528401523392a260015f80516020613bce8339815191525580f35b61193d9150893d8b1161075d5761074f8183612d1b565b83513d88823e3d90fd5b610dab9150883d8a1161075d5761074f8183612d1b565b8851903d90823e3d90fd5b5050346102b45760203660031901126102b45760209181906001600160a01b036121a9612ca8565b1681526012845220549051908152f35b5050346102b457816003193601126102b45760015490516001600160a01b039091168152602090f35b5050346102b457816003193601126102b457602090600a549051908152f35b905034610701576020806003193601126106f35761221d612ca8565b926122266135e9565b60018060a01b039384811694855f5260118452825f2091600383015461225160ff8260481c16612f04565b61225b8483613871565b6001850161226a828254612e3a565b9186549361271094858102908082048714901517156123fc576122928563ffffffff92612eaa565b918b1c1611156123cf5760015488516323b872dd60e01b815233818d019081523060208201526040810186905290918b9183918a169082905f90829060600103925af19081156123c5575f916123a8575b501561237857906122f66122fe926138d2565b548954612de1565b8855885f5260108752855f2080546001600160401b0361231f818316612f3e565b16906001600160401b0319161790556129049081810291818304149015171561236557935493869392919004848111611dee57938480821115611de557611c2b91612de1565b601188634e487b7160e01b5f525260245ffd5b875162461bcd60e51b8152808b018a9052600a6024820152691c995c185e4819985a5b60b21b6044820152606490fd5b6123bf91508a3d8c1161075d5761074f8183612d1b565b5f6122e3565b89513d5f823e3d90fd5b875162461bcd60e51b8152808b018a905260076024820152666865616c74687960c81b6044820152606490fd5b60118c634e487b7160e01b5f525260245ffd5b905034610701576020806003193601126106f35781359161242e6135e9565b612439831515612daa565b338552600c825282848620541061252f5781836124f09261245982613618565b6124623361373f565b338852600c8352868820612477838254612de1565b905561248582600354612de1565b600355338852600c835264e8d4a510006124a5888a205460055490612e97565b33808b52600d8652898b2092909104909155600154885163a9059cbb60e01b81529283019182526020820193909352909384926001600160a01b03169183918a918391604090910190565b03925af1908115610db1577f7084f5476618d8e60b11ef0d7d3f06914655adb8793e28ff7f018d4c76d505d5939491610eed918791610d945750612ec8565b60649184519162461bcd60e51b8352820152600c60248201526b1a5b9cdd59999a58da595b9d60a21b6044820152fd5b9190503461070157602090816003193601126106f35761257d612ca8565b9060018060a01b0393612594858754163314612d3c565b61259c6135e9565b848316946125ab861515612e5f565b8682558660035586600555866006558660135586600855600154168251936370a0823160e01b855230838601528585602481855afa9485156127025788956126d3575b5084612635575b505050907f359d6ab46451d8178767889fa4925ceb0bde59846f054535ea9bbe1c630e7d62929151908152a260015f80516020613bce8339815191525580f35b835163a9059cbb60e01b81526001600160a01b03909116838201908152602081018690529091869183919082908b90829060400103925af19081156117595787916126b6575b50156126885780806125f5565b83606492519162461bcd60e51b8352820152600a6024820152691cddd9595c0819985a5b60b21b6044820152fd5b6126cd9150853d871161075d5761074f8183612d1b565b5f61267b565b9094508581813d83116126fb575b6126eb8183612d1b565b8101031261119e5751935f6125ee565b503d6126e1565b84513d8a823e3d90fd5b9050346107015761271c36612c5c565b909160018060a01b0391612734838754163314612d3c565b61273c6135e9565b855b81811061275a578660015f80516020613bce8339815191525580f35b612768610864828488612e02565b84811690818952601188602092828452818c20928c9360ff600382015460481c166128a7575b5050848c52600e8452818c208c81549182612891575b509050836127e1575b50505190815260019392917fc30fcfbcaac9e0deffa719714eaa82396ff506a0d0d0eebe170830177288715d91a20161273e565b600154925163a9059cbb60e01b81526001600160a01b03909216828a0190815260208101859052919285928492918c16918391829060400103925af1908115610993578b91612874575b501561283957885f8b6127ad565b885162461bcd60e51b81528087018390526015602482015274189d5b1ac8199bdc98d94b58db1bdcd94819985a5b605a1b6044820152606490fd5b61288b9150833d851161075d5761074f8183612d1b565b5f61282b565b9061289e93959155612e3a565b915f8c816127a4565b9093506001810180548a5410155f146128f4576128c690548a54612de1565b89555b5492858d5284526128ed828d2060035f918281558260018201558260028201550155565b5f8061278e565b508c89556128c9565b5050346102b45761290d36612c5c565b83546001600160a01b0392906129269084163314612d3c565b845b828110612933578580f35b80846129456108646001948787612e02565b16875260126020600f81528789206001600160401b03199081815416905587612972610864868a8a612e02565b168a5260108252888a2090815416905586612991610864858989612e02565b168952601581528888812055866129ac610864858989612e02565b168952601481528888812055866129c7610864858989612e02565b168952528686812055846129df610864838787612e02565b167f828ee584f7a703427c5958504e9353d1cda92dbe3d7999d462b2128a681a7afc8880a201612928565b83833461119e57602036600319011261119e5782359260018060a01b03612a35815f54163314612d3c565b612a3d6135e9565b60075416612a4c811515612d74565b612a57851515612daa565b600854858110612b255785612a6b91612de1565b600855803b1561119e57825163f3fef3a360e01b81523092810192835260208301869052915f91839182908490829060400103925af18015611d2657612af2575b507fae17548beeb535fbe51e2af98a764dbbbf864693f674380eb83561888de397ab919260085482519182526020820152a160015f80516020613bce8339815191525580f35b7fae17548beeb535fbe51e2af98a764dbbbf864693f674380eb83561888de397ab9250612b1e90612cbe565b5f91612aac565b835162461bcd60e51b8152602081850152601060248201526f195e18d959591cc81a5b9d995cdd195960821b6044820152606490fd5b823461119e575f36600319011261119e576020906006549051908152f35b823461119e575f36600319011261119e576007546008546009546001600160a01b039092169290918315612c2e5781519463018f7e3360e71b86523090860152602085602481875afa8015611d26575f90612bfb575b60c09550905b600a5492600b5494815196875260208701528501526060840152608083015260a0820152f35b506020853d602011612c26575b81612c1560209383612d1b565b8101031261119e5760c09451612bcf565b3d9150612c08565b60c094505f90612bd5565b3461119e575f36600319011261119e576001546001600160a01b03168152602090f35b90602060031983011261119e576004356001600160401b039283821161119e578060238301121561119e57816004013593841161119e5760248460051b8301011161119e576024019190565b600435906001600160a01b038216820361119e57565b6001600160401b038111612cd157604052565b634e487b7160e01b5f52604160045260245ffd5b60e081019081106001600160401b03821117612cd157604052565b604081019081106001600160401b03821117612cd157604052565b90601f801991011681019081106001600160401b03821117612cd157604052565b15612d4357565b60405162461bcd60e51b81526020600482015260096024820152683737ba1030b236b4b760b91b6044820152606490fd5b15612d7b57565b60405162461bcd60e51b81526020600482015260076024820152661b9bc81c1bdbdb60ca1b6044820152606490fd5b15612db157565b60405162461bcd60e51b81526020600482015260086024820152671e995c9bc8185b5d60c21b6044820152606490fd5b91908203918211612dee57565b634e487b7160e01b5f52601160045260245ffd5b9190811015612e125760051b0190565b634e487b7160e01b5f52603260045260245ffd5b356001600160a01b038116810361119e5790565b91908201809211612dee57565b9081602091031261119e5751801515810361119e5790565b15612e6657565b60405162461bcd60e51b81526020600482015260096024820152683d32b9379030b2323960b91b6044820152606490fd5b81810292918115918404141715612dee57565b8115612eb4570490565b634e487b7160e01b5f52601260045260245ffd5b15612ecf57565b60405162461bcd60e51b815260206004820152600d60248201526c1d1c985b9cd9995c8819985a5b609a1b6044820152606490fd5b15612f0b57565b60405162461bcd60e51b815260206004820152600b60248201526a3737903837b9b4ba34b7b760a91b6044820152606490fd5b9060016001600160401b0380931601918211612dee57565b15612f5d57565b60405162461bcd60e51b815260206004820152601860248201527f636f6c6c61746572616c207472616e73666572206661696c00000000000000006044820152606490fd5b15612fa957565b60405162461bcd60e51b815260206004820152600f60248201526e30b1ba34bb32903837b9b4ba34b7b760891b6044820152606490fd5b15612fe757565b60405162461bcd60e51b815260206004820152600d60248201526c1b9bc818dbdb1b185d195c985b609a1b6044820152606490fd5b6003548015613049576004549061271091828102928184041490151715612dee5761304691612eaa565b90565b505f90565b60018060a01b0381165f52601160205260405f2060ff60036040519261307384612ce5565b805484526001810154602085015260028101546040850152015463ffffffff80821660608501528160201c166080840152818160401c1660a084015260481c1615801560c08301526130c85761304691613967565b50505f90565b60018060a01b0381165f52601160205260405f2090604051916130f083612ce5565b8054835260ff600360018301549283602087015260028101546040870152015463ffffffff80821660608701528160201c166080860152818160401c1660a086015260481c16158015908160c086015290613185575b61317d576131578361315d93613967565b90612e3a565b90519061271091828102928184041490151715612dee5761304691612eaa565b5050505f1990565b508015613146565b1561319457565b60405162461bcd60e51b81526020600482015260066024820152656d617820314d60d01b6044820152606490fd5b6001600160a01b03165f818152600c602052604090205480156130c8576131f264e8d4a510009160055490612e97565b04905f52600d60205260405f20548082106130c85761304691612de1565b6007546001600160a01b031680156130495760206024916040519283809263018f7e3360e71b82523060048301525afa908115613280575f91613251575090565b90506020813d602011613278575b8161326c60209383612d1b565b8101031261119e575190565b3d915061325f565b6040513d5f823e3d90fd5b602c90613297816139b6565b9260018060a01b038092165f526020600f81526001600160401b039260409380855f205416916010845281865f205416916015855280875f20548015155f146135d4576132fe6132f861330a936132f16133049443612de1565b1697613b03565b95613b03565b9a613b03565b94613b03565b98875199868b0194620e946360ea1b86526024968c6001600160401b0360c01b9c8d8096818096168c850152169101521660348c015216603c8a01528389526060890190898210908211176135c157915f92918392885260025416985190895afa613373613a54565b90806135b5575b80613599575b156135685761338e90613b71565b955f8061339a89613b03565b875198868a019163a70eec8960e01b835216988986820152600c81526133bf81612d00565b5190845afa6133cc613a54565b908061355c575b8061352d575b906133e66133eb92613a92565b613b71565b955f80875186810190635c6e307960e11b82528487820152600c815261341081612d00565b5190855afa61341d613a54565b9080613521575b806134f2575b9161343b5f94926133e68695613a92565b975186810191632b2bb47760e01b835286820152600c815261345c81612d00565b51915afa91613469613a54565b92806134e6575b806134b3575b6134809150613a92565b8151600110156134a057506021015160f81c9263ffffffff908116921690565b634e487b7160e01b5f9081526032600452fd5b508251156134d257820151613480906001600160f81b03191615613476565b50634e487b7160e01b5f9081526032600452fd5b50600283511015613470565b5080511561350e57848101516001600160f81b0319161561342a565b83634e487b7160e01b5f5260326004525ffd5b50600981511015613424565b5080511561354957838101516001600160f81b031916156133d9565b82634e487b7160e01b5f5260326004525ffd5b506009815110156133d3565b845162461bcd60e51b815260048101849052600b818401526a1859d95b9d0d0819985a5b60aa1b6044820152606490fd5b508051156134d257808301516001600160f81b03191615613380565b5060098151101561337a565b83634e487b7160e01b5f5260416004525ffd5b505061330a6133046132fe6132f85f97613b03565b5f80516020613bce83398151915260028154146136065760029055565b604051633ee5aeb560e01b8152600490fd5b6007546001600160a01b03169081158015613735575b61373157600354600454808211156137285761364991612de1565b905b6008549182808211156137205761366191612de1565b81811061366f575b50505050565b61367891612de1565b81811115613715575061368b8180612de1565b600855813b1561119e5760405163f3fef3a360e01b815230600482015260248101829052915f908390604490829084905af1908115613280577fae17548beeb535fbe51e2af98a764dbbbf864693f674380eb83561888de397ab92604092613706575b5060085482519182526020820152a15f808080613669565b61370f90612cbe565b5f6136ee565b61368b908092612de1565b50505f613661565b50505f9061364b565b5050565b506008541561362e565b90613749826131c2565b60018060a01b039283811691825f52602091600c835260409564e8d4a51000613778885f205460055490612e97565b04855f52600d8552875f205582613793575b50505050509050565b600154875163a9059cbb60e01b81526001600160a01b03939093166004840152602483018490528491839160449183915f91165af1908115613867575f9161384a575b5015613810577faf070de27b945892aaad9c44ade61c1ac81cc8459711bba886304b1a2bf847a892939451908152a2805f8080808061378a565b845162461bcd60e51b81526004810183905260136024820152721e5a595b19081d1c985b9cd9995c8819985a5b606a1b6044820152606490fd5b6138619150833d851161075d5761074f8183612d1b565b5f6137d6565b86513d5f823e3d90fd5b9060038101549160ff8360481c16156138cb576138c28260016138ba64496cebb8009663ffffffff6138b36138ad60026138c79a015442612de1565b97613acc565b9116612e97565b910154612e97565b612e97565b0490565b5050505f90565b8015613964576103e881026103e71982820401612dee5761271061390791046138fd81600654612e3a565b9283600655612de1565b90811590811580613959575b15613949575064e8d4a51000808302928304141715612dee5761393c6139449160035490612eaa565b600554612e3a565b600555565b613954929150612e3a565b600655565b506003541515613913565b50565b9060c0810151156130c85764496cebb800916138c28260206139ae61399360406138c797015142612de1565b946139a863ffffffff60608601511691613acc565b90612e97565b910151612e97565b6001600160a01b03165f9081526014602052604090205464174876e800811015613a4e57641176592e00811015613a4857640cce416600811015613a4257640826299e00811015613a3c576404a817c800811015613a36576402540be400811015613a305764012a05f2001115613a2b575f90565b600190565b50600290565b50600390565b50600490565b50600590565b50600690565b50600790565b3d15613a8d573d906001600160401b038211612cd15760405191613a82601f8201601f191660200184612d1b565b82523d5f602084013e565b606090565b15613a9957565b60405162461bcd60e51b815260206004820152600b60248201526a1859d95b9d0c4819985a5b60aa1b6044820152606490fd5b6001600160a01b03165f908152601260205260409020546013549080821115613afc57505b806130465750600190565b9050613af1565b6001600160401b0360c01b9060ff66ff0000000000008260281b1667ff000000000000008360381b161765ff00000000008360181b161764ff000000008360081b161763ff0000008360081c161762ff00008360181c161761ff008360281c16179160381c161760c01b1690565b5f805b60089081831015613bc6576001838101809111612dee5784511115612e12576021838501015160f81c918360031b908482041484151715612dee576001926001600160401b03911b1617910190613b74565b939250505056fe9b779b17422d0df92223018b32b4d1fa46e071723d6817e2486d003becc55f00a2646970667358221220be69ffdb86549c93dcc0a0213b4d5eebab118216d94d9719382b04f235acb8ed64736f6c63430008180033",
        "linkReferences": {}
    },
    "methodIdentifiers": {
        "accYieldPerShare()": "5e1013a3",
        "accruedInterest(address)": "77267ec3",
        "admin()": "f851a440",
        "adminBulkWithdrawDeposits(address[])": "d1844543",
        "adminClaimAndInjectYield()": "a7db124b",
        "adminForceClose(address)": "6d85b686",
        "adminForceCloseAll(address[])": "215a4ee7",
        "adminHardReset(address)": "2867cadb",
        "adminInvest(uint256)": "d319f4d7",
        "adminLiquidate(address)": "531313dd",
        "adminPullBack(uint256)": "1d2bc7e8",
        "adminResetUserScore(address)": "f7e912f1",
        "adminResetUserScores(address[])": "1f207940",
        "adminSetGlobalTick(uint256)": "98c75e12",
        "adminSetStrategyParams(uint256,uint256)": "e0242d40",
        "adminSetYieldPool(address)": "73cb1e59",
        "adminTickPool(address[])": "a970d54c",
        "borrow(uint256)": "c5ebeaec",
        "collateralBalance(address)": "a1bf2840",
        "demoRateMultiplier(address)": "3fecbad1",
        "deposit(uint256)": "b6b55f25",
        "depositBalance(address)": "956501bb",
        "depositCollateral(uint256)": "bad4a01f",
        "firstSeenBlock(address)": "63cb3012",
        "fundReserve(uint256)": "75c54224",
        "getAgent()": "f551eb19",
        "getPositionFull(address)": "41692dcd",
        "getScore(address)": "d47875d0",
        "getUsdc()": "12f3fe76",
        "globalTick()": "8e76c332",
        "healthRatio(address)": "7ace2f47",
        "investRatioBps()": "30239e6b",
        "investedAmount()": "eaab4597",
        "kreditAgent()": "edf50fe2",
        "liquidate(address)": "2f865568",
        "liquidationCount(address)": "86b8da04",
        "minBufferBps()": "fb041fb1",
        "pendingStrategyYield()": "cad33201",
        "pendingYield(address)": "c7bf1980",
        "pendingYieldAndHarvest(address)": "859f87fd",
        "positions(address)": "55f57510",
        "protocolFees()": "1ad8b03b",
        "repay()": "402d8883",
        "repaymentCount(address)": "b06c8d2e",
        "setDemoMultiplier(address,uint256)": "941ef5f6",
        "strategyStatus()": "176f1cdd",
        "sweepProtocolFees(address)": "5884e804",
        "totalBorrowed()": "4c19386c",
        "totalDeposited()": "ff50abdc",
        "totalDepositedEver(address)": "dc5a1c16",
        "totalStrategyYieldEarned()": "7ef0e0a7",
        "usdc()": "3e413bee",
        "utilizationRate()": "6c321c8a",
        "withdraw(uint256)": "2e1a7d4d",
        "withdrawCollateral()": "59c153be",
        "yieldDebt(address)": "96a2d5b0",
        "yieldPool()": "8f188dd4"
    },
    "id": 4
}