{
    "abi": [
        {
            "type": "constructor",
            "inputs": [
                {
                    "name": "_usdc",
                    "type": "address",
                    "internalType": "address"
                },
                {
                    "name": "_yieldRateBps",
                    "type": "uint256",
                    "internalType": "uint256"
                }
            ],
            "stateMutability": "nonpayable"
        },
        {
            "type": "function",
            "name": "admin",
            "inputs": [],
            "outputs": [
                {
                    "name": "",
                    "type": "address",
                    "internalType": "address"
                }
            ],
            "stateMutability": "view"
        },
        {
            "type": "function",
            "name": "claimYield",
            "inputs": [
                {
                    "name": "to",
                    "type": "address",
                    "internalType": "address"
                }
            ],
            "outputs": [
                {
                    "name": "amount",
                    "type": "uint256",
                    "internalType": "uint256"
                }
            ],
            "stateMutability": "nonpayable"
        },
        {
            "type": "function",
            "name": "deposit",
            "inputs": [
                {
                    "name": "amount",
                    "type": "uint256",
                    "internalType": "uint256"
                }
            ],
            "outputs": [],
            "stateMutability": "nonpayable"
        },
        {
            "type": "function",
            "name": "getStake",
            "inputs": [
                {
                    "name": "who",
                    "type": "address",
                    "internalType": "address"
                }
            ],
            "outputs": [
                {
                    "name": "principal",
                    "type": "uint256",
                    "internalType": "uint256"
                },
                {
                    "name": "accrued",
                    "type": "uint256",
                    "internalType": "uint256"
                },
                {
                    "name": "pending",
                    "type": "uint256",
                    "internalType": "uint256"
                }
            ],
            "stateMutability": "view"
        },
        {
            "type": "function",
            "name": "pendingYield",
            "inputs": [
                {
                    "name": "who",
                    "type": "address",
                    "internalType": "address"
                }
            ],
            "outputs": [
                {
                    "name": "",
                    "type": "uint256",
                    "internalType": "uint256"
                }
            ],
            "stateMutability": "view"
        },
        {
            "type": "function",
            "name": "setYieldRate",
            "inputs": [
                {
                    "name": "rateBps",
                    "type": "uint256",
                    "internalType": "uint256"
                }
            ],
            "outputs": [],
            "stateMutability": "nonpayable"
        },
        {
            "type": "function",
            "name": "stakes",
            "inputs": [
                {
                    "name": "",
                    "type": "address",
                    "internalType": "address"
                }
            ],
            "outputs": [
                {
                    "name": "principal",
                    "type": "uint256",
                    "internalType": "uint256"
                },
                {
                    "name": "accrued",
                    "type": "uint256",
                    "internalType": "uint256"
                },
                {
                    "name": "lastSettledAt",
                    "type": "uint256",
                    "internalType": "uint256"
                }
            ],
            "stateMutability": "view"
        },
        {
            "type": "function",
            "name": "totalPrincipal",
            "inputs": [],
            "outputs": [
                {
                    "name": "",
                    "type": "uint256",
                    "internalType": "uint256"
                }
            ],
            "stateMutability": "view"
        },
        {
            "type": "function",
            "name": "usdc",
            "inputs": [],
            "outputs": [
                {
                    "name": "",
                    "type": "address",
                    "internalType": "contract IYieldPoolUSDC"
                }
            ],
            "stateMutability": "view"
        },
        {
            "type": "function",
            "name": "withdraw",
            "inputs": [
                {
                    "name": "to",
                    "type": "address",
                    "internalType": "address"
                },
                {
                    "name": "amount",
                    "type": "uint256",
                    "internalType": "uint256"
                }
            ],
            "outputs": [],
            "stateMutability": "nonpayable"
        },
        {
            "type": "function",
            "name": "yieldRateBps",
            "inputs": [],
            "outputs": [
                {
                    "name": "",
                    "type": "uint256",
                    "internalType": "uint256"
                }
            ],
            "stateMutability": "view"
        },
        {
            "type": "event",
            "name": "Deposited",
            "inputs": [
                {
                    "name": "depositor",
                    "type": "address",
                    "indexed": true,
                    "internalType": "address"
                },
                {
                    "name": "amount",
                    "type": "uint256",
                    "indexed": false,
                    "internalType": "uint256"
                }
            ],
            "anonymous": false
        },
        {
            "type": "event",
            "name": "Withdrawn",
            "inputs": [
                {
                    "name": "depositor",
                    "type": "address",
                    "indexed": true,
                    "internalType": "address"
                },
                {
                    "name": "to",
                    "type": "address",
                    "indexed": true,
                    "internalType": "address"
                },
                {
                    "name": "amount",
                    "type": "uint256",
                    "indexed": false,
                    "internalType": "uint256"
                }
            ],
            "anonymous": false
        },
        {
            "type": "event",
            "name": "YieldClaimed",
            "inputs": [
                {
                    "name": "depositor",
                    "type": "address",
                    "indexed": true,
                    "internalType": "address"
                },
                {
                    "name": "to",
                    "type": "address",
                    "indexed": true,
                    "internalType": "address"
                },
                {
                    "name": "amount",
                    "type": "uint256",
                    "indexed": false,
                    "internalType": "uint256"
                }
            ],
            "anonymous": false
        },
        {
            "type": "event",
            "name": "YieldRateSet",
            "inputs": [
                {
                    "name": "rateBps",
                    "type": "uint256",
                    "indexed": false,
                    "internalType": "uint256"
                }
            ],
            "anonymous": false
        }
    ],
    "bytecode": {
        "object": "0x6080346100f757601f6109d638819003918201601f19168301916001600160401b038311848410176100fb5780849260409485528339810103126100f75780516001600160a01b03811691908290036100f757602001519080156100c657620186a082116100915760018060a01b031933815f5416175f5560015416176001556002556040516108c690816101108239f35b60405162461bcd60e51b815260206004820152600d60248201526c0e4c2e8ca40e8dede40d0d2ced609b1b6044820152606490fd5b60405162461bcd60e51b81526020600482015260096024820152683d32b9379030b2323960b91b6044820152606490fd5b5f80fd5b634e487b7160e01b5f52604160045260245ffdfe6080604090808252600480361015610015575f80fd5b5f3560e01c9182631411dab0146105a15750816316934fc4146105475781633e413bee1461051f5781634b1533b2146105035781637a766460146104a1578163999927df14610367578163b6b55f2514610279578163c7bf19801461024d578163f3a6a4a31461022f578163f3fef3a3146100c3575063f851a44014610099575f80fd5b346100bf575f3660031901126100bf575f5490516001600160a01b039091168152602090f35b5f80fd5b9050346100bf57816003193601126100bf576100dd610663565b90602435906100ed8215156106af565b335f5260209260038452845f20838154106101f35761010b3361080e565b61011684825461075e565b9055815483116101eb5761012b83835461075e565b82555b600154855163a9059cbb60e01b81526001600160a01b03838116948201948552602085018690529390918691839186169082905f90829060400103925af19081156101e1577fd1c19fbcd4551a5edfb66d43d2e337c04837afda3482b42bdf569a8fccdae5fb949596916101a9915f916101b4575b50610722565b5193845216923392a3005b6101d49150883d8a116101da575b6101cc8183610679565b81019061070a565b5f6101a3565b503d6101c2565b86513d5f823e3d90fd5b5f825561012e565b855162461bcd60e51b815280840186905260166024820152751a5b9cdd59999a58da595b9d081c1c9a5b98da5c185b60521b6044820152606490fd5b82346100bf575f3660031901126100bf576020906002549051908152f35b82346100bf5760203660031901126100bf5760209061027261026d610663565b61077e565b9051908152f35b9050346100bf576020806003193601126100bf575f8183359361029d8515156106af565b6102a63361080e565b338352600382528583206102bb8682546106e9565b90556102c88582546106e9565b815560015486516323b872dd60e01b81523392810192909252306024830152604482018690529092839160649183916001600160a01b03165af190811561035d577f2da466a7b24304f47e87fa2e1e5a81b9831ce54fec19055ce277ca2f39ba42c493949161033d915f916103465750610722565b519283523392a2005b6101d49150843d86116101da576101cc8183610679565b84513d5f823e3d90fd5b9050346100bf57602091826003193601126100bf57610384610663565b61038d3361080e565b335f52600384526001825f20015492831561047357335f52600385525f6001848220015560018060a01b0390816001541690813b156100bf5784516340c10f1960e01b81526001600160a01b0385168282019081526020810188905290925f9184919082908490829060400103925af180156104695761043d575b505082519184835216907ff3055bc8d92d9c8d2f12b45d112dd345cd2cfd17292b8d65c5642ac6f912dfd7853392a351908152f35b67ffffffffffffffff8211610456575083525f80610408565b604190634e487b7160e01b5f525260245ffd5b85513d5f823e3d90fd5b825162461bcd60e51b815290810185905260086024820152671b9bc81e5a595b1960c21b6044820152606490fd5b82346100bf5760203660031901126100bf576104bb610663565b9060018060a01b0382165f5260036020526104ff815f20916104e3600184549401549461077e565b9051938493846040919493926060820195825260208201520152565b0390f35b82346100bf575f3660031901126100bf57602091549051908152f35b82346100bf575f3660031901126100bf5760015490516001600160a01b039091168152602090f35b82346100bf5760203660031901126100bf576001600160a01b03610569610663565b165f526003602052805f20906104ff825491600260018501549401549051938493846040919493926060820195825260208201520152565b9150346100bf5760203660031901126100bf575f54813592906001600160a01b031633036106375750620186a08211610604577f1928b8dd8d8a55881af81c5c67d8893146426443695f40a47c0c95411e2348fc602083858160025551908152a1005b606490602084519162461bcd60e51b8352820152600d60248201526c0e4c2e8ca40e8dede40d0d2ced609b1b6044820152fd5b602060649262461bcd60e51b835282015260096024820152683737ba1030b236b4b760b91b6044820152fd5b600435906001600160a01b03821682036100bf57565b90601f8019910116810190811067ffffffffffffffff82111761069b57604052565b634e487b7160e01b5f52604160045260245ffd5b156106b657565b60405162461bcd60e51b815260206004820152600b60248201526a1e995c9bc8185b5bdd5b9d60aa1b6044820152606490fd5b919082018092116106f657565b634e487b7160e01b5f52601160045260245ffd5b908160209103126100bf575180151581036100bf5790565b1561072957565b60405162461bcd60e51b815260206004820152600d60248201526c1d1c985b9cd9995c8819985a5b609a1b6044820152606490fd5b919082039182116106f657565b818102929181159184041417156106f657565b6001600160a01b03165f90815260036020526040812080546107ba92919080151580610801575b806107f4575b6107bd575b50600101546106e9565b90565b8192506107ec64496cebb800916107e76107dd600260019601544261075e565b916002549061076b565b61076b565b0491906107b0565b50600282015442116107ab565b50600282015415156107a5565b6001600160a01b03165f908152600360205260409020805480151580610883575b80610876575b610843575b50600242910155565b61085e64496cebb800916107e76107dd60028601544261075e565b0461086e600183019182546106e9565b90555f61083a565b5060028201544211610835565b506002820154151561082f56fea26469706673582212207e255bbe46f78a7308f3807cb8d97ab70160c7c11367102b140c418f6ea2f7e564736f6c63430008180033",
        "linkReferences": {}
    },
    "methodIdentifiers": {
        "admin()": "f851a440",
        "claimYield(address)": "999927df",
        "deposit(uint256)": "b6b55f25",
        "getStake(address)": "7a766460",
        "pendingYield(address)": "c7bf1980",
        "setYieldRate(uint256)": "1411dab0",
        "stakes(address)": "16934fc4",
        "totalPrincipal()": "4b1533b2",
        "usdc()": "3e413bee",
        "withdraw(address,uint256)": "f3fef3a3",
        "yieldRateBps()": "f3a6a4a3"
    },
    "id": 10
}