{"abi":[{"type":"constructor","inputs":[{"name":"_kredioPASMarket","type":"address","internalType":"address"},{"name":"_kredioLending","type":"address","internalType":"address"},{"name":"_kredioSwap","type":"address","internalType":"address"},{"name":"_mockUSDC","type":"address","internalType":"address"}],"stateMutability":"nonpayable"},{"type":"receive","stateMutability":"payable"},{"type":"function","name":"BORROW","inputs":[],"outputs":[{"name":"","type":"uint8","internalType":"uint8"}],"stateMutability":"view"},{"type":"function","name":"DEPOSIT_COLLATERAL","inputs":[],"outputs":[{"name":"","type":"uint8","internalType":"uint8"}],"stateMutability":"view"},{"type":"function","name":"DEPOSIT_LEND","inputs":[],"outputs":[{"name":"","type":"uint8","internalType":"uint8"}],"stateMutability":"view"},{"type":"function","name":"FULL_EXIT","inputs":[],"outputs":[{"name":"","type":"uint8","internalType":"uint8"}],"stateMutability":"view"},{"type":"function","name":"REPAY","inputs":[],"outputs":[{"name":"","type":"uint8","internalType":"uint8"}],"stateMutability":"view"},{"type":"function","name":"SWAP_AND_BORROW_COLLATERAL","inputs":[],"outputs":[{"name":"","type":"uint8","internalType":"uint8"}],"stateMutability":"view"},{"type":"function","name":"SWAP_AND_LEND","inputs":[],"outputs":[{"name":"","type":"uint8","internalType":"uint8"}],"stateMutability":"view"},{"type":"function","name":"WITHDRAW_COLLATERAL","inputs":[],"outputs":[{"name":"","type":"uint8","internalType":"uint8"}],"stateMutability":"view"},{"type":"function","name":"authorisedParachains","inputs":[{"name":"","type":"uint32","internalType":"uint32"}],"outputs":[{"name":"","type":"bool","internalType":"bool"}],"stateMutability":"view"},{"type":"function","name":"decodeAndValidate","inputs":[{"name":"intentType","type":"uint8","internalType":"uint8"},{"name":"intentData","type":"bytes","internalType":"bytes"}],"outputs":[{"name":"valid","type":"bool","internalType":"bool"},{"name":"reason","type":"string","internalType":"string"}],"stateMutability":"pure"},{"type":"function","name":"estimateIntent","inputs":[{"name":"user","type":"address","internalType":"address"},{"name":"intentType","type":"uint8","internalType":"uint8"},{"name":"intentData","type":"bytes","internalType":"bytes"}],"outputs":[{"name":"feasible","type":"bool","internalType":"bool"},{"name":"expectedOut","type":"uint256","internalType":"uint256"},{"name":"reason","type":"string","internalType":"string"}],"stateMutability":"view"},{"type":"function","name":"getSettlementHistory","inputs":[{"name":"user","type":"address","internalType":"address"},{"name":"offset","type":"uint256","internalType":"uint256"},{"name":"limit","type":"uint256","internalType":"uint256"}],"outputs":[{"name":"","type":"tuple[]","internalType":"struct KredioXCMSettler.Settlement[]","components":[{"name":"user","type":"address","internalType":"address"},{"name":"intentType","type":"uint8","internalType":"uint8"},{"name":"amountIn","type":"uint256","internalType":"uint256"},{"name":"amountOut","type":"uint256","internalType":"uint256"},{"name":"sourceParachain","type":"uint32","internalType":"uint32"},{"name":"executedAt","type":"uint256","internalType":"uint256"},{"name":"success","type":"bool","internalType":"bool"},{"name":"failureReason","type":"bytes","internalType":"bytes"}]}],"stateMutability":"view"},{"type":"function","name":"intentNonce","inputs":[{"name":"","type":"address","internalType":"address"}],"outputs":[{"name":"","type":"uint64","internalType":"uint64"}],"stateMutability":"view"},{"type":"function","name":"intentPaused","inputs":[{"name":"","type":"uint8","internalType":"uint8"}],"outputs":[{"name":"","type":"bool","internalType":"bool"}],"stateMutability":"view"},{"type":"function","name":"kredioLending","inputs":[],"outputs":[{"name":"","type":"address","internalType":"address"}],"stateMutability":"view"},{"type":"function","name":"kredioPASMarket","inputs":[],"outputs":[{"name":"","type":"address","internalType":"address"}],"stateMutability":"view"},{"type":"function","name":"kredioSwap","inputs":[],"outputs":[{"name":"","type":"address","internalType":"address"}],"stateMutability":"view"},{"type":"function","name":"mockUSDC","inputs":[],"outputs":[{"name":"","type":"address","internalType":"address"}],"stateMutability":"view"},{"type":"function","name":"owner","inputs":[],"outputs":[{"name":"","type":"address","internalType":"address"}],"stateMutability":"view"},{"type":"function","name":"pauseIntent","inputs":[{"name":"intentType","type":"uint8","internalType":"uint8"},{"name":"status","type":"bool","internalType":"bool"}],"outputs":[],"stateMutability":"nonpayable"},{"type":"function","name":"paused","inputs":[],"outputs":[{"name":"","type":"bool","internalType":"bool"}],"stateMutability":"view"},{"type":"function","name":"recoverStuckPAS","inputs":[],"outputs":[],"stateMutability":"nonpayable"},{"type":"function","name":"recoverStuckTokens","inputs":[{"name":"token","type":"address","internalType":"address"},{"name":"amount","type":"uint256","internalType":"uint256"}],"outputs":[],"stateMutability":"nonpayable"},{"type":"function","name":"setAuthorisedParachain","inputs":[{"name":"parachainId","type":"uint32","internalType":"uint32"},{"name":"status","type":"bool","internalType":"bool"}],"outputs":[],"stateMutability":"nonpayable"},{"type":"function","name":"setPaused","inputs":[{"name":"status","type":"bool","internalType":"bool"}],"outputs":[],"stateMutability":"nonpayable"},{"type":"function","name":"settleIntent","inputs":[{"name":"originAddress","type":"address","internalType":"address"},{"name":"intentType","type":"uint8","internalType":"uint8"},{"name":"intentData","type":"bytes","internalType":"bytes"},{"name":"sourceParachain","type":"uint32","internalType":"uint32"},{"name":"nonce","type":"uint64","internalType":"uint64"}],"outputs":[],"stateMutability":"payable"},{"type":"function","name":"settlementCount","inputs":[{"name":"","type":"address","internalType":"address"}],"outputs":[{"name":"","type":"uint256","internalType":"uint256"}],"stateMutability":"view"},{"type":"function","name":"updateProtocolAddresses","inputs":[{"name":"pasMarket","type":"address","internalType":"address"},{"name":"lending","type":"address","internalType":"address"},{"name":"swap","type":"address","internalType":"address"},{"name":"usdc","type":"address","internalType":"address"}],"outputs":[],"stateMutability":"nonpayable"},{"type":"event","name":"ContractPaused","inputs":[{"name":"status","type":"bool","indexed":false,"internalType":"bool"}],"anonymous":false},{"type":"event","name":"IntentExecuted","inputs":[{"name":"user","type":"address","indexed":true,"internalType":"address"},{"name":"intentType","type":"uint8","indexed":true,"internalType":"uint8"},{"name":"amountIn","type":"uint256","indexed":false,"internalType":"uint256"},{"name":"amountOut","type":"uint256","indexed":false,"internalType":"uint256"},{"name":"success","type":"bool","indexed":false,"internalType":"bool"}],"anonymous":false},{"type":"event","name":"IntentFailed","inputs":[{"name":"user","type":"address","indexed":true,"internalType":"address"},{"name":"intentType","type":"uint8","indexed":true,"internalType":"uint8"},{"name":"reason","type":"bytes","indexed":false,"internalType":"bytes"}],"anonymous":false},{"type":"event","name":"IntentPaused","inputs":[{"name":"intentType","type":"uint8","indexed":false,"internalType":"uint8"},{"name":"status","type":"bool","indexed":false,"internalType":"bool"}],"anonymous":false},{"type":"event","name":"IntentReceived","inputs":[{"name":"user","type":"address","indexed":true,"internalType":"address"},{"name":"intentType","type":"uint8","indexed":true,"internalType":"uint8"},{"name":"sourceParachain","type":"uint32","indexed":false,"internalType":"uint32"},{"name":"amountIn","type":"uint256","indexed":false,"internalType":"uint256"},{"name":"nonce","type":"uint64","indexed":false,"internalType":"uint64"}],"anonymous":false},{"type":"event","name":"ParachainAuthorised","inputs":[{"name":"parachainId","type":"uint32","indexed":false,"internalType":"uint32"},{"name":"status","type":"bool","indexed":false,"internalType":"bool"}],"anonymous":false},{"type":"error","name":"ReentrancyGuardReentrantCall","inputs":[]}],"bytecode":{"object":"0x6080346200016857601f6200378138819003918201601f19168301916001600160401b038311848410176200016c5780849260809460405283398101031262000168576200004d8162000180565b6200005b6020830162000180565b6200007760606200006f6040860162000180565b940162000180565b60017f9b779b17422d0df92223018b32b4d1fa46e071723d6817e2486d003becc55f00556001600160a01b0392831693909190841515806200015c575b8062000150575b8062000144575b15620001135783809260018060a01b03199633885f5416175f558760015416176001551685600254161760025516836003541617600355169060045416176004556040516135eb9081620001968239f35b60405162461bcd60e51b81526020600482015260096024820152683d32b9379030b2323960b91b6044820152606490fd5b508383161515620000c2565b508381161515620000bb565b508382161515620000b4565b5f80fd5b634e487b7160e01b5f52604160045260245ffd5b51906001600160a01b0382168203620001685756fe6080604052600436101561001a575b3615610018575f80fd5b005b60e05f3560e01c90816316c38b3c14610ff25781631971daa714610fba57816322d4a99f146109205781632f62fe34146108e9578163309bb825146108ce5781634241bb6614610894578163476554a214610879578163481045d71461078e5750806349d83809146106c25780635629fb0c146106a75780635c975abb14610685578063634a23201461064457806363ac448214610629578063714ea133146105c8578063721672b2146105ad57806376d1e9bf1461058557806378f0cc141461055d57806380d81b73146104e65780638500aca9146104cb5780638ce4c0e9146104a35780638da5cb5b1461047c5780638fca59bc146103ff57806396dc33f3146103e4578063c596f3fe146102d8578063ce5205aa1461022c578063d08266af1461019d578063ee467678146101755763f3164e230361000e5734610171575f36600319011261017157602060405160018152f35b5f80fd5b34610171575f366003190112610171576004546040516001600160a01b039091168152602090f35b34610171576040366003190112610171577f3654b42f8ae883310bb3d17bd536480e3efef37fe95258afaebf5079a939fb0260406101d96110d2565b63ffffffff6101e6611060565b916101fb60018060a01b035f54163314611123565b1690815f52600560205261021d81845f209060ff801983541691151516179055565b825191825215156020820152a1005b34610171575f366003190112610171575f546001600160a01b0316610252338214611123565b479081156102aa575f80809381935af161026a612027565b501561027257005b60405162461bcd60e51b815260206004820152601060248201526f141054c81c9958dbdd995c8819985a5b60821b6044820152606490fd5b60405162461bcd60e51b81526020600482015260066024820152656e6f2050415360d01b6044820152606490fd5b34610171576040366003190112610171575f60206103516102f761106f565b83546001600160a01b0390811691610310338414611123565b169061031d8215156114c8565b60405163a9059cbb60e01b81526001600160a01b039091166004820152602480359082015293849283919082906044820190565b03925af19081156103d9575f9161039f575b501561036b57005b60405162461bcd60e51b815260206004820152600c60248201526b1c9958dbdd995c8819985a5b60a21b6044820152606490fd5b90506020813d6020116103d1575b816103ba602093836111db565b81010312610171576103cb90611767565b81610363565b3d91506103ad565b6040513d5f823e3d90fd5b34610171575f36600319011261017157602060405160088152f35b34610171576040366003190112610171577fc429b0a57fc650595776fad32b36e22336a08aa1fdc86a1867d5ec52b95ef4f1604061043b611095565b60ff610445611060565b9161045a60018060a01b035f54163314611123565b1690815f52600960205261021d81845f209060ff801983541691151516179055565b34610171575f366003190112610171575f546040516001600160a01b039091168152602090f35b34610171575f366003190112610171576002546040516001600160a01b039091168152602090f35b34610171575f36600319011261017157602060405160028152f35b34610171576060366003190112610171576104ff61106f565b610507611085565b604435906001600160401b038211610171576105599261052e6105369336906004016110a5565b92909161181f565b6040939193519384931515845260208401526060604084015260608301906110e5565b0390f35b34610171575f366003190112610171576003546040516001600160a01b039091168152602090f35b34610171575f366003190112610171576001546040516001600160a01b039091168152602090f35b34610171575f36600319011261017157602060405160038152f35b34610171576040366003190112610171576105e1611095565b602435906001600160401b0382116101715761060461060a9236906004016110a5565b916115b3565b90610559604051928392151583526040602084015260408301906110e5565b34610171575f36600319011261017157602060405160058152f35b34610171576020366003190112610171576001600160a01b0361066561106f565b165f52600660205260206001600160401b0360405f205416604051908152f35b34610171575f36600319011261017157602060ff600a54166040519015158152f35b34610171575f36600319011261017157602060405160048152f35b34610171576080366003190112610171576106db61106f565b6024356001600160a01b0381811691829003610171576044359080821680920361017157606435938185168095036101715761071b825f54163314611123565b169182151580610785575b8061077c575b80610773575b61073b906114c8565b6bffffffffffffffffffffffff60a01b9283600154161760015582600254161760025581600354161760035560045416176004555f80f35b50831515610732565b5081151561072c565b50801515610726565b346101715760608060031936011261017157906107b96107ac61106f565b60443590602435906112a6565b604051916020808401908085528351809252604085018160408460051b8801019501935f975b8489106107ec5787870388f35b9091929394958480610867600193603f198c82030188528a518761010091878060a01b03815116845260ff868201511686850152604081015160408501528881015189850152608063ffffffff81830151169085015260a0808201519085015260c080820151151590850152015191818982015201906110e5565b980194019801979190949392946107df565b34610171575f36600319011261017157602060405160078152f35b346101715760203660031901126101715763ffffffff6108b26110d2565b165f526005602052602060ff60405f2054166040519015158152f35b34610171575f36600319011261017157602060405160068152f35b346101715760203660031901126101715760ff610904611095565b165f526009602052602060ff60405f2054166040519015158152f35b60a03660031901126101715761093461106f565b61093c611085565b6044356001600160401b0381116101715761095b9036906004016110a5565b91906064359263ffffffff8416840361017157608435916001600160401b03831683036101715760027f9b779b17422d0df92223018b32b4d1fa46e071723d6817e2486d003becc55f005414610fa85760027f9b779b17422d0df92223018b32b4d1fa46e071723d6817e2486d003becc55f005560ff600a5416610f725763ffffffff85165f52600560205260ff60405f20541615610f2d5760ff84165f52600960205260ff60405f205416610ef3576001600160a01b03861615610ec05760018060a01b0386165f52600660205260016001600160401b0360405f205416016001600160401b038111610d91576001600160401b03166001600160401b03841603610e8b57610aed9260018060a01b0387165f52600660205260405f206001600160401b0382166001600160401b03198254161790556001600160401b036040519163ffffffff8816835234602084015216604082015260ff8516907f925e3f75bf611056630c5b1a2b9a6c6e1ae62fd1543ac36e907bc92e86d6b503606060018060a01b038a1692a38386612065565b91909363ffffffff60405191610b028361115b565b60018060a01b038816835260ff861660208401523460408401528660608401521660808201524360a082015281151560c08201528260e082015260018060a01b0386165f52600760205260405f20805468010000000000000000811015610e6457610b72916001820181556111fc565b919091610e78578051825460208301516001600160a81b03199091166001600160a01b03929092169190911760a091821b60ff60a01b161783556040820151600184015560608201516002840155608082015160038401805463ffffffff191663ffffffff92909216919091179055810151600483015560c081015160058301805491151560ff1660ff199290921691909117905560e001518051906001600160401b038211610e6457610c296006840154611229565b601f8111610e1c575b50602090601f8311600114610db057600692915f9183610da5575b50508160011b915f199060031b1c1916179101555b6001600160a01b0385165f90815260086020526040902080546001810191908210610d91575515610cfa5750606060ff7f699053488e91eabb3eaff54c6de4e585018eb5d7b4e5c31bbe7cfea8117749039260405194348652602086015260016040860152169360018060a01b031692a35b60017f9b779b17422d0df92223018b32b4d1fa46e071723d6817e2486d003becc55f0055005b604051602080825292935060ff8416926001600160a01b038616927ef83b977be951a19a64a40a5b046d43911cbd22637031a13db4e98c2a86ceb092918291610d45918301906110e5565b0390a37f699053488e91eabb3eaff54c6de4e585018eb5d7b4e5c31bbe7cfea811774903606060ff604051933485525f60208601525f6040860152169360018060a01b031692a3610cd4565b634e487b7160e01b5f52601160045260245ffd5b015190508980610c4d565b90600684015f5260205f20915f5b601f1985168110610e045750918391600193600695601f19811610610dec575b505050811b01910155610c62565b01515f1960f88460031b161c19169055898080610dde565b91926020600181928685015181550194019201610dbe565b600684015f5260205f20601f840160051c81019160208510610e5a575b601f0160051c01905b818110610e4f5750610c32565b5f8155600101610e42565b9091508190610e39565b634e487b7160e01b5f52604160045260245ffd5b634e487b7160e01b5f525f60045260245ffd5b60405162461bcd60e51b815260206004820152600d60248201526c696e76616c6964206e6f6e636560981b6044820152606490fd5b60405162461bcd60e51b815260206004820152600b60248201526a3d32b9379037b934b3b4b760a91b6044820152606490fd5b60405162461bcd60e51b81526020600482015260126024820152711a5b9d195b9d081d1e5c19481c185d5cd95960721b6044820152606490fd5b60405162461bcd60e51b815260206004820152601860248201527f70617261636861696e206e6f7420617574686f726973656400000000000000006044820152606490fd5b60405162461bcd60e51b815260206004820152600e60248201526d1cd95d1d1b195c881c185d5cd95960921b6044820152606490fd5b604051633ee5aeb560e01b8152600490fd5b34610171576020366003190112610171576001600160a01b03610fdb61106f565b165f526008602052602060405f2054604051908152f35b34610171576020366003190112610171576004358015158091036101715760207f752d7e161ff5146f80e3820893176eb40532811e5e20400dfdde57455213706a9161104860018060a01b035f54163314611123565b60ff19600a541660ff821617600a55604051908152a1005b60243590811515820361017157565b600435906001600160a01b038216820361017157565b6024359060ff8216820361017157565b6004359060ff8216820361017157565b9181601f84011215610171578235916001600160401b038311610171576020838186019501011161017157565b6004359063ffffffff8216820361017157565b91908251928382525f5b84811061110f575050825f602080949584010152601f8019910116010190565b6020818301810151848301820152016110ef565b1561112a57565b60405162461bcd60e51b81526020600482015260096024820152683737ba1037bbb732b960b91b6044820152606490fd5b61010081019081106001600160401b03821117610e6457604052565b6001600160401b038111610e6457604052565b602081019081106001600160401b03821117610e6457604052565b604081019081106001600160401b03821117610e6457604052565b606081019081106001600160401b03821117610e6457604052565b90601f801991011681019081106001600160401b03821117610e6457604052565b8054821015611215575f52600760205f20910201905f90565b634e487b7160e01b5f52603260045260245ffd5b90600182811c92168015611257575b602083101461124357565b634e487b7160e01b5f52602260045260245ffd5b91607f1691611238565b91908201809211610d9157565b6001600160401b038111610e645760051b60200190565b91908203918211610d9157565b80518210156112155760209160051b010190565b909160018060a01b038092165f52602060078152604092835f2092835490818710156114b1576112ea916112db889283611261565b908082116114a9575b50611285565b926112f48461126e565b95611301865197886111db565b848752601f196113108661126e565b01845f5b828110611465575050505f5b858110611331575050505050505090565b61134461133e8284611261565b846111fc565b508751906113518261115b565b80548681168352600660ff928360a093841c168a860152600192838201548d8701526002820154606087015263ffffffff60038301541660808701526004820154908601526005938482015416151560c086015201908a51925f9280548b6113b882611229565b8088529382861692831561143f57505050600114611406575b505050906113e581600195949303826111db565b60e08201526113f4828b611292565b526113ff818a611292565b5001611320565b8a93505f52825f20915f925b82841061142a575050508201016113e58260016113d1565b80548685018601528b94909301928101611412565b60ff19168289015293151590931b860190920193506113e59250849150600190506113d1565b88516114708161115b565b5f81525f838201525f8a82015260605f818301525f60808301525f60a08301525f60c083015260e082015282828c010152018590611314565b90505f6112e4565b50505050509050516114c28161118a565b5f815290565b156114cf57565b60405162461bcd60e51b81526020600482015260096024820152683d32b9379030b2323960b91b6044820152606490fd5b6040519061150d826111a5565b6013825272756e6b6e6f776e20696e74656e74207479706560681b6020830152565b6040519061153c826111c0565b60298252681c9bddd05b5bdd5b9d60ba1b6040837f6461746120746f6f2073686f72743a206e6565642075696e7432353620626f7260208201520152565b60405190611587826111a5565b601882527f626f72726f77416d6f756e74206d757374206265203e203000000000000000006020830152565b6001929060ff168381036115d157505050906040516114c28161118a565b6002810361161c57506020811061160f57816020918101031261017157351561160157906040516114c28161118a565b505f9061160c61157a565b90565b5050505f9061160c61152f565b6003810361163457505050906040516114c28161118a565b600481036116e757506020811061169957816020918101031261017157351561166457906040516114c28161118a565b505f90604051611673816111a5565b601681527506c656e64416d6f756e74206d757374206265203e20360541b602082015290565b5050505f906040516116aa816111c0565b602781527f6461746120746f6f2073686f72743a206e6565642075696e74323536206c656e60208201526619105b5bdd5b9d60ca1b604082015290565b600581036116ff57505050906040516114c28161118a565b6006810361172f57506020811061160f57816020918101031261017157351561160157906040516114c28161118a565b915050600781036117485750906040516114c28161118a565b60080361175c57906040516114c28161118a565b505f9061160c611500565b5190811515820361017157565b91908260c091031261017157815191602081015191604082015163ffffffff811681036101715791606081015191608082015160ff811681036101715760a061160c919301611767565b604051906117cb826111a5565b600c82526b696e76616c6964206461746160a01b6020830152565b604051906117f3826111a5565b601c82527f696e73756666696369656e74205553444320696e20736574746c6572000000006020830152565b600193929160ff168481036118945750505050905f90604051611841816111c0565b603b81527f77696c6c206465706f736974206d73672e76616c75652061732050415320636f60208201527f6c6c61746572616c20696e204b726564696f5041534d61726b65740000000000604082015290565b9394929360028103611a80575050602092838110611a6f57818491810103126101715735928315611a435780546040805163055f575160e41b81523060048201529094916001600160a01b03169060c081602481855afa908115611a39575f905f92611a03575b5081156119f9575b506119b05781602491865192838092630286fca160e61b82523060048301525afa9081156119a6575f91611979575b501561194557509291516114c28161118a565b9350505f92731b9bc818dbdb1b185d195c985b081c1bdcdd195960621b5f93519161196f836111a5565b6014835282015290565b90508181813d831161199f575b61199081836111db565b8101031261017157515f611932565b503d611986565b85513d5f823e3d90fd5b509350505f926234b7b760e91b5f937f736574746c657220616c7265616479206861732061637469766520706f7369748151936119ec856111c0565b6023855284015282015290565b905015155f611903565b9050611a27915060c03d60c011611a32575b611a1f81836111db565b810190611774565b94505050505f6118fb565b503d611a15565b86513d5f823e3d90fd5b506040515f935083926a1e995c9bc8185b5bdd5b9d60aa1b90611a65836111a5565b600b835282015290565b50509150505f905f9061160c6117be565b909492939160038203611bca57505081546040805163055f575160e41b81523060048201529495509391506001600160a01b039060c0908390602490829085165afa8015611b59575f925f91611ba1575b5015611b63576020602491600454168551928380926370a0823160e01b82523060048301525afa908115611b59575f91611b27575b5010611b1957915f91516114c28161118a565b50505f905f9061160c6117e6565b90506020813d602011611b51575b81611b42602093836111db565b8101031261017157515f611b06565b3d9150611b35565b84513d5f823e3d90fd5b5050505f915f9151611b74816111a5565b601b81527f6e6f2061637469766520706f736974696f6e20746f2072657061790000000000602082015290565b9050611bbd91925060c03d60c011611a3257611a1f81836111db565b959450505050915f611ad1565b600491808303611cc25750602092838110611caf57818491810103126101715781546040516370a0823160e01b81526001600160a01b0397881693810193909352903595839183916024918391165afa80156103d95785915f91611c7e575b5010611c3e575091906040516114c28161118a565b919250505f915f917f696e73756666696369656e7420555344432062616c616e63650000000000000060405191611c74836111a5565b6019835282015290565b809250838092503d8311611ca8575b611c9781836111db565b81010312610171578490515f611c29565b503d611c8d565b505050505090505f905f9061160c6117be565b909291939550600581145f14611dcb57505050670de0b6b3a7640000919260018060a01b0360035416604051938493632ecd3aed60e11b855284015282602460209586935afa5f9281611d9c575b50611d485750505f915f91716f7261636c6520756e617661696c61626c6560701b60405191611d3e836111a5565b6012835282015290565b9290917f71756f7465206973206d55534443206f7574207065722031205041533b20736360405191611d79836111c0565b603083528201526f616c65206279206d73672e76616c756560801b604082015290565b9092508381813d8311611dc4575b611db481836111db565b810103126101715751915f611d10565b503d611daa565b9192909160068103611e4857505060208110611e385781602091810103126101715735918215611e035791906040516114c28161118a565b5090505f905f90604051611e16816111a5565b60128152711e995c9bc8189bdc9c9bddc8185b5bdd5b9d60721b602082015290565b505090505f905f9061160c6117be565b90939250905060078103611fc3575060018060a01b0383541692604092835163055f575160e41b8152308282015260c081602481895afa9081156119a6575f905f92611f9d575b5081611f93575b50611f54576020906024855180978193630286fca160e61b835230908301525afa938415611f4a575f94611f16575b508315611ed8579291516114c28161118a565b5091505f915f9151611ee9816111a5565b601981527f6e6f20636f6c6c61746572616c20746f20776974686472617700000000000000602082015290565b9093506020813d602011611f42575b81611f32602093836111db565b810103126101715751925f611ec5565b3d9150611f25565b83513d5f823e3d90fd5b505091505f915f9151611f66816111a5565b601881527f61637469766520646562743a2072657061792066697273740000000000000000602082015290565b905015155f611e96565b9050611fb8915060c03d60c011611a3257611a1f81836111db565b94505050505f611e8f565b60089193925014611fdb57505f905f9061160c611500565b905f90604051611fea816111c0565b602781527f77696c6c207265706179206465627420616e6420776974686472617720636f6c6020820152661b185d195c985b60ca1b604082015290565b3d15612060573d906001600160401b038211610e645760405191612055601f8201601f1916602001846111db565b82523d5f602084013e565b606090565b91929060ff1690600182145f1461208a575050505061208334613516565b9192909190565b8390600283036120ab576020925081010312610171576120839135906133f8565b9050600382036120c157505050506120836131c1565b8391600481036120e257506020925081010312610171576120839035612fc7565b909150600581036120fa575050505061208334612cd5565b6006810361211a5750826020918101031261017157612083913590612746565b9192505060078103612130575061208390612517565b60080361214057612083906121b3565b50612149611500565b5f915f9190565b6040519061215d826111a5565b600e82526d185c1c1c9bdd994819985a5b195960921b6020830152565b60405190612187826111a5565b601a82527f50415320666f727761726420746f2075736572206661696c65640000000000006020830152565b600180546040805163055f575160e41b8152306004808301919091525f96956001600160a01b0395939490929086169060c081602481855afa908115611a39575f905f926124f1575b50816124e7575b506122c5575b508647918685541690813b156122c15782918291885180958193632ce0a9df60e11b83525af191826122a9575b505061224d575050505050612249612027565b8291565b9061225d87949695979247611285565b9687918261227c575b50505050939251906122778261118a565b815290565b839283928392165af161228d612027565b501561229c5781855f80612266565b509250905061224961217a565b6122b290611177565b6122bd57875f612236565b8780fd5b8280fd5b815485516370a0823160e01b81523081850152602092918816908381602481855afa9081156124dd575f916124b0575b50801561247357875163095ea7b360e01b8082526001600160a01b03909416868201908152602081019290925291849183919082905f90829060400103925af1908115612469575f91612434575b5015612423575f90606088875416803b15610171575f8091878b518094819363402d888360e01b83525af19081612410575b506124075750612383612027565b925b808b60448b885416948c8b5416928c51968794859384528b8401528160248401525af180156123fd576123c5575b50506122095795945050505050829190565b81813d83116123f6575b6123d981836111db565b810103126123f2576123ea90611767565b505f806123b3565b8980fd5b503d6123cf565b88513d8d823e3d90fd5b92869250612385565b61241b919c50611177565b5f9a5f612375565b505050505050509050612149612150565b90508281813d8311612462575b61244b81836111db565b810103126101715761245c90611767565b5f612343565b503d612441565b87513d5f823e3d90fd5b505050959650505050741b9bc81554d110c81d1bc81c995c185e481919589d605a1b915051916124a2836111a5565b601583528201525f915f9190565b90508381813d83116124d6575b6124c781836111db565b8101031261017157515f6122f5565b503d6124bd565b88513d5f823e3d90fd5b905015155f612203565b905061250c915060c03d60c011611a3257611a1f81836111db565b94505050505f6121fc565b6001546040805163055f575160e41b81523060048201525f94936001600160a01b039390919084169060c081602481855afa908115611b59575f905f92612665575b508161265b575b50612608574790803b15610171575f80916004865180948193632ce0a9df60e11b83525af190816125f5575b5061259d5750505050612249612027565b906125ad86939594969247611285565b958691826125c9575b505050506001939251906122778261118a565b839283928392165af16125da612027565b50156125e95780845f806125b6565b9250905061224961217a565b612600919750611177565b5f955f61258c565b505080519293506814105648199a5c9cdd60ba1b9150612627836111c0565b602983527f61637469766520646562743a207573652046554c4c5f45584954206f7220524560208401528201525f915f9190565b905015155f612560565b9050612680915060c03d60c011611a3257611a1f81836111db565b94505050505f612559565b60405190612698826111a5565b60088252677a65726f2050415360c01b6020830152565b604051906126bc826111a5565b600b82526a7a65726f20626f72726f7760a81b6020830152565b604051906126e3826111a5565b6012825271737761702072657475726e6564207a65726f60701b6020830152565b1561270b57565b60405162461bcd60e51b8152602060048201526013602482015272189bdc9c9bddc8199bdc9dd85c990819985a5b606a1b6044820152606490fd5b905f913415612cca578115612cbf5760018060a01b0391826003541691604090815193632ecd3aed60e11b8552600491348387015260209460249686818981875afa5f9181612c90575b506127a75750505050505050505050612149612027565b99979899606381029080820460631490151715612c7e57898554169386519188838b816370a0823160e01b998a8252308c8301525afa9283156124dd575f93612c4f575b50813b156101715760648a5f928a519485938492634a5c8c6f60e11b8452048b83015234905af19081612c38575b508b929190612835575050505050505050509050612249612027565b8a865416908751868152308882015289818c81865afa908115612c2e578591612bf9575b509061286491611285565b908115612be557600254885163095ea7b360e01b808252918e166001600160a01b0316898201908152602081018590529197969594939290918b91839182908890829060400103925af1908115612bdb578491612ba6575b5015612b92578b6002541690813b15612968578380918c8a838d51968794859363bad4a01f60e01b85528401525af19182612b7e575b505061297c575060449250869493915061290a612027565b99818186541691600254169988519a8b97889687528601528401525af1908115612973575061293b575b5050829190565b81813d831161296c575b61294f81836111db565b810103126129685761296090611767565b505f80612934565b8380fd5b503d612945565b513d87823e3d90fd5b88999a92945097929796959686838754168951958680928d8252308b8301525afa938415612b74578294612b41575b50826002541690813b156122c15782918b83928b51958693849263317afabb60e21b84528c8401525af19182612b29575b50506129f2575050505050505050612249612027565b8490849a96989a99979954169888519a8b9182523086830152818b5afa8015612b1f5785969798998691612aea575b5090612a2c91611285565b97889182612a4a575b5050505050506001939251906122778261118a565b885163a9059cbb60e01b81526001600160a01b039091169381019384526020840192909252909383928592918391829060400103925af1908115612ae0578391612aa5575b50612a9a9150612704565b805f80868180612a35565b905081813d8311612ad9575b612abb81836111db565b81010312612ad557612acf612a9a91611767565b5f612a8f565b5080fd5b503d612ab1565b85513d85823e3d90fd5b80929650858092503d8311612b18575b612b0481836111db565b810103126101715751859490612a2c612a21565b503d612afa565b87513d87823e3d90fd5b612b3290611177565b612b3d578a5f6129dc565b8a80fd5b87809295508193503d8311612b6d575b612b5b81836111db565b81010312610171578a9051925f6129ab565b503d612b51565b88513d84823e3d90fd5b612b8790611177565b6122c157825f6128f2565b505050505050505050509050612249612150565b90508981813d8311612bd4575b612bbd81836111db565b8101031261296857612bce90611767565b5f6128bc565b503d612bb3565b89513d86823e3d90fd5b5050505050505050505090506122496126d6565b809295508a8092503d8311612c27575b612c1381836111db565b8101031261017157518c9390612864612859565b503d612c09565b89513d87823e3d90fd5b612c459193929c50611177565b5f9a90915f612819565b9092508881813d8311612c77575b612c6781836111db565b810103126101715751915f6127eb565b503d612c5d565b87601186634e487b7160e01b5f52525ffd5b9091508781813d8311612cb8575b612ca881836111db565b810103126101715751905f612790565b503d612c9e565b5050506121496126af565b50505061214961268b565b5f908015612fbd5760035460408051632ecd3aed60e11b815260048082018590526001600160a01b039460249460209493908716919085818881865afa5f9181612f8e575b50612d3057505050505050505050612149612027565b9896979891606383029280840460631490151715612f7c57888454169185519387858a816370a0823160e01b97888252308b8301525afa948515612469575f95612f4d575b50823b1561017157886064915f9389519586948593634a5c8c6f60e11b8552048a8401525af19081612f3a575b50612db7575050505050509050612249612027565b87835416918451918252308483015285828881865afa8015612ef1578a90612f0b575b612de49250611285565b8015612efb578760025416918585518092818d81612e258863095ea7b360e01b9a8b84528c840160209093929193604081019460018060a01b031681520152565b03925af1908115612ef1578a91612ebc575b5015612eac57888860025416803b15612ad5578180918988518095819363b6b55f2560e01b8352888b8401525af19182612e98575b5050612e81575090604484928961290a612027565b97945050509350506001939251906122778261118a565b612ea190611177565b6123f257895f612e6c565b5050505050509050612249612150565b90508581813d8311612eea575b612ed381836111db565b810103126123f257612ee490611767565b5f612e37565b503d612ec9565b85513d8c823e3d90fd5b50505050505090506122496126d6565b508582813d8311612f33575b612f2181836111db565b8101031261017157612de49151612dda565b503d612f17565b612f45919a50611177565b5f985f612da2565b9094508781813d8311612f75575b612f6581836111db565b810103126101715751935f612d75565b503d612f5b565b86601185634e487b7160e01b5f52525ffd5b9091508681813d8311612fb6575b612fa681836111db565b810103126101715751905f612d1a565b503d612f9c565b505061214961268b565b5f91811561318e5760048054604080516370a0823160e01b815230818501526001600160a01b03928316959293602093909184816024818b5afa908115611b59579082915f9161315d575b501061314d57600254835163095ea7b360e01b8082529187166001600160a01b03168482019081526020810184905291989091869183918290819060400103915a905f91f1908115611b59575f91613118575b5015613108578460025416803b15610171575f8091602486518094819363b6b55f2560e01b835287898401525af190816130f5575b506130df5750829060446130ac612027565b9789878454169760025416978651988995869485528401528160248401525af1908115612973575061293b575050829190565b969350509350506001939251906122778261118a565b613100919950611177565b5f975f61309a565b5050505050915050612149612150565b90508481813d8311613146575b61312f81836111db565b810103126101715761314090611767565b5f613065565b503d613125565b50505050509150506121496117e6565b809250868092503d8311613187575b61317681836111db565b81010312610171578190515f613012565b503d61316c565b91505060405161319d816111a5565b601081526f1e995c9bc81b195b9908185b5bdd5b9d60821b60208201525f915f9190565b60048054604080516370a0823160e01b815230818501525f949093909290916001600160a01b03916020919083168287602481845afa96871561337c575f976133c9575b50861561338657826132495f92866001541699855194858094819363095ea7b360e01b9e8f84528d840160209093929193604081019460018060a01b031681520152565b03925af190811561337c575f91613347575b5015613338575f9360608460015416803b15610171575f80918486518094819363402d888360e01b83525af19081613325575b506133165750829060446132a0612027565b985b8a878454169760015416978651988995869485528401528160248401525af190811561330d57506132d5575b5050929190565b81813d8311613306575b6132e981836111db565b81010312613302576132fa90611767565b505f806132ce565b8480fd5b503d6132df565b513d88823e3d90fd5b969450829060446001966132a2565b613330919a50611177565b5f985f61328e565b50505050915050612149612150565b90508281813d8311613375575b61335e81836111db565b810103126101715761336f90611767565b5f61325b565b503d613354565b82513d5f823e3d90fd5b5092509350507f6e6f205553444320696e20736574746c657220666f722072657061790000000091935051916133bb836111a5565b601c83528201525f915f9190565b9096508281813d83116133f1575b6133e181836111db565b810103126101715751955f613205565b503d6133d7565b91905f92811561350a5760048054604080516370a0823160e01b808252308286015295909491936020939092916001600160a01b039185908890602490829086165afa968715611a39575f976134db575b50816001541690813b15610171575f91602483928951948593849263317afabb60e21b84528a8401525af190816134c8575b5061348f5750505050505050612249612027565b8298949698979597541696865198895230838a015283896024818b5afa8015612b1f5785969798998691612aea575090612a2c91611285565b6134d3919a50611177565b5f985f61347b565b9096508481813d8311613503575b6134f381836111db565b810103126101715751955f613449565b503d6134e9565b505090506121496126af565b905f918015613584576001546001600160a01b0316803b15610171575f82916004604051809481936301bdd60560e61b83525af19081613571575b5061355f5750612249612027565b6040516001939192916122778261118a565b61357c919450611177565b5f925f613551565b509050604051613593816111a5565b600e81526d7a65726f205041532076616c756560901b60208201525f915f919056fea2646970667358221220d41146a204a8ee1bba289bab37340424e36170e6a44d6fdfc19955ec3bdebd9164736f6c63430008180033","linkReferences":{}},"methodIdentifiers":{"BORROW()":"8500aca9","DEPOSIT_COLLATERAL()":"f3164e23","DEPOSIT_LEND()":"5629fb0c","FULL_EXIT()":"96dc33f3","REPAY()":"721672b2","SWAP_AND_BORROW_COLLATERAL()":"309bb825","SWAP_AND_LEND()":"63ac4482","WITHDRAW_COLLATERAL()":"476554a2","authorisedParachains(uint32)":"4241bb66","decodeAndValidate(uint8,bytes)":"714ea133","estimateIntent(address,uint8,bytes)":"80d81b73","getSettlementHistory(address,uint256,uint256)":"481045d7","intentNonce(address)":"634a2320","intentPaused(uint8)":"2f62fe34","kredioLending()":"8ce4c0e9","kredioPASMarket()":"76d1e9bf","kredioSwap()":"78f0cc14","mockUSDC()":"ee467678","owner()":"8da5cb5b","pauseIntent(uint8,bool)":"8fca59bc","paused()":"5c975abb","recoverStuckPAS()":"ce5205aa","recoverStuckTokens(address,uint256)":"c596f3fe","setAuthorisedParachain(uint32,bool)":"d08266af","setPaused(bool)":"16c38b3c","settleIntent(address,uint8,bytes,uint32,uint64)":"22d4a99f","settlementCount(address)":"1971daa7","updateProtocolAddresses(address,address,address,address)":"49d83809"},"id":7}