{
  "_format": "hh-sol-artifact-1",
  "contractName": "TesseractVault",
  "sourceName": "evm/TesseractVault.sol",
  "abi": [
    {
      "inputs": [
        {
          "internalType": "address",
          "name": "_asset",
          "type": "address"
        },
        {
          "internalType": "address",
          "name": "_xcmPrecompile",
          "type": "address"
        },
        {
          "internalType": "address",
          "name": "_systemPrecompile",
          "type": "address"
        },
        {
          "internalType": "address",
          "name": "_computeContract",
          "type": "address"
        },
        {
          "internalType": "string",
          "name": "_name",
          "type": "string"
        },
        {
          "internalType": "string",
          "name": "_symbol",
          "type": "string"
        }
      ],
      "stateMutability": "nonpayable",
      "type": "constructor"
    },
    {
      "inputs": [],
      "name": "ReentrancyGuardReentrantCall",
      "type": "error"
    },
    {
      "anonymous": false,
      "inputs": [
        {
          "indexed": false,
          "internalType": "address",
          "name": "computeContract",
          "type": "address"
        }
      ],
      "name": "ComputeContractSet",
      "type": "event"
    },
    {
      "anonymous": false,
      "inputs": [
        {
          "indexed": true,
          "internalType": "address",
          "name": "sender",
          "type": "address"
        },
        {
          "indexed": true,
          "internalType": "address",
          "name": "receiver",
          "type": "address"
        },
        {
          "indexed": false,
          "internalType": "uint256",
          "name": "assets",
          "type": "uint256"
        },
        {
          "indexed": false,
          "internalType": "uint256",
          "name": "shares",
          "type": "uint256"
        }
      ],
      "name": "Deposit",
      "type": "event"
    },
    {
      "anonymous": false,
      "inputs": [
        {
          "indexed": false,
          "internalType": "uint64",
          "name": "bestStrategyIndex",
          "type": "uint64"
        },
        {
          "indexed": false,
          "internalType": "bytes",
          "name": "xcmMessage",
          "type": "bytes"
        },
        {
          "indexed": false,
          "internalType": "uint64",
          "name": "refTime",
          "type": "uint64"
        },
        {
          "indexed": false,
          "internalType": "uint64",
          "name": "proofSize",
          "type": "uint64"
        }
      ],
      "name": "Rebalanced",
      "type": "event"
    },
    {
      "anonymous": false,
      "inputs": [
        {
          "indexed": true,
          "internalType": "address",
          "name": "sender",
          "type": "address"
        },
        {
          "indexed": true,
          "internalType": "address",
          "name": "receiver",
          "type": "address"
        },
        {
          "indexed": false,
          "internalType": "uint256",
          "name": "assets",
          "type": "uint256"
        },
        {
          "indexed": false,
          "internalType": "uint256",
          "name": "shares",
          "type": "uint256"
        }
      ],
      "name": "Withdraw",
      "type": "event"
    },
    {
      "inputs": [],
      "name": "asset",
      "outputs": [
        {
          "internalType": "contract IERC20",
          "name": "",
          "type": "address"
        }
      ],
      "stateMutability": "view",
      "type": "function"
    },
    {
      "inputs": [
        {
          "internalType": "address",
          "name": "",
          "type": "address"
        }
      ],
      "name": "balanceOf",
      "outputs": [
        {
          "internalType": "uint256",
          "name": "",
          "type": "uint256"
        }
      ],
      "stateMutability": "view",
      "type": "function"
    },
    {
      "inputs": [],
      "name": "computeContract",
      "outputs": [
        {
          "internalType": "address",
          "name": "",
          "type": "address"
        }
      ],
      "stateMutability": "view",
      "type": "function"
    },
    {
      "inputs": [
        {
          "internalType": "uint256",
          "name": "shares",
          "type": "uint256"
        }
      ],
      "name": "convertToAssets",
      "outputs": [
        {
          "internalType": "uint256",
          "name": "",
          "type": "uint256"
        }
      ],
      "stateMutability": "view",
      "type": "function"
    },
    {
      "inputs": [
        {
          "internalType": "uint256",
          "name": "assets",
          "type": "uint256"
        }
      ],
      "name": "convertToShares",
      "outputs": [
        {
          "internalType": "uint256",
          "name": "",
          "type": "uint256"
        }
      ],
      "stateMutability": "view",
      "type": "function"
    },
    {
      "inputs": [],
      "name": "decimals",
      "outputs": [
        {
          "internalType": "uint8",
          "name": "",
          "type": "uint8"
        }
      ],
      "stateMutability": "view",
      "type": "function"
    },
    {
      "inputs": [
        {
          "internalType": "uint256",
          "name": "assets",
          "type": "uint256"
        },
        {
          "internalType": "address",
          "name": "receiver",
          "type": "address"
        }
      ],
      "name": "deposit",
      "outputs": [
        {
          "internalType": "uint256",
          "name": "shares",
          "type": "uint256"
        }
      ],
      "stateMutability": "nonpayable",
      "type": "function"
    },
    {
      "inputs": [],
      "name": "name",
      "outputs": [
        {
          "internalType": "string",
          "name": "",
          "type": "string"
        }
      ],
      "stateMutability": "view",
      "type": "function"
    },
    {
      "inputs": [],
      "name": "owner",
      "outputs": [
        {
          "internalType": "address",
          "name": "",
          "type": "address"
        }
      ],
      "stateMutability": "view",
      "type": "function"
    },
    {
      "inputs": [
        {
          "internalType": "uint256",
          "name": "assets",
          "type": "uint256"
        }
      ],
      "name": "previewDeposit",
      "outputs": [
        {
          "internalType": "uint256",
          "name": "",
          "type": "uint256"
        }
      ],
      "stateMutability": "view",
      "type": "function"
    },
    {
      "inputs": [
        {
          "internalType": "uint256",
          "name": "shares",
          "type": "uint256"
        }
      ],
      "name": "previewWithdraw",
      "outputs": [
        {
          "internalType": "uint256",
          "name": "",
          "type": "uint256"
        }
      ],
      "stateMutability": "view",
      "type": "function"
    },
    {
      "inputs": [
        {
          "internalType": "uint64[]",
          "name": "strategyAprs",
          "type": "uint64[]"
        },
        {
          "internalType": "bytes",
          "name": "xcmMessage",
          "type": "bytes"
        }
      ],
      "name": "rebalance",
      "outputs": [],
      "stateMutability": "nonpayable",
      "type": "function"
    },
    {
      "inputs": [
        {
          "internalType": "address",
          "name": "_compute",
          "type": "address"
        }
      ],
      "name": "setComputeContract",
      "outputs": [],
      "stateMutability": "nonpayable",
      "type": "function"
    },
    {
      "inputs": [],
      "name": "symbol",
      "outputs": [
        {
          "internalType": "string",
          "name": "",
          "type": "string"
        }
      ],
      "stateMutability": "view",
      "type": "function"
    },
    {
      "inputs": [],
      "name": "systemPrecompile",
      "outputs": [
        {
          "internalType": "address",
          "name": "",
          "type": "address"
        }
      ],
      "stateMutability": "view",
      "type": "function"
    },
    {
      "inputs": [],
      "name": "totalAssets",
      "outputs": [
        {
          "internalType": "uint256",
          "name": "",
          "type": "uint256"
        }
      ],
      "stateMutability": "view",
      "type": "function"
    },
    {
      "inputs": [],
      "name": "totalSupply",
      "outputs": [
        {
          "internalType": "uint256",
          "name": "",
          "type": "uint256"
        }
      ],
      "stateMutability": "view",
      "type": "function"
    },
    {
      "inputs": [
        {
          "internalType": "uint256",
          "name": "shares",
          "type": "uint256"
        },
        {
          "internalType": "address",
          "name": "receiver",
          "type": "address"
        }
      ],
      "name": "withdraw",
      "outputs": [
        {
          "internalType": "uint256",
          "name": "assets",
          "type": "uint256"
        }
      ],
      "stateMutability": "nonpayable",
      "type": "function"
    },
    {
      "inputs": [],
      "name": "xcmPrecompile",
      "outputs": [
        {
          "internalType": "address",
          "name": "",
          "type": "address"
        }
      ],
      "stateMutability": "view",
      "type": "function"
    }
  ],
  "bytecode": "0x60e060405234620003e65762001589803803806200001d81620003eb565b92833981019060c081830312620003e657620000398162000427565b6020926200004984840162000427565b92620000586040820162000427565b91620000676060830162000427565b608083015190936001600160401b03939091848111620003e657836200008f9183016200043c565b9260a0820151858111620003e657620000a992016200043c565b90600196877f9b779b17422d0df92223018b32b4d1fa46e071723d6817e2486d003becc55f005560018060a01b0380971660805260a05260c05260018060a01b03199460009416858554161784558151838111620003d257600254928784811c94168015620003c7575b89851014620003b3578190601f948581116200035f575b508990858311600114620002f9578792620002ed575b5050600019600383901b1c191690871b176002555b8051928311620002d95760039384548781811c91168015620002ce575b89821014620002ba5783811162000272575b50879284116001146200020a5783949596975092620001fe575b505060001982841b1c191690841b1790555b815416331790556040516110da9081620004af823960805181818161044f015281816105a70152610c99015260a05181818161070e0152610a8d015260c05181818161010d01526106a00152f35b0151905038806200019e565b9190601f1984169785845280842093905b8982106200025a575050838798979596971062000241575b505050811b019055620001b0565b015160001983861b60f8161c1916905538808062000233565b8089859682949686015181550195019301906200021b565b8582528882208480870160051c8201928b8810620002b0575b0160051c019088905b828110620002a457505062000184565b83815501889062000294565b925081926200028b565b634e487b7160e01b82526022600452602482fd5b90607f169062000172565b634e487b7160e01b84526041600452602484fd5b01519050388062000140565b600288528a88208a94509190601f198416895b8d8282106200034857505084116200032e575b505050811b0160025562000155565b015160001960f88460031b161c191690553880806200031f565b8385015186558d979095019493840193016200030c565b909150600287528987208580850160051c8201928c8610620003a9575b918b91869594930160051c01915b8281106200039a5750506200012a565b8981558594508b91016200038a565b925081926200037c565b634e487b7160e01b86526022600452602486fd5b93607f169362000113565b634e487b7160e01b85526041600452602485fd5b600080fd5b6040519190601f01601f191682016001600160401b038111838210176200041157604052565b634e487b7160e01b600052604160045260246000fd5b51906001600160a01b0382168203620003e657565b919080601f84011215620003e65782516001600160401b038111620004115760209062000472601f8201601f19168301620003eb565b92818452828287010111620003e65760005b8181106200049a57508260009394955001015290565b85810183015184820184015282016200048456fe6040608081526004908136101561001557600080fd5b600090813560e01c928362f714ce14610bd257836301e1d11414610bb657836306fdde0314610ac157836307a2d13a14610abc5783630a28a47714610abc5783631021764e14610a7957836318160ddd14610a5b57836325637bca146105f1578363313ce567146105d657836338d52e0f146105935783636e553f65146103d957836370a08231146103a25783638da5cb5b1461037a57836395d89b4114610272578363b9d0ba9a1461024b578363c6e6f592146100f5578363cb01bc691461014057508263ceff3e48146100fa57505063ef8b30f7146100f557600080fd5b610ea2565b3461013c578160031936011261013c57517f00000000000000000000000000000000000000000000000000000000000000006001600160a01b03168152602090f35b5080fd5b90346102475760203660031901126102475761015a610de5565b6001546001600160a01b03906101739082163314610fa2565b84549181831661020457169283156101c157506001600160a01b03191682178355519081527f6899b6f66cad99bbcdecf0eb5c61513b7394a6f77da03746d7a45b26f5e10d9f90602090a180f35b606490602084519162461bcd60e51b8352820152601c60248201527f5465737365726163745661756c743a207a65726f2061646472657373000000006044820152fd5b835162461bcd60e51b8152602081870152601b60248201527f5465737365726163745661756c743a20616c72656164792073657400000000006044820152606490fd5b8280fd5b503461013c578160031936011261013c57905490516001600160a01b039091168152602090f35b91346103775780600319360112610377575080519060009260035460018160011c9160018116801561036d575b602094858510821461035a575083875290811561033a57506001146102df575b5050506102d1826102db940383610dfb565b5191829182610e33565b0390f35b600360009081529295507fc2575a0e9e593c00f959f8c92f12db2869c3395a3b0502d05e2516446f71f85b5b82841061032757505050826102db946102d192820101946102bf565b805486850188015292860192810161030b565b60ff1916868501525050151560051b83010192506102d1826102db6102bf565b634e487b7160e01b895260229052602488fd5b92607f169261029f565b80fd5b503461013c578160031936011261013c5760015490516001600160a01b039091168152602090f35b503461013c57602036600319011261013c5760209181906001600160a01b036103c9610de5565b1681526006845220549051908152f35b92503461013c578060031936011261013c578235916103f6610dca565b926103ff611054565b80156105505760055480610535575080935b61041c851515610ec0565b83516323b872dd60e01b81523387820152306024820152604481018390526020966001600160a01b0392918881606481897f000000000000000000000000000000000000000000000000000000000000000089165af1801561052b579087949392916104fe575b5061048f858254611024565b905561049d87600554611024565b600555169283815260068752206104b5858254611024565b9055825190815283858201527fdcbc1c05240f31ff3ad067ef1ee35ce4997762752e3a095284754544f4c709d7833392a360016000805160206110858339815191525551908152f35b61051d908a3d8c11610524575b6105158183610dfb565b810190610f62565b5038610483565b503d61050b565b87513d88823e3d90fd5b61054261054a9183610f0c565b865490610f35565b93610411565b825162461bcd60e51b8152602081870152601c60248201527f5465737365726163745661756c743a207a65726f206465706f736974000000006044820152606490fd5b503461013c578160031936011261013c57517f00000000000000000000000000000000000000000000000000000000000000006001600160a01b03168152602090f35b503461013c578160031936011261013c5760209051600a8152f35b92503461013c578060031936011261013c57823567ffffffffffffffff91828211610a575736602383011215610a575781850135838111610a535760249536878360051b86010111610a4f57863596858811610a4b5736602389011215610a4b5787820135928684116109565781890198828536920101116109565760018060a01b0390600161068683600154163314610fa2565b61068e611054565b8651638d29dffb60e01b8152878187817f000000000000000000000000000000000000000000000000000000000000000088165afa8015610a41578a908c906109f4575b64012a05f200925016111561099e578997838b54169081151580610995575b6108cb575b505086516347400c2360e01b815260208187015294927f00000000000000000000000000000000000000000000000000000000000000001691508690508480610742868201898f611003565b0381845afa9384156108c1578994610851575b50803b1561084d579188918261078b8a96958d8a5196878094819363d3b7e04d60e01b83526060898401528d6064840191611003565b8b8b51168983015260208b019b8c5116604483015203925af180156108435761081b575b5050507fca1a1d90c67d85f776af6bf1bf545c252e12b71e2ef6a49fca59d719cb730ad3969786806107fa935116935116938551978897168752608060208801526080870191611003565b9284015260608301520390a160016000805160206110858339815191525580f35b88839a949a116108325750508452958786806107af565b634e487b7160e01b84526041905282fd5b87513d8c823e3d90fd5b8880fd5b9093508581813d83116108ba575b6108698183610dfb565b8101031261084d578551908682018281108a8211176108a85761089c91602091895261089481610fee565b845201610fee565b60208201529238610755565b634e487b7160e01b8b5260418452848bfd5b503d61085f565b86513d8b823e3d90fd5b908b939499508851938492632651bae760e01b845286888501956020988997888d890152528960448701930191845b81811061096157505050509083809203925af19182156108c1578992610927575b505094388080806106f6565b90809250813d831161095a575b61093e8183610dfb565b810103126109565761094f90610fee565b388061091b565b8780fd5b503d610934565b9392965093509395508d853590811680910361099157888281928794520195019101908795938f938896936108fa565b8f80fd5b508315156106f1565b865162461bcd60e51b8152602081870152602b818601527f5465737365726163745661756c743a20696e73756666696369656e742077656960448201526a67687420666f722058434d60a81b6064820152608490fd5b50508781813d8311610a3a575b610a0b8183610dfb565b81010312610a36578981610a306020610a2964012a05f20095610fee565b9201610fee565b506106d2565b8a80fd5b503d610a01565b88513d8d823e3d90fd5b8680fd5b8580fd5b8480fd5b8380fd5b503461013c578160031936011261013c576020906005549051908152f35b503461013c578160031936011261013c57517f00000000000000000000000000000000000000000000000000000000000000006001600160a01b03168152602090f35b610e7c565b903461024757826003193601126102475780519183600254906001908260011c92600181168015610bac575b6020958686108214610b995750848852908115610b775750600114610b1e575b6102db86866102d1828b0383610dfb565b929550600283527f405787fa12a823e0f2b7631cc41b3ba8828b3321ca811111fa75cd3aa3bb5ace5b828410610b6457505050826102db946102d1928201019486610b0d565b8054868501880152928601928101610b47565b60ff191687860152505050151560051b83010192506102d1826102db86610b0d565b634e487b7160e01b845260229052602483fd5b93607f1693610aed565b3461024757826003193601126102475760209250549051908152f35b9034610247578060031936011261024757813591610bee610dca565b92610bf7611054565b610c02811515610ec0565b33855260209460068652818482205410610d7b57610c2d610c24845484610f0c565b60055490610f35565b948515610d3857908660449233835260068252868320610c4e868254610f55565b9055610c5c85600554610f55565b600555610c6a888754610f55565b8655865163a9059cbb60e01b81526001600160a01b0391821696810187905260248101899052938491829085907f0000000000000000000000000000000000000000000000000000000000000000165af1908115610d2d5750610d10575b50825190848252858201527ff341246adaac6f497bc2a656f546ab9e182111d630394f0c57c710a59a2cb567833392a360016000805160206110858339815191525551908152f35b610d2690863d8811610524576105158183610dfb565b5085610cc8565b8551903d90823e3d90fd5b845162461bcd60e51b8152808501889052601b60248201527f5465737365726163745661756c743a207a65726f2061737365747300000000006044820152606490fd5b835162461bcd60e51b8152808401879052602360248201527f5465737365726163745661756c743a20696e73756666696369656e742073686160448201526272657360e81b6064820152608490fd5b602435906001600160a01b0382168203610de057565b600080fd5b600435906001600160a01b0382168203610de057565b90601f8019910116810190811067ffffffffffffffff821117610e1d57604052565b634e487b7160e01b600052604160045260246000fd5b6020808252825181830181905290939260005b828110610e6857505060409293506000838284010152601f8019910116010190565b818101860151848201604001528501610e46565b34610de0576020366003190112610de0576020610e9a600435610f7a565b604051908152f35b34610de0576020366003190112610de0576020610e9a600435611031565b15610ec757565b60405162461bcd60e51b815260206004820152601b60248201527f5465737365726163745661756c743a207a65726f2073686172657300000000006044820152606490fd5b81810292918115918404141715610f1f57565b634e487b7160e01b600052601160045260246000fd5b8115610f3f570490565b634e487b7160e01b600052601260045260246000fd5b91908203918211610f1f57565b90816020910312610de057518015158103610de05790565b6005548015610f9b57610f93610f989260045490610f0c565b610f35565b90565b5050600090565b15610fa957565b60405162461bcd60e51b815260206004820152601960248201527f5465737365726163745661756c743a206e6f74206f776e6572000000000000006044820152606490fd5b519067ffffffffffffffff82168203610de057565b908060209392818452848401376000828201840152601f01601f1916010190565b91908201809211610f1f57565b60055480156110505761104790610f9892610f0c565b60045490610f35565b5090565b60008051602061108583398151915260028154146110725760029055565b604051633ee5aeb560e01b8152600490fdfe9b779b17422d0df92223018b32b4d1fa46e071723d6817e2486d003becc55f00a2646970667358221220cf8a95d5bd3366e8130e5fd776adc760ee79cf06dfe0f5bbd854aec91041f8de64736f6c63430008180033",
  "linkReferences": {},
  "deployedLinkReferences": {}
}