{"abi":[{"type":"constructor","inputs":[{"name":"_mUSDC","type":"address","internalType":"address"},{"name":"_oracle","type":"address","internalType":"address"}],"stateMutability":"nonpayable"},{"type":"receive","stateMutability":"payable"},{"type":"function","name":"MAX_FEE_BPS","inputs":[],"outputs":[{"name":"","type":"uint256","internalType":"uint256"}],"stateMutability":"view"},{"type":"function","name":"feeBps","inputs":[],"outputs":[{"name":"","type":"uint256","internalType":"uint256"}],"stateMutability":"view"},{"type":"function","name":"fundReserve","inputs":[{"name":"amount","type":"uint256","internalType":"uint256"}],"outputs":[],"stateMutability":"nonpayable"},{"type":"function","name":"mUSDC","inputs":[],"outputs":[{"name":"","type":"address","internalType":"contract IERC20"}],"stateMutability":"view"},{"type":"function","name":"oracle","inputs":[],"outputs":[{"name":"","type":"address","internalType":"contract IPASOracleExtended"}],"stateMutability":"view"},{"type":"function","name":"owner","inputs":[],"outputs":[{"name":"","type":"address","internalType":"address"}],"stateMutability":"view"},{"type":"function","name":"quoteSwap","inputs":[{"name":"pasWei","type":"uint256","internalType":"uint256"}],"outputs":[{"name":"mUSDCOut","type":"uint256","internalType":"uint256"}],"stateMutability":"view"},{"type":"function","name":"renounceOwnership","inputs":[],"outputs":[],"stateMutability":"nonpayable"},{"type":"function","name":"reserveBalance","inputs":[],"outputs":[{"name":"","type":"uint256","internalType":"uint256"}],"stateMutability":"view"},{"type":"function","name":"setFee","inputs":[{"name":"newFeeBps","type":"uint256","internalType":"uint256"}],"outputs":[],"stateMutability":"nonpayable"},{"type":"function","name":"swap","inputs":[{"name":"minMUSDCOut","type":"uint256","internalType":"uint256"}],"outputs":[],"stateMutability":"payable"},{"type":"function","name":"transferOwnership","inputs":[{"name":"newOwner","type":"address","internalType":"address"}],"outputs":[],"stateMutability":"nonpayable"},{"type":"function","name":"withdrawPAS","inputs":[],"outputs":[],"stateMutability":"nonpayable"},{"type":"function","name":"withdrawReserve","inputs":[{"name":"amount","type":"uint256","internalType":"uint256"}],"outputs":[],"stateMutability":"nonpayable"},{"type":"event","name":"OwnershipTransferred","inputs":[{"name":"previousOwner","type":"address","indexed":true,"internalType":"address"},{"name":"newOwner","type":"address","indexed":true,"internalType":"address"}],"anonymous":false},{"type":"event","name":"ReserveFunded","inputs":[{"name":"by","type":"address","indexed":true,"internalType":"address"},{"name":"amount","type":"uint256","indexed":false,"internalType":"uint256"}],"anonymous":false},{"type":"event","name":"Swapped","inputs":[{"name":"user","type":"address","indexed":true,"internalType":"address"},{"name":"pasWei","type":"uint256","indexed":false,"internalType":"uint256"},{"name":"mUSDCOut","type":"uint256","indexed":false,"internalType":"uint256"}],"anonymous":false},{"type":"error","name":"OwnableInvalidOwner","inputs":[{"name":"owner","type":"address","internalType":"address"}]},{"type":"error","name":"OwnableUnauthorizedAccount","inputs":[{"name":"account","type":"address","internalType":"address"}]},{"type":"error","name":"ReentrancyGuardReentrantCall","inputs":[]}],"bytecode":{"object":"0x60c03461017a57601f610cfe38819003918201601f19168301916001600160401b0383118484101761017e57808492604094855283398101031261017a57610052602061004b83610192565b9201610192565b3315610162575f8054336001600160a01b03198216811783556040516001600160a01b0395909386939192918416907f8be0079c531659141344cd1fd0a4f28419497f9722a3daafe3b4186f6b6457e09080a360017f9b779b17422d0df92223018b32b4d1fa46e071723d6817e2486d003becc55f0055601e600155169081151580610157575b1561012957506080521660a052604051610b5790816101a7823960805181818160dc015281816103340152818161050a015281816106d00152610a32015260a05181818161048901526108820152f35b62461bcd60e51b81526020600482015260096024820152683d32b9379030b2323960b91b6044820152606490fd5b5083831615156100d9565b604051631e4fbdf760e01b81525f6004820152602490fd5b5f80fd5b634e487b7160e01b5f52604160045260245ffd5b51906001600160a01b038216820361017a5756fe6080604090808252600480361015610021575b505050361561001f575f80fd5b005b5f3560e01c91826324a9d85314610744575081633e696f381461066b5781635d9a75da1461064d57816369fe0e2d146105ee578163715018a61461059757816375c54224146104b85781637dc0d1d0146104755781638da5cb5b1461044e57816394b918de146102d657816396b8c1de146101dc578163a10954fe146101b9578163d55be8c61461019e578163f2fde38b1461010f575063f89ec5f5146100c9578080610012565b3461010b575f36600319011261010b57517f00000000000000000000000000000000000000000000000000000000000000006001600160a01b03168152602090f35b5f80fd5b823461010b57602036600319011261010b576001600160a01b0382358181169391929084900361010b57610141610aa7565b83156101885750505f54826bffffffffffffffffffffffff60a01b8216175f55167f8be0079c531659141344cd1fd0a4f28419497f9722a3daafe3b4186f6b6457e05f80a3005b905f6024925191631e4fbdf760e01b8352820152fd5b823461010b575f36600319011261010b576020905160648152f35b823461010b575f36600319011261010b576020906101d5610a17565b9051908152f35b90503461010b575f36600319011261010b576101f6610aa7565b6101fe610ad2565b4780156102aa575f80808093335af13d156102a5573d67ffffffffffffffff81116102925783519061023a601f8201601f191660200183610798565b81525f60203d92013e5b1561025c5760015f80516020610b0283398151915255005b6020606492519162461bcd60e51b835282015260116024820152701c185cc81d1c985b9cd9995c8819985a5b607a1b6044820152fd5b604183634e487b7160e01b5f525260245ffd5b610244565b506020606492519162461bcd60e51b835282015260066024820152656e6f2070617360d01b6044820152fd5b6020833660031901821361010b576102ec610ad2565b6102f534610860565b833581106104205780610306610a17565b106103ef57815163a9059cbb60e01b815233948101948552602085018290529383908590819060400103815f7f00000000000000000000000000000000000000000000000000000000000000006001600160a01b03165af19384156103e5577f3a9a9f34f5831e9c8ecb66ab3aa308b2ff31eaca434615f6c9cadc656a9af71c9394610399915f916103b8575b506107e6565b8151933485528401523392a260015f80516020610b0283398151915255005b6103d89150863d88116103de575b6103d08183610798565b8101906107ce565b86610393565b503d6103c6565b82513d5f823e3d90fd5b815162461bcd60e51b8152808501849052600b60248201526a72657365727665206c6f7760a81b6044820152606490fd5b815162461bcd60e51b81528085018490526008602482015267736c69707061676560c01b6044820152606490fd5b823461010b575f36600319011261010b575f5490516001600160a01b039091168152602090f35b823461010b575f36600319011261010b57517f00000000000000000000000000000000000000000000000000000000000000006001600160a01b03168152602090f35b823461010b57602036600319011261010b578135916104d5610aa7565b6104e083151561075e565b81516323b872dd60e01b81523391810191909152306024820152604481018390526020816064815f7f00000000000000000000000000000000000000000000000000000000000000006001600160a01b03165af19081156103e5579061054c915f9161057857506107e6565b519081527fb52b99b9e83551fcbd069b559cc3e823e2a1a3bad8ece46561ea77524394c85060203392a2005b610591915060203d6020116103de576103d08183610798565b84610393565b3461010b575f36600319011261010b576105af610aa7565b5f80546001600160a01b0319811682556001600160a01b03167f8be0079c531659141344cd1fd0a4f28419497f9722a3daafe3b4186f6b6457e08280a3005b90503461010b57602036600319011261010b5780359161060c610aa7565b6064831161061b576001839055005b906020606492519162461bcd60e51b8352820152600c60248201526b0cccaca40e8dede40d0d2ced60a31b6044820152fd5b823461010b57602036600319011261010b576101d560209235610860565b90503461010b57602036600319011261010b576020816106cb92359061068f610aa7565b610697610ad2565b6106a282151561075e565b845163a9059cbb60e01b8152339181019182526020820192909252909283918291604090910190565b03815f7f00000000000000000000000000000000000000000000000000000000000000006001600160a01b03165af19081156103e55761071292505f9161072557506107e6565b60015f80516020610b0283398151915255005b61073e915060203d6020116103de576103d08183610798565b5f610393565b3461010b575f36600319011261010b576020906001548152f35b1561076557565b60405162461bcd60e51b815260206004820152600b60248201526a1e995c9bc8185b5bdd5b9d60aa1b6044820152606490fd5b90601f8019910116810190811067ffffffffffffffff8211176107ba57604052565b634e487b7160e01b5f52604160045260245ffd5b9081602091031261010b5751801515810361010b5790565b156107ed57565b60405162461bcd60e51b815260206004820152600d60248201526c1d1c985b9cd9995c8819985a5b609a1b6044820152606490fd5b519069ffffffffffffffffffff8216820361010b57565b8181029291811591840414171561084c57565b634e487b7160e01b5f52601160045260245ffd5b9061086c82151561075e565b60408051636790ed1760e01b81529092906020907f00000000000000000000000000000000000000000000000000000000000000006001600160a01b0316908281600481855afa908115610a0d575f916109f0575b506109bb579360a060049495825195868092633fabe5a360e21b82525afa9384156109b1575f94610963575b505f84131561092957505068056bc75e2d631000009161090c91610839565b0461271061091c60015483610839565b04810390811161084c5790565b60649250519062461bcd60e51b8252600482015260146024820152731bdc9858db19481c1c9a58d9481a5b9d985b1a5960621b6044820152fd5b90935060a0813d60a0116109a9575b8161097f60a09383610798565b8101031261010b5761099081610822565b506109a16080838301519201610822565b50925f6108ed565b3d9150610972565b50513d5f823e3d90fd5b845162461bcd60e51b815260048101839052600e60248201526d1bdc9858db194818dc985cda195960921b6044820152606490fd5b610a079150833d85116103de576103d08183610798565b5f6108c1565b86513d5f823e3d90fd5b6040516370a0823160e01b81523060048201526020816024817f00000000000000000000000000000000000000000000000000000000000000006001600160a01b03165afa908115610a9c575f91610a6d575090565b90506020813d602011610a94575b81610a8860209383610798565b8101031261010b575190565b3d9150610a7b565b6040513d5f823e3d90fd5b5f546001600160a01b03163303610aba57565b60405163118cdaa760e01b8152336004820152602490fd5b5f80516020610b028339815191526002815414610aef5760029055565b604051633ee5aeb560e01b8152600490fdfe9b779b17422d0df92223018b32b4d1fa46e071723d6817e2486d003becc55f00a2646970667358221220503da9ed52fe61bf44953cfdd53561576a3818464494d8e468aa50132963f43f64736f6c63430008180033","linkReferences":{}},"methodIdentifiers":{"MAX_FEE_BPS()":"d55be8c6","feeBps()":"24a9d853","fundReserve(uint256)":"75c54224","mUSDC()":"f89ec5f5","oracle()":"7dc0d1d0","owner()":"8da5cb5b","quoteSwap(uint256)":"5d9a75da","renounceOwnership()":"715018a6","reserveBalance()":"a10954fe","setFee(uint256)":"69fe0e2d","swap(uint256)":"94b918de","transferOwnership(address)":"f2fde38b","withdrawPAS()":"96b8c1de","withdrawReserve(uint256)":"3e696f38"},"id":6}