{"abi":[{"type":"constructor","inputs":[],"stateMutability":"nonpayable"},{"type":"receive","stateMutability":"payable"},{"type":"function","name":"MAX_DEPOSIT","inputs":[],"outputs":[{"name":"","type":"uint256","internalType":"uint256"}],"stateMutability":"view"},{"type":"function","name":"MIN_DEPOSIT","inputs":[],"outputs":[{"name":"","type":"uint256","internalType":"uint256"}],"stateMutability":"view"},{"type":"function","name":"adminWithdraw","inputs":[{"name":"to","type":"address","internalType":"address payable"},{"name":"amount","type":"uint256","internalType":"uint256"}],"outputs":[],"stateMutability":"nonpayable"},{"type":"function","name":"deposit","inputs":[{"name":"hubRecipient","type":"bytes32","internalType":"bytes32"}],"outputs":[],"stateMutability":"payable"},{"type":"function","name":"depositCount","inputs":[],"outputs":[{"name":"","type":"uint256","internalType":"uint256"}],"stateMutability":"view"},{"type":"function","name":"deposits","inputs":[{"name":"","type":"uint256","internalType":"uint256"}],"outputs":[{"name":"depositor","type":"address","internalType":"address"},{"name":"amount","type":"uint256","internalType":"uint256"},{"name":"hubRecipient","type":"bytes32","internalType":"bytes32"},{"name":"timestamp","type":"uint256","internalType":"uint256"}],"stateMutability":"view"},{"type":"function","name":"lockedBalance","inputs":[],"outputs":[{"name":"","type":"uint256","internalType":"uint256"}],"stateMutability":"view"},{"type":"function","name":"owner","inputs":[],"outputs":[{"name":"","type":"address","internalType":"address"}],"stateMutability":"view"},{"type":"event","name":"AdminWithdraw","inputs":[{"name":"to","type":"address","indexed":true,"internalType":"address"},{"name":"amount","type":"uint256","indexed":false,"internalType":"uint256"}],"anonymous":false},{"type":"event","name":"EthDeposited","inputs":[{"name":"depositId","type":"uint256","indexed":true,"internalType":"uint256"},{"name":"from","type":"address","indexed":true,"internalType":"address"},{"name":"amount","type":"uint256","indexed":false,"internalType":"uint256"},{"name":"hubRecipient","type":"bytes32","indexed":true,"internalType":"bytes32"}],"anonymous":false},{"type":"error","name":"AmountOutOfRange","inputs":[{"name":"sent","type":"uint256","internalType":"uint256"},{"name":"min","type":"uint256","internalType":"uint256"},{"name":"max","type":"uint256","internalType":"uint256"}]},{"type":"error","name":"InsufficientBalance","inputs":[{"name":"requested","type":"uint256","internalType":"uint256"},{"name":"available","type":"uint256","internalType":"uint256"}]},{"type":"error","name":"NotOwner","inputs":[]},{"type":"error","name":"TransferFailed","inputs":[]},{"type":"error","name":"ZeroAddress","inputs":[]},{"type":"error","name":"ZeroRecipient","inputs":[]}],"bytecode":{"object":"0x60a0806040523461002a5733608052610494908161002f82396080518181816102ae01526103260152f35b5f80fdfe608060409080825260049081361015610050575b50361561001e575f80fd5b6020606492519162461bcd60e51b8352820152600d60248201526c757365206465706f736974282960981b6044820152fd5b5f3560e01c9081632dfdf0b51461044557508063401d4482146102f75780637b80889b146102dd5780638da5cb5b1461029a578063b02c43d014610248578063b214faa5146100fb578063dd5967c3146100d95763e1e158a5146100b4575f610013565b50346100d5575f3660031901126100d5576020905166038d7ea4c680008152f35b5f80fd5b82346100d5575f3660031901126100d55760209051670de0b6b3a76400008152f35b5060203660031901126100d55780359166038d7ea4c680008034108015610237575b61020d57508215610200575f54915f1983146101ed57600183015f55815190608082019082821067ffffffffffffffff8311176101da575082523381526003602082013481528383018681526060840191428352865f526001602052855f209460018060a01b039051166bffffffffffffffffffffffff60a01b8654161785555160018501555160028401555191015551903482527f3243d458fb46e9930a381c9b533feaa8c24c6619665e1490f99a00c86841671260203393a4005b604190634e487b7160e01b5f525260245ffd5b601190634e487b7160e01b5f525260245ffd5b5163d27b444360e01b8152fd5b60649291519163a8cc372f60e01b835234908301526024820152670de0b6b3a76400006044820152fd5b50670de0b6b3a7640000341161011d565b5090346100d55760203660031901126100d557608091355f526001602052805f209060018060a01b03825416916001810154916003600283015492015492815194855260208501528301526060820152f35b82346100d5575f3660031901126100d557517f00000000000000000000000000000000000000000000000000000000000000006001600160a01b03168152602090f35b82346100d5575f3660031901126100d55751478152602090f35b50346100d557816003193601126100d5576001600160a01b038135818116939192908490036100d557602435927f00000000000000000000000000000000000000000000000000000000000000001633036104375783156104295747831161040d575f80808086885af13d156104085767ffffffffffffffff3d8181116103f557845191601f8201601f19908116603f01168301908111838210176103e257855281525f60203d92013e5b156103d457507fba443e8671971c36cdeb74f87321041daff421230cbc5e36cb835269ed1d8b7e9160209151908152a2005b90516312171d8360e31b8152fd5b604185634e487b7160e01b5f525260245ffd5b604184634e487b7160e01b5f525260245ffd5b6103a2565b906044924791519263cf47918160e01b84528301526024820152fd5b905163d92e233d60e01b8152fd5b90516330cd747160e01b8152fd5b346100d5575f3660031901126100d5576020905f548152f3fea2646970667358221220e2699cc4ba861c2b8cd105ed3ed32a170850fb5aae81906e8889dfee6ea92d7164736f6c63430008180033","linkReferences":{}},"methodIdentifiers":{"MAX_DEPOSIT()":"dd5967c3","MIN_DEPOSIT()":"e1e158a5","adminWithdraw(address,uint256)":"401d4482","deposit(bytes32)":"b214faa5","depositCount()":"2dfdf0b5","deposits(uint256)":"b02c43d0","lockedBalance()":"7b80889b","owner()":"8da5cb5b"},"id":0}